{
	"person.sol": {
		"Person": {
			"abi": [
				{
					"inputs": [],
					"name": "getFullName",
					"outputs": [
						{
							"internalType": "string",
							"name": "",
							"type": "string"
						}
					],
					"stateMutability": "view",
					"type": "function"
				},
				{
					"inputs": [
						{
							"internalType": "string",
							"name": "_firstName",
							"type": "string"
						},
						{
							"internalType": "string",
							"name": "_lastName",
							"type": "string"
						}
					],
					"name": "setFullName",
					"outputs": [],
					"stateMutability": "nonpayable",
					"type": "function"
				}
			],
			"devdoc": {
				"kind": "dev",
				"methods": {},
				"version": 1
			},
			"evm": {
				"assembly": "    /* \"person.sol\":61:406  contract Person {... */\n  mstore(0x40, 0x80)\n  callvalue\n  dup1\n  iszero\n  tag_1\n  jumpi\n  0x00\n  dup1\n  revert\ntag_1:\n  pop\n  dataSize(sub_0)\n  dup1\n  dataOffset(sub_0)\n  0x00\n  codecopy\n  0x00\n  return\nstop\n\nsub_0: assembly {\n        /* \"person.sol\":61:406  contract Person {... */\n      mstore(0x40, 0x80)\n      callvalue\n      dup1\n      iszero\n      tag_1\n      jumpi\n      0x00\n      dup1\n      revert\n    tag_1:\n      pop\n      jumpi(tag_2, lt(calldatasize, 0x04))\n      shr(0xe0, calldataload(0x00))\n      dup1\n      0x0213629e\n      eq\n      tag_3\n      jumpi\n      dup1\n      0x8c160186\n      eq\n      tag_4\n      jumpi\n    tag_2:\n      0x00\n      dup1\n      revert\n        /* \"person.sol\":126:269  function setFullName(string calldata _firstName, string calldata _lastName) public{... */\n    tag_3:\n      tag_5\n      0x04\n      dup1\n      calldatasize\n      sub\n      dup2\n      add\n      swap1\n      tag_6\n      swap2\n      swap1\n      tag_7\n      jump\t// in\n    tag_6:\n      tag_8\n      jump\t// in\n    tag_5:\n      stop\n        /* \"person.sol\":277:403  function getFullName() public view returns (string memory){... */\n    tag_4:\n      tag_9\n      tag_10\n      jump\t// in\n    tag_9:\n      mload(0x40)\n      tag_11\n      swap2\n      swap1\n      tag_12\n      jump\t// in\n    tag_11:\n      mload(0x40)\n      dup1\n      swap2\n      sub\n      swap1\n      return\n        /* \"person.sol\":126:269  function setFullName(string calldata _firstName, string calldata _lastName) public{... */\n    tag_8:\n        /* \"person.sol\":225:235  _firstName */\n      dup4\n      dup4\n        /* \"person.sol\":219:224  fName */\n      0x00\n        /* \"person.sol\":219:235  fName=_firstName */\n      swap2\n      dup3\n      tag_14\n      swap3\n      swap2\n      swap1\n      tag_15\n      jump\t// in\n    tag_14:\n      pop\n        /* \"person.sol\":252:261  _lastName */\n      dup2\n      dup2\n        /* \"person.sol\":246:251  lName */\n      0x01\n        /* \"person.sol\":246:261  lName=_lastName */\n      swap2\n      dup3\n      tag_16\n      swap3\n      swap2\n      swap1\n      tag_15\n      jump\t// in\n    tag_16:\n      pop\n        /* \"person.sol\":126:269  function setFullName(string calldata _firstName, string calldata _lastName) public{... */\n      pop\n      pop\n      pop\n      pop\n      jump\t// out\n        /* \"person.sol\":277:403  function getFullName() public view returns (string memory){... */\n    tag_10:\n        /* \"person.sol\":321:334  string memory */\n      0x60\n        /* \"person.sol\":376:381  fName */\n      0x00\n        /* \"person.sol\":388:393  lName */\n      0x01\n        /* \"person.sol\":359:394  abi.encodePacked(fName, \" \", lName) */\n      add(0x20, mload(0x40))\n      tag_18\n      swap3\n      swap2\n      swap1\n      tag_19\n      jump\t// in\n    tag_18:\n      mload(0x40)\n      0x20\n      dup2\n      dup4\n      sub\n      sub\n      dup2\n      mstore\n      swap1\n      0x40\n      mstore\n        /* \"person.sol\":345:395  return string(abi.encodePacked(fName, \" \", lName)) */\n      swap1\n      pop\n        /* \"person.sol\":277:403  function getFullName() public view returns (string memory){... */\n      swap1\n      jump\t// out\n        /* \"#utility.yul\":88:205   */\n    tag_21:\n        /* \"#utility.yul\":197:198   */\n      0x00\n        /* \"#utility.yul\":194:195   */\n      dup1\n        /* \"#utility.yul\":187:199   */\n      revert\n        /* \"#utility.yul\":211:328   */\n    tag_22:\n        /* \"#utility.yul\":320:321   */\n      0x00\n        /* \"#utility.yul\":317:318   */\n      dup1\n        /* \"#utility.yul\":310:322   */\n      revert\n        /* \"#utility.yul\":334:451   */\n    tag_23:\n        /* \"#utility.yul\":443:444   */\n      0x00\n        /* \"#utility.yul\":440:441   */\n      dup1\n        /* \"#utility.yul\":433:445   */\n      revert\n        /* \"#utility.yul\":457:574   */\n    tag_24:\n        /* \"#utility.yul\":566:567   */\n      0x00\n        /* \"#utility.yul\":563:564   */\n      dup1\n        /* \"#utility.yul\":556:568   */\n      revert\n        /* \"#utility.yul\":580:697   */\n    tag_25:\n        /* \"#utility.yul\":689:690   */\n      0x00\n        /* \"#utility.yul\":686:687   */\n      dup1\n        /* \"#utility.yul\":679:691   */\n      revert\n        /* \"#utility.yul\":717:1270   */\n    tag_26:\n        /* \"#utility.yul\":775:783   */\n      0x00\n        /* \"#utility.yul\":785:791   */\n      dup1\n        /* \"#utility.yul\":835:838   */\n      dup4\n        /* \"#utility.yul\":828:832   */\n      0x1f\n        /* \"#utility.yul\":820:826   */\n      dup5\n        /* \"#utility.yul\":816:833   */\n      add\n        /* \"#utility.yul\":812:839   */\n      slt\n        /* \"#utility.yul\":802:924   */\n      tag_64\n      jumpi\n        /* \"#utility.yul\":843:922   */\n      tag_65\n      tag_23\n      jump\t// in\n    tag_65:\n        /* \"#utility.yul\":802:924   */\n    tag_64:\n        /* \"#utility.yul\":956:962   */\n      dup3\n        /* \"#utility.yul\":943:963   */\n      calldataload\n        /* \"#utility.yul\":933:963   */\n      swap1\n      pop\n        /* \"#utility.yul\":986:1004   */\n      0xffffffffffffffff\n        /* \"#utility.yul\":978:984   */\n      dup2\n        /* \"#utility.yul\":975:1005   */\n      gt\n        /* \"#utility.yul\":972:1089   */\n      iszero\n      tag_66\n      jumpi\n        /* \"#utility.yul\":1008:1087   */\n      tag_67\n      tag_24\n      jump\t// in\n    tag_67:\n        /* \"#utility.yul\":972:1089   */\n    tag_66:\n        /* \"#utility.yul\":1122:1126   */\n      0x20\n        /* \"#utility.yul\":1114:1120   */\n      dup4\n        /* \"#utility.yul\":1110:1127   */\n      add\n        /* \"#utility.yul\":1098:1127   */\n      swap2\n      pop\n        /* \"#utility.yul\":1176:1179   */\n      dup4\n        /* \"#utility.yul\":1168:1172   */\n      0x01\n        /* \"#utility.yul\":1160:1166   */\n      dup3\n        /* \"#utility.yul\":1156:1173   */\n      mul\n        /* \"#utility.yul\":1146:1154   */\n      dup4\n        /* \"#utility.yul\":1142:1174   */\n      add\n        /* \"#utility.yul\":1139:1180   */\n      gt\n        /* \"#utility.yul\":1136:1264   */\n      iszero\n      tag_68\n      jumpi\n        /* \"#utility.yul\":1183:1262   */\n      tag_69\n      tag_25\n      jump\t// in\n    tag_69:\n        /* \"#utility.yul\":1136:1264   */\n    tag_68:\n        /* \"#utility.yul\":717:1270   */\n      swap3\n      pop\n      swap3\n      swap1\n      pop\n      jump\t// out\n        /* \"#utility.yul\":1276:2150   */\n    tag_7:\n        /* \"#utility.yul\":1368:1374   */\n      0x00\n        /* \"#utility.yul\":1376:1382   */\n      dup1\n        /* \"#utility.yul\":1384:1390   */\n      0x00\n        /* \"#utility.yul\":1392:1398   */\n      dup1\n        /* \"#utility.yul\":1441:1443   */\n      0x40\n        /* \"#utility.yul\":1429:1438   */\n      dup6\n        /* \"#utility.yul\":1420:1427   */\n      dup8\n        /* \"#utility.yul\":1416:1439   */\n      sub\n        /* \"#utility.yul\":1412:1444   */\n      slt\n        /* \"#utility.yul\":1409:1528   */\n      iszero\n      tag_71\n      jumpi\n        /* \"#utility.yul\":1447:1526   */\n      tag_72\n      tag_21\n      jump\t// in\n    tag_72:\n        /* \"#utility.yul\":1409:1528   */\n    tag_71:\n        /* \"#utility.yul\":1595:1596   */\n      0x00\n        /* \"#utility.yul\":1584:1593   */\n      dup6\n        /* \"#utility.yul\":1580:1597   */\n      add\n        /* \"#utility.yul\":1567:1598   */\n      calldataload\n        /* \"#utility.yul\":1625:1643   */\n      0xffffffffffffffff\n        /* \"#utility.yul\":1617:1623   */\n      dup2\n        /* \"#utility.yul\":1614:1644   */\n      gt\n        /* \"#utility.yul\":1611:1728   */\n      iszero\n      tag_73\n      jumpi\n        /* \"#utility.yul\":1647:1726   */\n      tag_74\n      tag_22\n      jump\t// in\n    tag_74:\n        /* \"#utility.yul\":1611:1728   */\n    tag_73:\n        /* \"#utility.yul\":1760:1825   */\n      tag_75\n        /* \"#utility.yul\":1817:1824   */\n      dup8\n        /* \"#utility.yul\":1808:1814   */\n      dup3\n        /* \"#utility.yul\":1797:1806   */\n      dup9\n        /* \"#utility.yul\":1793:1815   */\n      add\n        /* \"#utility.yul\":1760:1825   */\n      tag_26\n      jump\t// in\n    tag_75:\n        /* \"#utility.yul\":1742:1825   */\n      swap5\n      pop\n      swap5\n      pop\n        /* \"#utility.yul\":1538:1835   */\n      pop\n        /* \"#utility.yul\":1902:1904   */\n      0x20\n        /* \"#utility.yul\":1891:1900   */\n      dup6\n        /* \"#utility.yul\":1887:1905   */\n      add\n        /* \"#utility.yul\":1874:1906   */\n      calldataload\n        /* \"#utility.yul\":1933:1951   */\n      0xffffffffffffffff\n        /* \"#utility.yul\":1925:1931   */\n      dup2\n        /* \"#utility.yul\":1922:1952   */\n      gt\n        /* \"#utility.yul\":1919:2036   */\n      iszero\n      tag_76\n      jumpi\n        /* \"#utility.yul\":1955:2034   */\n      tag_77\n      tag_22\n      jump\t// in\n    tag_77:\n        /* \"#utility.yul\":1919:2036   */\n    tag_76:\n        /* \"#utility.yul\":2068:2133   */\n      tag_78\n        /* \"#utility.yul\":2125:2132   */\n      dup8\n        /* \"#utility.yul\":2116:2122   */\n      dup3\n        /* \"#utility.yul\":2105:2114   */\n      dup9\n        /* \"#utility.yul\":2101:2123   */\n      add\n        /* \"#utility.yul\":2068:2133   */\n      tag_26\n      jump\t// in\n    tag_78:\n        /* \"#utility.yul\":2050:2133   */\n      swap3\n      pop\n      swap3\n      pop\n        /* \"#utility.yul\":1845:2143   */\n      pop\n        /* \"#utility.yul\":1276:2150   */\n      swap3\n      swap6\n      swap2\n      swap5\n      pop\n      swap3\n      pop\n      jump\t// out\n        /* \"#utility.yul\":2156:2255   */\n    tag_27:\n        /* \"#utility.yul\":2208:2214   */\n      0x00\n        /* \"#utility.yul\":2242:2247   */\n      dup2\n        /* \"#utility.yul\":2236:2248   */\n      mload\n        /* \"#utility.yul\":2226:2248   */\n      swap1\n      pop\n        /* \"#utility.yul\":2156:2255   */\n      swap2\n      swap1\n      pop\n      jump\t// out\n        /* \"#utility.yul\":2261:2430   */\n    tag_28:\n        /* \"#utility.yul\":2345:2356   */\n      0x00\n        /* \"#utility.yul\":2379:2385   */\n      dup3\n        /* \"#utility.yul\":2374:2377   */\n      dup3\n        /* \"#utility.yul\":2367:2386   */\n      mstore\n        /* \"#utility.yul\":2419:2423   */\n      0x20\n        /* \"#utility.yul\":2414:2417   */\n      dup3\n        /* \"#utility.yul\":2410:2424   */\n      add\n        /* \"#utility.yul\":2395:2424   */\n      swap1\n      pop\n        /* \"#utility.yul\":2261:2430   */\n      swap3\n      swap2\n      pop\n      pop\n      jump\t// out\n        /* \"#utility.yul\":2436:2682   */\n    tag_29:\n        /* \"#utility.yul\":2517:2518   */\n      0x00\n        /* \"#utility.yul\":2527:2640   */\n    tag_82:\n        /* \"#utility.yul\":2541:2547   */\n      dup4\n        /* \"#utility.yul\":2538:2539   */\n      dup2\n        /* \"#utility.yul\":2535:2548   */\n      lt\n        /* \"#utility.yul\":2527:2640   */\n      iszero\n      tag_84\n      jumpi\n        /* \"#utility.yul\":2626:2627   */\n      dup1\n        /* \"#utility.yul\":2621:2624   */\n      dup3\n        /* \"#utility.yul\":2617:2628   */\n      add\n        /* \"#utility.yul\":2611:2629   */\n      mload\n        /* \"#utility.yul\":2607:2608   */\n      dup2\n        /* \"#utility.yul\":2602:2605   */\n      dup5\n        /* \"#utility.yul\":2598:2609   */\n      add\n        /* \"#utility.yul\":2591:2630   */\n      mstore\n        /* \"#utility.yul\":2563:2565   */\n      0x20\n        /* \"#utility.yul\":2560:2561   */\n      dup2\n        /* \"#utility.yul\":2556:2566   */\n      add\n        /* \"#utility.yul\":2551:2566   */\n      swap1\n      pop\n        /* \"#utility.yul\":2527:2640   */\n      jump(tag_82)\n    tag_84:\n        /* \"#utility.yul\":2674:2675   */\n      0x00\n        /* \"#utility.yul\":2665:2671   */\n      dup5\n        /* \"#utility.yul\":2660:2663   */\n      dup5\n        /* \"#utility.yul\":2656:2672   */\n      add\n        /* \"#utility.yul\":2649:2676   */\n      mstore\n        /* \"#utility.yul\":2498:2682   */\n      pop\n        /* \"#utility.yul\":2436:2682   */\n      pop\n      pop\n      pop\n      jump\t// out\n        /* \"#utility.yul\":2688:2790   */\n    tag_30:\n        /* \"#utility.yul\":2729:2735   */\n      0x00\n        /* \"#utility.yul\":2780:2782   */\n      0x1f\n        /* \"#utility.yul\":2776:2783   */\n      not\n        /* \"#utility.yul\":2771:2773   */\n      0x1f\n        /* \"#utility.yul\":2764:2769   */\n      dup4\n        /* \"#utility.yul\":2760:2774   */\n      add\n        /* \"#utility.yul\":2756:2784   */\n      and\n        /* \"#utility.yul\":2746:2784   */\n      swap1\n      pop\n        /* \"#utility.yul\":2688:2790   */\n      swap2\n      swap1\n      pop\n      jump\t// out\n        /* \"#utility.yul\":2796:3173   */\n    tag_31:\n        /* \"#utility.yul\":2884:2887   */\n      0x00\n        /* \"#utility.yul\":2912:2951   */\n      tag_87\n        /* \"#utility.yul\":2945:2950   */\n      dup3\n        /* \"#utility.yul\":2912:2951   */\n      tag_27\n      jump\t// in\n    tag_87:\n        /* \"#utility.yul\":2967:3038   */\n      tag_88\n        /* \"#utility.yul\":3031:3037   */\n      dup2\n        /* \"#utility.yul\":3026:3029   */\n      dup6\n        /* \"#utility.yul\":2967:3038   */\n      tag_28\n      jump\t// in\n    tag_88:\n        /* \"#utility.yul\":2960:3038   */\n      swap4\n      pop\n        /* \"#utility.yul\":3047:3112   */\n      tag_89\n        /* \"#utility.yul\":3105:3111   */\n      dup2\n        /* \"#utility.yul\":3100:3103   */\n      dup6\n        /* \"#utility.yul\":3093:3097   */\n      0x20\n        /* \"#utility.yul\":3086:3091   */\n      dup7\n        /* \"#utility.yul\":3082:3098   */\n      add\n        /* \"#utility.yul\":3047:3112   */\n      tag_29\n      jump\t// in\n    tag_89:\n        /* \"#utility.yul\":3137:3166   */\n      tag_90\n        /* \"#utility.yul\":3159:3165   */\n      dup2\n        /* \"#utility.yul\":3137:3166   */\n      tag_30\n      jump\t// in\n    tag_90:\n        /* \"#utility.yul\":3132:3135   */\n      dup5\n        /* \"#utility.yul\":3128:3167   */\n      add\n        /* \"#utility.yul\":3121:3167   */\n      swap2\n      pop\n        /* \"#utility.yul\":2888:3173   */\n      pop\n        /* \"#utility.yul\":2796:3173   */\n      swap3\n      swap2\n      pop\n      pop\n      jump\t// out\n        /* \"#utility.yul\":3179:3492   */\n    tag_12:\n        /* \"#utility.yul\":3292:3296   */\n      0x00\n        /* \"#utility.yul\":3330:3332   */\n      0x20\n        /* \"#utility.yul\":3319:3328   */\n      dup3\n        /* \"#utility.yul\":3315:3333   */\n      add\n        /* \"#utility.yul\":3307:3333   */\n      swap1\n      pop\n        /* \"#utility.yul\":3379:3388   */\n      dup2\n        /* \"#utility.yul\":3373:3377   */\n      dup2\n        /* \"#utility.yul\":3369:3389   */\n      sub\n        /* \"#utility.yul\":3365:3366   */\n      0x00\n        /* \"#utility.yul\":3354:3363   */\n      dup4\n        /* \"#utility.yul\":3350:3367   */\n      add\n        /* \"#utility.yul\":3343:3390   */\n      mstore\n        /* \"#utility.yul\":3407:3485   */\n      tag_92\n        /* \"#utility.yul\":3480:3484   */\n      dup2\n        /* \"#utility.yul\":3471:3477   */\n      dup5\n        /* \"#utility.yul\":3407:3485   */\n      tag_31\n      jump\t// in\n    tag_92:\n        /* \"#utility.yul\":3399:3485   */\n      swap1\n      pop\n        /* \"#utility.yul\":3179:3492   */\n      swap3\n      swap2\n      pop\n      pop\n      jump\t// out\n        /* \"#utility.yul\":3498:3595   */\n    tag_32:\n        /* \"#utility.yul\":3557:3563   */\n      0x00\n        /* \"#utility.yul\":3585:3588   */\n      dup3\n        /* \"#utility.yul\":3575:3588   */\n      swap1\n      pop\n        /* \"#utility.yul\":3498:3595   */\n      swap3\n      swap2\n      pop\n      pop\n      jump\t// out\n        /* \"#utility.yul\":3601:3781   */\n    tag_33:\n        /* \"#utility.yul\":3649:3726   */\n      0x4e487b7100000000000000000000000000000000000000000000000000000000\n        /* \"#utility.yul\":3646:3647   */\n      0x00\n        /* \"#utility.yul\":3639:3727   */\n      mstore\n        /* \"#utility.yul\":3746:3750   */\n      0x41\n        /* \"#utility.yul\":3743:3744   */\n      0x04\n        /* \"#utility.yul\":3736:3751   */\n      mstore\n        /* \"#utility.yul\":3770:3774   */\n      0x24\n        /* \"#utility.yul\":3767:3768   */\n      0x00\n        /* \"#utility.yul\":3760:3775   */\n      revert\n        /* \"#utility.yul\":3787:3967   */\n    tag_34:\n        /* \"#utility.yul\":3835:3912   */\n      0x4e487b7100000000000000000000000000000000000000000000000000000000\n        /* \"#utility.yul\":3832:3833   */\n      0x00\n        /* \"#utility.yul\":3825:3913   */\n      mstore\n        /* \"#utility.yul\":3932:3936   */\n      0x22\n        /* \"#utility.yul\":3929:3930   */\n      0x04\n        /* \"#utility.yul\":3922:3937   */\n      mstore\n        /* \"#utility.yul\":3956:3960   */\n      0x24\n        /* \"#utility.yul\":3953:3954   */\n      0x00\n        /* \"#utility.yul\":3946:3961   */\n      revert\n        /* \"#utility.yul\":3973:4293   */\n    tag_35:\n        /* \"#utility.yul\":4017:4023   */\n      0x00\n        /* \"#utility.yul\":4054:4055   */\n      0x02\n        /* \"#utility.yul\":4048:4052   */\n      dup3\n        /* \"#utility.yul\":4044:4056   */\n      div\n        /* \"#utility.yul\":4034:4056   */\n      swap1\n      pop\n        /* \"#utility.yul\":4101:4102   */\n      0x01\n        /* \"#utility.yul\":4095:4099   */\n      dup3\n        /* \"#utility.yul\":4091:4103   */\n      and\n        /* \"#utility.yul\":4122:4140   */\n      dup1\n        /* \"#utility.yul\":4112:4193   */\n      tag_97\n      jumpi\n        /* \"#utility.yul\":4178:4182   */\n      0x7f\n        /* \"#utility.yul\":4170:4176   */\n      dup3\n        /* \"#utility.yul\":4166:4183   */\n      and\n        /* \"#utility.yul\":4156:4183   */\n      swap2\n      pop\n        /* \"#utility.yul\":4112:4193   */\n    tag_97:\n        /* \"#utility.yul\":4240:4242   */\n      0x20\n        /* \"#utility.yul\":4232:4238   */\n      dup3\n        /* \"#utility.yul\":4229:4243   */\n      lt\n        /* \"#utility.yul\":4209:4227   */\n      dup2\n        /* \"#utility.yul\":4206:4244   */\n      sub\n        /* \"#utility.yul\":4203:4287   */\n      tag_98\n      jumpi\n        /* \"#utility.yul\":4259:4277   */\n      tag_99\n      tag_34\n      jump\t// in\n    tag_99:\n        /* \"#utility.yul\":4203:4287   */\n    tag_98:\n        /* \"#utility.yul\":4024:4293   */\n      pop\n        /* \"#utility.yul\":3973:4293   */\n      swap2\n      swap1\n      pop\n      jump\t// out\n        /* \"#utility.yul\":4299:4440   */\n    tag_36:\n        /* \"#utility.yul\":4348:4352   */\n      0x00\n        /* \"#utility.yul\":4371:4374   */\n      dup2\n        /* \"#utility.yul\":4363:4374   */\n      swap1\n      pop\n        /* \"#utility.yul\":4394:4397   */\n      dup2\n        /* \"#utility.yul\":4391:4392   */\n      0x00\n        /* \"#utility.yul\":4384:4398   */\n      mstore\n        /* \"#utility.yul\":4428:4432   */\n      0x20\n        /* \"#utility.yul\":4425:4426   */\n      0x00\n        /* \"#utility.yul\":4415:4433   */\n      keccak256\n        /* \"#utility.yul\":4407:4433   */\n      swap1\n      pop\n        /* \"#utility.yul\":4299:4440   */\n      swap2\n      swap1\n      pop\n      jump\t// out\n        /* \"#utility.yul\":4446:4539   */\n    tag_37:\n        /* \"#utility.yul\":4483:4489   */\n      0x00\n        /* \"#utility.yul\":4530:4532   */\n      0x20\n        /* \"#utility.yul\":4525:4527   */\n      0x1f\n        /* \"#utility.yul\":4518:4523   */\n      dup4\n        /* \"#utility.yul\":4514:4528   */\n      add\n        /* \"#utility.yul\":4510:4533   */\n      div\n        /* \"#utility.yul\":4500:4533   */\n      swap1\n      pop\n        /* \"#utility.yul\":4446:4539   */\n      swap2\n      swap1\n      pop\n      jump\t// out\n        /* \"#utility.yul\":4545:4652   */\n    tag_38:\n        /* \"#utility.yul\":4589:4597   */\n      0x00\n        /* \"#utility.yul\":4639:4644   */\n      dup3\n        /* \"#utility.yul\":4633:4637   */\n      dup3\n        /* \"#utility.yul\":4629:4645   */\n      shl\n        /* \"#utility.yul\":4608:4645   */\n      swap1\n      pop\n        /* \"#utility.yul\":4545:4652   */\n      swap3\n      swap2\n      pop\n      pop\n      jump\t// out\n        /* \"#utility.yul\":4658:5051   */\n    tag_39:\n        /* \"#utility.yul\":4727:4733   */\n      0x00\n        /* \"#utility.yul\":4777:4778   */\n      0x08\n        /* \"#utility.yul\":4765:4775   */\n      dup4\n        /* \"#utility.yul\":4761:4779   */\n      mul\n        /* \"#utility.yul\":4800:4897   */\n      tag_104\n        /* \"#utility.yul\":4830:4896   */\n      0xffffffffffffffffffffffffffffffffffffffffffffffffffffffffffffffff\n        /* \"#utility.yul\":4819:4828   */\n      dup3\n        /* \"#utility.yul\":4800:4897   */\n      tag_38\n      jump\t// in\n    tag_104:\n        /* \"#utility.yul\":4918:4957   */\n      tag_105\n        /* \"#utility.yul\":4948:4956   */\n      dup7\n        /* \"#utility.yul\":4937:4946   */\n      dup4\n        /* \"#utility.yul\":4918:4957   */\n      tag_38\n      jump\t// in\n    tag_105:\n        /* \"#utility.yul\":4906:4957   */\n      swap6\n      pop\n        /* \"#utility.yul\":4990:4994   */\n      dup1\n        /* \"#utility.yul\":4986:4995   */\n      not\n        /* \"#utility.yul\":4979:4984   */\n      dup5\n        /* \"#utility.yul\":4975:4996   */\n      and\n        /* \"#utility.yul\":4966:4996   */\n      swap4\n      pop\n        /* \"#utility.yul\":5039:5043   */\n      dup1\n        /* \"#utility.yul\":5029:5037   */\n      dup7\n        /* \"#utility.yul\":5025:5044   */\n      and\n        /* \"#utility.yul\":5018:5023   */\n      dup5\n        /* \"#utility.yul\":5015:5045   */\n      or\n        /* \"#utility.yul\":5005:5045   */\n      swap3\n      pop\n        /* \"#utility.yul\":4734:5051   */\n      pop\n      pop\n        /* \"#utility.yul\":4658:5051   */\n      swap4\n      swap3\n      pop\n      pop\n      pop\n      jump\t// out\n        /* \"#utility.yul\":5057:5134   */\n    tag_40:\n        /* \"#utility.yul\":5094:5101   */\n      0x00\n        /* \"#utility.yul\":5123:5128   */\n      dup2\n        /* \"#utility.yul\":5112:5128   */\n      swap1\n      pop\n        /* \"#utility.yul\":5057:5134   */\n      swap2\n      swap1\n      pop\n      jump\t// out\n        /* \"#utility.yul\":5140:5200   */\n    tag_41:\n        /* \"#utility.yul\":5168:5171   */\n      0x00\n        /* \"#utility.yul\":5189:5194   */\n      dup2\n        /* \"#utility.yul\":5182:5194   */\n      swap1\n      pop\n        /* \"#utility.yul\":5140:5200   */\n      swap2\n      swap1\n      pop\n      jump\t// out\n        /* \"#utility.yul\":5206:5348   */\n    tag_42:\n        /* \"#utility.yul\":5256:5265   */\n      0x00\n        /* \"#utility.yul\":5289:5342   */\n      tag_109\n        /* \"#utility.yul\":5307:5341   */\n      tag_110\n        /* \"#utility.yul\":5316:5340   */\n      tag_111\n        /* \"#utility.yul\":5334:5339   */\n      dup5\n        /* \"#utility.yul\":5316:5340   */\n      tag_40\n      jump\t// in\n    tag_111:\n        /* \"#utility.yul\":5307:5341   */\n      tag_41\n      jump\t// in\n    tag_110:\n        /* \"#utility.yul\":5289:5342   */\n      tag_40\n      jump\t// in\n    tag_109:\n        /* \"#utility.yul\":5276:5342   */\n      swap1\n      pop\n        /* \"#utility.yul\":5206:5348   */\n      swap2\n      swap1\n      pop\n      jump\t// out\n        /* \"#utility.yul\":5354:5429   */\n    tag_43:\n        /* \"#utility.yul\":5397:5400   */\n      0x00\n        /* \"#utility.yul\":5418:5423   */\n      dup2\n        /* \"#utility.yul\":5411:5423   */\n      swap1\n      pop\n        /* \"#utility.yul\":5354:5429   */\n      swap2\n      swap1\n      pop\n      jump\t// out\n        /* \"#utility.yul\":5435:5704   */\n    tag_44:\n        /* \"#utility.yul\":5545:5584   */\n      tag_114\n        /* \"#utility.yul\":5576:5583   */\n      dup4\n        /* \"#utility.yul\":5545:5584   */\n      tag_42\n      jump\t// in\n    tag_114:\n        /* \"#utility.yul\":5606:5697   */\n      tag_115\n        /* \"#utility.yul\":5655:5696   */\n      tag_116\n        /* \"#utility.yul\":5679:5695   */\n      dup3\n        /* \"#utility.yul\":5655:5696   */\n      tag_43\n      jump\t// in\n    tag_116:\n        /* \"#utility.yul\":5647:5653   */\n      dup5\n        /* \"#utility.yul\":5640:5644   */\n      dup5\n        /* \"#utility.yul\":5634:5645   */\n      sload\n        /* \"#utility.yul\":5606:5697   */\n      tag_39\n      jump\t// in\n    tag_115:\n        /* \"#utility.yul\":5600:5604   */\n      dup3\n        /* \"#utility.yul\":5593:5698   */\n      sstore\n        /* \"#utility.yul\":5511:5704   */\n      pop\n        /* \"#utility.yul\":5435:5704   */\n      pop\n      pop\n      pop\n      jump\t// out\n        /* \"#utility.yul\":5710:5783   */\n    tag_45:\n        /* \"#utility.yul\":5755:5758   */\n      0x00\n        /* \"#utility.yul\":5710:5783   */\n      swap1\n      jump\t// out\n        /* \"#utility.yul\":5789:5978   */\n    tag_46:\n        /* \"#utility.yul\":5866:5898   */\n      tag_119\n      tag_45\n      jump\t// in\n    tag_119:\n        /* \"#utility.yul\":5907:5972   */\n      tag_120\n        /* \"#utility.yul\":5965:5971   */\n      dup2\n        /* \"#utility.yul\":5957:5963   */\n      dup5\n        /* \"#utility.yul\":5951:5955   */\n      dup5\n        /* \"#utility.yul\":5907:5972   */\n      tag_44\n      jump\t// in\n    tag_120:\n        /* \"#utility.yul\":5842:5978   */\n      pop\n        /* \"#utility.yul\":5789:5978   */\n      pop\n      pop\n      jump\t// out\n        /* \"#utility.yul\":5984:6170   */\n    tag_47:\n        /* \"#utility.yul\":6044:6164   */\n    tag_122:\n        /* \"#utility.yul\":6061:6064   */\n      dup2\n        /* \"#utility.yul\":6054:6059   */\n      dup2\n        /* \"#utility.yul\":6051:6065   */\n      lt\n        /* \"#utility.yul\":6044:6164   */\n      iszero\n      tag_124\n      jumpi\n        /* \"#utility.yul\":6115:6154   */\n      tag_125\n        /* \"#utility.yul\":6152:6153   */\n      0x00\n        /* \"#utility.yul\":6145:6150   */\n      dup3\n        /* \"#utility.yul\":6115:6154   */\n      tag_46\n      jump\t// in\n    tag_125:\n        /* \"#utility.yul\":6088:6089   */\n      0x01\n        /* \"#utility.yul\":6081:6086   */\n      dup2\n        /* \"#utility.yul\":6077:6090   */\n      add\n        /* \"#utility.yul\":6068:6090   */\n      swap1\n      pop\n        /* \"#utility.yul\":6044:6164   */\n      jump(tag_122)\n    tag_124:\n        /* \"#utility.yul\":5984:6170   */\n      pop\n      pop\n      jump\t// out\n        /* \"#utility.yul\":6176:6719   */\n    tag_48:\n        /* \"#utility.yul\":6277:6279   */\n      0x1f\n        /* \"#utility.yul\":6272:6275   */\n      dup3\n        /* \"#utility.yul\":6269:6280   */\n      gt\n        /* \"#utility.yul\":6266:6712   */\n      iszero\n      tag_127\n      jumpi\n        /* \"#utility.yul\":6311:6349   */\n      tag_128\n        /* \"#utility.yul\":6343:6348   */\n      dup2\n        /* \"#utility.yul\":6311:6349   */\n      tag_36\n      jump\t// in\n    tag_128:\n        /* \"#utility.yul\":6395:6424   */\n      tag_129\n        /* \"#utility.yul\":6413:6423   */\n      dup5\n        /* \"#utility.yul\":6395:6424   */\n      tag_37\n      jump\t// in\n    tag_129:\n        /* \"#utility.yul\":6385:6393   */\n      dup2\n        /* \"#utility.yul\":6381:6425   */\n      add\n        /* \"#utility.yul\":6578:6580   */\n      0x20\n        /* \"#utility.yul\":6566:6576   */\n      dup6\n        /* \"#utility.yul\":6563:6581   */\n      lt\n        /* \"#utility.yul\":6560:6609   */\n      iszero\n      tag_130\n      jumpi\n        /* \"#utility.yul\":6599:6607   */\n      dup2\n        /* \"#utility.yul\":6584:6607   */\n      swap1\n      pop\n        /* \"#utility.yul\":6560:6609   */\n    tag_130:\n        /* \"#utility.yul\":6622:6702   */\n      tag_131\n        /* \"#utility.yul\":6678:6700   */\n      tag_132\n        /* \"#utility.yul\":6696:6699   */\n      dup6\n        /* \"#utility.yul\":6678:6700   */\n      tag_37\n      jump\t// in\n    tag_132:\n        /* \"#utility.yul\":6668:6676   */\n      dup4\n        /* \"#utility.yul\":6664:6701   */\n      add\n        /* \"#utility.yul\":6651:6662   */\n      dup3\n        /* \"#utility.yul\":6622:6702   */\n      tag_47\n      jump\t// in\n    tag_131:\n        /* \"#utility.yul\":6281:6712   */\n      pop\n      pop\n        /* \"#utility.yul\":6266:6712   */\n    tag_127:\n        /* \"#utility.yul\":6176:6719   */\n      pop\n      pop\n      pop\n      jump\t// out\n        /* \"#utility.yul\":6725:6842   */\n    tag_49:\n        /* \"#utility.yul\":6779:6787   */\n      0x00\n        /* \"#utility.yul\":6829:6834   */\n      dup3\n        /* \"#utility.yul\":6823:6827   */\n      dup3\n        /* \"#utility.yul\":6819:6835   */\n      shr\n        /* \"#utility.yul\":6798:6835   */\n      swap1\n      pop\n        /* \"#utility.yul\":6725:6842   */\n      swap3\n      swap2\n      pop\n      pop\n      jump\t// out\n        /* \"#utility.yul\":6848:7017   */\n    tag_50:\n        /* \"#utility.yul\":6892:6898   */\n      0x00\n        /* \"#utility.yul\":6925:6976   */\n      tag_135\n        /* \"#utility.yul\":6973:6974   */\n      0x00\n        /* \"#utility.yul\":6969:6975   */\n      not\n        /* \"#utility.yul\":6961:6966   */\n      dup5\n        /* \"#utility.yul\":6958:6959   */\n      0x08\n        /* \"#utility.yul\":6954:6967   */\n      mul\n        /* \"#utility.yul\":6925:6976   */\n      tag_49\n      jump\t// in\n    tag_135:\n        /* \"#utility.yul\":6921:6977   */\n      not\n        /* \"#utility.yul\":7006:7010   */\n      dup1\n        /* \"#utility.yul\":7000:7004   */\n      dup4\n        /* \"#utility.yul\":6996:7011   */\n      and\n        /* \"#utility.yul\":6986:7011   */\n      swap2\n      pop\n        /* \"#utility.yul\":6899:7017   */\n      pop\n        /* \"#utility.yul\":6848:7017   */\n      swap3\n      swap2\n      pop\n      pop\n      jump\t// out\n        /* \"#utility.yul\":7022:7317   */\n    tag_51:\n        /* \"#utility.yul\":7098:7102   */\n      0x00\n        /* \"#utility.yul\":7244:7273   */\n      tag_137\n        /* \"#utility.yul\":7269:7272   */\n      dup4\n        /* \"#utility.yul\":7263:7267   */\n      dup4\n        /* \"#utility.yul\":7244:7273   */\n      tag_50\n      jump\t// in\n    tag_137:\n        /* \"#utility.yul\":7236:7273   */\n      swap2\n      pop\n        /* \"#utility.yul\":7306:7309   */\n      dup3\n        /* \"#utility.yul\":7303:7304   */\n      0x02\n        /* \"#utility.yul\":7299:7310   */\n      mul\n        /* \"#utility.yul\":7293:7297   */\n      dup3\n        /* \"#utility.yul\":7290:7311   */\n      or\n        /* \"#utility.yul\":7282:7311   */\n      swap1\n      pop\n        /* \"#utility.yul\":7022:7317   */\n      swap3\n      swap2\n      pop\n      pop\n      jump\t// out\n        /* \"#utility.yul\":7322:8725   */\n    tag_15:\n        /* \"#utility.yul\":7446:7490   */\n      tag_139\n        /* \"#utility.yul\":7486:7489   */\n      dup4\n        /* \"#utility.yul\":7481:7484   */\n      dup4\n        /* \"#utility.yul\":7446:7490   */\n      tag_32\n      jump\t// in\n    tag_139:\n        /* \"#utility.yul\":7555:7573   */\n      0xffffffffffffffff\n        /* \"#utility.yul\":7547:7553   */\n      dup2\n        /* \"#utility.yul\":7544:7574   */\n      gt\n        /* \"#utility.yul\":7541:7597   */\n      iszero\n      tag_140\n      jumpi\n        /* \"#utility.yul\":7577:7595   */\n      tag_141\n      tag_33\n      jump\t// in\n    tag_141:\n        /* \"#utility.yul\":7541:7597   */\n    tag_140:\n        /* \"#utility.yul\":7621:7659   */\n      tag_142\n        /* \"#utility.yul\":7653:7657   */\n      dup3\n        /* \"#utility.yul\":7647:7658   */\n      sload\n        /* \"#utility.yul\":7621:7659   */\n      tag_35\n      jump\t// in\n    tag_142:\n        /* \"#utility.yul\":7706:7773   */\n      tag_143\n        /* \"#utility.yul\":7766:7772   */\n      dup3\n        /* \"#utility.yul\":7758:7764   */\n      dup3\n        /* \"#utility.yul\":7752:7756   */\n      dup6\n        /* \"#utility.yul\":7706:7773   */\n      tag_48\n      jump\t// in\n    tag_143:\n        /* \"#utility.yul\":7800:7801   */\n      0x00\n        /* \"#utility.yul\":7829:7831   */\n      0x1f\n        /* \"#utility.yul\":7821:7827   */\n      dup4\n        /* \"#utility.yul\":7818:7832   */\n      gt\n        /* \"#utility.yul\":7846:7847   */\n      0x01\n        /* \"#utility.yul\":7841:8473   */\n      dup2\n      eq\n      tag_145\n      jumpi\n        /* \"#utility.yul\":8517:8518   */\n      0x00\n        /* \"#utility.yul\":8534:8540   */\n      dup5\n        /* \"#utility.yul\":8531:8615   */\n      iszero\n      tag_146\n      jumpi\n        /* \"#utility.yul\":8590:8599   */\n      dup3\n        /* \"#utility.yul\":8585:8588   */\n      dup8\n        /* \"#utility.yul\":8581:8600   */\n      add\n        /* \"#utility.yul\":8568:8601   */\n      calldataload\n        /* \"#utility.yul\":8559:8601   */\n      swap1\n      pop\n        /* \"#utility.yul\":8531:8615   */\n    tag_146:\n        /* \"#utility.yul\":8641:8708   */\n      tag_147\n        /* \"#utility.yul\":8701:8707   */\n      dup6\n        /* \"#utility.yul\":8694:8699   */\n      dup3\n        /* \"#utility.yul\":8641:8708   */\n      tag_51\n      jump\t// in\n    tag_147:\n        /* \"#utility.yul\":8635:8639   */\n      dup7\n        /* \"#utility.yul\":8628:8709   */\n      sstore\n        /* \"#utility.yul\":8490:8719   */\n      pop\n        /* \"#utility.yul\":7811:8719   */\n      jump(tag_144)\n        /* \"#utility.yul\":7841:8473   */\n    tag_145:\n        /* \"#utility.yul\":7893:7897   */\n      0x1f\n        /* \"#utility.yul\":7889:7898   */\n      not\n        /* \"#utility.yul\":7881:7887   */\n      dup5\n        /* \"#utility.yul\":7877:7899   */\n      and\n        /* \"#utility.yul\":7927:7964   */\n      tag_148\n        /* \"#utility.yul\":7959:7963   */\n      dup7\n        /* \"#utility.yul\":7927:7964   */\n      tag_36\n      jump\t// in\n    tag_148:\n        /* \"#utility.yul\":7986:7987   */\n      0x00\n        /* \"#utility.yul\":8000:8215   */\n    tag_149:\n        /* \"#utility.yul\":8014:8021   */\n      dup3\n        /* \"#utility.yul\":8011:8012   */\n      dup2\n        /* \"#utility.yul\":8008:8022   */\n      lt\n        /* \"#utility.yul\":8000:8215   */\n      iszero\n      tag_151\n      jumpi\n        /* \"#utility.yul\":8100:8109   */\n      dup5\n        /* \"#utility.yul\":8095:8098   */\n      dup10\n        /* \"#utility.yul\":8091:8110   */\n      add\n        /* \"#utility.yul\":8078:8111   */\n      calldataload\n        /* \"#utility.yul\":8070:8076   */\n      dup3\n        /* \"#utility.yul\":8063:8112   */\n      sstore\n        /* \"#utility.yul\":8151:8152   */\n      0x01\n        /* \"#utility.yul\":8143:8149   */\n      dup3\n        /* \"#utility.yul\":8139:8153   */\n      add\n        /* \"#utility.yul\":8129:8153   */\n      swap2\n      pop\n        /* \"#utility.yul\":8198:8200   */\n      0x20\n        /* \"#utility.yul\":8187:8196   */\n      dup6\n        /* \"#utility.yul\":8183:8201   */\n      add\n        /* \"#utility.yul\":8170:8201   */\n      swap5\n      pop\n        /* \"#utility.yul\":8037:8041   */\n      0x20\n        /* \"#utility.yul\":8034:8035   */\n      dup2\n        /* \"#utility.yul\":8030:8042   */\n      add\n        /* \"#utility.yul\":8025:8042   */\n      swap1\n      pop\n        /* \"#utility.yul\":8000:8215   */\n      jump(tag_149)\n    tag_151:\n        /* \"#utility.yul\":8243:8249   */\n      dup7\n        /* \"#utility.yul\":8234:8241   */\n      dup4\n        /* \"#utility.yul\":8231:8250   */\n      lt\n        /* \"#utility.yul\":8228:8414   */\n      iszero\n      tag_152\n      jumpi\n        /* \"#utility.yul\":8308:8317   */\n      dup5\n        /* \"#utility.yul\":8303:8306   */\n      dup10\n        /* \"#utility.yul\":8299:8318   */\n      add\n        /* \"#utility.yul\":8286:8319   */\n      calldataload\n        /* \"#utility.yul\":8351:8399   */\n      tag_153\n        /* \"#utility.yul\":8393:8397   */\n      0x1f\n        /* \"#utility.yul\":8385:8391   */\n      dup10\n        /* \"#utility.yul\":8381:8398   */\n      and\n        /* \"#utility.yul\":8370:8379   */\n      dup3\n        /* \"#utility.yul\":8351:8399   */\n      tag_50\n      jump\t// in\n    tag_153:\n        /* \"#utility.yul\":8343:8349   */\n      dup4\n        /* \"#utility.yul\":8336:8400   */\n      sstore\n        /* \"#utility.yul\":8251:8414   */\n      pop\n        /* \"#utility.yul\":8228:8414   */\n    tag_152:\n        /* \"#utility.yul\":8460:8461   */\n      0x01\n        /* \"#utility.yul\":8456:8457   */\n      0x02\n        /* \"#utility.yul\":8448:8454   */\n      dup9\n        /* \"#utility.yul\":8444:8458   */\n      mul\n        /* \"#utility.yul\":8440:8462   */\n      add\n        /* \"#utility.yul\":8434:8438   */\n      dup9\n        /* \"#utility.yul\":8427:8463   */\n      sstore\n        /* \"#utility.yul\":7848:8473   */\n      pop\n      pop\n      pop\n        /* \"#utility.yul\":7811:8719   */\n    tag_144:\n      pop\n        /* \"#utility.yul\":7421:8725   */\n      pop\n      pop\n      pop\n        /* \"#utility.yul\":7322:8725   */\n      pop\n      pop\n      pop\n      jump\t// out\n        /* \"#utility.yul\":8731:8879   */\n    tag_52:\n        /* \"#utility.yul\":8833:8844   */\n      0x00\n        /* \"#utility.yul\":8870:8873   */\n      dup2\n        /* \"#utility.yul\":8855:8873   */\n      swap1\n      pop\n        /* \"#utility.yul\":8731:8879   */\n      swap3\n      swap2\n      pop\n      pop\n      jump\t// out\n        /* \"#utility.yul\":8909:9783   */\n    tag_53:\n        /* \"#utility.yul\":9012:9015   */\n      0x00\n        /* \"#utility.yul\":9049:9054   */\n      dup2\n        /* \"#utility.yul\":9043:9055   */\n      sload\n        /* \"#utility.yul\":9078:9114   */\n      tag_156\n        /* \"#utility.yul\":9104:9113   */\n      dup2\n        /* \"#utility.yul\":9078:9114   */\n      tag_35\n      jump\t// in\n    tag_156:\n        /* \"#utility.yul\":9130:9219   */\n      tag_157\n        /* \"#utility.yul\":9212:9218   */\n      dup2\n        /* \"#utility.yul\":9207:9210   */\n      dup7\n        /* \"#utility.yul\":9130:9219   */\n      tag_52\n      jump\t// in\n    tag_157:\n        /* \"#utility.yul\":9123:9219   */\n      swap5\n      pop\n        /* \"#utility.yul\":9250:9251   */\n      0x01\n        /* \"#utility.yul\":9239:9248   */\n      dup3\n        /* \"#utility.yul\":9235:9252   */\n      and\n        /* \"#utility.yul\":9266:9267   */\n      0x00\n        /* \"#utility.yul\":9261:9427   */\n      dup2\n      eq\n      tag_159\n      jumpi\n        /* \"#utility.yul\":9441:9442   */\n      0x01\n        /* \"#utility.yul\":9436:9777   */\n      dup2\n      eq\n      tag_160\n      jumpi\n        /* \"#utility.yul\":9228:9777   */\n      jump(tag_158)\n        /* \"#utility.yul\":9261:9427   */\n    tag_159:\n        /* \"#utility.yul\":9345:9349   */\n      0xff\n        /* \"#utility.yul\":9341:9350   */\n      not\n        /* \"#utility.yul\":9330:9339   */\n      dup4\n        /* \"#utility.yul\":9326:9351   */\n      and\n        /* \"#utility.yul\":9321:9324   */\n      dup7\n        /* \"#utility.yul\":9314:9352   */\n      mstore\n        /* \"#utility.yul\":9407:9413   */\n      dup2\n        /* \"#utility.yul\":9400:9414   */\n      iszero\n        /* \"#utility.yul\":9393:9415   */\n      iszero\n        /* \"#utility.yul\":9385:9391   */\n      dup3\n        /* \"#utility.yul\":9381:9416   */\n      mul\n        /* \"#utility.yul\":9376:9379   */\n      dup7\n        /* \"#utility.yul\":9372:9417   */\n      add\n        /* \"#utility.yul\":9365:9417   */\n      swap4\n      pop\n        /* \"#utility.yul\":9261:9427   */\n      jump(tag_158)\n        /* \"#utility.yul\":9436:9777   */\n    tag_160:\n        /* \"#utility.yul\":9503:9541   */\n      tag_161\n        /* \"#utility.yul\":9535:9540   */\n      dup6\n        /* \"#utility.yul\":9503:9541   */\n      tag_36\n      jump\t// in\n    tag_161:\n        /* \"#utility.yul\":9563:9564   */\n      0x00\n        /* \"#utility.yul\":9577:9731   */\n    tag_162:\n        /* \"#utility.yul\":9591:9597   */\n      dup4\n        /* \"#utility.yul\":9588:9589   */\n      dup2\n        /* \"#utility.yul\":9585:9598   */\n      lt\n        /* \"#utility.yul\":9577:9731   */\n      iszero\n      tag_164\n      jumpi\n        /* \"#utility.yul\":9665:9672   */\n      dup2\n        /* \"#utility.yul\":9659:9673   */\n      sload\n        /* \"#utility.yul\":9655:9656   */\n      dup2\n        /* \"#utility.yul\":9650:9653   */\n      dup10\n        /* \"#utility.yul\":9646:9657   */\n      add\n        /* \"#utility.yul\":9639:9674   */\n      mstore\n        /* \"#utility.yul\":9715:9716   */\n      0x01\n        /* \"#utility.yul\":9706:9713   */\n      dup3\n        /* \"#utility.yul\":9702:9717   */\n      add\n        /* \"#utility.yul\":9691:9717   */\n      swap2\n      pop\n        /* \"#utility.yul\":9613:9617   */\n      0x20\n        /* \"#utility.yul\":9610:9611   */\n      dup2\n        /* \"#utility.yul\":9606:9618   */\n      add\n        /* \"#utility.yul\":9601:9618   */\n      swap1\n      pop\n        /* \"#utility.yul\":9577:9731   */\n      jump(tag_162)\n    tag_164:\n        /* \"#utility.yul\":9760:9766   */\n      dup4\n        /* \"#utility.yul\":9755:9758   */\n      dup9\n        /* \"#utility.yul\":9751:9767   */\n      add\n        /* \"#utility.yul\":9744:9767   */\n      swap6\n      pop\n        /* \"#utility.yul\":9443:9777   */\n      pop\n      pop\n        /* \"#utility.yul\":9228:9777   */\n    tag_158:\n      pop\n        /* \"#utility.yul\":9016:9783   */\n      pop\n      pop\n        /* \"#utility.yul\":8909:9783   */\n      swap3\n      swap2\n      pop\n      pop\n      jump\t// out\n        /* \"#utility.yul\":9789:9940   */\n    tag_54:\n        /* \"#utility.yul\":9929:9932   */\n      0x2000000000000000000000000000000000000000000000000000000000000000\n        /* \"#utility.yul\":9925:9926   */\n      0x00\n        /* \"#utility.yul\":9917:9923   */\n      dup3\n        /* \"#utility.yul\":9913:9927   */\n      add\n        /* \"#utility.yul\":9906:9933   */\n      mstore\n        /* \"#utility.yul\":9789:9940   */\n      pop\n      jump\t// out\n        /* \"#utility.yul\":9946:10346   */\n    tag_55:\n        /* \"#utility.yul\":10106:10109   */\n      0x00\n        /* \"#utility.yul\":10127:10211   */\n      tag_167\n        /* \"#utility.yul\":10209:10210   */\n      0x01\n        /* \"#utility.yul\":10204:10207   */\n      dup4\n        /* \"#utility.yul\":10127:10211   */\n      tag_52\n      jump\t// in\n    tag_167:\n        /* \"#utility.yul\":10120:10211   */\n      swap2\n      pop\n        /* \"#utility.yul\":10220:10313   */\n      tag_168\n        /* \"#utility.yul\":10309:10312   */\n      dup3\n        /* \"#utility.yul\":10220:10313   */\n      tag_54\n      jump\t// in\n    tag_168:\n        /* \"#utility.yul\":10338:10339   */\n      0x01\n        /* \"#utility.yul\":10333:10336   */\n      dup3\n        /* \"#utility.yul\":10329:10340   */\n      add\n        /* \"#utility.yul\":10322:10340   */\n      swap1\n      pop\n        /* \"#utility.yul\":9946:10346   */\n      swap2\n      swap1\n      pop\n      jump\t// out\n        /* \"#utility.yul\":10352:11041   */\n    tag_19:\n        /* \"#utility.yul\":10627:10630   */\n      0x00\n        /* \"#utility.yul\":10649:10741   */\n      tag_170\n        /* \"#utility.yul\":10737:10740   */\n      dup3\n        /* \"#utility.yul\":10728:10734   */\n      dup6\n        /* \"#utility.yul\":10649:10741   */\n      tag_53\n      jump\t// in\n    tag_170:\n        /* \"#utility.yul\":10642:10741   */\n      swap2\n      pop\n        /* \"#utility.yul\":10758:10906   */\n      tag_171\n        /* \"#utility.yul\":10902:10905   */\n      dup3\n        /* \"#utility.yul\":10758:10906   */\n      tag_55\n      jump\t// in\n    tag_171:\n        /* \"#utility.yul\":10751:10906   */\n      swap2\n      pop\n        /* \"#utility.yul\":10923:11015   */\n      tag_172\n        /* \"#utility.yul\":11011:11014   */\n      dup3\n        /* \"#utility.yul\":11002:11008   */\n      dup5\n        /* \"#utility.yul\":10923:11015   */\n      tag_53\n      jump\t// in\n    tag_172:\n        /* \"#utility.yul\":10916:11015   */\n      swap2\n      pop\n        /* \"#utility.yul\":11032:11035   */\n      dup2\n        /* \"#utility.yul\":11025:11035   */\n      swap1\n      pop\n        /* \"#utility.yul\":10352:11041   */\n      swap4\n      swap3\n      pop\n      pop\n      pop\n      jump\t// out\n\n    auxdata: 0xa26469706673582212209d69302547396ddc01660354b988cdb2c0e0c099393660fe67d7332d21be614364736f6c63430008120033\n}\n",
				"bytecode": {
					"linkReferences": {},
					"object": "608060405234801561001057600080fd5b506106cb806100206000396000f3fe608060405234801561001057600080fd5b50600436106100365760003560e01c80630213629e1461003b5780638c16018614610057575b600080fd5b61005560048036038101906100509190610139565b610075565b005b61005f61009f565b60405161006c919061024a565b60405180910390f35b8383600091826100869291906104bc565b508181600191826100989291906104bc565b5050505050565b6060600060016040516020016100b6929190610666565b604051602081830303815290604052905090565b600080fd5b600080fd5b600080fd5b600080fd5b600080fd5b60008083601f8401126100f9576100f86100d4565b5b8235905067ffffffffffffffff811115610116576101156100d9565b5b602083019150836001820283011115610132576101316100de565b5b9250929050565b60008060008060408587031215610153576101526100ca565b5b600085013567ffffffffffffffff811115610171576101706100cf565b5b61017d878288016100e3565b9450945050602085013567ffffffffffffffff8111156101a05761019f6100cf565b5b6101ac878288016100e3565b925092505092959194509250565b600081519050919050565b600082825260208201905092915050565b60005b838110156101f45780820151818401526020810190506101d9565b60008484015250505050565b6000601f19601f8301169050919050565b600061021c826101ba565b61022681856101c5565b93506102368185602086016101d6565b61023f81610200565b840191505092915050565b600060208201905081810360008301526102648184610211565b905092915050565b600082905092915050565b7f4e487b7100000000000000000000000000000000000000000000000000000000600052604160045260246000fd5b7f4e487b7100000000000000000000000000000000000000000000000000000000600052602260045260246000fd5b600060028204905060018216806102ed57607f821691505b602082108103610300576102ff6102a6565b5b50919050565b60008190508160005260206000209050919050565b60006020601f8301049050919050565b600082821b905092915050565b6000600883026103687fffffffffffffffffffffffffffffffffffffffffffffffffffffffffffffffff8261032b565b610372868361032b565b95508019841693508086168417925050509392505050565b6000819050919050565b6000819050919050565b60006103b96103b46103af8461038a565b610394565b61038a565b9050919050565b6000819050919050565b6103d38361039e565b6103e76103df826103c0565b848454610338565b825550505050565b600090565b6103fc6103ef565b6104078184846103ca565b505050565b5b8181101561042b576104206000826103f4565b60018101905061040d565b5050565b601f8211156104705761044181610306565b61044a8461031b565b81016020851015610459578190505b61046d6104658561031b565b83018261040c565b50505b505050565b600082821c905092915050565b600061049360001984600802610475565b1980831691505092915050565b60006104ac8383610482565b9150826002028217905092915050565b6104c6838361026c565b67ffffffffffffffff8111156104df576104de610277565b5b6104e982546102d5565b6104f482828561042f565b6000601f8311600181146105235760008415610511578287013590505b61051b85826104a0565b865550610583565b601f19841661053186610306565b60005b8281101561055957848901358255600182019150602085019450602081019050610534565b868310156105765784890135610572601f891682610482565b8355505b6001600288020188555050505b50505050505050565b600081905092915050565b600081546105a4816102d5565b6105ae818661058c565b945060018216600081146105c957600181146105de57610611565b60ff1983168652811515820286019350610611565b6105e785610306565b60005b83811015610609578154818901526001820191506020810190506105ea565b838801955050505b50505092915050565b7f2000000000000000000000000000000000000000000000000000000000000000600082015250565b600061065060018361058c565b915061065b8261061a565b600182019050919050565b60006106728285610597565b915061067d82610643565b91506106898284610597565b9150819050939250505056fea26469706673582212209d69302547396ddc01660354b988cdb2c0e0c099393660fe67d7332d21be614364736f6c63430008120033",
					"opcodes": "PUSH1 0x80 PUSH1 0x40 MSTORE CALLVALUE DUP1 ISZERO PUSH2 0x10 JUMPI PUSH1 0x0 DUP1 REVERT JUMPDEST POP PUSH2 0x6CB DUP1 PUSH2 0x20 PUSH1 0x0 CODECOPY PUSH1 0x0 RETURN INVALID PUSH1 0x80 PUSH1 0x40 MSTORE CALLVALUE DUP1 ISZERO PUSH2 0x10 JUMPI PUSH1 0x0 DUP1 REVERT JUMPDEST POP PUSH1 0x4 CALLDATASIZE LT PUSH2 0x36 JUMPI PUSH1 0x0 CALLDATALOAD PUSH1 0xE0 SHR DUP1 PUSH4 0x213629E EQ PUSH2 0x3B JUMPI DUP1 PUSH4 0x8C160186 EQ PUSH2 0x57 JUMPI JUMPDEST PUSH1 0x0 DUP1 REVERT JUMPDEST PUSH2 0x55 PUSH1 0x4 DUP1 CALLDATASIZE SUB DUP2 ADD SWAP1 PUSH2 0x50 SWAP2 SWAP1 PUSH2 0x139 JUMP JUMPDEST PUSH2 0x75 JUMP JUMPDEST STOP JUMPDEST PUSH2 0x5F PUSH2 0x9F JUMP JUMPDEST PUSH1 0x40 MLOAD PUSH2 0x6C SWAP2 SWAP1 PUSH2 0x24A JUMP JUMPDEST PUSH1 0x40 MLOAD DUP1 SWAP2 SUB SWAP1 RETURN JUMPDEST DUP4 DUP4 PUSH1 0x0 SWAP2 DUP3 PUSH2 0x86 SWAP3 SWAP2 SWAP1 PUSH2 0x4BC JUMP JUMPDEST POP DUP2 DUP2 PUSH1 0x1 SWAP2 DUP3 PUSH2 0x98 SWAP3 SWAP2 SWAP1 PUSH2 0x4BC JUMP JUMPDEST POP POP POP POP POP JUMP JUMPDEST PUSH1 0x60 PUSH1 0x0 PUSH1 0x1 PUSH1 0x40 MLOAD PUSH1 0x20 ADD PUSH2 0xB6 SWAP3 SWAP2 SWAP1 PUSH2 0x666 JUMP JUMPDEST PUSH1 0x40 MLOAD PUSH1 0x20 DUP2 DUP4 SUB SUB DUP2 MSTORE SWAP1 PUSH1 0x40 MSTORE SWAP1 POP SWAP1 JUMP JUMPDEST PUSH1 0x0 DUP1 REVERT JUMPDEST PUSH1 0x0 DUP1 REVERT JUMPDEST PUSH1 0x0 DUP1 REVERT JUMPDEST PUSH1 0x0 DUP1 REVERT JUMPDEST PUSH1 0x0 DUP1 REVERT JUMPDEST PUSH1 0x0 DUP1 DUP4 PUSH1 0x1F DUP5 ADD SLT PUSH2 0xF9 JUMPI PUSH2 0xF8 PUSH2 0xD4 JUMP JUMPDEST JUMPDEST DUP3 CALLDATALOAD SWAP1 POP PUSH8 0xFFFFFFFFFFFFFFFF DUP2 GT ISZERO PUSH2 0x116 JUMPI PUSH2 0x115 PUSH2 0xD9 JUMP JUMPDEST JUMPDEST PUSH1 0x20 DUP4 ADD SWAP2 POP DUP4 PUSH1 0x1 DUP3 MUL DUP4 ADD GT ISZERO PUSH2 0x132 JUMPI PUSH2 0x131 PUSH2 0xDE JUMP JUMPDEST JUMPDEST SWAP3 POP SWAP3 SWAP1 POP JUMP JUMPDEST PUSH1 0x0 DUP1 PUSH1 0x0 DUP1 PUSH1 0x40 DUP6 DUP8 SUB SLT ISZERO PUSH2 0x153 JUMPI PUSH2 0x152 PUSH2 0xCA JUMP JUMPDEST JUMPDEST PUSH1 0x0 DUP6 ADD CALLDATALOAD PUSH8 0xFFFFFFFFFFFFFFFF DUP2 GT ISZERO PUSH2 0x171 JUMPI PUSH2 0x170 PUSH2 0xCF JUMP JUMPDEST JUMPDEST PUSH2 0x17D DUP8 DUP3 DUP9 ADD PUSH2 0xE3 JUMP JUMPDEST SWAP5 POP SWAP5 POP POP PUSH1 0x20 DUP6 ADD CALLDATALOAD PUSH8 0xFFFFFFFFFFFFFFFF DUP2 GT ISZERO PUSH2 0x1A0 JUMPI PUSH2 0x19F PUSH2 0xCF JUMP JUMPDEST JUMPDEST PUSH2 0x1AC DUP8 DUP3 DUP9 ADD PUSH2 0xE3 JUMP JUMPDEST SWAP3 POP SWAP3 POP POP SWAP3 SWAP6 SWAP2 SWAP5 POP SWAP3 POP JUMP JUMPDEST PUSH1 0x0 DUP2 MLOAD SWAP1 POP SWAP2 SWAP1 POP JUMP JUMPDEST PUSH1 0x0 DUP3 DUP3 MSTORE PUSH1 0x20 DUP3 ADD SWAP1 POP SWAP3 SWAP2 POP POP JUMP JUMPDEST PUSH1 0x0 JUMPDEST DUP4 DUP2 LT ISZERO PUSH2 0x1F4 JUMPI DUP1 DUP3 ADD MLOAD DUP2 DUP5 ADD MSTORE PUSH1 0x20 DUP2 ADD SWAP1 POP PUSH2 0x1D9 JUMP JUMPDEST PUSH1 0x0 DUP5 DUP5 ADD MSTORE POP POP POP POP JUMP JUMPDEST PUSH1 0x0 PUSH1 0x1F NOT PUSH1 0x1F DUP4 ADD AND SWAP1 POP SWAP2 SWAP1 POP JUMP JUMPDEST PUSH1 0x0 PUSH2 0x21C DUP3 PUSH2 0x1BA JUMP JUMPDEST PUSH2 0x226 DUP2 DUP6 PUSH2 0x1C5 JUMP JUMPDEST SWAP4 POP PUSH2 0x236 DUP2 DUP6 PUSH1 0x20 DUP7 ADD PUSH2 0x1D6 JUMP JUMPDEST PUSH2 0x23F DUP2 PUSH2 0x200 JUMP JUMPDEST DUP5 ADD SWAP2 POP POP SWAP3 SWAP2 POP POP JUMP JUMPDEST PUSH1 0x0 PUSH1 0x20 DUP3 ADD SWAP1 POP DUP2 DUP2 SUB PUSH1 0x0 DUP4 ADD MSTORE PUSH2 0x264 DUP2 DUP5 PUSH2 0x211 JUMP JUMPDEST SWAP1 POP SWAP3 SWAP2 POP POP JUMP JUMPDEST PUSH1 0x0 DUP3 SWAP1 POP SWAP3 SWAP2 POP POP JUMP JUMPDEST PUSH32 0x4E487B7100000000000000000000000000000000000000000000000000000000 PUSH1 0x0 MSTORE PUSH1 0x41 PUSH1 0x4 MSTORE PUSH1 0x24 PUSH1 0x0 REVERT JUMPDEST PUSH32 0x4E487B7100000000000000000000000000000000000000000000000000000000 PUSH1 0x0 MSTORE PUSH1 0x22 PUSH1 0x4 MSTORE PUSH1 0x24 PUSH1 0x0 REVERT JUMPDEST PUSH1 0x0 PUSH1 0x2 DUP3 DIV SWAP1 POP PUSH1 0x1 DUP3 AND DUP1 PUSH2 0x2ED JUMPI PUSH1 0x7F DUP3 AND SWAP2 POP JUMPDEST PUSH1 0x20 DUP3 LT DUP2 SUB PUSH2 0x300 JUMPI PUSH2 0x2FF PUSH2 0x2A6 JUMP JUMPDEST JUMPDEST POP SWAP2 SWAP1 POP JUMP JUMPDEST PUSH1 0x0 DUP2 SWAP1 POP DUP2 PUSH1 0x0 MSTORE PUSH1 0x20 PUSH1 0x0 KECCAK256 SWAP1 POP SWAP2 SWAP1 POP JUMP JUMPDEST PUSH1 0x0 PUSH1 0x20 PUSH1 0x1F DUP4 ADD DIV SWAP1 POP SWAP2 SWAP1 POP JUMP JUMPDEST PUSH1 0x0 DUP3 DUP3 SHL SWAP1 POP SWAP3 SWAP2 POP POP JUMP JUMPDEST PUSH1 0x0 PUSH1 0x8 DUP4 MUL PUSH2 0x368 PUSH32 0xFFFFFFFFFFFFFFFFFFFFFFFFFFFFFFFFFFFFFFFFFFFFFFFFFFFFFFFFFFFFFFFF DUP3 PUSH2 0x32B JUMP JUMPDEST PUSH2 0x372 DUP7 DUP4 PUSH2 0x32B JUMP JUMPDEST SWAP6 POP DUP1 NOT DUP5 AND SWAP4 POP DUP1 DUP7 AND DUP5 OR SWAP3 POP POP POP SWAP4 SWAP3 POP POP POP JUMP JUMPDEST PUSH1 0x0 DUP2 SWAP1 POP SWAP2 SWAP1 POP JUMP JUMPDEST PUSH1 0x0 DUP2 SWAP1 POP SWAP2 SWAP1 POP JUMP JUMPDEST PUSH1 0x0 PUSH2 0x3B9 PUSH2 0x3B4 PUSH2 0x3AF DUP5 PUSH2 0x38A JUMP JUMPDEST PUSH2 0x394 JUMP JUMPDEST PUSH2 0x38A JUMP JUMPDEST SWAP1 POP SWAP2 SWAP1 POP JUMP JUMPDEST PUSH1 0x0 DUP2 SWAP1 POP SWAP2 SWAP1 POP JUMP JUMPDEST PUSH2 0x3D3 DUP4 PUSH2 0x39E JUMP JUMPDEST PUSH2 0x3E7 PUSH2 0x3DF DUP3 PUSH2 0x3C0 JUMP JUMPDEST DUP5 DUP5 SLOAD PUSH2 0x338 JUMP JUMPDEST DUP3 SSTORE POP POP POP POP JUMP JUMPDEST PUSH1 0x0 SWAP1 JUMP JUMPDEST PUSH2 0x3FC PUSH2 0x3EF JUMP JUMPDEST PUSH2 0x407 DUP2 DUP5 DUP5 PUSH2 0x3CA JUMP JUMPDEST POP POP POP JUMP JUMPDEST JUMPDEST DUP2 DUP2 LT ISZERO PUSH2 0x42B JUMPI PUSH2 0x420 PUSH1 0x0 DUP3 PUSH2 0x3F4 JUMP JUMPDEST PUSH1 0x1 DUP2 ADD SWAP1 POP PUSH2 0x40D JUMP JUMPDEST POP POP JUMP JUMPDEST PUSH1 0x1F DUP3 GT ISZERO PUSH2 0x470 JUMPI PUSH2 0x441 DUP2 PUSH2 0x306 JUMP JUMPDEST PUSH2 0x44A DUP5 PUSH2 0x31B JUMP JUMPDEST DUP2 ADD PUSH1 0x20 DUP6 LT ISZERO PUSH2 0x459 JUMPI DUP2 SWAP1 POP JUMPDEST PUSH2 0x46D PUSH2 0x465 DUP6 PUSH2 0x31B JUMP JUMPDEST DUP4 ADD DUP3 PUSH2 0x40C JUMP JUMPDEST POP POP JUMPDEST POP POP POP JUMP JUMPDEST PUSH1 0x0 DUP3 DUP3 SHR SWAP1 POP SWAP3 SWAP2 POP POP JUMP JUMPDEST PUSH1 0x0 PUSH2 0x493 PUSH1 0x0 NOT DUP5 PUSH1 0x8 MUL PUSH2 0x475 JUMP JUMPDEST NOT DUP1 DUP4 AND SWAP2 POP POP SWAP3 SWAP2 POP POP JUMP JUMPDEST PUSH1 0x0 PUSH2 0x4AC DUP4 DUP4 PUSH2 0x482 JUMP JUMPDEST SWAP2 POP DUP3 PUSH1 0x2 MUL DUP3 OR SWAP1 POP SWAP3 SWAP2 POP POP JUMP JUMPDEST PUSH2 0x4C6 DUP4 DUP4 PUSH2 0x26C JUMP JUMPDEST PUSH8 0xFFFFFFFFFFFFFFFF DUP2 GT ISZERO PUSH2 0x4DF JUMPI PUSH2 0x4DE PUSH2 0x277 JUMP JUMPDEST JUMPDEST PUSH2 0x4E9 DUP3 SLOAD PUSH2 0x2D5 JUMP JUMPDEST PUSH2 0x4F4 DUP3 DUP3 DUP6 PUSH2 0x42F JUMP JUMPDEST PUSH1 0x0 PUSH1 0x1F DUP4 GT PUSH1 0x1 DUP2 EQ PUSH2 0x523 JUMPI PUSH1 0x0 DUP5 ISZERO PUSH2 0x511 JUMPI DUP3 DUP8 ADD CALLDATALOAD SWAP1 POP JUMPDEST PUSH2 0x51B DUP6 DUP3 PUSH2 0x4A0 JUMP JUMPDEST DUP7 SSTORE POP PUSH2 0x583 JUMP JUMPDEST PUSH1 0x1F NOT DUP5 AND PUSH2 0x531 DUP7 PUSH2 0x306 JUMP JUMPDEST PUSH1 0x0 JUMPDEST DUP3 DUP2 LT ISZERO PUSH2 0x559 JUMPI DUP5 DUP10 ADD CALLDATALOAD DUP3 SSTORE PUSH1 0x1 DUP3 ADD SWAP2 POP PUSH1 0x20 DUP6 ADD SWAP5 POP PUSH1 0x20 DUP2 ADD SWAP1 POP PUSH2 0x534 JUMP JUMPDEST DUP7 DUP4 LT ISZERO PUSH2 0x576 JUMPI DUP5 DUP10 ADD CALLDATALOAD PUSH2 0x572 PUSH1 0x1F DUP10 AND DUP3 PUSH2 0x482 JUMP JUMPDEST DUP4 SSTORE POP JUMPDEST PUSH1 0x1 PUSH1 0x2 DUP9 MUL ADD DUP9 SSTORE POP POP POP JUMPDEST POP POP POP POP POP POP POP JUMP JUMPDEST PUSH1 0x0 DUP2 SWAP1 POP SWAP3 SWAP2 POP POP JUMP JUMPDEST PUSH1 0x0 DUP2 SLOAD PUSH2 0x5A4 DUP2 PUSH2 0x2D5 JUMP JUMPDEST PUSH2 0x5AE DUP2 DUP7 PUSH2 0x58C JUMP JUMPDEST SWAP5 POP PUSH1 0x1 DUP3 AND PUSH1 0x0 DUP2 EQ PUSH2 0x5C9 JUMPI PUSH1 0x1 DUP2 EQ PUSH2 0x5DE JUMPI PUSH2 0x611 JUMP JUMPDEST PUSH1 0xFF NOT DUP4 AND DUP7 MSTORE DUP2 ISZERO ISZERO DUP3 MUL DUP7 ADD SWAP4 POP PUSH2 0x611 JUMP JUMPDEST PUSH2 0x5E7 DUP6 PUSH2 0x306 JUMP JUMPDEST PUSH1 0x0 JUMPDEST DUP4 DUP2 LT ISZERO PUSH2 0x609 JUMPI DUP2 SLOAD DUP2 DUP10 ADD MSTORE PUSH1 0x1 DUP3 ADD SWAP2 POP PUSH1 0x20 DUP2 ADD SWAP1 POP PUSH2 0x5EA JUMP JUMPDEST DUP4 DUP9 ADD SWAP6 POP POP POP JUMPDEST POP POP POP SWAP3 SWAP2 POP POP JUMP JUMPDEST PUSH32 0x2000000000000000000000000000000000000000000000000000000000000000 PUSH1 0x0 DUP3 ADD MSTORE POP JUMP JUMPDEST PUSH1 0x0 PUSH2 0x650 PUSH1 0x1 DUP4 PUSH2 0x58C JUMP JUMPDEST SWAP2 POP PUSH2 0x65B DUP3 PUSH2 0x61A JUMP JUMPDEST PUSH1 0x1 DUP3 ADD SWAP1 POP SWAP2 SWAP1 POP JUMP JUMPDEST PUSH1 0x0 PUSH2 0x672 DUP3 DUP6 PUSH2 0x597 JUMP JUMPDEST SWAP2 POP PUSH2 0x67D DUP3 PUSH2 0x643 JUMP JUMPDEST SWAP2 POP PUSH2 0x689 DUP3 DUP5 PUSH2 0x597 JUMP JUMPDEST SWAP2 POP DUP2 SWAP1 POP SWAP4 SWAP3 POP POP POP JUMP INVALID LOG2 PUSH5 0x6970667358 0x22 SLT KECCAK256 SWAP14 PUSH10 0x302547396DDC01660354 0xB9 DUP9 0xCD 0xB2 0xC0 0xE0 0xC0 SWAP10 CODECOPY CALLDATASIZE PUSH1 0xFE PUSH8 0xD7332D21BE614364 PUSH20 0x6F6C634300081200330000000000000000000000 "
				},
				"gasEstimates": {
					"creation": {
						"codeDepositCost": "347800",
						"executionCost": "386",
						"totalCost": "348186"
					},
					"external": {
						"getFullName()": "infinite",
						"setFullName(string,string)": "infinite"
					}
				},
				"methodIdentifiers": {
					"getFullName()": "8c160186",
					"setFullName(string,string)": "0213629e"
				}
			},
			"storageLayout": {
				"storage": [
					{
						"astId": 3,
						"contract": "person.sol:Person",
						"label": "fName",
						"offset": 0,
						"slot": "0",
						"type": "t_string_storage"
					},
					{
						"astId": 5,
						"contract": "person.sol:Person",
						"label": "lName",
						"offset": 0,
						"slot": "1",
						"type": "t_string_storage"
					}
				],
				"types": {
					"t_string_storage": {
						"encoding": "bytes",
						"label": "string",
						"numberOfBytes": "32"
					}
				}
			},
			"userdoc": {
				"kind": "user",
				"methods": {},
				"version": 1
			}
		}
	}
}