{
	"struct.sol": {
		"Enum": {
			"abi": [
				{
					"inputs": [
						{
							"internalType": "address",
							"name": "_add",
							"type": "address"
						}
					],
					"name": "get",
					"outputs": [
						{
							"internalType": "string",
							"name": "",
							"type": "string"
						},
						{
							"internalType": "uint256",
							"name": "",
							"type": "uint256"
						},
						{
							"internalType": "enum Enum.dutyDay",
							"name": "",
							"type": "uint8"
						},
						{
							"internalType": "uint256[]",
							"name": "",
							"type": "uint256[]"
						}
					],
					"stateMutability": "view",
					"type": "function"
				},
				{
					"inputs": [
						{
							"internalType": "address",
							"name": "_addr",
							"type": "address"
						}
					],
					"name": "popChildAge",
					"outputs": [],
					"stateMutability": "nonpayable",
					"type": "function"
				},
				{
					"inputs": [
						{
							"internalType": "address",
							"name": "_addr",
							"type": "address"
						},
						{
							"internalType": "uint256",
							"name": "_age",
							"type": "uint256"
						}
					],
					"name": "pushChildAge",
					"outputs": [],
					"stateMutability": "nonpayable",
					"type": "function"
				},
				{
					"inputs": [
						{
							"internalType": "enum Enum.dutyDay",
							"name": "_day",
							"type": "uint8"
						},
						{
							"internalType": "address",
							"name": "_add",
							"type": "address"
						},
						{
							"internalType": "uint256",
							"name": "_age",
							"type": "uint256"
						},
						{
							"internalType": "string",
							"name": "_name",
							"type": "string"
						}
					],
					"name": "set",
					"outputs": [],
					"stateMutability": "nonpayable",
					"type": "function"
				}
			],
			"devdoc": {
				"kind": "dev",
				"methods": {},
				"version": 1
			},
			"evm": {
				"assembly": "    /* \"struct.sol\":61:1058  contract Enum{... */\n  mstore(0x40, 0x80)\n  callvalue\n  dup1\n  iszero\n  tag_1\n  jumpi\n  0x00\n  dup1\n  revert\ntag_1:\n  pop\n  dataSize(sub_0)\n  dup1\n  dataOffset(sub_0)\n  0x00\n  codecopy\n  0x00\n  return\nstop\n\nsub_0: assembly {\n        /* \"struct.sol\":61:1058  contract Enum{... */\n      mstore(0x40, 0x80)\n      callvalue\n      dup1\n      iszero\n      tag_1\n      jumpi\n      0x00\n      dup1\n      revert\n    tag_1:\n      pop\n      jumpi(tag_2, lt(calldatasize, 0x04))\n      shr(0xe0, calldataload(0x00))\n      dup1\n      0x04706c4e\n      eq\n      tag_3\n      jumpi\n      dup1\n      0x2c9b0b85\n      eq\n      tag_4\n      jumpi\n      dup1\n      0xc2bc2efc\n      eq\n      tag_5\n      jumpi\n      dup1\n      0xfcadb047\n      eq\n      tag_6\n      jumpi\n    tag_2:\n      0x00\n      dup1\n      revert\n        /* \"struct.sol\":824:919  function popChildAge(address _addr) public {... */\n    tag_3:\n      tag_7\n      0x04\n      dup1\n      calldatasize\n      sub\n      dup2\n      add\n      swap1\n      tag_8\n      swap2\n      swap1\n      tag_9\n      jump\t// in\n    tag_8:\n      tag_10\n      jump\t// in\n    tag_7:\n      stop\n        /* \"struct.sol\":505:693  function set (dutyDay _day,address _add,uint _age,string memory _name) public {... */\n    tag_4:\n      tag_11\n      0x04\n      dup1\n      calldatasize\n      sub\n      dup2\n      add\n      swap1\n      tag_12\n      swap2\n      swap1\n      tag_13\n      jump\t// in\n    tag_12:\n      tag_14\n      jump\t// in\n    tag_11:\n      stop\n        /* \"struct.sol\":298:497  function get (address _add) public view returns(string memory,uint,dutyDay,uint[] memory){... */\n    tag_5:\n      tag_15\n      0x04\n      dup1\n      calldatasize\n      sub\n      dup2\n      add\n      swap1\n      tag_16\n      swap2\n      swap1\n      tag_9\n      jump\t// in\n    tag_16:\n      tag_17\n      jump\t// in\n    tag_15:\n      mload(0x40)\n      tag_18\n      swap5\n      swap4\n      swap3\n      swap2\n      swap1\n      tag_19\n      jump\t// in\n    tag_18:\n      mload(0x40)\n      dup1\n      swap2\n      sub\n      swap1\n      return\n        /* \"struct.sol\":701:812  function pushChildAge(address _addr,uint _age) public {... */\n    tag_6:\n      tag_20\n      0x04\n      dup1\n      calldatasize\n      sub\n      dup2\n      add\n      swap1\n      tag_21\n      swap2\n      swap1\n      tag_22\n      jump\t// in\n    tag_21:\n      tag_23\n      jump\t// in\n    tag_20:\n      stop\n        /* \"struct.sol\":824:919  function popChildAge(address _addr) public {... */\n    tag_10:\n        /* \"struct.sol\":878:884  person */\n      0x00\n        /* \"struct.sol\":878:891  person[_addr] */\n      dup1\n        /* \"struct.sol\":885:890  _addr */\n      dup3\n        /* \"struct.sol\":878:891  person[_addr] */\n      0xffffffffffffffffffffffffffffffffffffffff\n      and\n      0xffffffffffffffffffffffffffffffffffffffff\n      and\n      dup2\n      mstore\n      0x20\n      add\n      swap1\n      dup2\n      mstore\n      0x20\n      add\n      0x00\n      keccak256\n        /* \"struct.sol\":878:905  person[_addr].childrens_age */\n      0x03\n      add\n        /* \"struct.sol\":878:911  person[_addr].childrens_age.pop() */\n      dup1\n      sload\n      dup1\n      tag_25\n      jumpi\n      tag_26\n      tag_27\n      jump\t// in\n    tag_26:\n    tag_25:\n      0x01\n      swap1\n      sub\n      dup2\n      dup2\n      swap1\n      0x00\n      mstore\n      keccak256(0x00, 0x20)\n      add\n      0x00\n      swap1\n      sstore\n      swap1\n      sstore\n        /* \"struct.sol\":824:919  function popChildAge(address _addr) public {... */\n      pop\n      jump\t// out\n        /* \"struct.sol\":505:693  function set (dutyDay _day,address _add,uint _age,string memory _name) public {... */\n    tag_14:\n        /* \"struct.sol\":615:619  _day */\n      dup4\n        /* \"struct.sol\":594:600  person */\n      0x00\n        /* \"struct.sol\":594:606  person[_add] */\n      dup1\n        /* \"struct.sol\":601:605  _add */\n      dup6\n        /* \"struct.sol\":594:606  person[_add] */\n      0xffffffffffffffffffffffffffffffffffffffff\n      and\n      0xffffffffffffffffffffffffffffffffffffffff\n      and\n      dup2\n      mstore\n      0x20\n      add\n      swap1\n      dup2\n      mstore\n      0x20\n      add\n      0x00\n      keccak256\n        /* \"struct.sol\":594:614  person[_add].dutyDay */\n      0x02\n      add\n      0x00\n        /* \"struct.sol\":594:619  person[_add].dutyDay=_day */\n      0x0100\n      exp\n      dup2\n      sload\n      dup2\n      0xff\n      mul\n      not\n      and\n      swap1\n      dup4\n      0x07\n      dup2\n      gt\n      iszero\n      tag_30\n      jumpi\n      tag_31\n      tag_32\n      jump\t// in\n    tag_31:\n    tag_30:\n      mul\n      or\n      swap1\n      sstore\n      pop\n        /* \"struct.sol\":647:651  _age */\n      dup2\n        /* \"struct.sol\":630:636  person */\n      0x00\n        /* \"struct.sol\":630:642  person[_add] */\n      dup1\n        /* \"struct.sol\":637:641  _add */\n      dup6\n        /* \"struct.sol\":630:642  person[_add] */\n      0xffffffffffffffffffffffffffffffffffffffff\n      and\n      0xffffffffffffffffffffffffffffffffffffffff\n      and\n      dup2\n      mstore\n      0x20\n      add\n      swap1\n      dup2\n      mstore\n      0x20\n      add\n      0x00\n      keccak256\n        /* \"struct.sol\":630:646  person[_add].age */\n      0x01\n      add\n        /* \"struct.sol\":630:651  person[_add].age=_age */\n      dup2\n      swap1\n      sstore\n      pop\n        /* \"struct.sol\":680:685  _name */\n      dup1\n        /* \"struct.sol\":662:668  person */\n      0x00\n        /* \"struct.sol\":662:674  person[_add] */\n      dup1\n        /* \"struct.sol\":669:673  _add */\n      dup6\n        /* \"struct.sol\":662:674  person[_add] */\n      0xffffffffffffffffffffffffffffffffffffffff\n      and\n      0xffffffffffffffffffffffffffffffffffffffff\n      and\n      dup2\n      mstore\n      0x20\n      add\n      swap1\n      dup2\n      mstore\n      0x20\n      add\n      0x00\n      keccak256\n        /* \"struct.sol\":662:679  person[_add].name */\n      0x00\n      add\n        /* \"struct.sol\":662:685  person[_add].name=_name */\n      swap1\n      dup2\n      tag_33\n      swap2\n      swap1\n      tag_34\n      jump\t// in\n    tag_33:\n      pop\n        /* \"struct.sol\":505:693  function set (dutyDay _day,address _add,uint _age,string memory _name) public {... */\n      pop\n      pop\n      pop\n      pop\n      jump\t// out\n        /* \"struct.sol\":298:497  function get (address _add) public view returns(string memory,uint,dutyDay,uint[] memory){... */\n    tag_17:\n        /* \"struct.sol\":346:359  string memory */\n      0x60\n        /* \"struct.sol\":360:364  uint */\n      0x00\n        /* \"struct.sol\":365:372  dutyDay */\n      dup1\n        /* \"struct.sol\":373:386  uint[] memory */\n      0x60\n        /* \"struct.sol\":406:412  person */\n      0x00\n        /* \"struct.sol\":406:418  person[_add] */\n      dup1\n        /* \"struct.sol\":413:417  _add */\n      dup7\n        /* \"struct.sol\":406:418  person[_add] */\n      0xffffffffffffffffffffffffffffffffffffffff\n      and\n      0xffffffffffffffffffffffffffffffffffffffff\n      and\n      dup2\n      mstore\n      0x20\n      add\n      swap1\n      dup2\n      mstore\n      0x20\n      add\n      0x00\n      keccak256\n        /* \"struct.sol\":406:423  person[_add].name */\n      0x00\n      add\n        /* \"struct.sol\":424:430  person */\n      0x00\n        /* \"struct.sol\":424:436  person[_add] */\n      dup1\n        /* \"struct.sol\":431:435  _add */\n      dup8\n        /* \"struct.sol\":424:436  person[_add] */\n      0xffffffffffffffffffffffffffffffffffffffff\n      and\n      0xffffffffffffffffffffffffffffffffffffffff\n      and\n      dup2\n      mstore\n      0x20\n      add\n      swap1\n      dup2\n      mstore\n      0x20\n      add\n      0x00\n      keccak256\n        /* \"struct.sol\":424:440  person[_add].age */\n      0x01\n      add\n      sload\n        /* \"struct.sol\":441:447  person */\n      0x00\n        /* \"struct.sol\":441:453  person[_add] */\n      dup1\n        /* \"struct.sol\":448:452  _add */\n      dup9\n        /* \"struct.sol\":441:453  person[_add] */\n      0xffffffffffffffffffffffffffffffffffffffff\n      and\n      0xffffffffffffffffffffffffffffffffffffffff\n      and\n      dup2\n      mstore\n      0x20\n      add\n      swap1\n      dup2\n      mstore\n      0x20\n      add\n      0x00\n      keccak256\n        /* \"struct.sol\":441:461  person[_add].dutyDay */\n      0x02\n      add\n      0x00\n      swap1\n      sload\n      swap1\n      0x0100\n      exp\n      swap1\n      div\n      0xff\n      and\n        /* \"struct.sol\":462:468  person */\n      0x00\n        /* \"struct.sol\":462:474  person[_add] */\n      dup1\n        /* \"struct.sol\":469:473  _add */\n      dup10\n        /* \"struct.sol\":462:474  person[_add] */\n      0xffffffffffffffffffffffffffffffffffffffff\n      and\n      0xffffffffffffffffffffffffffffffffffffffff\n      and\n      dup2\n      mstore\n      0x20\n      add\n      swap1\n      dup2\n      mstore\n      0x20\n      add\n      0x00\n      keccak256\n        /* \"struct.sol\":462:488  person[_add].childrens_age */\n      0x03\n      add\n        /* \"struct.sol\":398:489  return (person[_add].name,person[_add].age,person[_add].dutyDay,person[_add].childrens_age) */\n      dup4\n      dup1\n      sload\n      tag_36\n      swap1\n      tag_37\n      jump\t// in\n    tag_36:\n      dup1\n      0x1f\n      add\n      0x20\n      dup1\n      swap2\n      div\n      mul\n      0x20\n      add\n      mload(0x40)\n      swap1\n      dup2\n      add\n      0x40\n      mstore\n      dup1\n      swap3\n      swap2\n      swap1\n      dup2\n      dup2\n      mstore\n      0x20\n      add\n      dup3\n      dup1\n      sload\n      tag_38\n      swap1\n      tag_37\n      jump\t// in\n    tag_38:\n      dup1\n      iszero\n      tag_39\n      jumpi\n      dup1\n      0x1f\n      lt\n      tag_40\n      jumpi\n      0x0100\n      dup1\n      dup4\n      sload\n      div\n      mul\n      dup4\n      mstore\n      swap2\n      0x20\n      add\n      swap2\n      jump(tag_39)\n    tag_40:\n      dup3\n      add\n      swap2\n      swap1\n      0x00\n      mstore\n      keccak256(0x00, 0x20)\n      swap1\n    tag_41:\n      dup2\n      sload\n      dup2\n      mstore\n      swap1\n      0x01\n      add\n      swap1\n      0x20\n      add\n      dup1\n      dup4\n      gt\n      tag_41\n      jumpi\n      dup3\n      swap1\n      sub\n      0x1f\n      and\n      dup3\n      add\n      swap2\n    tag_39:\n      pop\n      pop\n      pop\n      pop\n      pop\n      swap4\n      pop\n      dup1\n      dup1\n      sload\n      dup1\n      0x20\n      mul\n      0x20\n      add\n      mload(0x40)\n      swap1\n      dup2\n      add\n      0x40\n      mstore\n      dup1\n      swap3\n      swap2\n      swap1\n      dup2\n      dup2\n      mstore\n      0x20\n      add\n      dup3\n      dup1\n      sload\n      dup1\n      iszero\n      tag_42\n      jumpi\n      0x20\n      mul\n      dup3\n      add\n      swap2\n      swap1\n      0x00\n      mstore\n      keccak256(0x00, 0x20)\n      swap1\n    tag_43:\n      dup2\n      sload\n      dup2\n      mstore\n      0x20\n      add\n      swap1\n      0x01\n      add\n      swap1\n      dup1\n      dup4\n      gt\n      tag_43\n      jumpi\n    tag_42:\n      pop\n      pop\n      pop\n      pop\n      pop\n      swap1\n      pop\n      swap4\n      pop\n      swap4\n      pop\n      swap4\n      pop\n      swap4\n      pop\n        /* \"struct.sol\":298:497  function get (address _add) public view returns(string memory,uint,dutyDay,uint[] memory){... */\n      swap2\n      swap4\n      pop\n      swap2\n      swap4\n      jump\t// out\n        /* \"struct.sol\":701:812  function pushChildAge(address _addr,uint _age) public {... */\n    tag_23:\n        /* \"struct.sol\":766:772  person */\n      0x00\n        /* \"struct.sol\":766:779  person[_addr] */\n      dup1\n        /* \"struct.sol\":773:778  _addr */\n      dup4\n        /* \"struct.sol\":766:779  person[_addr] */\n      0xffffffffffffffffffffffffffffffffffffffff\n      and\n      0xffffffffffffffffffffffffffffffffffffffff\n      and\n      dup2\n      mstore\n      0x20\n      add\n      swap1\n      dup2\n      mstore\n      0x20\n      add\n      0x00\n      keccak256\n        /* \"struct.sol\":766:793  person[_addr].childrens_age */\n      0x03\n      add\n        /* \"struct.sol\":799:803  _age */\n      dup2\n        /* \"struct.sol\":766:804  person[_addr].childrens_age.push(_age) */\n      swap1\n      dup1\n      0x01\n      dup2\n      sload\n      add\n      dup1\n      dup3\n      sstore\n      dup1\n      swap2\n      pop\n      pop\n      0x01\n      swap1\n      sub\n      swap1\n      0x00\n      mstore\n      keccak256(0x00, 0x20)\n      add\n      0x00\n      swap1\n      swap2\n      swap1\n      swap2\n      swap1\n      swap2\n      pop\n      sstore\n        /* \"struct.sol\":701:812  function pushChildAge(address _addr,uint _age) public {... */\n      pop\n      pop\n      jump\t// out\n        /* \"#utility.yul\":7:82   */\n    tag_46:\n        /* \"#utility.yul\":40:46   */\n      0x00\n        /* \"#utility.yul\":73:75   */\n      0x40\n        /* \"#utility.yul\":67:76   */\n      mload\n        /* \"#utility.yul\":57:76   */\n      swap1\n      pop\n        /* \"#utility.yul\":7:82   */\n      swap1\n      jump\t// out\n        /* \"#utility.yul\":88:205   */\n    tag_47:\n        /* \"#utility.yul\":197:198   */\n      0x00\n        /* \"#utility.yul\":194:195   */\n      dup1\n        /* \"#utility.yul\":187:199   */\n      revert\n        /* \"#utility.yul\":211:328   */\n    tag_48:\n        /* \"#utility.yul\":320:321   */\n      0x00\n        /* \"#utility.yul\":317:318   */\n      dup1\n        /* \"#utility.yul\":310:322   */\n      revert\n        /* \"#utility.yul\":334:460   */\n    tag_49:\n        /* \"#utility.yul\":371:378   */\n      0x00\n        /* \"#utility.yul\":411:453   */\n      0xffffffffffffffffffffffffffffffffffffffff\n        /* \"#utility.yul\":404:409   */\n      dup3\n        /* \"#utility.yul\":400:454   */\n      and\n        /* \"#utility.yul\":389:454   */\n      swap1\n      pop\n        /* \"#utility.yul\":334:460   */\n      swap2\n      swap1\n      pop\n      jump\t// out\n        /* \"#utility.yul\":466:562   */\n    tag_50:\n        /* \"#utility.yul\":503:510   */\n      0x00\n        /* \"#utility.yul\":532:556   */\n      tag_106\n        /* \"#utility.yul\":550:555   */\n      dup3\n        /* \"#utility.yul\":532:556   */\n      tag_49\n      jump\t// in\n    tag_106:\n        /* \"#utility.yul\":521:556   */\n      swap1\n      pop\n        /* \"#utility.yul\":466:562   */\n      swap2\n      swap1\n      pop\n      jump\t// out\n        /* \"#utility.yul\":568:690   */\n    tag_51:\n        /* \"#utility.yul\":641:665   */\n      tag_108\n        /* \"#utility.yul\":659:664   */\n      dup2\n        /* \"#utility.yul\":641:665   */\n      tag_50\n      jump\t// in\n    tag_108:\n        /* \"#utility.yul\":634:639   */\n      dup2\n        /* \"#utility.yul\":631:666   */\n      eq\n        /* \"#utility.yul\":621:684   */\n      tag_109\n      jumpi\n        /* \"#utility.yul\":680:681   */\n      0x00\n        /* \"#utility.yul\":677:678   */\n      dup1\n        /* \"#utility.yul\":670:682   */\n      revert\n        /* \"#utility.yul\":621:684   */\n    tag_109:\n        /* \"#utility.yul\":568:690   */\n      pop\n      jump\t// out\n        /* \"#utility.yul\":696:835   */\n    tag_52:\n        /* \"#utility.yul\":742:747   */\n      0x00\n        /* \"#utility.yul\":780:786   */\n      dup2\n        /* \"#utility.yul\":767:787   */\n      calldataload\n        /* \"#utility.yul\":758:787   */\n      swap1\n      pop\n        /* \"#utility.yul\":796:829   */\n      tag_111\n        /* \"#utility.yul\":823:828   */\n      dup2\n        /* \"#utility.yul\":796:829   */\n      tag_51\n      jump\t// in\n    tag_111:\n        /* \"#utility.yul\":696:835   */\n      swap3\n      swap2\n      pop\n      pop\n      jump\t// out\n        /* \"#utility.yul\":841:1170   */\n    tag_9:\n        /* \"#utility.yul\":900:906   */\n      0x00\n        /* \"#utility.yul\":949:951   */\n      0x20\n        /* \"#utility.yul\":937:946   */\n      dup3\n        /* \"#utility.yul\":928:935   */\n      dup5\n        /* \"#utility.yul\":924:947   */\n      sub\n        /* \"#utility.yul\":920:952   */\n      slt\n        /* \"#utility.yul\":917:1036   */\n      iszero\n      tag_113\n      jumpi\n        /* \"#utility.yul\":955:1034   */\n      tag_114\n      tag_47\n      jump\t// in\n    tag_114:\n        /* \"#utility.yul\":917:1036   */\n    tag_113:\n        /* \"#utility.yul\":1075:1076   */\n      0x00\n        /* \"#utility.yul\":1100:1153   */\n      tag_115\n        /* \"#utility.yul\":1145:1152   */\n      dup5\n        /* \"#utility.yul\":1136:1142   */\n      dup3\n        /* \"#utility.yul\":1125:1134   */\n      dup6\n        /* \"#utility.yul\":1121:1143   */\n      add\n        /* \"#utility.yul\":1100:1153   */\n      tag_52\n      jump\t// in\n    tag_115:\n        /* \"#utility.yul\":1090:1153   */\n      swap2\n      pop\n        /* \"#utility.yul\":1046:1163   */\n      pop\n        /* \"#utility.yul\":841:1170   */\n      swap3\n      swap2\n      pop\n      pop\n      jump\t// out\n        /* \"#utility.yul\":1176:1285   */\n    tag_53:\n        /* \"#utility.yul\":1259:1260   */\n      0x08\n        /* \"#utility.yul\":1252:1257   */\n      dup2\n        /* \"#utility.yul\":1249:1261   */\n      lt\n        /* \"#utility.yul\":1239:1279   */\n      tag_117\n      jumpi\n        /* \"#utility.yul\":1275:1276   */\n      0x00\n        /* \"#utility.yul\":1272:1273   */\n      dup1\n        /* \"#utility.yul\":1265:1277   */\n      revert\n        /* \"#utility.yul\":1239:1279   */\n    tag_117:\n        /* \"#utility.yul\":1176:1285   */\n      pop\n      jump\t// out\n        /* \"#utility.yul\":1291:1450   */\n    tag_54:\n        /* \"#utility.yul\":1347:1352   */\n      0x00\n        /* \"#utility.yul\":1385:1391   */\n      dup2\n        /* \"#utility.yul\":1372:1392   */\n      calldataload\n        /* \"#utility.yul\":1363:1392   */\n      swap1\n      pop\n        /* \"#utility.yul\":1401:1444   */\n      tag_119\n        /* \"#utility.yul\":1438:1443   */\n      dup2\n        /* \"#utility.yul\":1401:1444   */\n      tag_53\n      jump\t// in\n    tag_119:\n        /* \"#utility.yul\":1291:1450   */\n      swap3\n      swap2\n      pop\n      pop\n      jump\t// out\n        /* \"#utility.yul\":1456:1533   */\n    tag_55:\n        /* \"#utility.yul\":1493:1500   */\n      0x00\n        /* \"#utility.yul\":1522:1527   */\n      dup2\n        /* \"#utility.yul\":1511:1527   */\n      swap1\n      pop\n        /* \"#utility.yul\":1456:1533   */\n      swap2\n      swap1\n      pop\n      jump\t// out\n        /* \"#utility.yul\":1539:1661   */\n    tag_56:\n        /* \"#utility.yul\":1612:1636   */\n      tag_122\n        /* \"#utility.yul\":1630:1635   */\n      dup2\n        /* \"#utility.yul\":1612:1636   */\n      tag_55\n      jump\t// in\n    tag_122:\n        /* \"#utility.yul\":1605:1610   */\n      dup2\n        /* \"#utility.yul\":1602:1637   */\n      eq\n        /* \"#utility.yul\":1592:1655   */\n      tag_123\n      jumpi\n        /* \"#utility.yul\":1651:1652   */\n      0x00\n        /* \"#utility.yul\":1648:1649   */\n      dup1\n        /* \"#utility.yul\":1641:1653   */\n      revert\n        /* \"#utility.yul\":1592:1655   */\n    tag_123:\n        /* \"#utility.yul\":1539:1661   */\n      pop\n      jump\t// out\n        /* \"#utility.yul\":1667:1806   */\n    tag_57:\n        /* \"#utility.yul\":1713:1718   */\n      0x00\n        /* \"#utility.yul\":1751:1757   */\n      dup2\n        /* \"#utility.yul\":1738:1758   */\n      calldataload\n        /* \"#utility.yul\":1729:1758   */\n      swap1\n      pop\n        /* \"#utility.yul\":1767:1800   */\n      tag_125\n        /* \"#utility.yul\":1794:1799   */\n      dup2\n        /* \"#utility.yul\":1767:1800   */\n      tag_56\n      jump\t// in\n    tag_125:\n        /* \"#utility.yul\":1667:1806   */\n      swap3\n      swap2\n      pop\n      pop\n      jump\t// out\n        /* \"#utility.yul\":1812:1929   */\n    tag_58:\n        /* \"#utility.yul\":1921:1922   */\n      0x00\n        /* \"#utility.yul\":1918:1919   */\n      dup1\n        /* \"#utility.yul\":1911:1923   */\n      revert\n        /* \"#utility.yul\":1935:2052   */\n    tag_59:\n        /* \"#utility.yul\":2044:2045   */\n      0x00\n        /* \"#utility.yul\":2041:2042   */\n      dup1\n        /* \"#utility.yul\":2034:2046   */\n      revert\n        /* \"#utility.yul\":2058:2160   */\n    tag_60:\n        /* \"#utility.yul\":2099:2105   */\n      0x00\n        /* \"#utility.yul\":2150:2152   */\n      0x1f\n        /* \"#utility.yul\":2146:2153   */\n      not\n        /* \"#utility.yul\":2141:2143   */\n      0x1f\n        /* \"#utility.yul\":2134:2139   */\n      dup4\n        /* \"#utility.yul\":2130:2144   */\n      add\n        /* \"#utility.yul\":2126:2154   */\n      and\n        /* \"#utility.yul\":2116:2154   */\n      swap1\n      pop\n        /* \"#utility.yul\":2058:2160   */\n      swap2\n      swap1\n      pop\n      jump\t// out\n        /* \"#utility.yul\":2166:2346   */\n    tag_61:\n        /* \"#utility.yul\":2214:2291   */\n      0x4e487b7100000000000000000000000000000000000000000000000000000000\n        /* \"#utility.yul\":2211:2212   */\n      0x00\n        /* \"#utility.yul\":2204:2292   */\n      mstore\n        /* \"#utility.yul\":2311:2315   */\n      0x41\n        /* \"#utility.yul\":2308:2309   */\n      0x04\n        /* \"#utility.yul\":2301:2316   */\n      mstore\n        /* \"#utility.yul\":2335:2339   */\n      0x24\n        /* \"#utility.yul\":2332:2333   */\n      0x00\n        /* \"#utility.yul\":2325:2340   */\n      revert\n        /* \"#utility.yul\":2352:2633   */\n    tag_62:\n        /* \"#utility.yul\":2435:2462   */\n      tag_131\n        /* \"#utility.yul\":2457:2461   */\n      dup3\n        /* \"#utility.yul\":2435:2462   */\n      tag_60\n      jump\t// in\n    tag_131:\n        /* \"#utility.yul\":2427:2433   */\n      dup2\n        /* \"#utility.yul\":2423:2463   */\n      add\n        /* \"#utility.yul\":2565:2571   */\n      dup2\n        /* \"#utility.yul\":2553:2563   */\n      dup2\n        /* \"#utility.yul\":2550:2572   */\n      lt\n        /* \"#utility.yul\":2529:2547   */\n      0xffffffffffffffff\n        /* \"#utility.yul\":2517:2527   */\n      dup3\n        /* \"#utility.yul\":2514:2548   */\n      gt\n        /* \"#utility.yul\":2511:2573   */\n      or\n        /* \"#utility.yul\":2508:2596   */\n      iszero\n      tag_132\n      jumpi\n        /* \"#utility.yul\":2576:2594   */\n      tag_133\n      tag_61\n      jump\t// in\n    tag_133:\n        /* \"#utility.yul\":2508:2596   */\n    tag_132:\n        /* \"#utility.yul\":2616:2626   */\n      dup1\n        /* \"#utility.yul\":2612:2614   */\n      0x40\n        /* \"#utility.yul\":2605:2627   */\n      mstore\n        /* \"#utility.yul\":2395:2633   */\n      pop\n        /* \"#utility.yul\":2352:2633   */\n      pop\n      pop\n      jump\t// out\n        /* \"#utility.yul\":2639:2768   */\n    tag_63:\n        /* \"#utility.yul\":2673:2679   */\n      0x00\n        /* \"#utility.yul\":2700:2720   */\n      tag_135\n      tag_46\n      jump\t// in\n    tag_135:\n        /* \"#utility.yul\":2690:2720   */\n      swap1\n      pop\n        /* \"#utility.yul\":2729:2762   */\n      tag_136\n        /* \"#utility.yul\":2757:2761   */\n      dup3\n        /* \"#utility.yul\":2749:2755   */\n      dup3\n        /* \"#utility.yul\":2729:2762   */\n      tag_62\n      jump\t// in\n    tag_136:\n        /* \"#utility.yul\":2639:2768   */\n      swap2\n      swap1\n      pop\n      jump\t// out\n        /* \"#utility.yul\":2774:3082   */\n    tag_64:\n        /* \"#utility.yul\":2836:2840   */\n      0x00\n        /* \"#utility.yul\":2926:2944   */\n      0xffffffffffffffff\n        /* \"#utility.yul\":2918:2924   */\n      dup3\n        /* \"#utility.yul\":2915:2945   */\n      gt\n        /* \"#utility.yul\":2912:2968   */\n      iszero\n      tag_138\n      jumpi\n        /* \"#utility.yul\":2948:2966   */\n      tag_139\n      tag_61\n      jump\t// in\n    tag_139:\n        /* \"#utility.yul\":2912:2968   */\n    tag_138:\n        /* \"#utility.yul\":2986:3015   */\n      tag_140\n        /* \"#utility.yul\":3008:3014   */\n      dup3\n        /* \"#utility.yul\":2986:3015   */\n      tag_60\n      jump\t// in\n    tag_140:\n        /* \"#utility.yul\":2978:3015   */\n      swap1\n      pop\n        /* \"#utility.yul\":3070:3074   */\n      0x20\n        /* \"#utility.yul\":3064:3068   */\n      dup2\n        /* \"#utility.yul\":3060:3075   */\n      add\n        /* \"#utility.yul\":3052:3075   */\n      swap1\n      pop\n        /* \"#utility.yul\":2774:3082   */\n      swap2\n      swap1\n      pop\n      jump\t// out\n        /* \"#utility.yul\":3088:3234   */\n    tag_65:\n        /* \"#utility.yul\":3185:3191   */\n      dup3\n        /* \"#utility.yul\":3180:3183   */\n      dup2\n        /* \"#utility.yul\":3175:3178   */\n      dup4\n        /* \"#utility.yul\":3162:3192   */\n      calldatacopy\n        /* \"#utility.yul\":3226:3227   */\n      0x00\n        /* \"#utility.yul\":3217:3223   */\n      dup4\n        /* \"#utility.yul\":3212:3215   */\n      dup4\n        /* \"#utility.yul\":3208:3224   */\n      add\n        /* \"#utility.yul\":3201:3228   */\n      mstore\n        /* \"#utility.yul\":3088:3234   */\n      pop\n      pop\n      pop\n      jump\t// out\n        /* \"#utility.yul\":3240:3665   */\n    tag_66:\n        /* \"#utility.yul\":3318:3323   */\n      0x00\n        /* \"#utility.yul\":3343:3409   */\n      tag_143\n        /* \"#utility.yul\":3359:3408   */\n      tag_144\n        /* \"#utility.yul\":3401:3407   */\n      dup5\n        /* \"#utility.yul\":3359:3408   */\n      tag_64\n      jump\t// in\n    tag_144:\n        /* \"#utility.yul\":3343:3409   */\n      tag_63\n      jump\t// in\n    tag_143:\n        /* \"#utility.yul\":3334:3409   */\n      swap1\n      pop\n        /* \"#utility.yul\":3432:3438   */\n      dup3\n        /* \"#utility.yul\":3425:3430   */\n      dup2\n        /* \"#utility.yul\":3418:3439   */\n      mstore\n        /* \"#utility.yul\":3470:3474   */\n      0x20\n        /* \"#utility.yul\":3463:3468   */\n      dup2\n        /* \"#utility.yul\":3459:3475   */\n      add\n        /* \"#utility.yul\":3508:3511   */\n      dup5\n        /* \"#utility.yul\":3499:3505   */\n      dup5\n        /* \"#utility.yul\":3494:3497   */\n      dup5\n        /* \"#utility.yul\":3490:3506   */\n      add\n        /* \"#utility.yul\":3487:3512   */\n      gt\n        /* \"#utility.yul\":3484:3596   */\n      iszero\n      tag_145\n      jumpi\n        /* \"#utility.yul\":3515:3594   */\n      tag_146\n      tag_59\n      jump\t// in\n    tag_146:\n        /* \"#utility.yul\":3484:3596   */\n    tag_145:\n        /* \"#utility.yul\":3605:3659   */\n      tag_147\n        /* \"#utility.yul\":3652:3658   */\n      dup5\n        /* \"#utility.yul\":3647:3650   */\n      dup3\n        /* \"#utility.yul\":3642:3645   */\n      dup6\n        /* \"#utility.yul\":3605:3659   */\n      tag_65\n      jump\t// in\n    tag_147:\n        /* \"#utility.yul\":3324:3665   */\n      pop\n        /* \"#utility.yul\":3240:3665   */\n      swap4\n      swap3\n      pop\n      pop\n      pop\n      jump\t// out\n        /* \"#utility.yul\":3685:4025   */\n    tag_67:\n        /* \"#utility.yul\":3741:3746   */\n      0x00\n        /* \"#utility.yul\":3790:3793   */\n      dup3\n        /* \"#utility.yul\":3783:3787   */\n      0x1f\n        /* \"#utility.yul\":3775:3781   */\n      dup4\n        /* \"#utility.yul\":3771:3788   */\n      add\n        /* \"#utility.yul\":3767:3794   */\n      slt\n        /* \"#utility.yul\":3757:3879   */\n      tag_149\n      jumpi\n        /* \"#utility.yul\":3798:3877   */\n      tag_150\n      tag_58\n      jump\t// in\n    tag_150:\n        /* \"#utility.yul\":3757:3879   */\n    tag_149:\n        /* \"#utility.yul\":3915:3921   */\n      dup2\n        /* \"#utility.yul\":3902:3922   */\n      calldataload\n        /* \"#utility.yul\":3940:4019   */\n      tag_151\n        /* \"#utility.yul\":4015:4018   */\n      dup5\n        /* \"#utility.yul\":4007:4013   */\n      dup3\n        /* \"#utility.yul\":4000:4004   */\n      0x20\n        /* \"#utility.yul\":3992:3998   */\n      dup7\n        /* \"#utility.yul\":3988:4005   */\n      add\n        /* \"#utility.yul\":3940:4019   */\n      tag_66\n      jump\t// in\n    tag_151:\n        /* \"#utility.yul\":3931:4019   */\n      swap2\n      pop\n        /* \"#utility.yul\":3747:4025   */\n      pop\n        /* \"#utility.yul\":3685:4025   */\n      swap3\n      swap2\n      pop\n      pop\n      jump\t// out\n        /* \"#utility.yul\":4031:4996   */\n    tag_13:\n        /* \"#utility.yul\":4137:4143   */\n      0x00\n        /* \"#utility.yul\":4145:4151   */\n      dup1\n        /* \"#utility.yul\":4153:4159   */\n      0x00\n        /* \"#utility.yul\":4161:4167   */\n      dup1\n        /* \"#utility.yul\":4210:4213   */\n      0x80\n        /* \"#utility.yul\":4198:4207   */\n      dup6\n        /* \"#utility.yul\":4189:4196   */\n      dup8\n        /* \"#utility.yul\":4185:4208   */\n      sub\n        /* \"#utility.yul\":4181:4214   */\n      slt\n        /* \"#utility.yul\":4178:4298   */\n      iszero\n      tag_153\n      jumpi\n        /* \"#utility.yul\":4217:4296   */\n      tag_154\n      tag_47\n      jump\t// in\n    tag_154:\n        /* \"#utility.yul\":4178:4298   */\n    tag_153:\n        /* \"#utility.yul\":4337:4338   */\n      0x00\n        /* \"#utility.yul\":4362:4425   */\n      tag_155\n        /* \"#utility.yul\":4417:4424   */\n      dup8\n        /* \"#utility.yul\":4408:4414   */\n      dup3\n        /* \"#utility.yul\":4397:4406   */\n      dup9\n        /* \"#utility.yul\":4393:4415   */\n      add\n        /* \"#utility.yul\":4362:4425   */\n      tag_54\n      jump\t// in\n    tag_155:\n        /* \"#utility.yul\":4352:4425   */\n      swap5\n      pop\n        /* \"#utility.yul\":4308:4435   */\n      pop\n        /* \"#utility.yul\":4474:4476   */\n      0x20\n        /* \"#utility.yul\":4500:4553   */\n      tag_156\n        /* \"#utility.yul\":4545:4552   */\n      dup8\n        /* \"#utility.yul\":4536:4542   */\n      dup3\n        /* \"#utility.yul\":4525:4534   */\n      dup9\n        /* \"#utility.yul\":4521:4543   */\n      add\n        /* \"#utility.yul\":4500:4553   */\n      tag_52\n      jump\t// in\n    tag_156:\n        /* \"#utility.yul\":4490:4553   */\n      swap4\n      pop\n        /* \"#utility.yul\":4445:4563   */\n      pop\n        /* \"#utility.yul\":4602:4604   */\n      0x40\n        /* \"#utility.yul\":4628:4681   */\n      tag_157\n        /* \"#utility.yul\":4673:4680   */\n      dup8\n        /* \"#utility.yul\":4664:4670   */\n      dup3\n        /* \"#utility.yul\":4653:4662   */\n      dup9\n        /* \"#utility.yul\":4649:4671   */\n      add\n        /* \"#utility.yul\":4628:4681   */\n      tag_57\n      jump\t// in\n    tag_157:\n        /* \"#utility.yul\":4618:4681   */\n      swap3\n      pop\n        /* \"#utility.yul\":4573:4691   */\n      pop\n        /* \"#utility.yul\":4758:4760   */\n      0x60\n        /* \"#utility.yul\":4747:4756   */\n      dup6\n        /* \"#utility.yul\":4743:4761   */\n      add\n        /* \"#utility.yul\":4730:4762   */\n      calldataload\n        /* \"#utility.yul\":4789:4807   */\n      0xffffffffffffffff\n        /* \"#utility.yul\":4781:4787   */\n      dup2\n        /* \"#utility.yul\":4778:4808   */\n      gt\n        /* \"#utility.yul\":4775:4892   */\n      iszero\n      tag_158\n      jumpi\n        /* \"#utility.yul\":4811:4890   */\n      tag_159\n      tag_48\n      jump\t// in\n    tag_159:\n        /* \"#utility.yul\":4775:4892   */\n    tag_158:\n        /* \"#utility.yul\":4916:4979   */\n      tag_160\n        /* \"#utility.yul\":4971:4978   */\n      dup8\n        /* \"#utility.yul\":4962:4968   */\n      dup3\n        /* \"#utility.yul\":4951:4960   */\n      dup9\n        /* \"#utility.yul\":4947:4969   */\n      add\n        /* \"#utility.yul\":4916:4979   */\n      tag_67\n      jump\t// in\n    tag_160:\n        /* \"#utility.yul\":4906:4979   */\n      swap2\n      pop\n        /* \"#utility.yul\":4701:4989   */\n      pop\n        /* \"#utility.yul\":4031:4996   */\n      swap3\n      swap6\n      swap2\n      swap5\n      pop\n      swap3\n      pop\n      jump\t// out\n        /* \"#utility.yul\":5002:5101   */\n    tag_68:\n        /* \"#utility.yul\":5054:5060   */\n      0x00\n        /* \"#utility.yul\":5088:5093   */\n      dup2\n        /* \"#utility.yul\":5082:5094   */\n      mload\n        /* \"#utility.yul\":5072:5094   */\n      swap1\n      pop\n        /* \"#utility.yul\":5002:5101   */\n      swap2\n      swap1\n      pop\n      jump\t// out\n        /* \"#utility.yul\":5107:5276   */\n    tag_69:\n        /* \"#utility.yul\":5191:5202   */\n      0x00\n        /* \"#utility.yul\":5225:5231   */\n      dup3\n        /* \"#utility.yul\":5220:5223   */\n      dup3\n        /* \"#utility.yul\":5213:5232   */\n      mstore\n        /* \"#utility.yul\":5265:5269   */\n      0x20\n        /* \"#utility.yul\":5260:5263   */\n      dup3\n        /* \"#utility.yul\":5256:5270   */\n      add\n        /* \"#utility.yul\":5241:5270   */\n      swap1\n      pop\n        /* \"#utility.yul\":5107:5276   */\n      swap3\n      swap2\n      pop\n      pop\n      jump\t// out\n        /* \"#utility.yul\":5282:5528   */\n    tag_70:\n        /* \"#utility.yul\":5363:5364   */\n      0x00\n        /* \"#utility.yul\":5373:5486   */\n    tag_164:\n        /* \"#utility.yul\":5387:5393   */\n      dup4\n        /* \"#utility.yul\":5384:5385   */\n      dup2\n        /* \"#utility.yul\":5381:5394   */\n      lt\n        /* \"#utility.yul\":5373:5486   */\n      iszero\n      tag_166\n      jumpi\n        /* \"#utility.yul\":5472:5473   */\n      dup1\n        /* \"#utility.yul\":5467:5470   */\n      dup3\n        /* \"#utility.yul\":5463:5474   */\n      add\n        /* \"#utility.yul\":5457:5475   */\n      mload\n        /* \"#utility.yul\":5453:5454   */\n      dup2\n        /* \"#utility.yul\":5448:5451   */\n      dup5\n        /* \"#utility.yul\":5444:5455   */\n      add\n        /* \"#utility.yul\":5437:5476   */\n      mstore\n        /* \"#utility.yul\":5409:5411   */\n      0x20\n        /* \"#utility.yul\":5406:5407   */\n      dup2\n        /* \"#utility.yul\":5402:5412   */\n      add\n        /* \"#utility.yul\":5397:5412   */\n      swap1\n      pop\n        /* \"#utility.yul\":5373:5486   */\n      jump(tag_164)\n    tag_166:\n        /* \"#utility.yul\":5520:5521   */\n      0x00\n        /* \"#utility.yul\":5511:5517   */\n      dup5\n        /* \"#utility.yul\":5506:5509   */\n      dup5\n        /* \"#utility.yul\":5502:5518   */\n      add\n        /* \"#utility.yul\":5495:5522   */\n      mstore\n        /* \"#utility.yul\":5344:5528   */\n      pop\n        /* \"#utility.yul\":5282:5528   */\n      pop\n      pop\n      pop\n      jump\t// out\n        /* \"#utility.yul\":5534:5911   */\n    tag_71:\n        /* \"#utility.yul\":5622:5625   */\n      0x00\n        /* \"#utility.yul\":5650:5689   */\n      tag_168\n        /* \"#utility.yul\":5683:5688   */\n      dup3\n        /* \"#utility.yul\":5650:5689   */\n      tag_68\n      jump\t// in\n    tag_168:\n        /* \"#utility.yul\":5705:5776   */\n      tag_169\n        /* \"#utility.yul\":5769:5775   */\n      dup2\n        /* \"#utility.yul\":5764:5767   */\n      dup6\n        /* \"#utility.yul\":5705:5776   */\n      tag_69\n      jump\t// in\n    tag_169:\n        /* \"#utility.yul\":5698:5776   */\n      swap4\n      pop\n        /* \"#utility.yul\":5785:5850   */\n      tag_170\n        /* \"#utility.yul\":5843:5849   */\n      dup2\n        /* \"#utility.yul\":5838:5841   */\n      dup6\n        /* \"#utility.yul\":5831:5835   */\n      0x20\n        /* \"#utility.yul\":5824:5829   */\n      dup7\n        /* \"#utility.yul\":5820:5836   */\n      add\n        /* \"#utility.yul\":5785:5850   */\n      tag_70\n      jump\t// in\n    tag_170:\n        /* \"#utility.yul\":5875:5904   */\n      tag_171\n        /* \"#utility.yul\":5897:5903   */\n      dup2\n        /* \"#utility.yul\":5875:5904   */\n      tag_60\n      jump\t// in\n    tag_171:\n        /* \"#utility.yul\":5870:5873   */\n      dup5\n        /* \"#utility.yul\":5866:5905   */\n      add\n        /* \"#utility.yul\":5859:5905   */\n      swap2\n      pop\n        /* \"#utility.yul\":5626:5911   */\n      pop\n        /* \"#utility.yul\":5534:5911   */\n      swap3\n      swap2\n      pop\n      pop\n      jump\t// out\n        /* \"#utility.yul\":5917:6035   */\n    tag_72:\n        /* \"#utility.yul\":6004:6028   */\n      tag_173\n        /* \"#utility.yul\":6022:6027   */\n      dup2\n        /* \"#utility.yul\":6004:6028   */\n      tag_55\n      jump\t// in\n    tag_173:\n        /* \"#utility.yul\":5999:6002   */\n      dup3\n        /* \"#utility.yul\":5992:6029   */\n      mstore\n        /* \"#utility.yul\":5917:6035   */\n      pop\n      pop\n      jump\t// out\n        /* \"#utility.yul\":6041:6221   */\n    tag_32:\n        /* \"#utility.yul\":6089:6166   */\n      0x4e487b7100000000000000000000000000000000000000000000000000000000\n        /* \"#utility.yul\":6086:6087   */\n      0x00\n        /* \"#utility.yul\":6079:6167   */\n      mstore\n        /* \"#utility.yul\":6186:6190   */\n      0x21\n        /* \"#utility.yul\":6183:6184   */\n      0x04\n        /* \"#utility.yul\":6176:6191   */\n      mstore\n        /* \"#utility.yul\":6210:6214   */\n      0x24\n        /* \"#utility.yul\":6207:6208   */\n      0x00\n        /* \"#utility.yul\":6200:6215   */\n      revert\n        /* \"#utility.yul\":6227:6342   */\n    tag_73:\n        /* \"#utility.yul\":6310:6311   */\n      0x08\n        /* \"#utility.yul\":6303:6308   */\n      dup2\n        /* \"#utility.yul\":6300:6312   */\n      lt\n        /* \"#utility.yul\":6290:6336   */\n      tag_176\n      jumpi\n        /* \"#utility.yul\":6316:6334   */\n      tag_177\n      tag_32\n      jump\t// in\n    tag_177:\n        /* \"#utility.yul\":6290:6336   */\n    tag_176:\n        /* \"#utility.yul\":6227:6342   */\n      pop\n      jump\t// out\n        /* \"#utility.yul\":6348:6479   */\n    tag_74:\n        /* \"#utility.yul\":6395:6402   */\n      0x00\n        /* \"#utility.yul\":6424:6429   */\n      dup2\n        /* \"#utility.yul\":6413:6429   */\n      swap1\n      pop\n        /* \"#utility.yul\":6430:6473   */\n      tag_179\n        /* \"#utility.yul\":6467:6472   */\n      dup3\n        /* \"#utility.yul\":6430:6473   */\n      tag_73\n      jump\t// in\n    tag_179:\n        /* \"#utility.yul\":6348:6479   */\n      swap2\n      swap1\n      pop\n      jump\t// out\n        /* \"#utility.yul\":6485:6616   */\n    tag_75:\n        /* \"#utility.yul\":6543:6552   */\n      0x00\n        /* \"#utility.yul\":6576:6610   */\n      tag_181\n        /* \"#utility.yul\":6604:6609   */\n      dup3\n        /* \"#utility.yul\":6576:6610   */\n      tag_74\n      jump\t// in\n    tag_181:\n        /* \"#utility.yul\":6563:6610   */\n      swap1\n      pop\n        /* \"#utility.yul\":6485:6616   */\n      swap2\n      swap1\n      pop\n      jump\t// out\n        /* \"#utility.yul\":6622:6769   */\n    tag_76:\n        /* \"#utility.yul\":6717:6762   */\n      tag_183\n        /* \"#utility.yul\":6756:6761   */\n      dup2\n        /* \"#utility.yul\":6717:6762   */\n      tag_75\n      jump\t// in\n    tag_183:\n        /* \"#utility.yul\":6712:6715   */\n      dup3\n        /* \"#utility.yul\":6705:6763   */\n      mstore\n        /* \"#utility.yul\":6622:6769   */\n      pop\n      pop\n      jump\t// out\n        /* \"#utility.yul\":6775:6889   */\n    tag_77:\n        /* \"#utility.yul\":6842:6848   */\n      0x00\n        /* \"#utility.yul\":6876:6881   */\n      dup2\n        /* \"#utility.yul\":6870:6882   */\n      mload\n        /* \"#utility.yul\":6860:6882   */\n      swap1\n      pop\n        /* \"#utility.yul\":6775:6889   */\n      swap2\n      swap1\n      pop\n      jump\t// out\n        /* \"#utility.yul\":6895:7079   */\n    tag_78:\n        /* \"#utility.yul\":6994:7005   */\n      0x00\n        /* \"#utility.yul\":7028:7034   */\n      dup3\n        /* \"#utility.yul\":7023:7026   */\n      dup3\n        /* \"#utility.yul\":7016:7035   */\n      mstore\n        /* \"#utility.yul\":7068:7072   */\n      0x20\n        /* \"#utility.yul\":7063:7066   */\n      dup3\n        /* \"#utility.yul\":7059:7073   */\n      add\n        /* \"#utility.yul\":7044:7073   */\n      swap1\n      pop\n        /* \"#utility.yul\":6895:7079   */\n      swap3\n      swap2\n      pop\n      pop\n      jump\t// out\n        /* \"#utility.yul\":7085:7217   */\n    tag_79:\n        /* \"#utility.yul\":7152:7156   */\n      0x00\n        /* \"#utility.yul\":7175:7178   */\n      dup2\n        /* \"#utility.yul\":7167:7178   */\n      swap1\n      pop\n        /* \"#utility.yul\":7205:7209   */\n      0x20\n        /* \"#utility.yul\":7200:7203   */\n      dup3\n        /* \"#utility.yul\":7196:7210   */\n      add\n        /* \"#utility.yul\":7188:7210   */\n      swap1\n      pop\n        /* \"#utility.yul\":7085:7217   */\n      swap2\n      swap1\n      pop\n      jump\t// out\n        /* \"#utility.yul\":7223:7331   */\n    tag_80:\n        /* \"#utility.yul\":7300:7324   */\n      tag_188\n        /* \"#utility.yul\":7318:7323   */\n      dup2\n        /* \"#utility.yul\":7300:7324   */\n      tag_55\n      jump\t// in\n    tag_188:\n        /* \"#utility.yul\":7295:7298   */\n      dup3\n        /* \"#utility.yul\":7288:7325   */\n      mstore\n        /* \"#utility.yul\":7223:7331   */\n      pop\n      pop\n      jump\t// out\n        /* \"#utility.yul\":7337:7516   */\n    tag_81:\n        /* \"#utility.yul\":7406:7416   */\n      0x00\n        /* \"#utility.yul\":7427:7473   */\n      tag_190\n        /* \"#utility.yul\":7469:7472   */\n      dup4\n        /* \"#utility.yul\":7461:7467   */\n      dup4\n        /* \"#utility.yul\":7427:7473   */\n      tag_80\n      jump\t// in\n    tag_190:\n        /* \"#utility.yul\":7505:7509   */\n      0x20\n        /* \"#utility.yul\":7500:7503   */\n      dup4\n        /* \"#utility.yul\":7496:7510   */\n      add\n        /* \"#utility.yul\":7482:7510   */\n      swap1\n      pop\n        /* \"#utility.yul\":7337:7516   */\n      swap3\n      swap2\n      pop\n      pop\n      jump\t// out\n        /* \"#utility.yul\":7522:7635   */\n    tag_82:\n        /* \"#utility.yul\":7592:7596   */\n      0x00\n        /* \"#utility.yul\":7624:7628   */\n      0x20\n        /* \"#utility.yul\":7619:7622   */\n      dup3\n        /* \"#utility.yul\":7615:7629   */\n      add\n        /* \"#utility.yul\":7607:7629   */\n      swap1\n      pop\n        /* \"#utility.yul\":7522:7635   */\n      swap2\n      swap1\n      pop\n      jump\t// out\n        /* \"#utility.yul\":7671:8403   */\n    tag_83:\n        /* \"#utility.yul\":7790:7793   */\n      0x00\n        /* \"#utility.yul\":7819:7873   */\n      tag_193\n        /* \"#utility.yul\":7867:7872   */\n      dup3\n        /* \"#utility.yul\":7819:7873   */\n      tag_77\n      jump\t// in\n    tag_193:\n        /* \"#utility.yul\":7889:7975   */\n      tag_194\n        /* \"#utility.yul\":7968:7974   */\n      dup2\n        /* \"#utility.yul\":7963:7966   */\n      dup6\n        /* \"#utility.yul\":7889:7975   */\n      tag_78\n      jump\t// in\n    tag_194:\n        /* \"#utility.yul\":7882:7975   */\n      swap4\n      pop\n        /* \"#utility.yul\":7999:8055   */\n      tag_195\n        /* \"#utility.yul\":8049:8054   */\n      dup4\n        /* \"#utility.yul\":7999:8055   */\n      tag_79\n      jump\t// in\n    tag_195:\n        /* \"#utility.yul\":8078:8085   */\n      dup1\n        /* \"#utility.yul\":8109:8110   */\n      0x00\n        /* \"#utility.yul\":8094:8378   */\n    tag_196:\n        /* \"#utility.yul\":8119:8125   */\n      dup4\n        /* \"#utility.yul\":8116:8117   */\n      dup2\n        /* \"#utility.yul\":8113:8126   */\n      lt\n        /* \"#utility.yul\":8094:8378   */\n      iszero\n      tag_198\n      jumpi\n        /* \"#utility.yul\":8195:8201   */\n      dup2\n        /* \"#utility.yul\":8189:8202   */\n      mload\n        /* \"#utility.yul\":8222:8285   */\n      tag_199\n        /* \"#utility.yul\":8281:8284   */\n      dup9\n        /* \"#utility.yul\":8266:8279   */\n      dup3\n        /* \"#utility.yul\":8222:8285   */\n      tag_81\n      jump\t// in\n    tag_199:\n        /* \"#utility.yul\":8215:8285   */\n      swap8\n      pop\n        /* \"#utility.yul\":8308:8368   */\n      tag_200\n        /* \"#utility.yul\":8361:8367   */\n      dup4\n        /* \"#utility.yul\":8308:8368   */\n      tag_82\n      jump\t// in\n    tag_200:\n        /* \"#utility.yul\":8298:8368   */\n      swap3\n      pop\n        /* \"#utility.yul\":8154:8378   */\n      pop\n        /* \"#utility.yul\":8141:8142   */\n      0x01\n        /* \"#utility.yul\":8138:8139   */\n      dup2\n        /* \"#utility.yul\":8134:8143   */\n      add\n        /* \"#utility.yul\":8129:8143   */\n      swap1\n      pop\n        /* \"#utility.yul\":8094:8378   */\n      jump(tag_196)\n    tag_198:\n        /* \"#utility.yul\":8098:8112   */\n      pop\n        /* \"#utility.yul\":8394:8397   */\n      dup6\n        /* \"#utility.yul\":8387:8397   */\n      swap4\n      pop\n        /* \"#utility.yul\":7795:8403   */\n      pop\n      pop\n      pop\n        /* \"#utility.yul\":7671:8403   */\n      swap3\n      swap2\n      pop\n      pop\n      jump\t// out\n        /* \"#utility.yul\":8409:9220   */\n    tag_19:\n        /* \"#utility.yul\":8664:8668   */\n      0x00\n        /* \"#utility.yul\":8702:8705   */\n      0x80\n        /* \"#utility.yul\":8691:8700   */\n      dup3\n        /* \"#utility.yul\":8687:8706   */\n      add\n        /* \"#utility.yul\":8679:8706   */\n      swap1\n      pop\n        /* \"#utility.yul\":8752:8761   */\n      dup2\n        /* \"#utility.yul\":8746:8750   */\n      dup2\n        /* \"#utility.yul\":8742:8762   */\n      sub\n        /* \"#utility.yul\":8738:8739   */\n      0x00\n        /* \"#utility.yul\":8727:8736   */\n      dup4\n        /* \"#utility.yul\":8723:8740   */\n      add\n        /* \"#utility.yul\":8716:8763   */\n      mstore\n        /* \"#utility.yul\":8780:8858   */\n      tag_202\n        /* \"#utility.yul\":8853:8857   */\n      dup2\n        /* \"#utility.yul\":8844:8850   */\n      dup8\n        /* \"#utility.yul\":8780:8858   */\n      tag_71\n      jump\t// in\n    tag_202:\n        /* \"#utility.yul\":8772:8858   */\n      swap1\n      pop\n        /* \"#utility.yul\":8868:8940   */\n      tag_203\n        /* \"#utility.yul\":8936:8938   */\n      0x20\n        /* \"#utility.yul\":8925:8934   */\n      dup4\n        /* \"#utility.yul\":8921:8939   */\n      add\n        /* \"#utility.yul\":8912:8918   */\n      dup7\n        /* \"#utility.yul\":8868:8940   */\n      tag_72\n      jump\t// in\n    tag_203:\n        /* \"#utility.yul\":8950:9030   */\n      tag_204\n        /* \"#utility.yul\":9026:9028   */\n      0x40\n        /* \"#utility.yul\":9015:9024   */\n      dup4\n        /* \"#utility.yul\":9011:9029   */\n      add\n        /* \"#utility.yul\":9002:9008   */\n      dup6\n        /* \"#utility.yul\":8950:9030   */\n      tag_76\n      jump\t// in\n    tag_204:\n        /* \"#utility.yul\":9077:9086   */\n      dup2\n        /* \"#utility.yul\":9071:9075   */\n      dup2\n        /* \"#utility.yul\":9067:9087   */\n      sub\n        /* \"#utility.yul\":9062:9064   */\n      0x60\n        /* \"#utility.yul\":9051:9060   */\n      dup4\n        /* \"#utility.yul\":9047:9065   */\n      add\n        /* \"#utility.yul\":9040:9088   */\n      mstore\n        /* \"#utility.yul\":9105:9213   */\n      tag_205\n        /* \"#utility.yul\":9208:9212   */\n      dup2\n        /* \"#utility.yul\":9199:9205   */\n      dup5\n        /* \"#utility.yul\":9105:9213   */\n      tag_83\n      jump\t// in\n    tag_205:\n        /* \"#utility.yul\":9097:9213   */\n      swap1\n      pop\n        /* \"#utility.yul\":8409:9220   */\n      swap6\n      swap5\n      pop\n      pop\n      pop\n      pop\n      pop\n      jump\t// out\n        /* \"#utility.yul\":9226:9700   */\n    tag_22:\n        /* \"#utility.yul\":9294:9300   */\n      0x00\n        /* \"#utility.yul\":9302:9308   */\n      dup1\n        /* \"#utility.yul\":9351:9353   */\n      0x40\n        /* \"#utility.yul\":9339:9348   */\n      dup4\n        /* \"#utility.yul\":9330:9337   */\n      dup6\n        /* \"#utility.yul\":9326:9349   */\n      sub\n        /* \"#utility.yul\":9322:9354   */\n      slt\n        /* \"#utility.yul\":9319:9438   */\n      iszero\n      tag_207\n      jumpi\n        /* \"#utility.yul\":9357:9436   */\n      tag_208\n      tag_47\n      jump\t// in\n    tag_208:\n        /* \"#utility.yul\":9319:9438   */\n    tag_207:\n        /* \"#utility.yul\":9477:9478   */\n      0x00\n        /* \"#utility.yul\":9502:9555   */\n      tag_209\n        /* \"#utility.yul\":9547:9554   */\n      dup6\n        /* \"#utility.yul\":9538:9544   */\n      dup3\n        /* \"#utility.yul\":9527:9536   */\n      dup7\n        /* \"#utility.yul\":9523:9545   */\n      add\n        /* \"#utility.yul\":9502:9555   */\n      tag_52\n      jump\t// in\n    tag_209:\n        /* \"#utility.yul\":9492:9555   */\n      swap3\n      pop\n        /* \"#utility.yul\":9448:9565   */\n      pop\n        /* \"#utility.yul\":9604:9606   */\n      0x20\n        /* \"#utility.yul\":9630:9683   */\n      tag_210\n        /* \"#utility.yul\":9675:9682   */\n      dup6\n        /* \"#utility.yul\":9666:9672   */\n      dup3\n        /* \"#utility.yul\":9655:9664   */\n      dup7\n        /* \"#utility.yul\":9651:9673   */\n      add\n        /* \"#utility.yul\":9630:9683   */\n      tag_57\n      jump\t// in\n    tag_210:\n        /* \"#utility.yul\":9620:9683   */\n      swap2\n      pop\n        /* \"#utility.yul\":9575:9693   */\n      pop\n        /* \"#utility.yul\":9226:9700   */\n      swap3\n      pop\n      swap3\n      swap1\n      pop\n      jump\t// out\n        /* \"#utility.yul\":9706:9886   */\n    tag_27:\n        /* \"#utility.yul\":9754:9831   */\n      0x4e487b7100000000000000000000000000000000000000000000000000000000\n        /* \"#utility.yul\":9751:9752   */\n      0x00\n        /* \"#utility.yul\":9744:9832   */\n      mstore\n        /* \"#utility.yul\":9851:9855   */\n      0x31\n        /* \"#utility.yul\":9848:9849   */\n      0x04\n        /* \"#utility.yul\":9841:9856   */\n      mstore\n        /* \"#utility.yul\":9875:9879   */\n      0x24\n        /* \"#utility.yul\":9872:9873   */\n      0x00\n        /* \"#utility.yul\":9865:9880   */\n      revert\n        /* \"#utility.yul\":9892:10072   */\n    tag_84:\n        /* \"#utility.yul\":9940:10017   */\n      0x4e487b7100000000000000000000000000000000000000000000000000000000\n        /* \"#utility.yul\":9937:9938   */\n      0x00\n        /* \"#utility.yul\":9930:10018   */\n      mstore\n        /* \"#utility.yul\":10037:10041   */\n      0x22\n        /* \"#utility.yul\":10034:10035   */\n      0x04\n        /* \"#utility.yul\":10027:10042   */\n      mstore\n        /* \"#utility.yul\":10061:10065   */\n      0x24\n        /* \"#utility.yul\":10058:10059   */\n      0x00\n        /* \"#utility.yul\":10051:10066   */\n      revert\n        /* \"#utility.yul\":10078:10398   */\n    tag_37:\n        /* \"#utility.yul\":10122:10128   */\n      0x00\n        /* \"#utility.yul\":10159:10160   */\n      0x02\n        /* \"#utility.yul\":10153:10157   */\n      dup3\n        /* \"#utility.yul\":10149:10161   */\n      div\n        /* \"#utility.yul\":10139:10161   */\n      swap1\n      pop\n        /* \"#utility.yul\":10206:10207   */\n      0x01\n        /* \"#utility.yul\":10200:10204   */\n      dup3\n        /* \"#utility.yul\":10196:10208   */\n      and\n        /* \"#utility.yul\":10227:10245   */\n      dup1\n        /* \"#utility.yul\":10217:10298   */\n      tag_214\n      jumpi\n        /* \"#utility.yul\":10283:10287   */\n      0x7f\n        /* \"#utility.yul\":10275:10281   */\n      dup3\n        /* \"#utility.yul\":10271:10288   */\n      and\n        /* \"#utility.yul\":10261:10288   */\n      swap2\n      pop\n        /* \"#utility.yul\":10217:10298   */\n    tag_214:\n        /* \"#utility.yul\":10345:10347   */\n      0x20\n        /* \"#utility.yul\":10337:10343   */\n      dup3\n        /* \"#utility.yul\":10334:10348   */\n      lt\n        /* \"#utility.yul\":10314:10332   */\n      dup2\n        /* \"#utility.yul\":10311:10349   */\n      sub\n        /* \"#utility.yul\":10308:10392   */\n      tag_215\n      jumpi\n        /* \"#utility.yul\":10364:10382   */\n      tag_216\n      tag_84\n      jump\t// in\n    tag_216:\n        /* \"#utility.yul\":10308:10392   */\n    tag_215:\n        /* \"#utility.yul\":10129:10398   */\n      pop\n        /* \"#utility.yul\":10078:10398   */\n      swap2\n      swap1\n      pop\n      jump\t// out\n        /* \"#utility.yul\":10404:10545   */\n    tag_85:\n        /* \"#utility.yul\":10453:10457   */\n      0x00\n        /* \"#utility.yul\":10476:10479   */\n      dup2\n        /* \"#utility.yul\":10468:10479   */\n      swap1\n      pop\n        /* \"#utility.yul\":10499:10502   */\n      dup2\n        /* \"#utility.yul\":10496:10497   */\n      0x00\n        /* \"#utility.yul\":10489:10503   */\n      mstore\n        /* \"#utility.yul\":10533:10537   */\n      0x20\n        /* \"#utility.yul\":10530:10531   */\n      0x00\n        /* \"#utility.yul\":10520:10538   */\n      keccak256\n        /* \"#utility.yul\":10512:10538   */\n      swap1\n      pop\n        /* \"#utility.yul\":10404:10545   */\n      swap2\n      swap1\n      pop\n      jump\t// out\n        /* \"#utility.yul\":10551:10644   */\n    tag_86:\n        /* \"#utility.yul\":10588:10594   */\n      0x00\n        /* \"#utility.yul\":10635:10637   */\n      0x20\n        /* \"#utility.yul\":10630:10632   */\n      0x1f\n        /* \"#utility.yul\":10623:10628   */\n      dup4\n        /* \"#utility.yul\":10619:10633   */\n      add\n        /* \"#utility.yul\":10615:10638   */\n      div\n        /* \"#utility.yul\":10605:10638   */\n      swap1\n      pop\n        /* \"#utility.yul\":10551:10644   */\n      swap2\n      swap1\n      pop\n      jump\t// out\n        /* \"#utility.yul\":10650:10757   */\n    tag_87:\n        /* \"#utility.yul\":10694:10702   */\n      0x00\n        /* \"#utility.yul\":10744:10749   */\n      dup3\n        /* \"#utility.yul\":10738:10742   */\n      dup3\n        /* \"#utility.yul\":10734:10750   */\n      shl\n        /* \"#utility.yul\":10713:10750   */\n      swap1\n      pop\n        /* \"#utility.yul\":10650:10757   */\n      swap3\n      swap2\n      pop\n      pop\n      jump\t// out\n        /* \"#utility.yul\":10763:11156   */\n    tag_88:\n        /* \"#utility.yul\":10832:10838   */\n      0x00\n        /* \"#utility.yul\":10882:10883   */\n      0x08\n        /* \"#utility.yul\":10870:10880   */\n      dup4\n        /* \"#utility.yul\":10866:10884   */\n      mul\n        /* \"#utility.yul\":10905:11002   */\n      tag_221\n        /* \"#utility.yul\":10935:11001   */\n      0xffffffffffffffffffffffffffffffffffffffffffffffffffffffffffffffff\n        /* \"#utility.yul\":10924:10933   */\n      dup3\n        /* \"#utility.yul\":10905:11002   */\n      tag_87\n      jump\t// in\n    tag_221:\n        /* \"#utility.yul\":11023:11062   */\n      tag_222\n        /* \"#utility.yul\":11053:11061   */\n      dup7\n        /* \"#utility.yul\":11042:11051   */\n      dup4\n        /* \"#utility.yul\":11023:11062   */\n      tag_87\n      jump\t// in\n    tag_222:\n        /* \"#utility.yul\":11011:11062   */\n      swap6\n      pop\n        /* \"#utility.yul\":11095:11099   */\n      dup1\n        /* \"#utility.yul\":11091:11100   */\n      not\n        /* \"#utility.yul\":11084:11089   */\n      dup5\n        /* \"#utility.yul\":11080:11101   */\n      and\n        /* \"#utility.yul\":11071:11101   */\n      swap4\n      pop\n        /* \"#utility.yul\":11144:11148   */\n      dup1\n        /* \"#utility.yul\":11134:11142   */\n      dup7\n        /* \"#utility.yul\":11130:11149   */\n      and\n        /* \"#utility.yul\":11123:11128   */\n      dup5\n        /* \"#utility.yul\":11120:11150   */\n      or\n        /* \"#utility.yul\":11110:11150   */\n      swap3\n      pop\n        /* \"#utility.yul\":10839:11156   */\n      pop\n      pop\n        /* \"#utility.yul\":10763:11156   */\n      swap4\n      swap3\n      pop\n      pop\n      pop\n      jump\t// out\n        /* \"#utility.yul\":11162:11222   */\n    tag_89:\n        /* \"#utility.yul\":11190:11193   */\n      0x00\n        /* \"#utility.yul\":11211:11216   */\n      dup2\n        /* \"#utility.yul\":11204:11216   */\n      swap1\n      pop\n        /* \"#utility.yul\":11162:11222   */\n      swap2\n      swap1\n      pop\n      jump\t// out\n        /* \"#utility.yul\":11228:11370   */\n    tag_90:\n        /* \"#utility.yul\":11278:11287   */\n      0x00\n        /* \"#utility.yul\":11311:11364   */\n      tag_225\n        /* \"#utility.yul\":11329:11363   */\n      tag_226\n        /* \"#utility.yul\":11338:11362   */\n      tag_227\n        /* \"#utility.yul\":11356:11361   */\n      dup5\n        /* \"#utility.yul\":11338:11362   */\n      tag_55\n      jump\t// in\n    tag_227:\n        /* \"#utility.yul\":11329:11363   */\n      tag_89\n      jump\t// in\n    tag_226:\n        /* \"#utility.yul\":11311:11364   */\n      tag_55\n      jump\t// in\n    tag_225:\n        /* \"#utility.yul\":11298:11364   */\n      swap1\n      pop\n        /* \"#utility.yul\":11228:11370   */\n      swap2\n      swap1\n      pop\n      jump\t// out\n        /* \"#utility.yul\":11376:11451   */\n    tag_91:\n        /* \"#utility.yul\":11419:11422   */\n      0x00\n        /* \"#utility.yul\":11440:11445   */\n      dup2\n        /* \"#utility.yul\":11433:11445   */\n      swap1\n      pop\n        /* \"#utility.yul\":11376:11451   */\n      swap2\n      swap1\n      pop\n      jump\t// out\n        /* \"#utility.yul\":11457:11726   */\n    tag_92:\n        /* \"#utility.yul\":11567:11606   */\n      tag_230\n        /* \"#utility.yul\":11598:11605   */\n      dup4\n        /* \"#utility.yul\":11567:11606   */\n      tag_90\n      jump\t// in\n    tag_230:\n        /* \"#utility.yul\":11628:11719   */\n      tag_231\n        /* \"#utility.yul\":11677:11718   */\n      tag_232\n        /* \"#utility.yul\":11701:11717   */\n      dup3\n        /* \"#utility.yul\":11677:11718   */\n      tag_91\n      jump\t// in\n    tag_232:\n        /* \"#utility.yul\":11669:11675   */\n      dup5\n        /* \"#utility.yul\":11662:11666   */\n      dup5\n        /* \"#utility.yul\":11656:11667   */\n      sload\n        /* \"#utility.yul\":11628:11719   */\n      tag_88\n      jump\t// in\n    tag_231:\n        /* \"#utility.yul\":11622:11626   */\n      dup3\n        /* \"#utility.yul\":11615:11720   */\n      sstore\n        /* \"#utility.yul\":11533:11726   */\n      pop\n        /* \"#utility.yul\":11457:11726   */\n      pop\n      pop\n      pop\n      jump\t// out\n        /* \"#utility.yul\":11732:11805   */\n    tag_93:\n        /* \"#utility.yul\":11777:11780   */\n      0x00\n        /* \"#utility.yul\":11732:11805   */\n      swap1\n      jump\t// out\n        /* \"#utility.yul\":11811:12000   */\n    tag_94:\n        /* \"#utility.yul\":11888:11920   */\n      tag_235\n      tag_93\n      jump\t// in\n    tag_235:\n        /* \"#utility.yul\":11929:11994   */\n      tag_236\n        /* \"#utility.yul\":11987:11993   */\n      dup2\n        /* \"#utility.yul\":11979:11985   */\n      dup5\n        /* \"#utility.yul\":11973:11977   */\n      dup5\n        /* \"#utility.yul\":11929:11994   */\n      tag_92\n      jump\t// in\n    tag_236:\n        /* \"#utility.yul\":11864:12000   */\n      pop\n        /* \"#utility.yul\":11811:12000   */\n      pop\n      pop\n      jump\t// out\n        /* \"#utility.yul\":12006:12192   */\n    tag_95:\n        /* \"#utility.yul\":12066:12186   */\n    tag_238:\n        /* \"#utility.yul\":12083:12086   */\n      dup2\n        /* \"#utility.yul\":12076:12081   */\n      dup2\n        /* \"#utility.yul\":12073:12087   */\n      lt\n        /* \"#utility.yul\":12066:12186   */\n      iszero\n      tag_240\n      jumpi\n        /* \"#utility.yul\":12137:12176   */\n      tag_241\n        /* \"#utility.yul\":12174:12175   */\n      0x00\n        /* \"#utility.yul\":12167:12172   */\n      dup3\n        /* \"#utility.yul\":12137:12176   */\n      tag_94\n      jump\t// in\n    tag_241:\n        /* \"#utility.yul\":12110:12111   */\n      0x01\n        /* \"#utility.yul\":12103:12108   */\n      dup2\n        /* \"#utility.yul\":12099:12112   */\n      add\n        /* \"#utility.yul\":12090:12112   */\n      swap1\n      pop\n        /* \"#utility.yul\":12066:12186   */\n      jump(tag_238)\n    tag_240:\n        /* \"#utility.yul\":12006:12192   */\n      pop\n      pop\n      jump\t// out\n        /* \"#utility.yul\":12198:12741   */\n    tag_96:\n        /* \"#utility.yul\":12299:12301   */\n      0x1f\n        /* \"#utility.yul\":12294:12297   */\n      dup3\n        /* \"#utility.yul\":12291:12302   */\n      gt\n        /* \"#utility.yul\":12288:12734   */\n      iszero\n      tag_243\n      jumpi\n        /* \"#utility.yul\":12333:12371   */\n      tag_244\n        /* \"#utility.yul\":12365:12370   */\n      dup2\n        /* \"#utility.yul\":12333:12371   */\n      tag_85\n      jump\t// in\n    tag_244:\n        /* \"#utility.yul\":12417:12446   */\n      tag_245\n        /* \"#utility.yul\":12435:12445   */\n      dup5\n        /* \"#utility.yul\":12417:12446   */\n      tag_86\n      jump\t// in\n    tag_245:\n        /* \"#utility.yul\":12407:12415   */\n      dup2\n        /* \"#utility.yul\":12403:12447   */\n      add\n        /* \"#utility.yul\":12600:12602   */\n      0x20\n        /* \"#utility.yul\":12588:12598   */\n      dup6\n        /* \"#utility.yul\":12585:12603   */\n      lt\n        /* \"#utility.yul\":12582:12631   */\n      iszero\n      tag_246\n      jumpi\n        /* \"#utility.yul\":12621:12629   */\n      dup2\n        /* \"#utility.yul\":12606:12629   */\n      swap1\n      pop\n        /* \"#utility.yul\":12582:12631   */\n    tag_246:\n        /* \"#utility.yul\":12644:12724   */\n      tag_247\n        /* \"#utility.yul\":12700:12722   */\n      tag_248\n        /* \"#utility.yul\":12718:12721   */\n      dup6\n        /* \"#utility.yul\":12700:12722   */\n      tag_86\n      jump\t// in\n    tag_248:\n        /* \"#utility.yul\":12690:12698   */\n      dup4\n        /* \"#utility.yul\":12686:12723   */\n      add\n        /* \"#utility.yul\":12673:12684   */\n      dup3\n        /* \"#utility.yul\":12644:12724   */\n      tag_95\n      jump\t// in\n    tag_247:\n        /* \"#utility.yul\":12303:12734   */\n      pop\n      pop\n        /* \"#utility.yul\":12288:12734   */\n    tag_243:\n        /* \"#utility.yul\":12198:12741   */\n      pop\n      pop\n      pop\n      jump\t// out\n        /* \"#utility.yul\":12747:12864   */\n    tag_97:\n        /* \"#utility.yul\":12801:12809   */\n      0x00\n        /* \"#utility.yul\":12851:12856   */\n      dup3\n        /* \"#utility.yul\":12845:12849   */\n      dup3\n        /* \"#utility.yul\":12841:12857   */\n      shr\n        /* \"#utility.yul\":12820:12857   */\n      swap1\n      pop\n        /* \"#utility.yul\":12747:12864   */\n      swap3\n      swap2\n      pop\n      pop\n      jump\t// out\n        /* \"#utility.yul\":12870:13039   */\n    tag_98:\n        /* \"#utility.yul\":12914:12920   */\n      0x00\n        /* \"#utility.yul\":12947:12998   */\n      tag_251\n        /* \"#utility.yul\":12995:12996   */\n      0x00\n        /* \"#utility.yul\":12991:12997   */\n      not\n        /* \"#utility.yul\":12983:12988   */\n      dup5\n        /* \"#utility.yul\":12980:12981   */\n      0x08\n        /* \"#utility.yul\":12976:12989   */\n      mul\n        /* \"#utility.yul\":12947:12998   */\n      tag_97\n      jump\t// in\n    tag_251:\n        /* \"#utility.yul\":12943:12999   */\n      not\n        /* \"#utility.yul\":13028:13032   */\n      dup1\n        /* \"#utility.yul\":13022:13026   */\n      dup4\n        /* \"#utility.yul\":13018:13033   */\n      and\n        /* \"#utility.yul\":13008:13033   */\n      swap2\n      pop\n        /* \"#utility.yul\":12921:13039   */\n      pop\n        /* \"#utility.yul\":12870:13039   */\n      swap3\n      swap2\n      pop\n      pop\n      jump\t// out\n        /* \"#utility.yul\":13044:13339   */\n    tag_99:\n        /* \"#utility.yul\":13120:13124   */\n      0x00\n        /* \"#utility.yul\":13266:13295   */\n      tag_253\n        /* \"#utility.yul\":13291:13294   */\n      dup4\n        /* \"#utility.yul\":13285:13289   */\n      dup4\n        /* \"#utility.yul\":13266:13295   */\n      tag_98\n      jump\t// in\n    tag_253:\n        /* \"#utility.yul\":13258:13295   */\n      swap2\n      pop\n        /* \"#utility.yul\":13328:13331   */\n      dup3\n        /* \"#utility.yul\":13325:13326   */\n      0x02\n        /* \"#utility.yul\":13321:13332   */\n      mul\n        /* \"#utility.yul\":13315:13319   */\n      dup3\n        /* \"#utility.yul\":13312:13333   */\n      or\n        /* \"#utility.yul\":13304:13333   */\n      swap1\n      pop\n        /* \"#utility.yul\":13044:13339   */\n      swap3\n      swap2\n      pop\n      pop\n      jump\t// out\n        /* \"#utility.yul\":13344:14739   */\n    tag_34:\n        /* \"#utility.yul\":13461:13498   */\n      tag_255\n        /* \"#utility.yul\":13494:13497   */\n      dup3\n        /* \"#utility.yul\":13461:13498   */\n      tag_68\n      jump\t// in\n    tag_255:\n        /* \"#utility.yul\":13563:13581   */\n      0xffffffffffffffff\n        /* \"#utility.yul\":13555:13561   */\n      dup2\n        /* \"#utility.yul\":13552:13582   */\n      gt\n        /* \"#utility.yul\":13549:13605   */\n      iszero\n      tag_256\n      jumpi\n        /* \"#utility.yul\":13585:13603   */\n      tag_257\n      tag_61\n      jump\t// in\n    tag_257:\n        /* \"#utility.yul\":13549:13605   */\n    tag_256:\n        /* \"#utility.yul\":13629:13667   */\n      tag_258\n        /* \"#utility.yul\":13661:13665   */\n      dup3\n        /* \"#utility.yul\":13655:13666   */\n      sload\n        /* \"#utility.yul\":13629:13667   */\n      tag_37\n      jump\t// in\n    tag_258:\n        /* \"#utility.yul\":13714:13781   */\n      tag_259\n        /* \"#utility.yul\":13774:13780   */\n      dup3\n        /* \"#utility.yul\":13766:13772   */\n      dup3\n        /* \"#utility.yul\":13760:13764   */\n      dup6\n        /* \"#utility.yul\":13714:13781   */\n      tag_96\n      jump\t// in\n    tag_259:\n        /* \"#utility.yul\":13808:13809   */\n      0x00\n        /* \"#utility.yul\":13832:13836   */\n      0x20\n        /* \"#utility.yul\":13819:13836   */\n      swap1\n      pop\n        /* \"#utility.yul\":13864:13866   */\n      0x1f\n        /* \"#utility.yul\":13856:13862   */\n      dup4\n        /* \"#utility.yul\":13853:13867   */\n      gt\n        /* \"#utility.yul\":13881:13882   */\n      0x01\n        /* \"#utility.yul\":13876:14494   */\n      dup2\n      eq\n      tag_261\n      jumpi\n        /* \"#utility.yul\":14538:14539   */\n      0x00\n        /* \"#utility.yul\":14555:14561   */\n      dup5\n        /* \"#utility.yul\":14552:14629   */\n      iszero\n      tag_262\n      jumpi\n        /* \"#utility.yul\":14604:14613   */\n      dup3\n        /* \"#utility.yul\":14599:14602   */\n      dup8\n        /* \"#utility.yul\":14595:14614   */\n      add\n        /* \"#utility.yul\":14589:14615   */\n      mload\n        /* \"#utility.yul\":14580:14615   */\n      swap1\n      pop\n        /* \"#utility.yul\":14552:14629   */\n    tag_262:\n        /* \"#utility.yul\":14655:14722   */\n      tag_263\n        /* \"#utility.yul\":14715:14721   */\n      dup6\n        /* \"#utility.yul\":14708:14713   */\n      dup3\n        /* \"#utility.yul\":14655:14722   */\n      tag_99\n      jump\t// in\n    tag_263:\n        /* \"#utility.yul\":14649:14653   */\n      dup7\n        /* \"#utility.yul\":14642:14723   */\n      sstore\n        /* \"#utility.yul\":14511:14733   */\n      pop\n        /* \"#utility.yul\":13846:14733   */\n      jump(tag_260)\n        /* \"#utility.yul\":13876:14494   */\n    tag_261:\n        /* \"#utility.yul\":13928:13932   */\n      0x1f\n        /* \"#utility.yul\":13924:13933   */\n      not\n        /* \"#utility.yul\":13916:13922   */\n      dup5\n        /* \"#utility.yul\":13912:13934   */\n      and\n        /* \"#utility.yul\":13962:13999   */\n      tag_264\n        /* \"#utility.yul\":13994:13998   */\n      dup7\n        /* \"#utility.yul\":13962:13999   */\n      tag_85\n      jump\t// in\n    tag_264:\n        /* \"#utility.yul\":14021:14022   */\n      0x00\n        /* \"#utility.yul\":14035:14243   */\n    tag_265:\n        /* \"#utility.yul\":14049:14056   */\n      dup3\n        /* \"#utility.yul\":14046:14047   */\n      dup2\n        /* \"#utility.yul\":14043:14057   */\n      lt\n        /* \"#utility.yul\":14035:14243   */\n      iszero\n      tag_267\n      jumpi\n        /* \"#utility.yul\":14128:14137   */\n      dup5\n        /* \"#utility.yul\":14123:14126   */\n      dup10\n        /* \"#utility.yul\":14119:14138   */\n      add\n        /* \"#utility.yul\":14113:14139   */\n      mload\n        /* \"#utility.yul\":14105:14111   */\n      dup3\n        /* \"#utility.yul\":14098:14140   */\n      sstore\n        /* \"#utility.yul\":14179:14180   */\n      0x01\n        /* \"#utility.yul\":14171:14177   */\n      dup3\n        /* \"#utility.yul\":14167:14181   */\n      add\n        /* \"#utility.yul\":14157:14181   */\n      swap2\n      pop\n        /* \"#utility.yul\":14226:14228   */\n      0x20\n        /* \"#utility.yul\":14215:14224   */\n      dup6\n        /* \"#utility.yul\":14211:14229   */\n      add\n        /* \"#utility.yul\":14198:14229   */\n      swap5\n      pop\n        /* \"#utility.yul\":14072:14076   */\n      0x20\n        /* \"#utility.yul\":14069:14070   */\n      dup2\n        /* \"#utility.yul\":14065:14077   */\n      add\n        /* \"#utility.yul\":14060:14077   */\n      swap1\n      pop\n        /* \"#utility.yul\":14035:14243   */\n      jump(tag_265)\n    tag_267:\n        /* \"#utility.yul\":14271:14277   */\n      dup7\n        /* \"#utility.yul\":14262:14269   */\n      dup4\n        /* \"#utility.yul\":14259:14278   */\n      lt\n        /* \"#utility.yul\":14256:14435   */\n      iszero\n      tag_268\n      jumpi\n        /* \"#utility.yul\":14329:14338   */\n      dup5\n        /* \"#utility.yul\":14324:14327   */\n      dup10\n        /* \"#utility.yul\":14320:14339   */\n      add\n        /* \"#utility.yul\":14314:14340   */\n      mload\n        /* \"#utility.yul\":14372:14420   */\n      tag_269\n        /* \"#utility.yul\":14414:14418   */\n      0x1f\n        /* \"#utility.yul\":14406:14412   */\n      dup10\n        /* \"#utility.yul\":14402:14419   */\n      and\n        /* \"#utility.yul\":14391:14400   */\n      dup3\n        /* \"#utility.yul\":14372:14420   */\n      tag_98\n      jump\t// in\n    tag_269:\n        /* \"#utility.yul\":14364:14370   */\n      dup4\n        /* \"#utility.yul\":14357:14421   */\n      sstore\n        /* \"#utility.yul\":14279:14435   */\n      pop\n        /* \"#utility.yul\":14256:14435   */\n    tag_268:\n        /* \"#utility.yul\":14481:14482   */\n      0x01\n        /* \"#utility.yul\":14477:14478   */\n      0x02\n        /* \"#utility.yul\":14469:14475   */\n      dup9\n        /* \"#utility.yul\":14465:14479   */\n      mul\n        /* \"#utility.yul\":14461:14483   */\n      add\n        /* \"#utility.yul\":14455:14459   */\n      dup9\n        /* \"#utility.yul\":14448:14484   */\n      sstore\n        /* \"#utility.yul\":13883:14494   */\n      pop\n      pop\n      pop\n        /* \"#utility.yul\":13846:14733   */\n    tag_260:\n      pop\n        /* \"#utility.yul\":13436:14739   */\n      pop\n      pop\n      pop\n        /* \"#utility.yul\":13344:14739   */\n      pop\n      pop\n      jump\t// out\n\n    auxdata: 0xa2646970667358221220e9f0ea1cee711aa1fcfed38fa97b785d48539fa51c827f073e86782c86ae2c1164736f6c63430008120033\n}\n",
				"bytecode": {
					"linkReferences": {},
					"object": "608060405234801561001057600080fd5b50610d15806100206000396000f3fe608060405234801561001057600080fd5b506004361061004c5760003560e01c806304706c4e146100515780632c9b0b851461006d578063c2bc2efc14610089578063fcadb047146100bc575b600080fd5b61006b6004803603810190610066919061052b565b6100d8565b005b610087600480360381019061008291906106f9565b610142565b005b6100a3600480360381019061009e919061052b565b610246565b6040516100b3949392919061093f565b60405180910390f35b6100d660048036038101906100d19190610992565b61044d565b005b6000808273ffffffffffffffffffffffffffffffffffffffff1673ffffffffffffffffffffffffffffffffffffffff168152602001908152602001600020600301805480610129576101286109d2565b5b6001900381819060005260206000200160009055905550565b836000808573ffffffffffffffffffffffffffffffffffffffff1673ffffffffffffffffffffffffffffffffffffffff16815260200190815260200160002060020160006101000a81548160ff021916908360078111156101a6576101a561080a565b5b0217905550816000808573ffffffffffffffffffffffffffffffffffffffff1673ffffffffffffffffffffffffffffffffffffffff16815260200190815260200160002060010181905550806000808573ffffffffffffffffffffffffffffffffffffffff1673ffffffffffffffffffffffffffffffffffffffff168152602001908152602001600020600001908161023f9190610c0d565b5050505050565b606060008060606000808673ffffffffffffffffffffffffffffffffffffffff1673ffffffffffffffffffffffffffffffffffffffff1681526020019081526020016000206000016000808773ffffffffffffffffffffffffffffffffffffffff1673ffffffffffffffffffffffffffffffffffffffff168152602001908152602001600020600101546000808873ffffffffffffffffffffffffffffffffffffffff1673ffffffffffffffffffffffffffffffffffffffff16815260200190815260200160002060020160009054906101000a900460ff166000808973ffffffffffffffffffffffffffffffffffffffff1673ffffffffffffffffffffffffffffffffffffffff16815260200190815260200160002060030183805461036c90610a30565b80601f016020809104026020016040519081016040528092919081815260200182805461039890610a30565b80156103e55780601f106103ba576101008083540402835291602001916103e5565b820191906000526020600020905b8154815290600101906020018083116103c857829003601f168201915b505050505093508080548060200260200160405190810160405280929190818152602001828054801561043757602002820191906000526020600020905b815481526020019060010190808311610423575b5050505050905093509350935093509193509193565b6000808373ffffffffffffffffffffffffffffffffffffffff1673ffffffffffffffffffffffffffffffffffffffff1681526020019081526020016000206003018190806001815401808255809150506001900390600052602060002001600090919091909150555050565b6000604051905090565b600080fd5b600080fd5b600073ffffffffffffffffffffffffffffffffffffffff82169050919050565b60006104f8826104cd565b9050919050565b610508816104ed565b811461051357600080fd5b50565b600081359050610525816104ff565b92915050565b600060208284031215610541576105406104c3565b5b600061054f84828501610516565b91505092915050565b6008811061056557600080fd5b50565b60008135905061057781610558565b92915050565b6000819050919050565b6105908161057d565b811461059b57600080fd5b50565b6000813590506105ad81610587565b92915050565b600080fd5b600080fd5b6000601f19601f8301169050919050565b7f4e487b7100000000000000000000000000000000000000000000000000000000600052604160045260246000fd5b610606826105bd565b810181811067ffffffffffffffff82111715610625576106246105ce565b5b80604052505050565b60006106386104b9565b905061064482826105fd565b919050565b600067ffffffffffffffff821115610664576106636105ce565b5b61066d826105bd565b9050602081019050919050565b82818337600083830152505050565b600061069c61069784610649565b61062e565b9050828152602081018484840111156106b8576106b76105b8565b5b6106c384828561067a565b509392505050565b600082601f8301126106e0576106df6105b3565b5b81356106f0848260208601610689565b91505092915050565b60008060008060808587031215610713576107126104c3565b5b600061072187828801610568565b945050602061073287828801610516565b93505060406107438782880161059e565b925050606085013567ffffffffffffffff811115610764576107636104c8565b5b610770878288016106cb565b91505092959194509250565b600081519050919050565b600082825260208201905092915050565b60005b838110156107b657808201518184015260208101905061079b565b60008484015250505050565b60006107cd8261077c565b6107d78185610787565b93506107e7818560208601610798565b6107f0816105bd565b840191505092915050565b6108048161057d565b82525050565b7f4e487b7100000000000000000000000000000000000000000000000000000000600052602160045260246000fd5b6008811061084a5761084961080a565b5b50565b600081905061085b82610839565b919050565b600061086b8261084d565b9050919050565b61087b81610860565b82525050565b600081519050919050565b600082825260208201905092915050565b6000819050602082019050919050565b6108b68161057d565b82525050565b60006108c883836108ad565b60208301905092915050565b6000602082019050919050565b60006108ec82610881565b6108f6818561088c565b93506109018361089d565b8060005b8381101561093257815161091988826108bc565b9750610924836108d4565b925050600181019050610905565b5085935050505092915050565b6000608082019050818103600083015261095981876107c2565b905061096860208301866107fb565b6109756040830185610872565b818103606083015261098781846108e1565b905095945050505050565b600080604083850312156109a9576109a86104c3565b5b60006109b785828601610516565b92505060206109c88582860161059e565b9150509250929050565b7f4e487b7100000000000000000000000000000000000000000000000000000000600052603160045260246000fd5b7f4e487b7100000000000000000000000000000000000000000000000000000000600052602260045260246000fd5b60006002820490506001821680610a4857607f821691505b602082108103610a5b57610a5a610a01565b5b50919050565b60008190508160005260206000209050919050565b60006020601f8301049050919050565b600082821b905092915050565b600060088302610ac37fffffffffffffffffffffffffffffffffffffffffffffffffffffffffffffffff82610a86565b610acd8683610a86565b95508019841693508086168417925050509392505050565b6000819050919050565b6000610b0a610b05610b008461057d565b610ae5565b61057d565b9050919050565b6000819050919050565b610b2483610aef565b610b38610b3082610b11565b848454610a93565b825550505050565b600090565b610b4d610b40565b610b58818484610b1b565b505050565b5b81811015610b7c57610b71600082610b45565b600181019050610b5e565b5050565b601f821115610bc157610b9281610a61565b610b9b84610a76565b81016020851015610baa578190505b610bbe610bb685610a76565b830182610b5d565b50505b505050565b600082821c905092915050565b6000610be460001984600802610bc6565b1980831691505092915050565b6000610bfd8383610bd3565b9150826002028217905092915050565b610c168261077c565b67ffffffffffffffff811115610c2f57610c2e6105ce565b5b610c398254610a30565b610c44828285610b80565b600060209050601f831160018114610c775760008415610c65578287015190505b610c6f8582610bf1565b865550610cd7565b601f198416610c8586610a61565b60005b82811015610cad57848901518255600182019150602085019450602081019050610c88565b86831015610cca5784890151610cc6601f891682610bd3565b8355505b6001600288020188555050505b50505050505056fea2646970667358221220e9f0ea1cee711aa1fcfed38fa97b785d48539fa51c827f073e86782c86ae2c1164736f6c63430008120033",
					"opcodes": "PUSH1 0x80 PUSH1 0x40 MSTORE CALLVALUE DUP1 ISZERO PUSH2 0x10 JUMPI PUSH1 0x0 DUP1 REVERT JUMPDEST POP PUSH2 0xD15 DUP1 PUSH2 0x20 PUSH1 0x0 CODECOPY PUSH1 0x0 RETURN INVALID PUSH1 0x80 PUSH1 0x40 MSTORE CALLVALUE DUP1 ISZERO PUSH2 0x10 JUMPI PUSH1 0x0 DUP1 REVERT JUMPDEST POP PUSH1 0x4 CALLDATASIZE LT PUSH2 0x4C JUMPI PUSH1 0x0 CALLDATALOAD PUSH1 0xE0 SHR DUP1 PUSH4 0x4706C4E EQ PUSH2 0x51 JUMPI DUP1 PUSH4 0x2C9B0B85 EQ PUSH2 0x6D JUMPI DUP1 PUSH4 0xC2BC2EFC EQ PUSH2 0x89 JUMPI DUP1 PUSH4 0xFCADB047 EQ PUSH2 0xBC JUMPI JUMPDEST PUSH1 0x0 DUP1 REVERT JUMPDEST PUSH2 0x6B PUSH1 0x4 DUP1 CALLDATASIZE SUB DUP2 ADD SWAP1 PUSH2 0x66 SWAP2 SWAP1 PUSH2 0x52B JUMP JUMPDEST PUSH2 0xD8 JUMP JUMPDEST STOP JUMPDEST PUSH2 0x87 PUSH1 0x4 DUP1 CALLDATASIZE SUB DUP2 ADD SWAP1 PUSH2 0x82 SWAP2 SWAP1 PUSH2 0x6F9 JUMP JUMPDEST PUSH2 0x142 JUMP JUMPDEST STOP JUMPDEST PUSH2 0xA3 PUSH1 0x4 DUP1 CALLDATASIZE SUB DUP2 ADD SWAP1 PUSH2 0x9E SWAP2 SWAP1 PUSH2 0x52B JUMP JUMPDEST PUSH2 0x246 JUMP JUMPDEST PUSH1 0x40 MLOAD PUSH2 0xB3 SWAP5 SWAP4 SWAP3 SWAP2 SWAP1 PUSH2 0x93F JUMP JUMPDEST PUSH1 0x40 MLOAD DUP1 SWAP2 SUB SWAP1 RETURN JUMPDEST PUSH2 0xD6 PUSH1 0x4 DUP1 CALLDATASIZE SUB DUP2 ADD SWAP1 PUSH2 0xD1 SWAP2 SWAP1 PUSH2 0x992 JUMP JUMPDEST PUSH2 0x44D JUMP JUMPDEST STOP JUMPDEST PUSH1 0x0 DUP1 DUP3 PUSH20 0xFFFFFFFFFFFFFFFFFFFFFFFFFFFFFFFFFFFFFFFF AND PUSH20 0xFFFFFFFFFFFFFFFFFFFFFFFFFFFFFFFFFFFFFFFF AND DUP2 MSTORE PUSH1 0x20 ADD SWAP1 DUP2 MSTORE PUSH1 0x20 ADD PUSH1 0x0 KECCAK256 PUSH1 0x3 ADD DUP1 SLOAD DUP1 PUSH2 0x129 JUMPI PUSH2 0x128 PUSH2 0x9D2 JUMP JUMPDEST JUMPDEST PUSH1 0x1 SWAP1 SUB DUP2 DUP2 SWAP1 PUSH1 0x0 MSTORE PUSH1 0x20 PUSH1 0x0 KECCAK256 ADD PUSH1 0x0 SWAP1 SSTORE SWAP1 SSTORE POP JUMP JUMPDEST DUP4 PUSH1 0x0 DUP1 DUP6 PUSH20 0xFFFFFFFFFFFFFFFFFFFFFFFFFFFFFFFFFFFFFFFF AND PUSH20 0xFFFFFFFFFFFFFFFFFFFFFFFFFFFFFFFFFFFFFFFF AND DUP2 MSTORE PUSH1 0x20 ADD SWAP1 DUP2 MSTORE PUSH1 0x20 ADD PUSH1 0x0 KECCAK256 PUSH1 0x2 ADD PUSH1 0x0 PUSH2 0x100 EXP DUP2 SLOAD DUP2 PUSH1 0xFF MUL NOT AND SWAP1 DUP4 PUSH1 0x7 DUP2 GT ISZERO PUSH2 0x1A6 JUMPI PUSH2 0x1A5 PUSH2 0x80A JUMP JUMPDEST JUMPDEST MUL OR SWAP1 SSTORE POP DUP2 PUSH1 0x0 DUP1 DUP6 PUSH20 0xFFFFFFFFFFFFFFFFFFFFFFFFFFFFFFFFFFFFFFFF AND PUSH20 0xFFFFFFFFFFFFFFFFFFFFFFFFFFFFFFFFFFFFFFFF AND DUP2 MSTORE PUSH1 0x20 ADD SWAP1 DUP2 MSTORE PUSH1 0x20 ADD PUSH1 0x0 KECCAK256 PUSH1 0x1 ADD DUP2 SWAP1 SSTORE POP DUP1 PUSH1 0x0 DUP1 DUP6 PUSH20 0xFFFFFFFFFFFFFFFFFFFFFFFFFFFFFFFFFFFFFFFF AND PUSH20 0xFFFFFFFFFFFFFFFFFFFFFFFFFFFFFFFFFFFFFFFF AND DUP2 MSTORE PUSH1 0x20 ADD SWAP1 DUP2 MSTORE PUSH1 0x20 ADD PUSH1 0x0 KECCAK256 PUSH1 0x0 ADD SWAP1 DUP2 PUSH2 0x23F SWAP2 SWAP1 PUSH2 0xC0D JUMP JUMPDEST POP POP POP POP POP JUMP JUMPDEST PUSH1 0x60 PUSH1 0x0 DUP1 PUSH1 0x60 PUSH1 0x0 DUP1 DUP7 PUSH20 0xFFFFFFFFFFFFFFFFFFFFFFFFFFFFFFFFFFFFFFFF AND PUSH20 0xFFFFFFFFFFFFFFFFFFFFFFFFFFFFFFFFFFFFFFFF AND DUP2 MSTORE PUSH1 0x20 ADD SWAP1 DUP2 MSTORE PUSH1 0x20 ADD PUSH1 0x0 KECCAK256 PUSH1 0x0 ADD PUSH1 0x0 DUP1 DUP8 PUSH20 0xFFFFFFFFFFFFFFFFFFFFFFFFFFFFFFFFFFFFFFFF AND PUSH20 0xFFFFFFFFFFFFFFFFFFFFFFFFFFFFFFFFFFFFFFFF AND DUP2 MSTORE PUSH1 0x20 ADD SWAP1 DUP2 MSTORE PUSH1 0x20 ADD PUSH1 0x0 KECCAK256 PUSH1 0x1 ADD SLOAD PUSH1 0x0 DUP1 DUP9 PUSH20 0xFFFFFFFFFFFFFFFFFFFFFFFFFFFFFFFFFFFFFFFF AND PUSH20 0xFFFFFFFFFFFFFFFFFFFFFFFFFFFFFFFFFFFFFFFF AND DUP2 MSTORE PUSH1 0x20 ADD SWAP1 DUP2 MSTORE PUSH1 0x20 ADD PUSH1 0x0 KECCAK256 PUSH1 0x2 ADD PUSH1 0x0 SWAP1 SLOAD SWAP1 PUSH2 0x100 EXP SWAP1 DIV PUSH1 0xFF AND PUSH1 0x0 DUP1 DUP10 PUSH20 0xFFFFFFFFFFFFFFFFFFFFFFFFFFFFFFFFFFFFFFFF AND PUSH20 0xFFFFFFFFFFFFFFFFFFFFFFFFFFFFFFFFFFFFFFFF AND DUP2 MSTORE PUSH1 0x20 ADD SWAP1 DUP2 MSTORE PUSH1 0x20 ADD PUSH1 0x0 KECCAK256 PUSH1 0x3 ADD DUP4 DUP1 SLOAD PUSH2 0x36C SWAP1 PUSH2 0xA30 JUMP JUMPDEST DUP1 PUSH1 0x1F ADD PUSH1 0x20 DUP1 SWAP2 DIV MUL PUSH1 0x20 ADD PUSH1 0x40 MLOAD SWAP1 DUP2 ADD PUSH1 0x40 MSTORE DUP1 SWAP3 SWAP2 SWAP1 DUP2 DUP2 MSTORE PUSH1 0x20 ADD DUP3 DUP1 SLOAD PUSH2 0x398 SWAP1 PUSH2 0xA30 JUMP JUMPDEST DUP1 ISZERO PUSH2 0x3E5 JUMPI DUP1 PUSH1 0x1F LT PUSH2 0x3BA JUMPI PUSH2 0x100 DUP1 DUP4 SLOAD DIV MUL DUP4 MSTORE SWAP2 PUSH1 0x20 ADD SWAP2 PUSH2 0x3E5 JUMP JUMPDEST DUP3 ADD SWAP2 SWAP1 PUSH1 0x0 MSTORE PUSH1 0x20 PUSH1 0x0 KECCAK256 SWAP1 JUMPDEST DUP2 SLOAD DUP2 MSTORE SWAP1 PUSH1 0x1 ADD SWAP1 PUSH1 0x20 ADD DUP1 DUP4 GT PUSH2 0x3C8 JUMPI DUP3 SWAP1 SUB PUSH1 0x1F AND DUP3 ADD SWAP2 JUMPDEST POP POP POP POP POP SWAP4 POP DUP1 DUP1 SLOAD DUP1 PUSH1 0x20 MUL PUSH1 0x20 ADD PUSH1 0x40 MLOAD SWAP1 DUP2 ADD PUSH1 0x40 MSTORE DUP1 SWAP3 SWAP2 SWAP1 DUP2 DUP2 MSTORE PUSH1 0x20 ADD DUP3 DUP1 SLOAD DUP1 ISZERO PUSH2 0x437 JUMPI PUSH1 0x20 MUL DUP3 ADD SWAP2 SWAP1 PUSH1 0x0 MSTORE PUSH1 0x20 PUSH1 0x0 KECCAK256 SWAP1 JUMPDEST DUP2 SLOAD DUP2 MSTORE PUSH1 0x20 ADD SWAP1 PUSH1 0x1 ADD SWAP1 DUP1 DUP4 GT PUSH2 0x423 JUMPI JUMPDEST POP POP POP POP POP SWAP1 POP SWAP4 POP SWAP4 POP SWAP4 POP SWAP4 POP SWAP2 SWAP4 POP SWAP2 SWAP4 JUMP JUMPDEST PUSH1 0x0 DUP1 DUP4 PUSH20 0xFFFFFFFFFFFFFFFFFFFFFFFFFFFFFFFFFFFFFFFF AND PUSH20 0xFFFFFFFFFFFFFFFFFFFFFFFFFFFFFFFFFFFFFFFF AND DUP2 MSTORE PUSH1 0x20 ADD SWAP1 DUP2 MSTORE PUSH1 0x20 ADD PUSH1 0x0 KECCAK256 PUSH1 0x3 ADD DUP2 SWAP1 DUP1 PUSH1 0x1 DUP2 SLOAD ADD DUP1 DUP3 SSTORE DUP1 SWAP2 POP POP PUSH1 0x1 SWAP1 SUB SWAP1 PUSH1 0x0 MSTORE PUSH1 0x20 PUSH1 0x0 KECCAK256 ADD PUSH1 0x0 SWAP1 SWAP2 SWAP1 SWAP2 SWAP1 SWAP2 POP SSTORE POP POP JUMP JUMPDEST PUSH1 0x0 PUSH1 0x40 MLOAD SWAP1 POP SWAP1 JUMP JUMPDEST PUSH1 0x0 DUP1 REVERT JUMPDEST PUSH1 0x0 DUP1 REVERT JUMPDEST PUSH1 0x0 PUSH20 0xFFFFFFFFFFFFFFFFFFFFFFFFFFFFFFFFFFFFFFFF DUP3 AND SWAP1 POP SWAP2 SWAP1 POP JUMP JUMPDEST PUSH1 0x0 PUSH2 0x4F8 DUP3 PUSH2 0x4CD JUMP JUMPDEST SWAP1 POP SWAP2 SWAP1 POP JUMP JUMPDEST PUSH2 0x508 DUP2 PUSH2 0x4ED JUMP JUMPDEST DUP2 EQ PUSH2 0x513 JUMPI PUSH1 0x0 DUP1 REVERT JUMPDEST POP JUMP JUMPDEST PUSH1 0x0 DUP2 CALLDATALOAD SWAP1 POP PUSH2 0x525 DUP2 PUSH2 0x4FF JUMP JUMPDEST SWAP3 SWAP2 POP POP JUMP JUMPDEST PUSH1 0x0 PUSH1 0x20 DUP3 DUP5 SUB SLT ISZERO PUSH2 0x541 JUMPI PUSH2 0x540 PUSH2 0x4C3 JUMP JUMPDEST JUMPDEST PUSH1 0x0 PUSH2 0x54F DUP5 DUP3 DUP6 ADD PUSH2 0x516 JUMP JUMPDEST SWAP2 POP POP SWAP3 SWAP2 POP POP JUMP JUMPDEST PUSH1 0x8 DUP2 LT PUSH2 0x565 JUMPI PUSH1 0x0 DUP1 REVERT JUMPDEST POP JUMP JUMPDEST PUSH1 0x0 DUP2 CALLDATALOAD SWAP1 POP PUSH2 0x577 DUP2 PUSH2 0x558 JUMP JUMPDEST SWAP3 SWAP2 POP POP JUMP JUMPDEST PUSH1 0x0 DUP2 SWAP1 POP SWAP2 SWAP1 POP JUMP JUMPDEST PUSH2 0x590 DUP2 PUSH2 0x57D JUMP JUMPDEST DUP2 EQ PUSH2 0x59B JUMPI PUSH1 0x0 DUP1 REVERT JUMPDEST POP JUMP JUMPDEST PUSH1 0x0 DUP2 CALLDATALOAD SWAP1 POP PUSH2 0x5AD DUP2 PUSH2 0x587 JUMP JUMPDEST SWAP3 SWAP2 POP POP JUMP JUMPDEST PUSH1 0x0 DUP1 REVERT JUMPDEST PUSH1 0x0 DUP1 REVERT JUMPDEST PUSH1 0x0 PUSH1 0x1F NOT PUSH1 0x1F DUP4 ADD AND SWAP1 POP SWAP2 SWAP1 POP JUMP JUMPDEST PUSH32 0x4E487B7100000000000000000000000000000000000000000000000000000000 PUSH1 0x0 MSTORE PUSH1 0x41 PUSH1 0x4 MSTORE PUSH1 0x24 PUSH1 0x0 REVERT JUMPDEST PUSH2 0x606 DUP3 PUSH2 0x5BD JUMP JUMPDEST DUP2 ADD DUP2 DUP2 LT PUSH8 0xFFFFFFFFFFFFFFFF DUP3 GT OR ISZERO PUSH2 0x625 JUMPI PUSH2 0x624 PUSH2 0x5CE JUMP JUMPDEST JUMPDEST DUP1 PUSH1 0x40 MSTORE POP POP POP JUMP JUMPDEST PUSH1 0x0 PUSH2 0x638 PUSH2 0x4B9 JUMP JUMPDEST SWAP1 POP PUSH2 0x644 DUP3 DUP3 PUSH2 0x5FD JUMP JUMPDEST SWAP2 SWAP1 POP JUMP JUMPDEST PUSH1 0x0 PUSH8 0xFFFFFFFFFFFFFFFF DUP3 GT ISZERO PUSH2 0x664 JUMPI PUSH2 0x663 PUSH2 0x5CE JUMP JUMPDEST JUMPDEST PUSH2 0x66D DUP3 PUSH2 0x5BD JUMP JUMPDEST SWAP1 POP PUSH1 0x20 DUP2 ADD SWAP1 POP SWAP2 SWAP1 POP JUMP JUMPDEST DUP3 DUP2 DUP4 CALLDATACOPY PUSH1 0x0 DUP4 DUP4 ADD MSTORE POP POP POP JUMP JUMPDEST PUSH1 0x0 PUSH2 0x69C PUSH2 0x697 DUP5 PUSH2 0x649 JUMP JUMPDEST PUSH2 0x62E JUMP JUMPDEST SWAP1 POP DUP3 DUP2 MSTORE PUSH1 0x20 DUP2 ADD DUP5 DUP5 DUP5 ADD GT ISZERO PUSH2 0x6B8 JUMPI PUSH2 0x6B7 PUSH2 0x5B8 JUMP JUMPDEST JUMPDEST PUSH2 0x6C3 DUP5 DUP3 DUP6 PUSH2 0x67A JUMP JUMPDEST POP SWAP4 SWAP3 POP POP POP JUMP JUMPDEST PUSH1 0x0 DUP3 PUSH1 0x1F DUP4 ADD SLT PUSH2 0x6E0 JUMPI PUSH2 0x6DF PUSH2 0x5B3 JUMP JUMPDEST JUMPDEST DUP2 CALLDATALOAD PUSH2 0x6F0 DUP5 DUP3 PUSH1 0x20 DUP7 ADD PUSH2 0x689 JUMP JUMPDEST SWAP2 POP POP SWAP3 SWAP2 POP POP JUMP JUMPDEST PUSH1 0x0 DUP1 PUSH1 0x0 DUP1 PUSH1 0x80 DUP6 DUP8 SUB SLT ISZERO PUSH2 0x713 JUMPI PUSH2 0x712 PUSH2 0x4C3 JUMP JUMPDEST JUMPDEST PUSH1 0x0 PUSH2 0x721 DUP8 DUP3 DUP9 ADD PUSH2 0x568 JUMP JUMPDEST SWAP5 POP POP PUSH1 0x20 PUSH2 0x732 DUP8 DUP3 DUP9 ADD PUSH2 0x516 JUMP JUMPDEST SWAP4 POP POP PUSH1 0x40 PUSH2 0x743 DUP8 DUP3 DUP9 ADD PUSH2 0x59E JUMP JUMPDEST SWAP3 POP POP PUSH1 0x60 DUP6 ADD CALLDATALOAD PUSH8 0xFFFFFFFFFFFFFFFF DUP2 GT ISZERO PUSH2 0x764 JUMPI PUSH2 0x763 PUSH2 0x4C8 JUMP JUMPDEST JUMPDEST PUSH2 0x770 DUP8 DUP3 DUP9 ADD PUSH2 0x6CB JUMP JUMPDEST SWAP2 POP POP SWAP3 SWAP6 SWAP2 SWAP5 POP SWAP3 POP JUMP JUMPDEST PUSH1 0x0 DUP2 MLOAD SWAP1 POP SWAP2 SWAP1 POP JUMP JUMPDEST PUSH1 0x0 DUP3 DUP3 MSTORE PUSH1 0x20 DUP3 ADD SWAP1 POP SWAP3 SWAP2 POP POP JUMP JUMPDEST PUSH1 0x0 JUMPDEST DUP4 DUP2 LT ISZERO PUSH2 0x7B6 JUMPI DUP1 DUP3 ADD MLOAD DUP2 DUP5 ADD MSTORE PUSH1 0x20 DUP2 ADD SWAP1 POP PUSH2 0x79B JUMP JUMPDEST PUSH1 0x0 DUP5 DUP5 ADD MSTORE POP POP POP POP JUMP JUMPDEST PUSH1 0x0 PUSH2 0x7CD DUP3 PUSH2 0x77C JUMP JUMPDEST PUSH2 0x7D7 DUP2 DUP6 PUSH2 0x787 JUMP JUMPDEST SWAP4 POP PUSH2 0x7E7 DUP2 DUP6 PUSH1 0x20 DUP7 ADD PUSH2 0x798 JUMP JUMPDEST PUSH2 0x7F0 DUP2 PUSH2 0x5BD JUMP JUMPDEST DUP5 ADD SWAP2 POP POP SWAP3 SWAP2 POP POP JUMP JUMPDEST PUSH2 0x804 DUP2 PUSH2 0x57D JUMP JUMPDEST DUP3 MSTORE POP POP JUMP JUMPDEST PUSH32 0x4E487B7100000000000000000000000000000000000000000000000000000000 PUSH1 0x0 MSTORE PUSH1 0x21 PUSH1 0x4 MSTORE PUSH1 0x24 PUSH1 0x0 REVERT JUMPDEST PUSH1 0x8 DUP2 LT PUSH2 0x84A JUMPI PUSH2 0x849 PUSH2 0x80A JUMP JUMPDEST JUMPDEST POP JUMP JUMPDEST PUSH1 0x0 DUP2 SWAP1 POP PUSH2 0x85B DUP3 PUSH2 0x839 JUMP JUMPDEST SWAP2 SWAP1 POP JUMP JUMPDEST PUSH1 0x0 PUSH2 0x86B DUP3 PUSH2 0x84D JUMP JUMPDEST SWAP1 POP SWAP2 SWAP1 POP JUMP JUMPDEST PUSH2 0x87B DUP2 PUSH2 0x860 JUMP JUMPDEST DUP3 MSTORE POP POP JUMP JUMPDEST PUSH1 0x0 DUP2 MLOAD SWAP1 POP SWAP2 SWAP1 POP JUMP JUMPDEST PUSH1 0x0 DUP3 DUP3 MSTORE PUSH1 0x20 DUP3 ADD SWAP1 POP SWAP3 SWAP2 POP POP JUMP JUMPDEST PUSH1 0x0 DUP2 SWAP1 POP PUSH1 0x20 DUP3 ADD SWAP1 POP SWAP2 SWAP1 POP JUMP JUMPDEST PUSH2 0x8B6 DUP2 PUSH2 0x57D JUMP JUMPDEST DUP3 MSTORE POP POP JUMP JUMPDEST PUSH1 0x0 PUSH2 0x8C8 DUP4 DUP4 PUSH2 0x8AD JUMP JUMPDEST PUSH1 0x20 DUP4 ADD SWAP1 POP SWAP3 SWAP2 POP POP JUMP JUMPDEST PUSH1 0x0 PUSH1 0x20 DUP3 ADD SWAP1 POP SWAP2 SWAP1 POP JUMP JUMPDEST PUSH1 0x0 PUSH2 0x8EC DUP3 PUSH2 0x881 JUMP JUMPDEST PUSH2 0x8F6 DUP2 DUP6 PUSH2 0x88C JUMP JUMPDEST SWAP4 POP PUSH2 0x901 DUP4 PUSH2 0x89D JUMP JUMPDEST DUP1 PUSH1 0x0 JUMPDEST DUP4 DUP2 LT ISZERO PUSH2 0x932 JUMPI DUP2 MLOAD PUSH2 0x919 DUP9 DUP3 PUSH2 0x8BC JUMP JUMPDEST SWAP8 POP PUSH2 0x924 DUP4 PUSH2 0x8D4 JUMP JUMPDEST SWAP3 POP POP PUSH1 0x1 DUP2 ADD SWAP1 POP PUSH2 0x905 JUMP JUMPDEST POP DUP6 SWAP4 POP POP POP POP SWAP3 SWAP2 POP POP JUMP JUMPDEST PUSH1 0x0 PUSH1 0x80 DUP3 ADD SWAP1 POP DUP2 DUP2 SUB PUSH1 0x0 DUP4 ADD MSTORE PUSH2 0x959 DUP2 DUP8 PUSH2 0x7C2 JUMP JUMPDEST SWAP1 POP PUSH2 0x968 PUSH1 0x20 DUP4 ADD DUP7 PUSH2 0x7FB JUMP JUMPDEST PUSH2 0x975 PUSH1 0x40 DUP4 ADD DUP6 PUSH2 0x872 JUMP JUMPDEST DUP2 DUP2 SUB PUSH1 0x60 DUP4 ADD MSTORE PUSH2 0x987 DUP2 DUP5 PUSH2 0x8E1 JUMP JUMPDEST SWAP1 POP SWAP6 SWAP5 POP POP POP POP POP JUMP JUMPDEST PUSH1 0x0 DUP1 PUSH1 0x40 DUP4 DUP6 SUB SLT ISZERO PUSH2 0x9A9 JUMPI PUSH2 0x9A8 PUSH2 0x4C3 JUMP JUMPDEST JUMPDEST PUSH1 0x0 PUSH2 0x9B7 DUP6 DUP3 DUP7 ADD PUSH2 0x516 JUMP JUMPDEST SWAP3 POP POP PUSH1 0x20 PUSH2 0x9C8 DUP6 DUP3 DUP7 ADD PUSH2 0x59E JUMP JUMPDEST SWAP2 POP POP SWAP3 POP SWAP3 SWAP1 POP JUMP JUMPDEST PUSH32 0x4E487B7100000000000000000000000000000000000000000000000000000000 PUSH1 0x0 MSTORE PUSH1 0x31 PUSH1 0x4 MSTORE PUSH1 0x24 PUSH1 0x0 REVERT JUMPDEST PUSH32 0x4E487B7100000000000000000000000000000000000000000000000000000000 PUSH1 0x0 MSTORE PUSH1 0x22 PUSH1 0x4 MSTORE PUSH1 0x24 PUSH1 0x0 REVERT JUMPDEST PUSH1 0x0 PUSH1 0x2 DUP3 DIV SWAP1 POP PUSH1 0x1 DUP3 AND DUP1 PUSH2 0xA48 JUMPI PUSH1 0x7F DUP3 AND SWAP2 POP JUMPDEST PUSH1 0x20 DUP3 LT DUP2 SUB PUSH2 0xA5B JUMPI PUSH2 0xA5A PUSH2 0xA01 JUMP JUMPDEST JUMPDEST POP SWAP2 SWAP1 POP JUMP JUMPDEST PUSH1 0x0 DUP2 SWAP1 POP DUP2 PUSH1 0x0 MSTORE PUSH1 0x20 PUSH1 0x0 KECCAK256 SWAP1 POP SWAP2 SWAP1 POP JUMP JUMPDEST PUSH1 0x0 PUSH1 0x20 PUSH1 0x1F DUP4 ADD DIV SWAP1 POP SWAP2 SWAP1 POP JUMP JUMPDEST PUSH1 0x0 DUP3 DUP3 SHL SWAP1 POP SWAP3 SWAP2 POP POP JUMP JUMPDEST PUSH1 0x0 PUSH1 0x8 DUP4 MUL PUSH2 0xAC3 PUSH32 0xFFFFFFFFFFFFFFFFFFFFFFFFFFFFFFFFFFFFFFFFFFFFFFFFFFFFFFFFFFFFFFFF DUP3 PUSH2 0xA86 JUMP JUMPDEST PUSH2 0xACD DUP7 DUP4 PUSH2 0xA86 JUMP JUMPDEST SWAP6 POP DUP1 NOT DUP5 AND SWAP4 POP DUP1 DUP7 AND DUP5 OR SWAP3 POP POP POP SWAP4 SWAP3 POP POP POP JUMP JUMPDEST PUSH1 0x0 DUP2 SWAP1 POP SWAP2 SWAP1 POP JUMP JUMPDEST PUSH1 0x0 PUSH2 0xB0A PUSH2 0xB05 PUSH2 0xB00 DUP5 PUSH2 0x57D JUMP JUMPDEST PUSH2 0xAE5 JUMP JUMPDEST PUSH2 0x57D JUMP JUMPDEST SWAP1 POP SWAP2 SWAP1 POP JUMP JUMPDEST PUSH1 0x0 DUP2 SWAP1 POP SWAP2 SWAP1 POP JUMP JUMPDEST PUSH2 0xB24 DUP4 PUSH2 0xAEF JUMP JUMPDEST PUSH2 0xB38 PUSH2 0xB30 DUP3 PUSH2 0xB11 JUMP JUMPDEST DUP5 DUP5 SLOAD PUSH2 0xA93 JUMP JUMPDEST DUP3 SSTORE POP POP POP POP JUMP JUMPDEST PUSH1 0x0 SWAP1 JUMP JUMPDEST PUSH2 0xB4D PUSH2 0xB40 JUMP JUMPDEST PUSH2 0xB58 DUP2 DUP5 DUP5 PUSH2 0xB1B JUMP JUMPDEST POP POP POP JUMP JUMPDEST JUMPDEST DUP2 DUP2 LT ISZERO PUSH2 0xB7C JUMPI PUSH2 0xB71 PUSH1 0x0 DUP3 PUSH2 0xB45 JUMP JUMPDEST PUSH1 0x1 DUP2 ADD SWAP1 POP PUSH2 0xB5E JUMP JUMPDEST POP POP JUMP JUMPDEST PUSH1 0x1F DUP3 GT ISZERO PUSH2 0xBC1 JUMPI PUSH2 0xB92 DUP2 PUSH2 0xA61 JUMP JUMPDEST PUSH2 0xB9B DUP5 PUSH2 0xA76 JUMP JUMPDEST DUP2 ADD PUSH1 0x20 DUP6 LT ISZERO PUSH2 0xBAA JUMPI DUP2 SWAP1 POP JUMPDEST PUSH2 0xBBE PUSH2 0xBB6 DUP6 PUSH2 0xA76 JUMP JUMPDEST DUP4 ADD DUP3 PUSH2 0xB5D JUMP JUMPDEST POP POP JUMPDEST POP POP POP JUMP JUMPDEST PUSH1 0x0 DUP3 DUP3 SHR SWAP1 POP SWAP3 SWAP2 POP POP JUMP JUMPDEST PUSH1 0x0 PUSH2 0xBE4 PUSH1 0x0 NOT DUP5 PUSH1 0x8 MUL PUSH2 0xBC6 JUMP JUMPDEST NOT DUP1 DUP4 AND SWAP2 POP POP SWAP3 SWAP2 POP POP JUMP JUMPDEST PUSH1 0x0 PUSH2 0xBFD DUP4 DUP4 PUSH2 0xBD3 JUMP JUMPDEST SWAP2 POP DUP3 PUSH1 0x2 MUL DUP3 OR SWAP1 POP SWAP3 SWAP2 POP POP JUMP JUMPDEST PUSH2 0xC16 DUP3 PUSH2 0x77C JUMP JUMPDEST PUSH8 0xFFFFFFFFFFFFFFFF DUP2 GT ISZERO PUSH2 0xC2F JUMPI PUSH2 0xC2E PUSH2 0x5CE JUMP JUMPDEST JUMPDEST PUSH2 0xC39 DUP3 SLOAD PUSH2 0xA30 JUMP JUMPDEST PUSH2 0xC44 DUP3 DUP3 DUP6 PUSH2 0xB80 JUMP JUMPDEST PUSH1 0x0 PUSH1 0x20 SWAP1 POP PUSH1 0x1F DUP4 GT PUSH1 0x1 DUP2 EQ PUSH2 0xC77 JUMPI PUSH1 0x0 DUP5 ISZERO PUSH2 0xC65 JUMPI DUP3 DUP8 ADD MLOAD SWAP1 POP JUMPDEST PUSH2 0xC6F DUP6 DUP3 PUSH2 0xBF1 JUMP JUMPDEST DUP7 SSTORE POP PUSH2 0xCD7 JUMP JUMPDEST PUSH1 0x1F NOT DUP5 AND PUSH2 0xC85 DUP7 PUSH2 0xA61 JUMP JUMPDEST PUSH1 0x0 JUMPDEST DUP3 DUP2 LT ISZERO PUSH2 0xCAD JUMPI DUP5 DUP10 ADD MLOAD DUP3 SSTORE PUSH1 0x1 DUP3 ADD SWAP2 POP PUSH1 0x20 DUP6 ADD SWAP5 POP PUSH1 0x20 DUP2 ADD SWAP1 POP PUSH2 0xC88 JUMP JUMPDEST DUP7 DUP4 LT ISZERO PUSH2 0xCCA JUMPI DUP5 DUP10 ADD MLOAD PUSH2 0xCC6 PUSH1 0x1F DUP10 AND DUP3 PUSH2 0xBD3 JUMP JUMPDEST DUP4 SSTORE POP JUMPDEST PUSH1 0x1 PUSH1 0x2 DUP9 MUL ADD DUP9 SSTORE POP POP POP JUMPDEST POP POP POP POP POP POP JUMP INVALID LOG2 PUSH5 0x6970667358 0x22 SLT KECCAK256 0xE9 CREATE 0xEA SHR 0xEE PUSH18 0x1AA1FCFED38FA97B785D48539FA51C827F07 RETURNDATACOPY DUP7 PUSH25 0x2C86AE2C1164736F6C63430008120033000000000000000000 "
				},
				"gasEstimates": {
					"creation": {
						"codeDepositCost": "669800",
						"executionCost": "702",
						"totalCost": "670502"
					},
					"external": {
						"get(address)": "infinite",
						"popChildAge(address)": "29830",
						"pushChildAge(address,uint256)": "47191",
						"set(uint8,address,uint256,string)": "infinite"
					}
				},
				"methodIdentifiers": {
					"get(address)": "c2bc2efc",
					"popChildAge(address)": "04706c4e",
					"pushChildAge(address,uint256)": "fcadb047",
					"set(uint8,address,uint256,string)": "2c9b0b85"
				}
			},
			"storageLayout": {
				"storage": [
					{
						"astId": 15,
						"contract": "struct.sol:Enum",
						"label": "person",
						"offset": 0,
						"slot": "0",
						"type": "t_mapping(t_address,t_struct(student)123_storage)"
					}
				],
				"types": {
					"t_address": {
						"encoding": "inplace",
						"label": "address",
						"numberOfBytes": "20"
					},
					"t_array(t_uint256)dyn_storage": {
						"base": "t_uint256",
						"encoding": "dynamic_array",
						"label": "uint256[]",
						"numberOfBytes": "32"
					},
					"t_enum(dutyDay)10": {
						"encoding": "inplace",
						"label": "enum Enum.dutyDay",
						"numberOfBytes": "1"
					},
					"t_mapping(t_address,t_struct(student)123_storage)": {
						"encoding": "mapping",
						"key": "t_address",
						"label": "mapping(address => struct Enum.student)",
						"numberOfBytes": "32",
						"value": "t_struct(student)123_storage"
					},
					"t_string_storage": {
						"encoding": "bytes",
						"label": "string",
						"numberOfBytes": "32"
					},
					"t_struct(student)123_storage": {
						"encoding": "inplace",
						"label": "struct Enum.student",
						"members": [
							{
								"astId": 114,
								"contract": "struct.sol:Enum",
								"label": "name",
								"offset": 0,
								"slot": "0",
								"type": "t_string_storage"
							},
							{
								"astId": 116,
								"contract": "struct.sol:Enum",
								"label": "age",
								"offset": 0,
								"slot": "1",
								"type": "t_uint256"
							},
							{
								"astId": 119,
								"contract": "struct.sol:Enum",
								"label": "dutyDay",
								"offset": 0,
								"slot": "2",
								"type": "t_enum(dutyDay)10"
							},
							{
								"astId": 122,
								"contract": "struct.sol:Enum",
								"label": "childrens_age",
								"offset": 0,
								"slot": "3",
								"type": "t_array(t_uint256)dyn_storage"
							}
						],
						"numberOfBytes": "128"
					},
					"t_uint256": {
						"encoding": "inplace",
						"label": "uint256",
						"numberOfBytes": "32"
					}
				}
			},
			"userdoc": {
				"kind": "user",
				"methods": {},
				"version": 1
			}
		}
	}
}