{
	"lab 10-7-23.sol": {
		"BooleanOperators": {
			"abi": [
				{
					"inputs": [],
					"name": "_bool",
					"outputs": [
						{
							"internalType": "bool",
							"name": "",
							"type": "bool"
						}
					],
					"stateMutability": "view",
					"type": "function"
				},
				{
					"inputs": [],
					"name": "equality",
					"outputs": [
						{
							"internalType": "bool",
							"name": "",
							"type": "bool"
						}
					],
					"stateMutability": "view",
					"type": "function"
				},
				{
					"inputs": [],
					"name": "inequality",
					"outputs": [
						{
							"internalType": "bool",
							"name": "",
							"type": "bool"
						}
					],
					"stateMutability": "view",
					"type": "function"
				},
				{
					"inputs": [],
					"name": "logicalAnd",
					"outputs": [
						{
							"internalType": "bool",
							"name": "",
							"type": "bool"
						}
					],
					"stateMutability": "view",
					"type": "function"
				},
				{
					"inputs": [],
					"name": "logicalNot",
					"outputs": [
						{
							"internalType": "bool",
							"name": "",
							"type": "bool"
						}
					],
					"stateMutability": "view",
					"type": "function"
				},
				{
					"inputs": [],
					"name": "logicalOr",
					"outputs": [
						{
							"internalType": "bool",
							"name": "",
							"type": "bool"
						}
					],
					"stateMutability": "view",
					"type": "function"
				}
			],
			"devdoc": {
				"kind": "dev",
				"methods": {},
				"version": 1
			},
			"evm": {
				"assembly": "    /* \"lab 10-7-23.sol\":59:603  contract BooleanOperators {... */\n  mstore(0x40, 0x80)\n    /* \"lab 10-7-23.sol\":112:116  true */\n  0x01\n    /* \"lab 10-7-23.sol\":92:116  bool public _bool = true */\n  0x00\n  dup1\n  0x0100\n  exp\n  dup2\n  sload\n  dup2\n  0xff\n  mul\n  not\n  and\n  swap1\n  dup4\n  iszero\n  iszero\n  mul\n  or\n  swap1\n  sstore\n  pop\n    /* \"lab 10-7-23.sol\":59:603  contract BooleanOperators {... */\n  callvalue\n  dup1\n  iszero\n  tag_1\n  jumpi\n  0x00\n  dup1\n  revert\ntag_1:\n  pop\n  dataSize(sub_0)\n  dup1\n  dataOffset(sub_0)\n  0x00\n  codecopy\n  0x00\n  return\nstop\n\nsub_0: assembly {\n        /* \"lab 10-7-23.sol\":59:603  contract BooleanOperators {... */\n      mstore(0x40, 0x80)\n      callvalue\n      dup1\n      iszero\n      tag_1\n      jumpi\n      0x00\n      dup1\n      revert\n    tag_1:\n      pop\n      jumpi(tag_2, lt(calldatasize, 0x04))\n      shr(0xe0, calldataload(0x00))\n      dup1\n      0x4462bf5b\n      eq\n      tag_3\n      jumpi\n      dup1\n      0x63770fbc\n      eq\n      tag_4\n      jumpi\n      dup1\n      0x9e6ba9c2\n      eq\n      tag_5\n      jumpi\n      dup1\n      0x9f42cb6f\n      eq\n      tag_6\n      jumpi\n      dup1\n      0xaee44e14\n      eq\n      tag_7\n      jumpi\n      dup1\n      0xba71a962\n      eq\n      tag_8\n      jumpi\n    tag_2:\n      0x00\n      dup1\n      revert\n        /* \"lab 10-7-23.sol\":414:501  function equality() public view returns (bool) {... */\n    tag_3:\n      tag_9\n      tag_10\n      jump\t// in\n    tag_9:\n      mload(0x40)\n      tag_11\n      swap2\n      swap1\n      tag_12\n      jump\t// in\n    tag_11:\n      mload(0x40)\n      dup1\n      swap2\n      sub\n      swap1\n      return\n        /* \"lab 10-7-23.sol\":127:207  function logicalNot() public view returns (bool) {... */\n    tag_4:\n      tag_13\n      tag_14\n      jump\t// in\n    tag_13:\n      mload(0x40)\n      tag_15\n      swap2\n      swap1\n      tag_12\n      jump\t// in\n    tag_15:\n      mload(0x40)\n      dup1\n      swap2\n      sub\n      swap1\n      return\n        /* \"lab 10-7-23.sol\":92:116  bool public _bool = true */\n    tag_5:\n      tag_16\n      tag_17\n      jump\t// in\n    tag_16:\n      mload(0x40)\n      tag_18\n      swap2\n      swap1\n      tag_12\n      jump\t// in\n    tag_18:\n      mload(0x40)\n      dup1\n      swap2\n      sub\n      swap1\n      return\n        /* \"lab 10-7-23.sol\":217:306  function logicalAnd() public view returns (bool) {... */\n    tag_6:\n      tag_19\n      tag_20\n      jump\t// in\n    tag_19:\n      mload(0x40)\n      tag_21\n      swap2\n      swap1\n      tag_12\n      jump\t// in\n    tag_21:\n      mload(0x40)\n      dup1\n      swap2\n      sub\n      swap1\n      return\n        /* \"lab 10-7-23.sol\":511:600  function inequality() public view returns (bool) {... */\n    tag_7:\n      tag_22\n      tag_23\n      jump\t// in\n    tag_22:\n      mload(0x40)\n      tag_24\n      swap2\n      swap1\n      tag_12\n      jump\t// in\n    tag_24:\n      mload(0x40)\n      dup1\n      swap2\n      sub\n      swap1\n      return\n        /* \"lab 10-7-23.sol\":316:404  function logicalOr() public view returns (bool) {... */\n    tag_8:\n      tag_25\n      tag_26\n      jump\t// in\n    tag_25:\n      mload(0x40)\n      tag_27\n      swap2\n      swap1\n      tag_12\n      jump\t// in\n    tag_27:\n      mload(0x40)\n      dup1\n      swap2\n      sub\n      swap1\n      return\n        /* \"lab 10-7-23.sol\":414:501  function equality() public view returns (bool) {... */\n    tag_10:\n        /* \"lab 10-7-23.sol\":455:459  bool */\n      0x00\n        /* \"lab 10-7-23.sol\":493:498  _bool */\n      dup1\n      0x00\n      swap1\n      sload\n      swap1\n      0x0100\n      exp\n      swap1\n      div\n      0xff\n      and\n        /* \"lab 10-7-23.sol\":492:498  !_bool */\n      iszero\n        /* \"lab 10-7-23.sol\":483:498  _bool == !_bool */\n      iszero\n      iszero\n        /* \"lab 10-7-23.sol\":483:488  _bool */\n      0x00\n      dup1\n      sload\n      swap1\n      0x0100\n      exp\n      swap1\n      div\n      0xff\n      and\n        /* \"lab 10-7-23.sol\":483:498  _bool == !_bool */\n      iszero\n      iszero\n      eq\n        /* \"lab 10-7-23.sol\":476:498  return _bool == !_bool */\n      swap1\n      pop\n        /* \"lab 10-7-23.sol\":414:501  function equality() public view returns (bool) {... */\n      swap1\n      jump\t// out\n        /* \"lab 10-7-23.sol\":127:207  function logicalNot() public view returns (bool) {... */\n    tag_14:\n        /* \"lab 10-7-23.sol\":170:174  bool */\n      0x00\n        /* \"lab 10-7-23.sol\":199:204  _bool */\n      dup1\n      0x00\n      swap1\n      sload\n      swap1\n      0x0100\n      exp\n      swap1\n      div\n      0xff\n      and\n        /* \"lab 10-7-23.sol\":198:204  !_bool */\n      iszero\n        /* \"lab 10-7-23.sol\":191:204  return !_bool */\n      swap1\n      pop\n        /* \"lab 10-7-23.sol\":127:207  function logicalNot() public view returns (bool) {... */\n      swap1\n      jump\t// out\n        /* \"lab 10-7-23.sol\":92:116  bool public _bool = true */\n    tag_17:\n      0x00\n      dup1\n      sload\n      swap1\n      0x0100\n      exp\n      swap1\n      div\n      0xff\n      and\n      dup2\n      jump\t// out\n        /* \"lab 10-7-23.sol\":217:306  function logicalAnd() public view returns (bool) {... */\n    tag_20:\n        /* \"lab 10-7-23.sol\":260:264  bool */\n      0x00\n        /* \"lab 10-7-23.sol\":288:293  _bool */\n      dup1\n      0x00\n      swap1\n      sload\n      swap1\n      0x0100\n      exp\n      swap1\n      div\n      0xff\n      and\n        /* \"lab 10-7-23.sol\":288:303  _bool && !_bool */\n      dup1\n      iszero\n      tag_31\n      jumpi\n      pop\n        /* \"lab 10-7-23.sol\":298:303  _bool */\n      0x00\n      dup1\n      sload\n      swap1\n      0x0100\n      exp\n      swap1\n      div\n      0xff\n      and\n        /* \"lab 10-7-23.sol\":297:303  !_bool */\n      iszero\n        /* \"lab 10-7-23.sol\":288:303  _bool && !_bool */\n    tag_31:\n        /* \"lab 10-7-23.sol\":281:303  return _bool && !_bool */\n      swap1\n      pop\n        /* \"lab 10-7-23.sol\":217:306  function logicalAnd() public view returns (bool) {... */\n      swap1\n      jump\t// out\n        /* \"lab 10-7-23.sol\":511:600  function inequality() public view returns (bool) {... */\n    tag_23:\n        /* \"lab 10-7-23.sol\":554:558  bool */\n      0x00\n        /* \"lab 10-7-23.sol\":592:597  _bool */\n      dup1\n      0x00\n      swap1\n      sload\n      swap1\n      0x0100\n      exp\n      swap1\n      div\n      0xff\n      and\n        /* \"lab 10-7-23.sol\":591:597  !_bool */\n      iszero\n        /* \"lab 10-7-23.sol\":582:597  _bool != !_bool */\n      iszero\n      iszero\n        /* \"lab 10-7-23.sol\":582:587  _bool */\n      0x00\n      dup1\n      sload\n      swap1\n      0x0100\n      exp\n      swap1\n      div\n      0xff\n      and\n        /* \"lab 10-7-23.sol\":582:597  _bool != !_bool */\n      iszero\n      iszero\n      eq\n      iszero\n        /* \"lab 10-7-23.sol\":575:597  return _bool != !_bool */\n      swap1\n      pop\n        /* \"lab 10-7-23.sol\":511:600  function inequality() public view returns (bool) {... */\n      swap1\n      jump\t// out\n        /* \"lab 10-7-23.sol\":316:404  function logicalOr() public view returns (bool) {... */\n    tag_26:\n        /* \"lab 10-7-23.sol\":358:362  bool */\n      0x00\n        /* \"lab 10-7-23.sol\":386:391  _bool */\n      dup1\n      0x00\n      swap1\n      sload\n      swap1\n      0x0100\n      exp\n      swap1\n      div\n      0xff\n      and\n        /* \"lab 10-7-23.sol\":386:401  _bool || !_bool */\n      dup1\n      tag_34\n      jumpi\n      pop\n        /* \"lab 10-7-23.sol\":396:401  _bool */\n      0x00\n      dup1\n      sload\n      swap1\n      0x0100\n      exp\n      swap1\n      div\n      0xff\n      and\n        /* \"lab 10-7-23.sol\":395:401  !_bool */\n      iszero\n        /* \"lab 10-7-23.sol\":386:401  _bool || !_bool */\n    tag_34:\n        /* \"lab 10-7-23.sol\":379:401  return _bool || !_bool */\n      swap1\n      pop\n        /* \"lab 10-7-23.sol\":316:404  function logicalOr() public view returns (bool) {... */\n      swap1\n      jump\t// out\n        /* \"#utility.yul\":7:97   */\n    tag_35:\n        /* \"#utility.yul\":41:48   */\n      0x00\n        /* \"#utility.yul\":84:89   */\n      dup2\n        /* \"#utility.yul\":77:90   */\n      iszero\n        /* \"#utility.yul\":70:91   */\n      iszero\n        /* \"#utility.yul\":59:91   */\n      swap1\n      pop\n        /* \"#utility.yul\":7:97   */\n      swap2\n      swap1\n      pop\n      jump\t// out\n        /* \"#utility.yul\":103:212   */\n    tag_36:\n        /* \"#utility.yul\":184:205   */\n      tag_40\n        /* \"#utility.yul\":199:204   */\n      dup2\n        /* \"#utility.yul\":184:205   */\n      tag_35\n      jump\t// in\n    tag_40:\n        /* \"#utility.yul\":179:182   */\n      dup3\n        /* \"#utility.yul\":172:206   */\n      mstore\n        /* \"#utility.yul\":103:212   */\n      pop\n      pop\n      jump\t// out\n        /* \"#utility.yul\":218:428   */\n    tag_12:\n        /* \"#utility.yul\":305:309   */\n      0x00\n        /* \"#utility.yul\":343:345   */\n      0x20\n        /* \"#utility.yul\":332:341   */\n      dup3\n        /* \"#utility.yul\":328:346   */\n      add\n        /* \"#utility.yul\":320:346   */\n      swap1\n      pop\n        /* \"#utility.yul\":356:421   */\n      tag_42\n        /* \"#utility.yul\":418:419   */\n      0x00\n        /* \"#utility.yul\":407:416   */\n      dup4\n        /* \"#utility.yul\":403:420   */\n      add\n        /* \"#utility.yul\":394:400   */\n      dup5\n        /* \"#utility.yul\":356:421   */\n      tag_36\n      jump\t// in\n    tag_42:\n        /* \"#utility.yul\":218:428   */\n      swap3\n      swap2\n      pop\n      pop\n      jump\t// out\n\n    auxdata: 0xa26469706673582212206b7425493842061a42b0ea215528648591e178297b9f4c6dcd5ce409a3d3850164736f6c63430008120033\n}\n",
				"bytecode": {
					"linkReferences": {},
					"object": "608060405260016000806101000a81548160ff02191690831515021790555034801561002a57600080fd5b5061025d8061003a6000396000f3fe608060405234801561001057600080fd5b50600436106100625760003560e01c80634462bf5b1461006757806363770fbc146100855780639e6ba9c2146100a35780639f42cb6f146100c1578063aee44e14146100df578063ba71a962146100fd575b600080fd5b61006f61011b565b60405161007c919061020c565b60405180910390f35b61008d610145565b60405161009a919061020c565b60405180910390f35b6100ab61015c565b6040516100b8919061020c565b60405180910390f35b6100c961016d565b6040516100d6919061020c565b60405180910390f35b6100e761019a565b6040516100f4919061020c565b60405180910390f35b6101056101c5565b604051610112919061020c565b60405180910390f35b60008060009054906101000a900460ff1615151560008054906101000a900460ff16151514905090565b60008060009054906101000a900460ff1615905090565b60008054906101000a900460ff1681565b60008060009054906101000a900460ff168015610195575060008054906101000a900460ff16155b905090565b60008060009054906101000a900460ff1615151560008054906101000a900460ff1615151415905090565b60008060009054906101000a900460ff16806101ec575060008054906101000a900460ff16155b905090565b60008115159050919050565b610206816101f1565b82525050565b600060208201905061022160008301846101fd565b9291505056fea26469706673582212206b7425493842061a42b0ea215528648591e178297b9f4c6dcd5ce409a3d3850164736f6c63430008120033",
					"opcodes": "PUSH1 0x80 PUSH1 0x40 MSTORE PUSH1 0x1 PUSH1 0x0 DUP1 PUSH2 0x100 EXP DUP2 SLOAD DUP2 PUSH1 0xFF MUL NOT AND SWAP1 DUP4 ISZERO ISZERO MUL OR SWAP1 SSTORE POP CALLVALUE DUP1 ISZERO PUSH2 0x2A JUMPI PUSH1 0x0 DUP1 REVERT JUMPDEST POP PUSH2 0x25D DUP1 PUSH2 0x3A PUSH1 0x0 CODECOPY PUSH1 0x0 RETURN INVALID PUSH1 0x80 PUSH1 0x40 MSTORE CALLVALUE DUP1 ISZERO PUSH2 0x10 JUMPI PUSH1 0x0 DUP1 REVERT JUMPDEST POP PUSH1 0x4 CALLDATASIZE LT PUSH2 0x62 JUMPI PUSH1 0x0 CALLDATALOAD PUSH1 0xE0 SHR DUP1 PUSH4 0x4462BF5B EQ PUSH2 0x67 JUMPI DUP1 PUSH4 0x63770FBC EQ PUSH2 0x85 JUMPI DUP1 PUSH4 0x9E6BA9C2 EQ PUSH2 0xA3 JUMPI DUP1 PUSH4 0x9F42CB6F EQ PUSH2 0xC1 JUMPI DUP1 PUSH4 0xAEE44E14 EQ PUSH2 0xDF JUMPI DUP1 PUSH4 0xBA71A962 EQ PUSH2 0xFD JUMPI JUMPDEST PUSH1 0x0 DUP1 REVERT JUMPDEST PUSH2 0x6F PUSH2 0x11B JUMP JUMPDEST PUSH1 0x40 MLOAD PUSH2 0x7C SWAP2 SWAP1 PUSH2 0x20C JUMP JUMPDEST PUSH1 0x40 MLOAD DUP1 SWAP2 SUB SWAP1 RETURN JUMPDEST PUSH2 0x8D PUSH2 0x145 JUMP JUMPDEST PUSH1 0x40 MLOAD PUSH2 0x9A SWAP2 SWAP1 PUSH2 0x20C JUMP JUMPDEST PUSH1 0x40 MLOAD DUP1 SWAP2 SUB SWAP1 RETURN JUMPDEST PUSH2 0xAB PUSH2 0x15C JUMP JUMPDEST PUSH1 0x40 MLOAD PUSH2 0xB8 SWAP2 SWAP1 PUSH2 0x20C JUMP JUMPDEST PUSH1 0x40 MLOAD DUP1 SWAP2 SUB SWAP1 RETURN JUMPDEST PUSH2 0xC9 PUSH2 0x16D JUMP JUMPDEST PUSH1 0x40 MLOAD PUSH2 0xD6 SWAP2 SWAP1 PUSH2 0x20C JUMP JUMPDEST PUSH1 0x40 MLOAD DUP1 SWAP2 SUB SWAP1 RETURN JUMPDEST PUSH2 0xE7 PUSH2 0x19A JUMP JUMPDEST PUSH1 0x40 MLOAD PUSH2 0xF4 SWAP2 SWAP1 PUSH2 0x20C JUMP JUMPDEST PUSH1 0x40 MLOAD DUP1 SWAP2 SUB SWAP1 RETURN JUMPDEST PUSH2 0x105 PUSH2 0x1C5 JUMP JUMPDEST PUSH1 0x40 MLOAD PUSH2 0x112 SWAP2 SWAP1 PUSH2 0x20C JUMP JUMPDEST PUSH1 0x40 MLOAD DUP1 SWAP2 SUB SWAP1 RETURN JUMPDEST PUSH1 0x0 DUP1 PUSH1 0x0 SWAP1 SLOAD SWAP1 PUSH2 0x100 EXP SWAP1 DIV PUSH1 0xFF AND ISZERO ISZERO ISZERO PUSH1 0x0 DUP1 SLOAD SWAP1 PUSH2 0x100 EXP SWAP1 DIV PUSH1 0xFF AND ISZERO ISZERO EQ SWAP1 POP SWAP1 JUMP JUMPDEST PUSH1 0x0 DUP1 PUSH1 0x0 SWAP1 SLOAD SWAP1 PUSH2 0x100 EXP SWAP1 DIV PUSH1 0xFF AND ISZERO SWAP1 POP SWAP1 JUMP JUMPDEST PUSH1 0x0 DUP1 SLOAD SWAP1 PUSH2 0x100 EXP SWAP1 DIV PUSH1 0xFF AND DUP2 JUMP JUMPDEST PUSH1 0x0 DUP1 PUSH1 0x0 SWAP1 SLOAD SWAP1 PUSH2 0x100 EXP SWAP1 DIV PUSH1 0xFF AND DUP1 ISZERO PUSH2 0x195 JUMPI POP PUSH1 0x0 DUP1 SLOAD SWAP1 PUSH2 0x100 EXP SWAP1 DIV PUSH1 0xFF AND ISZERO JUMPDEST SWAP1 POP SWAP1 JUMP JUMPDEST PUSH1 0x0 DUP1 PUSH1 0x0 SWAP1 SLOAD SWAP1 PUSH2 0x100 EXP SWAP1 DIV PUSH1 0xFF AND ISZERO ISZERO ISZERO PUSH1 0x0 DUP1 SLOAD SWAP1 PUSH2 0x100 EXP SWAP1 DIV PUSH1 0xFF AND ISZERO ISZERO EQ ISZERO SWAP1 POP SWAP1 JUMP JUMPDEST PUSH1 0x0 DUP1 PUSH1 0x0 SWAP1 SLOAD SWAP1 PUSH2 0x100 EXP SWAP1 DIV PUSH1 0xFF AND DUP1 PUSH2 0x1EC JUMPI POP PUSH1 0x0 DUP1 SLOAD SWAP1 PUSH2 0x100 EXP SWAP1 DIV PUSH1 0xFF AND ISZERO JUMPDEST SWAP1 POP SWAP1 JUMP JUMPDEST PUSH1 0x0 DUP2 ISZERO ISZERO SWAP1 POP SWAP2 SWAP1 POP JUMP JUMPDEST PUSH2 0x206 DUP2 PUSH2 0x1F1 JUMP JUMPDEST DUP3 MSTORE POP POP JUMP JUMPDEST PUSH1 0x0 PUSH1 0x20 DUP3 ADD SWAP1 POP PUSH2 0x221 PUSH1 0x0 DUP4 ADD DUP5 PUSH2 0x1FD JUMP JUMPDEST SWAP3 SWAP2 POP POP JUMP INVALID LOG2 PUSH5 0x6970667358 0x22 SLT KECCAK256 PUSH12 0x7425493842061A42B0EA2155 0x28 PUSH5 0x8591E17829 PUSH28 0x9F4C6DCD5CE409A3D3850164736F6C63430008120033000000000000 "
				},
				"gasEstimates": {
					"creation": {
						"codeDepositCost": "121000",
						"executionCost": "24432",
						"totalCost": "145432"
					},
					"external": {
						"_bool()": "2490",
						"equality()": "4611",
						"inequality()": "4702",
						"logicalAnd()": "4684",
						"logicalNot()": "2482",
						"logicalOr()": "4725"
					}
				},
				"methodIdentifiers": {
					"_bool()": "9e6ba9c2",
					"equality()": "4462bf5b",
					"inequality()": "aee44e14",
					"logicalAnd()": "9f42cb6f",
					"logicalNot()": "63770fbc",
					"logicalOr()": "ba71a962"
				}
			},
			"storageLayout": {
				"storage": [
					{
						"astId": 4,
						"contract": "lab 10-7-23.sol:BooleanOperators",
						"label": "_bool",
						"offset": 0,
						"slot": "0",
						"type": "t_bool"
					}
				],
				"types": {
					"t_bool": {
						"encoding": "inplace",
						"label": "bool",
						"numberOfBytes": "1"
					}
				}
			},
			"userdoc": {
				"kind": "user",
				"methods": {},
				"version": 1
			}
		}
	}
}