{
	"revert.sol": {
		"Revert": {
			"abi": [
				{
					"inputs": [
						{
							"internalType": "uint256",
							"name": "_amount",
							"type": "uint256"
						}
					],
					"name": "Reevert",
					"outputs": [],
					"stateMutability": "pure",
					"type": "function"
				},
				{
					"inputs": [
						{
							"internalType": "uint256",
							"name": "_amount",
							"type": "uint256"
						}
					],
					"name": "Required",
					"outputs": [],
					"stateMutability": "pure",
					"type": "function"
				},
				{
					"inputs": [],
					"name": "i",
					"outputs": [
						{
							"internalType": "int256",
							"name": "",
							"type": "int256"
						}
					],
					"stateMutability": "view",
					"type": "function"
				},
				{
					"inputs": [
						{
							"internalType": "int256",
							"name": "_i",
							"type": "int256"
						}
					],
					"name": "set",
					"outputs": [],
					"stateMutability": "nonpayable",
					"type": "function"
				}
			],
			"devdoc": {
				"kind": "dev",
				"methods": {},
				"version": 1
			},
			"evm": {
				"assembly": "    /* \"revert.sol\":61:552  contract Revert {... */\n  mstore(0x40, 0x80)\n  callvalue\n  dup1\n  iszero\n  tag_1\n  jumpi\n  0x00\n  dup1\n  revert\ntag_1:\n  pop\n  dataSize(sub_0)\n  dup1\n  dataOffset(sub_0)\n  0x00\n  codecopy\n  0x00\n  return\nstop\n\nsub_0: assembly {\n        /* \"revert.sol\":61:552  contract Revert {... */\n      mstore(0x40, 0x80)\n      callvalue\n      dup1\n      iszero\n      tag_1\n      jumpi\n      0x00\n      dup1\n      revert\n    tag_1:\n      pop\n      jumpi(tag_2, lt(calldatasize, 0x04))\n      shr(0xe0, calldataload(0x00))\n      dup1\n      0x1eb8f8db\n      eq\n      tag_3\n      jumpi\n      dup1\n      0xab583654\n      eq\n      tag_4\n      jumpi\n      dup1\n      0xe5aa3d58\n      eq\n      tag_5\n      jumpi\n      dup1\n      0xe5c19b2d\n      eq\n      tag_6\n      jumpi\n    tag_2:\n      0x00\n      dup1\n      revert\n        /* \"revert.sol\":264:413  function Reevert(uint _amount) public pure{... */\n    tag_3:\n      tag_7\n      0x04\n      dup1\n      calldatasize\n      sub\n      dup2\n      add\n      swap1\n      tag_8\n      swap2\n      swap1\n      tag_9\n      jump\t// in\n    tag_8:\n      tag_10\n      jump\t// in\n    tag_7:\n      stop\n        /* \"revert.sol\":425:549  function Required(uint _amount) public pure{... */\n    tag_4:\n      tag_11\n      0x04\n      dup1\n      calldatasize\n      sub\n      dup2\n      add\n      swap1\n      tag_12\n      swap2\n      swap1\n      tag_9\n      jump\t// in\n    tag_12:\n      tag_13\n      jump\t// in\n    tag_11:\n      stop\n        /* \"revert.sol\":84:96  int public i */\n    tag_5:\n      tag_14\n      tag_15\n      jump\t// in\n    tag_14:\n      mload(0x40)\n      tag_16\n      swap2\n      swap1\n      tag_17\n      jump\t// in\n    tag_16:\n      mload(0x40)\n      dup1\n      swap2\n      sub\n      swap1\n      return\n        /* \"revert.sol\":105:155  function set(int _i)public{... */\n    tag_6:\n      tag_18\n      0x04\n      dup1\n      calldatasize\n      sub\n      dup2\n      add\n      swap1\n      tag_19\n      swap2\n      swap1\n      tag_20\n      jump\t// in\n    tag_19:\n      tag_21\n      jump\t// in\n    tag_18:\n      stop\n        /* \"revert.sol\":264:413  function Reevert(uint _amount) public pure{... */\n    tag_10:\n        /* \"revert.sol\":329:332  100 */\n      0x64\n        /* \"revert.sol\":321:328  _amount */\n      dup2\n        /* \"revert.sol\":321:332  _amount>100 */\n      gt\n        /* \"revert.sol\":317:375  if (_amount>100){... */\n      iszero\n      tag_23\n      jumpi\n        /* \"revert.sol\":348:363  revert(\"error\") */\n      mload(0x40)\n      0x08c379a000000000000000000000000000000000000000000000000000000000\n      dup2\n      mstore\n      0x04\n      add\n      tag_24\n      swap1\n      tag_25\n      jump\t// in\n    tag_24:\n      mload(0x40)\n      dup1\n      swap2\n      sub\n      swap1\n      revert\n        /* \"revert.sol\":317:375  if (_amount>100){... */\n    tag_23:\n        /* \"revert.sol\":264:413  function Reevert(uint _amount) public pure{... */\n      pop\n      jump\t// out\n        /* \"revert.sol\":425:549  function Required(uint _amount) public pure{... */\n    tag_13:\n        /* \"revert.sol\":497:500  100 */\n      0x64\n        /* \"revert.sol\":489:496  _amount */\n      dup2\n        /* \"revert.sol\":489:500  _amount>100 */\n      gt\n        /* \"revert.sol\":487:501  !(_amount>100) */\n      iszero\n        /* \"revert.sol\":479:510  require(!(_amount>100),\"error\") */\n      tag_27\n      jumpi\n      mload(0x40)\n      0x08c379a000000000000000000000000000000000000000000000000000000000\n      dup2\n      mstore\n      0x04\n      add\n      tag_28\n      swap1\n      tag_25\n      jump\t// in\n    tag_28:\n      mload(0x40)\n      dup1\n      swap2\n      sub\n      swap1\n      revert\n    tag_27:\n        /* \"revert.sol\":425:549  function Required(uint _amount) public pure{... */\n      pop\n      jump\t// out\n        /* \"revert.sol\":84:96  int public i */\n    tag_15:\n      sload(0x00)\n      dup2\n      jump\t// out\n        /* \"revert.sol\":105:155  function set(int _i)public{... */\n    tag_21:\n        /* \"revert.sol\":145:147  _i */\n      dup1\n        /* \"revert.sol\":142:143  i */\n      0x00\n        /* \"revert.sol\":142:147  i= _i */\n      dup2\n      swap1\n      sstore\n      pop\n        /* \"revert.sol\":105:155  function set(int _i)public{... */\n      pop\n      jump\t// out\n        /* \"#utility.yul\":88:205   */\n    tag_31:\n        /* \"#utility.yul\":197:198   */\n      0x00\n        /* \"#utility.yul\":194:195   */\n      dup1\n        /* \"#utility.yul\":187:199   */\n      revert\n        /* \"#utility.yul\":334:411   */\n    tag_33:\n        /* \"#utility.yul\":371:378   */\n      0x00\n        /* \"#utility.yul\":400:405   */\n      dup2\n        /* \"#utility.yul\":389:405   */\n      swap1\n      pop\n        /* \"#utility.yul\":334:411   */\n      swap2\n      swap1\n      pop\n      jump\t// out\n        /* \"#utility.yul\":417:539   */\n    tag_34:\n        /* \"#utility.yul\":490:514   */\n      tag_49\n        /* \"#utility.yul\":508:513   */\n      dup2\n        /* \"#utility.yul\":490:514   */\n      tag_33\n      jump\t// in\n    tag_49:\n        /* \"#utility.yul\":483:488   */\n      dup2\n        /* \"#utility.yul\":480:515   */\n      eq\n        /* \"#utility.yul\":470:533   */\n      tag_50\n      jumpi\n        /* \"#utility.yul\":529:530   */\n      0x00\n        /* \"#utility.yul\":526:527   */\n      dup1\n        /* \"#utility.yul\":519:531   */\n      revert\n        /* \"#utility.yul\":470:533   */\n    tag_50:\n        /* \"#utility.yul\":417:539   */\n      pop\n      jump\t// out\n        /* \"#utility.yul\":545:684   */\n    tag_35:\n        /* \"#utility.yul\":591:596   */\n      0x00\n        /* \"#utility.yul\":629:635   */\n      dup2\n        /* \"#utility.yul\":616:636   */\n      calldataload\n        /* \"#utility.yul\":607:636   */\n      swap1\n      pop\n        /* \"#utility.yul\":645:678   */\n      tag_52\n        /* \"#utility.yul\":672:677   */\n      dup2\n        /* \"#utility.yul\":645:678   */\n      tag_34\n      jump\t// in\n    tag_52:\n        /* \"#utility.yul\":545:684   */\n      swap3\n      swap2\n      pop\n      pop\n      jump\t// out\n        /* \"#utility.yul\":690:1019   */\n    tag_9:\n        /* \"#utility.yul\":749:755   */\n      0x00\n        /* \"#utility.yul\":798:800   */\n      0x20\n        /* \"#utility.yul\":786:795   */\n      dup3\n        /* \"#utility.yul\":777:784   */\n      dup5\n        /* \"#utility.yul\":773:796   */\n      sub\n        /* \"#utility.yul\":769:801   */\n      slt\n        /* \"#utility.yul\":766:885   */\n      iszero\n      tag_54\n      jumpi\n        /* \"#utility.yul\":804:883   */\n      tag_55\n      tag_31\n      jump\t// in\n    tag_55:\n        /* \"#utility.yul\":766:885   */\n    tag_54:\n        /* \"#utility.yul\":924:925   */\n      0x00\n        /* \"#utility.yul\":949:1002   */\n      tag_56\n        /* \"#utility.yul\":994:1001   */\n      dup5\n        /* \"#utility.yul\":985:991   */\n      dup3\n        /* \"#utility.yul\":974:983   */\n      dup6\n        /* \"#utility.yul\":970:992   */\n      add\n        /* \"#utility.yul\":949:1002   */\n      tag_35\n      jump\t// in\n    tag_56:\n        /* \"#utility.yul\":939:1002   */\n      swap2\n      pop\n        /* \"#utility.yul\":895:1012   */\n      pop\n        /* \"#utility.yul\":690:1019   */\n      swap3\n      swap2\n      pop\n      pop\n      jump\t// out\n        /* \"#utility.yul\":1025:1101   */\n    tag_36:\n        /* \"#utility.yul\":1061:1068   */\n      0x00\n        /* \"#utility.yul\":1090:1095   */\n      dup2\n        /* \"#utility.yul\":1079:1095   */\n      swap1\n      pop\n        /* \"#utility.yul\":1025:1101   */\n      swap2\n      swap1\n      pop\n      jump\t// out\n        /* \"#utility.yul\":1107:1222   */\n    tag_37:\n        /* \"#utility.yul\":1192:1215   */\n      tag_59\n        /* \"#utility.yul\":1209:1214   */\n      dup2\n        /* \"#utility.yul\":1192:1215   */\n      tag_36\n      jump\t// in\n    tag_59:\n        /* \"#utility.yul\":1187:1190   */\n      dup3\n        /* \"#utility.yul\":1180:1216   */\n      mstore\n        /* \"#utility.yul\":1107:1222   */\n      pop\n      pop\n      jump\t// out\n        /* \"#utility.yul\":1228:1446   */\n    tag_17:\n        /* \"#utility.yul\":1319:1323   */\n      0x00\n        /* \"#utility.yul\":1357:1359   */\n      0x20\n        /* \"#utility.yul\":1346:1355   */\n      dup3\n        /* \"#utility.yul\":1342:1360   */\n      add\n        /* \"#utility.yul\":1334:1360   */\n      swap1\n      pop\n        /* \"#utility.yul\":1370:1439   */\n      tag_61\n        /* \"#utility.yul\":1436:1437   */\n      0x00\n        /* \"#utility.yul\":1425:1434   */\n      dup4\n        /* \"#utility.yul\":1421:1438   */\n      add\n        /* \"#utility.yul\":1412:1418   */\n      dup5\n        /* \"#utility.yul\":1370:1439   */\n      tag_37\n      jump\t// in\n    tag_61:\n        /* \"#utility.yul\":1228:1446   */\n      swap3\n      swap2\n      pop\n      pop\n      jump\t// out\n        /* \"#utility.yul\":1452:1572   */\n    tag_38:\n        /* \"#utility.yul\":1524:1547   */\n      tag_63\n        /* \"#utility.yul\":1541:1546   */\n      dup2\n        /* \"#utility.yul\":1524:1547   */\n      tag_36\n      jump\t// in\n    tag_63:\n        /* \"#utility.yul\":1517:1522   */\n      dup2\n        /* \"#utility.yul\":1514:1548   */\n      eq\n        /* \"#utility.yul\":1504:1566   */\n      tag_64\n      jumpi\n        /* \"#utility.yul\":1562:1563   */\n      0x00\n        /* \"#utility.yul\":1559:1560   */\n      dup1\n        /* \"#utility.yul\":1552:1564   */\n      revert\n        /* \"#utility.yul\":1504:1566   */\n    tag_64:\n        /* \"#utility.yul\":1452:1572   */\n      pop\n      jump\t// out\n        /* \"#utility.yul\":1578:1715   */\n    tag_39:\n        /* \"#utility.yul\":1623:1628   */\n      0x00\n        /* \"#utility.yul\":1661:1667   */\n      dup2\n        /* \"#utility.yul\":1648:1668   */\n      calldataload\n        /* \"#utility.yul\":1639:1668   */\n      swap1\n      pop\n        /* \"#utility.yul\":1677:1709   */\n      tag_66\n        /* \"#utility.yul\":1703:1708   */\n      dup2\n        /* \"#utility.yul\":1677:1709   */\n      tag_38\n      jump\t// in\n    tag_66:\n        /* \"#utility.yul\":1578:1715   */\n      swap3\n      swap2\n      pop\n      pop\n      jump\t// out\n        /* \"#utility.yul\":1721:2048   */\n    tag_20:\n        /* \"#utility.yul\":1779:1785   */\n      0x00\n        /* \"#utility.yul\":1828:1830   */\n      0x20\n        /* \"#utility.yul\":1816:1825   */\n      dup3\n        /* \"#utility.yul\":1807:1814   */\n      dup5\n        /* \"#utility.yul\":1803:1826   */\n      sub\n        /* \"#utility.yul\":1799:1831   */\n      slt\n        /* \"#utility.yul\":1796:1915   */\n      iszero\n      tag_68\n      jumpi\n        /* \"#utility.yul\":1834:1913   */\n      tag_69\n      tag_31\n      jump\t// in\n    tag_69:\n        /* \"#utility.yul\":1796:1915   */\n    tag_68:\n        /* \"#utility.yul\":1954:1955   */\n      0x00\n        /* \"#utility.yul\":1979:2031   */\n      tag_70\n        /* \"#utility.yul\":2023:2030   */\n      dup5\n        /* \"#utility.yul\":2014:2020   */\n      dup3\n        /* \"#utility.yul\":2003:2012   */\n      dup6\n        /* \"#utility.yul\":1999:2021   */\n      add\n        /* \"#utility.yul\":1979:2031   */\n      tag_39\n      jump\t// in\n    tag_70:\n        /* \"#utility.yul\":1969:2031   */\n      swap2\n      pop\n        /* \"#utility.yul\":1925:2041   */\n      pop\n        /* \"#utility.yul\":1721:2048   */\n      swap3\n      swap2\n      pop\n      pop\n      jump\t// out\n        /* \"#utility.yul\":2054:2223   */\n    tag_40:\n        /* \"#utility.yul\":2138:2149   */\n      0x00\n        /* \"#utility.yul\":2172:2178   */\n      dup3\n        /* \"#utility.yul\":2167:2170   */\n      dup3\n        /* \"#utility.yul\":2160:2179   */\n      mstore\n        /* \"#utility.yul\":2212:2216   */\n      0x20\n        /* \"#utility.yul\":2207:2210   */\n      dup3\n        /* \"#utility.yul\":2203:2217   */\n      add\n        /* \"#utility.yul\":2188:2217   */\n      swap1\n      pop\n        /* \"#utility.yul\":2054:2223   */\n      swap3\n      swap2\n      pop\n      pop\n      jump\t// out\n        /* \"#utility.yul\":2229:2384   */\n    tag_41:\n        /* \"#utility.yul\":2369:2376   */\n      0x6572726f72000000000000000000000000000000000000000000000000000000\n        /* \"#utility.yul\":2365:2366   */\n      0x00\n        /* \"#utility.yul\":2357:2363   */\n      dup3\n        /* \"#utility.yul\":2353:2367   */\n      add\n        /* \"#utility.yul\":2346:2377   */\n      mstore\n        /* \"#utility.yul\":2229:2384   */\n      pop\n      jump\t// out\n        /* \"#utility.yul\":2390:2755   */\n    tag_42:\n        /* \"#utility.yul\":2532:2535   */\n      0x00\n        /* \"#utility.yul\":2553:2619   */\n      tag_74\n        /* \"#utility.yul\":2617:2618   */\n      0x05\n        /* \"#utility.yul\":2612:2615   */\n      dup4\n        /* \"#utility.yul\":2553:2619   */\n      tag_40\n      jump\t// in\n    tag_74:\n        /* \"#utility.yul\":2546:2619   */\n      swap2\n      pop\n        /* \"#utility.yul\":2628:2721   */\n      tag_75\n        /* \"#utility.yul\":2717:2720   */\n      dup3\n        /* \"#utility.yul\":2628:2721   */\n      tag_41\n      jump\t// in\n    tag_75:\n        /* \"#utility.yul\":2746:2748   */\n      0x20\n        /* \"#utility.yul\":2741:2744   */\n      dup3\n        /* \"#utility.yul\":2737:2749   */\n      add\n        /* \"#utility.yul\":2730:2749   */\n      swap1\n      pop\n        /* \"#utility.yul\":2390:2755   */\n      swap2\n      swap1\n      pop\n      jump\t// out\n        /* \"#utility.yul\":2761:3180   */\n    tag_25:\n        /* \"#utility.yul\":2927:2931   */\n      0x00\n        /* \"#utility.yul\":2965:2967   */\n      0x20\n        /* \"#utility.yul\":2954:2963   */\n      dup3\n        /* \"#utility.yul\":2950:2968   */\n      add\n        /* \"#utility.yul\":2942:2968   */\n      swap1\n      pop\n        /* \"#utility.yul\":3014:3023   */\n      dup2\n        /* \"#utility.yul\":3008:3012   */\n      dup2\n        /* \"#utility.yul\":3004:3024   */\n      sub\n        /* \"#utility.yul\":3000:3001   */\n      0x00\n        /* \"#utility.yul\":2989:2998   */\n      dup4\n        /* \"#utility.yul\":2985:3002   */\n      add\n        /* \"#utility.yul\":2978:3025   */\n      mstore\n        /* \"#utility.yul\":3042:3173   */\n      tag_77\n        /* \"#utility.yul\":3168:3172   */\n      dup2\n        /* \"#utility.yul\":3042:3173   */\n      tag_42\n      jump\t// in\n    tag_77:\n        /* \"#utility.yul\":3034:3173   */\n      swap1\n      pop\n        /* \"#utility.yul\":2761:3180   */\n      swap2\n      swap1\n      pop\n      jump\t// out\n\n    auxdata: 0xa2646970667358221220476de3b4792ccc7b3fd6c1eb5d0566a09a8fa7d8686be2bcf0bcdd2260c3c1ad64736f6c63430008120033\n}\n",
				"bytecode": {
					"linkReferences": {},
					"object": "608060405234801561001057600080fd5b50610309806100206000396000f3fe608060405234801561001057600080fd5b506004361061004c5760003560e01c80631eb8f8db14610051578063ab5836541461006d578063e5aa3d5814610089578063e5c19b2d146100a7575b600080fd5b61006b6004803603810190610066919061019c565b6100c3565b005b6100876004803603810190610082919061019c565b61010a565b005b610091610151565b60405161009e91906101e2565b60405180910390f35b6100c160048036038101906100bc9190610229565b610157565b005b6064811115610107576040517f08c379a00000000000000000000000000000000000000000000000000000000081526004016100fe906102b3565b60405180910390fd5b50565b606481111561014e576040517f08c379a0000000000000000000000000000000000000000000000000000000008152600401610145906102b3565b60405180910390fd5b50565b60005481565b8060008190555050565b600080fd5b6000819050919050565b61017981610166565b811461018457600080fd5b50565b60008135905061019681610170565b92915050565b6000602082840312156101b2576101b1610161565b5b60006101c084828501610187565b91505092915050565b6000819050919050565b6101dc816101c9565b82525050565b60006020820190506101f760008301846101d3565b92915050565b610206816101c9565b811461021157600080fd5b50565b600081359050610223816101fd565b92915050565b60006020828403121561023f5761023e610161565b5b600061024d84828501610214565b91505092915050565b600082825260208201905092915050565b7f6572726f72000000000000000000000000000000000000000000000000000000600082015250565b600061029d600583610256565b91506102a882610267565b602082019050919050565b600060208201905081810360008301526102cc81610290565b905091905056fea2646970667358221220476de3b4792ccc7b3fd6c1eb5d0566a09a8fa7d8686be2bcf0bcdd2260c3c1ad64736f6c63430008120033",
					"opcodes": "PUSH1 0x80 PUSH1 0x40 MSTORE CALLVALUE DUP1 ISZERO PUSH2 0x10 JUMPI PUSH1 0x0 DUP1 REVERT JUMPDEST POP PUSH2 0x309 DUP1 PUSH2 0x20 PUSH1 0x0 CODECOPY PUSH1 0x0 RETURN INVALID PUSH1 0x80 PUSH1 0x40 MSTORE CALLVALUE DUP1 ISZERO PUSH2 0x10 JUMPI PUSH1 0x0 DUP1 REVERT JUMPDEST POP PUSH1 0x4 CALLDATASIZE LT PUSH2 0x4C JUMPI PUSH1 0x0 CALLDATALOAD PUSH1 0xE0 SHR DUP1 PUSH4 0x1EB8F8DB EQ PUSH2 0x51 JUMPI DUP1 PUSH4 0xAB583654 EQ PUSH2 0x6D JUMPI DUP1 PUSH4 0xE5AA3D58 EQ PUSH2 0x89 JUMPI DUP1 PUSH4 0xE5C19B2D EQ PUSH2 0xA7 JUMPI JUMPDEST PUSH1 0x0 DUP1 REVERT JUMPDEST PUSH2 0x6B PUSH1 0x4 DUP1 CALLDATASIZE SUB DUP2 ADD SWAP1 PUSH2 0x66 SWAP2 SWAP1 PUSH2 0x19C JUMP JUMPDEST PUSH2 0xC3 JUMP JUMPDEST STOP JUMPDEST PUSH2 0x87 PUSH1 0x4 DUP1 CALLDATASIZE SUB DUP2 ADD SWAP1 PUSH2 0x82 SWAP2 SWAP1 PUSH2 0x19C JUMP JUMPDEST PUSH2 0x10A JUMP JUMPDEST STOP JUMPDEST PUSH2 0x91 PUSH2 0x151 JUMP JUMPDEST PUSH1 0x40 MLOAD PUSH2 0x9E SWAP2 SWAP1 PUSH2 0x1E2 JUMP JUMPDEST PUSH1 0x40 MLOAD DUP1 SWAP2 SUB SWAP1 RETURN JUMPDEST PUSH2 0xC1 PUSH1 0x4 DUP1 CALLDATASIZE SUB DUP2 ADD SWAP1 PUSH2 0xBC SWAP2 SWAP1 PUSH2 0x229 JUMP JUMPDEST PUSH2 0x157 JUMP JUMPDEST STOP JUMPDEST PUSH1 0x64 DUP2 GT ISZERO PUSH2 0x107 JUMPI PUSH1 0x40 MLOAD PUSH32 0x8C379A000000000000000000000000000000000000000000000000000000000 DUP2 MSTORE PUSH1 0x4 ADD PUSH2 0xFE SWAP1 PUSH2 0x2B3 JUMP JUMPDEST PUSH1 0x40 MLOAD DUP1 SWAP2 SUB SWAP1 REVERT JUMPDEST POP JUMP JUMPDEST PUSH1 0x64 DUP2 GT ISZERO PUSH2 0x14E JUMPI PUSH1 0x40 MLOAD PUSH32 0x8C379A000000000000000000000000000000000000000000000000000000000 DUP2 MSTORE PUSH1 0x4 ADD PUSH2 0x145 SWAP1 PUSH2 0x2B3 JUMP JUMPDEST PUSH1 0x40 MLOAD DUP1 SWAP2 SUB SWAP1 REVERT JUMPDEST POP JUMP JUMPDEST PUSH1 0x0 SLOAD DUP2 JUMP JUMPDEST DUP1 PUSH1 0x0 DUP2 SWAP1 SSTORE POP POP JUMP JUMPDEST PUSH1 0x0 DUP1 REVERT JUMPDEST PUSH1 0x0 DUP2 SWAP1 POP SWAP2 SWAP1 POP JUMP JUMPDEST PUSH2 0x179 DUP2 PUSH2 0x166 JUMP JUMPDEST DUP2 EQ PUSH2 0x184 JUMPI PUSH1 0x0 DUP1 REVERT JUMPDEST POP JUMP JUMPDEST PUSH1 0x0 DUP2 CALLDATALOAD SWAP1 POP PUSH2 0x196 DUP2 PUSH2 0x170 JUMP JUMPDEST SWAP3 SWAP2 POP POP JUMP JUMPDEST PUSH1 0x0 PUSH1 0x20 DUP3 DUP5 SUB SLT ISZERO PUSH2 0x1B2 JUMPI PUSH2 0x1B1 PUSH2 0x161 JUMP JUMPDEST JUMPDEST PUSH1 0x0 PUSH2 0x1C0 DUP5 DUP3 DUP6 ADD PUSH2 0x187 JUMP JUMPDEST SWAP2 POP POP SWAP3 SWAP2 POP POP JUMP JUMPDEST PUSH1 0x0 DUP2 SWAP1 POP SWAP2 SWAP1 POP JUMP JUMPDEST PUSH2 0x1DC DUP2 PUSH2 0x1C9 JUMP JUMPDEST DUP3 MSTORE POP POP JUMP JUMPDEST PUSH1 0x0 PUSH1 0x20 DUP3 ADD SWAP1 POP PUSH2 0x1F7 PUSH1 0x0 DUP4 ADD DUP5 PUSH2 0x1D3 JUMP JUMPDEST SWAP3 SWAP2 POP POP JUMP JUMPDEST PUSH2 0x206 DUP2 PUSH2 0x1C9 JUMP JUMPDEST DUP2 EQ PUSH2 0x211 JUMPI PUSH1 0x0 DUP1 REVERT JUMPDEST POP JUMP JUMPDEST PUSH1 0x0 DUP2 CALLDATALOAD SWAP1 POP PUSH2 0x223 DUP2 PUSH2 0x1FD JUMP JUMPDEST SWAP3 SWAP2 POP POP JUMP JUMPDEST PUSH1 0x0 PUSH1 0x20 DUP3 DUP5 SUB SLT ISZERO PUSH2 0x23F JUMPI PUSH2 0x23E PUSH2 0x161 JUMP JUMPDEST JUMPDEST PUSH1 0x0 PUSH2 0x24D DUP5 DUP3 DUP6 ADD PUSH2 0x214 JUMP JUMPDEST SWAP2 POP POP SWAP3 SWAP2 POP POP JUMP JUMPDEST PUSH1 0x0 DUP3 DUP3 MSTORE PUSH1 0x20 DUP3 ADD SWAP1 POP SWAP3 SWAP2 POP POP JUMP JUMPDEST PUSH32 0x6572726F72000000000000000000000000000000000000000000000000000000 PUSH1 0x0 DUP3 ADD MSTORE POP JUMP JUMPDEST PUSH1 0x0 PUSH2 0x29D PUSH1 0x5 DUP4 PUSH2 0x256 JUMP JUMPDEST SWAP2 POP PUSH2 0x2A8 DUP3 PUSH2 0x267 JUMP JUMPDEST PUSH1 0x20 DUP3 ADD SWAP1 POP SWAP2 SWAP1 POP JUMP JUMPDEST PUSH1 0x0 PUSH1 0x20 DUP3 ADD SWAP1 POP DUP2 DUP2 SUB PUSH1 0x0 DUP4 ADD MSTORE PUSH2 0x2CC DUP2 PUSH2 0x290 JUMP JUMPDEST SWAP1 POP SWAP2 SWAP1 POP JUMP INVALID LOG2 PUSH5 0x6970667358 0x22 SLT KECCAK256 SELFBALANCE PUSH14 0xE3B4792CCC7B3FD6C1EB5D0566A0 SWAP11 DUP16 0xA7 0xD8 PUSH9 0x6BE2BCF0BCDD2260C3 0xC1 0xAD PUSH5 0x736F6C6343 STOP ADDMOD SLT STOP CALLER "
				},
				"gasEstimates": {
					"creation": {
						"codeDepositCost": "155400",
						"executionCost": "202",
						"totalCost": "155602"
					},
					"external": {
						"Reevert(uint256)": "697",
						"Required(uint256)": "719",
						"i()": "2451",
						"set(int256)": "22564"
					}
				},
				"methodIdentifiers": {
					"Reevert(uint256)": "1eb8f8db",
					"Required(uint256)": "ab583654",
					"i()": "e5aa3d58",
					"set(int256)": "e5c19b2d"
				}
			},
			"storageLayout": {
				"storage": [
					{
						"astId": 3,
						"contract": "revert.sol:Revert",
						"label": "i",
						"offset": 0,
						"slot": "0",
						"type": "t_int256"
					}
				],
				"types": {
					"t_int256": {
						"encoding": "inplace",
						"label": "int256",
						"numberOfBytes": "32"
					}
				}
			},
			"userdoc": {
				"kind": "user",
				"methods": {},
				"version": 1
			}
		}
	}
}