{
	"score.sol": {
		"Score": {
			"abi": [
				{
					"inputs": [
						{
							"internalType": "uint256",
							"name": "score",
							"type": "uint256"
						}
					],
					"name": "check",
					"outputs": [
						{
							"internalType": "bool",
							"name": "",
							"type": "bool"
						},
						{
							"internalType": "string",
							"name": "",
							"type": "string"
						}
					],
					"stateMutability": "pure",
					"type": "function"
				}
			],
			"devdoc": {
				"kind": "dev",
				"methods": {},
				"version": 1
			},
			"evm": {
				"assembly": "    /* \"score.sol\":61:284  contract Score {... */\n  mstore(0x40, 0x80)\n  callvalue\n  dup1\n  iszero\n  tag_1\n  jumpi\n  0x00\n  dup1\n  revert\ntag_1:\n  pop\n  dataSize(sub_0)\n  dup1\n  dataOffset(sub_0)\n  0x00\n  codecopy\n  0x00\n  return\nstop\n\nsub_0: assembly {\n        /* \"score.sol\":61:284  contract Score {... */\n      mstore(0x40, 0x80)\n      callvalue\n      dup1\n      iszero\n      tag_1\n      jumpi\n      0x00\n      dup1\n      revert\n    tag_1:\n      pop\n      jumpi(tag_2, lt(calldatasize, 0x04))\n      shr(0xe0, calldataload(0x00))\n      dup1\n      0x5f72f450\n      eq\n      tag_3\n      jumpi\n    tag_2:\n      0x00\n      dup1\n      revert\n        /* \"score.sol\":83:281  function check(uint score) public pure returns(bool,string memory){... */\n    tag_3:\n      tag_4\n      0x04\n      dup1\n      calldatasize\n      sub\n      dup2\n      add\n      swap1\n      tag_5\n      swap2\n      swap1\n      tag_6\n      jump\t// in\n    tag_5:\n      tag_7\n      jump\t// in\n    tag_4:\n      mload(0x40)\n      tag_8\n      swap3\n      swap2\n      swap1\n      tag_9\n      jump\t// in\n    tag_8:\n      mload(0x40)\n      dup1\n      swap2\n      sub\n      swap1\n      return\n    tag_7:\n        /* \"score.sol\":130:134  bool */\n      0x00\n        /* \"score.sol\":135:148  string memory */\n      0x60\n        /* \"score.sol\":174:176  60 */\n      0x3c\n        /* \"score.sol\":167:172  score */\n      dup4\n        /* \"score.sol\":167:176  score>=60 */\n      lt\n      iszero\n        /* \"score.sol\":167:273  score>=60?(true,(score>=80&&score<=100)?\"A\":\"B\"):(false,(score>=40&&score<60)?\"C\":\"Better Luck Next Time\") */\n      tag_11\n      jumpi\n        /* \"score.sol\":217:222  false */\n      0x00\n        /* \"score.sol\":231:233  40 */\n      0x28\n        /* \"score.sol\":224:229  score */\n      dup5\n        /* \"score.sol\":224:233  score>=40 */\n      lt\n      iszero\n        /* \"score.sol\":224:243  score>=40&&score<60 */\n      dup1\n      iszero\n      tag_12\n      jumpi\n      pop\n        /* \"score.sol\":241:243  60 */\n      0x3c\n        /* \"score.sol\":235:240  score */\n      dup5\n        /* \"score.sol\":235:243  score<60 */\n      lt\n        /* \"score.sol\":224:243  score>=40&&score<60 */\n    tag_12:\n        /* \"score.sol\":223:272  (score>=40&&score<60)?\"C\":\"Better Luck Next Time\" */\n      tag_13\n      jumpi\n      mload(0x40)\n      dup1\n      0x40\n      add\n      0x40\n      mstore\n      dup1\n      0x15\n      dup2\n      mstore\n      0x20\n      add\n      0x426574746572204c75636b204e6578742054696d650000000000000000000000\n      dup2\n      mstore\n      pop\n      jump(tag_14)\n    tag_13:\n      mload(0x40)\n      dup1\n      0x40\n      add\n      0x40\n      mstore\n      dup1\n      0x01\n      dup2\n      mstore\n      0x20\n      add\n      0x4300000000000000000000000000000000000000000000000000000000000000\n      dup2\n      mstore\n      pop\n    tag_14:\n        /* \"score.sol\":167:273  score>=60?(true,(score>=80&&score<=100)?\"A\":\"B\"):(false,(score>=40&&score<60)?\"C\":\"Better Luck Next Time\") */\n      jump(tag_15)\n    tag_11:\n        /* \"score.sol\":178:182  true */\n      0x01\n        /* \"score.sol\":191:193  80 */\n      0x50\n        /* \"score.sol\":184:189  score */\n      dup5\n        /* \"score.sol\":184:193  score>=80 */\n      lt\n      iszero\n        /* \"score.sol\":184:205  score>=80&&score<=100 */\n      dup1\n      iszero\n      tag_16\n      jumpi\n      pop\n        /* \"score.sol\":202:205  100 */\n      0x64\n        /* \"score.sol\":195:200  score */\n      dup5\n        /* \"score.sol\":195:205  score<=100 */\n      gt\n      iszero\n        /* \"score.sol\":184:205  score>=80&&score<=100 */\n    tag_16:\n        /* \"score.sol\":183:214  (score>=80&&score<=100)?\"A\":\"B\" */\n      tag_17\n      jumpi\n      mload(0x40)\n      dup1\n      0x40\n      add\n      0x40\n      mstore\n      dup1\n      0x01\n      dup2\n      mstore\n      0x20\n      add\n      0x4200000000000000000000000000000000000000000000000000000000000000\n      dup2\n      mstore\n      pop\n      jump(tag_18)\n    tag_17:\n      mload(0x40)\n      dup1\n      0x40\n      add\n      0x40\n      mstore\n      dup1\n      0x01\n      dup2\n      mstore\n      0x20\n      add\n      0x4100000000000000000000000000000000000000000000000000000000000000\n      dup2\n      mstore\n      pop\n    tag_18:\n        /* \"score.sol\":167:273  score>=60?(true,(score>=80&&score<=100)?\"A\":\"B\"):(false,(score>=40&&score<60)?\"C\":\"Better Luck Next Time\") */\n    tag_15:\n        /* \"score.sol\":160:273  return score>=60?(true,(score>=80&&score<=100)?\"A\":\"B\"):(false,(score>=40&&score<60)?\"C\":\"Better Luck Next Time\") */\n      swap2\n      pop\n      swap2\n      pop\n        /* \"score.sol\":83:281  function check(uint score) public pure returns(bool,string memory){... */\n      swap2\n      pop\n      swap2\n      jump\t// out\n        /* \"#utility.yul\":88:205   */\n    tag_20:\n        /* \"#utility.yul\":197:198   */\n      0x00\n        /* \"#utility.yul\":194:195   */\n      dup1\n        /* \"#utility.yul\":187:199   */\n      revert\n        /* \"#utility.yul\":334:411   */\n    tag_22:\n        /* \"#utility.yul\":371:378   */\n      0x00\n        /* \"#utility.yul\":400:405   */\n      dup2\n        /* \"#utility.yul\":389:405   */\n      swap1\n      pop\n        /* \"#utility.yul\":334:411   */\n      swap2\n      swap1\n      pop\n      jump\t// out\n        /* \"#utility.yul\":417:539   */\n    tag_23:\n        /* \"#utility.yul\":490:514   */\n      tag_38\n        /* \"#utility.yul\":508:513   */\n      dup2\n        /* \"#utility.yul\":490:514   */\n      tag_22\n      jump\t// in\n    tag_38:\n        /* \"#utility.yul\":483:488   */\n      dup2\n        /* \"#utility.yul\":480:515   */\n      eq\n        /* \"#utility.yul\":470:533   */\n      tag_39\n      jumpi\n        /* \"#utility.yul\":529:530   */\n      0x00\n        /* \"#utility.yul\":526:527   */\n      dup1\n        /* \"#utility.yul\":519:531   */\n      revert\n        /* \"#utility.yul\":470:533   */\n    tag_39:\n        /* \"#utility.yul\":417:539   */\n      pop\n      jump\t// out\n        /* \"#utility.yul\":545:684   */\n    tag_24:\n        /* \"#utility.yul\":591:596   */\n      0x00\n        /* \"#utility.yul\":629:635   */\n      dup2\n        /* \"#utility.yul\":616:636   */\n      calldataload\n        /* \"#utility.yul\":607:636   */\n      swap1\n      pop\n        /* \"#utility.yul\":645:678   */\n      tag_41\n        /* \"#utility.yul\":672:677   */\n      dup2\n        /* \"#utility.yul\":645:678   */\n      tag_23\n      jump\t// in\n    tag_41:\n        /* \"#utility.yul\":545:684   */\n      swap3\n      swap2\n      pop\n      pop\n      jump\t// out\n        /* \"#utility.yul\":690:1019   */\n    tag_6:\n        /* \"#utility.yul\":749:755   */\n      0x00\n        /* \"#utility.yul\":798:800   */\n      0x20\n        /* \"#utility.yul\":786:795   */\n      dup3\n        /* \"#utility.yul\":777:784   */\n      dup5\n        /* \"#utility.yul\":773:796   */\n      sub\n        /* \"#utility.yul\":769:801   */\n      slt\n        /* \"#utility.yul\":766:885   */\n      iszero\n      tag_43\n      jumpi\n        /* \"#utility.yul\":804:883   */\n      tag_44\n      tag_20\n      jump\t// in\n    tag_44:\n        /* \"#utility.yul\":766:885   */\n    tag_43:\n        /* \"#utility.yul\":924:925   */\n      0x00\n        /* \"#utility.yul\":949:1002   */\n      tag_45\n        /* \"#utility.yul\":994:1001   */\n      dup5\n        /* \"#utility.yul\":985:991   */\n      dup3\n        /* \"#utility.yul\":974:983   */\n      dup6\n        /* \"#utility.yul\":970:992   */\n      add\n        /* \"#utility.yul\":949:1002   */\n      tag_24\n      jump\t// in\n    tag_45:\n        /* \"#utility.yul\":939:1002   */\n      swap2\n      pop\n        /* \"#utility.yul\":895:1012   */\n      pop\n        /* \"#utility.yul\":690:1019   */\n      swap3\n      swap2\n      pop\n      pop\n      jump\t// out\n        /* \"#utility.yul\":1025:1115   */\n    tag_25:\n        /* \"#utility.yul\":1059:1066   */\n      0x00\n        /* \"#utility.yul\":1102:1107   */\n      dup2\n        /* \"#utility.yul\":1095:1108   */\n      iszero\n        /* \"#utility.yul\":1088:1109   */\n      iszero\n        /* \"#utility.yul\":1077:1109   */\n      swap1\n      pop\n        /* \"#utility.yul\":1025:1115   */\n      swap2\n      swap1\n      pop\n      jump\t// out\n        /* \"#utility.yul\":1121:1230   */\n    tag_26:\n        /* \"#utility.yul\":1202:1223   */\n      tag_48\n        /* \"#utility.yul\":1217:1222   */\n      dup2\n        /* \"#utility.yul\":1202:1223   */\n      tag_25\n      jump\t// in\n    tag_48:\n        /* \"#utility.yul\":1197:1200   */\n      dup3\n        /* \"#utility.yul\":1190:1224   */\n      mstore\n        /* \"#utility.yul\":1121:1230   */\n      pop\n      pop\n      jump\t// out\n        /* \"#utility.yul\":1236:1335   */\n    tag_27:\n        /* \"#utility.yul\":1288:1294   */\n      0x00\n        /* \"#utility.yul\":1322:1327   */\n      dup2\n        /* \"#utility.yul\":1316:1328   */\n      mload\n        /* \"#utility.yul\":1306:1328   */\n      swap1\n      pop\n        /* \"#utility.yul\":1236:1335   */\n      swap2\n      swap1\n      pop\n      jump\t// out\n        /* \"#utility.yul\":1341:1510   */\n    tag_28:\n        /* \"#utility.yul\":1425:1436   */\n      0x00\n        /* \"#utility.yul\":1459:1465   */\n      dup3\n        /* \"#utility.yul\":1454:1457   */\n      dup3\n        /* \"#utility.yul\":1447:1466   */\n      mstore\n        /* \"#utility.yul\":1499:1503   */\n      0x20\n        /* \"#utility.yul\":1494:1497   */\n      dup3\n        /* \"#utility.yul\":1490:1504   */\n      add\n        /* \"#utility.yul\":1475:1504   */\n      swap1\n      pop\n        /* \"#utility.yul\":1341:1510   */\n      swap3\n      swap2\n      pop\n      pop\n      jump\t// out\n        /* \"#utility.yul\":1516:1762   */\n    tag_29:\n        /* \"#utility.yul\":1597:1598   */\n      0x00\n        /* \"#utility.yul\":1607:1720   */\n    tag_52:\n        /* \"#utility.yul\":1621:1627   */\n      dup4\n        /* \"#utility.yul\":1618:1619   */\n      dup2\n        /* \"#utility.yul\":1615:1628   */\n      lt\n        /* \"#utility.yul\":1607:1720   */\n      iszero\n      tag_54\n      jumpi\n        /* \"#utility.yul\":1706:1707   */\n      dup1\n        /* \"#utility.yul\":1701:1704   */\n      dup3\n        /* \"#utility.yul\":1697:1708   */\n      add\n        /* \"#utility.yul\":1691:1709   */\n      mload\n        /* \"#utility.yul\":1687:1688   */\n      dup2\n        /* \"#utility.yul\":1682:1685   */\n      dup5\n        /* \"#utility.yul\":1678:1689   */\n      add\n        /* \"#utility.yul\":1671:1710   */\n      mstore\n        /* \"#utility.yul\":1643:1645   */\n      0x20\n        /* \"#utility.yul\":1640:1641   */\n      dup2\n        /* \"#utility.yul\":1636:1646   */\n      add\n        /* \"#utility.yul\":1631:1646   */\n      swap1\n      pop\n        /* \"#utility.yul\":1607:1720   */\n      jump(tag_52)\n    tag_54:\n        /* \"#utility.yul\":1754:1755   */\n      0x00\n        /* \"#utility.yul\":1745:1751   */\n      dup5\n        /* \"#utility.yul\":1740:1743   */\n      dup5\n        /* \"#utility.yul\":1736:1752   */\n      add\n        /* \"#utility.yul\":1729:1756   */\n      mstore\n        /* \"#utility.yul\":1578:1762   */\n      pop\n        /* \"#utility.yul\":1516:1762   */\n      pop\n      pop\n      pop\n      jump\t// out\n        /* \"#utility.yul\":1768:1870   */\n    tag_30:\n        /* \"#utility.yul\":1809:1815   */\n      0x00\n        /* \"#utility.yul\":1860:1862   */\n      0x1f\n        /* \"#utility.yul\":1856:1863   */\n      not\n        /* \"#utility.yul\":1851:1853   */\n      0x1f\n        /* \"#utility.yul\":1844:1849   */\n      dup4\n        /* \"#utility.yul\":1840:1854   */\n      add\n        /* \"#utility.yul\":1836:1864   */\n      and\n        /* \"#utility.yul\":1826:1864   */\n      swap1\n      pop\n        /* \"#utility.yul\":1768:1870   */\n      swap2\n      swap1\n      pop\n      jump\t// out\n        /* \"#utility.yul\":1876:2253   */\n    tag_31:\n        /* \"#utility.yul\":1964:1967   */\n      0x00\n        /* \"#utility.yul\":1992:2031   */\n      tag_57\n        /* \"#utility.yul\":2025:2030   */\n      dup3\n        /* \"#utility.yul\":1992:2031   */\n      tag_27\n      jump\t// in\n    tag_57:\n        /* \"#utility.yul\":2047:2118   */\n      tag_58\n        /* \"#utility.yul\":2111:2117   */\n      dup2\n        /* \"#utility.yul\":2106:2109   */\n      dup6\n        /* \"#utility.yul\":2047:2118   */\n      tag_28\n      jump\t// in\n    tag_58:\n        /* \"#utility.yul\":2040:2118   */\n      swap4\n      pop\n        /* \"#utility.yul\":2127:2192   */\n      tag_59\n        /* \"#utility.yul\":2185:2191   */\n      dup2\n        /* \"#utility.yul\":2180:2183   */\n      dup6\n        /* \"#utility.yul\":2173:2177   */\n      0x20\n        /* \"#utility.yul\":2166:2171   */\n      dup7\n        /* \"#utility.yul\":2162:2178   */\n      add\n        /* \"#utility.yul\":2127:2192   */\n      tag_29\n      jump\t// in\n    tag_59:\n        /* \"#utility.yul\":2217:2246   */\n      tag_60\n        /* \"#utility.yul\":2239:2245   */\n      dup2\n        /* \"#utility.yul\":2217:2246   */\n      tag_30\n      jump\t// in\n    tag_60:\n        /* \"#utility.yul\":2212:2215   */\n      dup5\n        /* \"#utility.yul\":2208:2247   */\n      add\n        /* \"#utility.yul\":2201:2247   */\n      swap2\n      pop\n        /* \"#utility.yul\":1968:2253   */\n      pop\n        /* \"#utility.yul\":1876:2253   */\n      swap3\n      swap2\n      pop\n      pop\n      jump\t// out\n        /* \"#utility.yul\":2259:2670   */\n    tag_9:\n        /* \"#utility.yul\":2394:2398   */\n      0x00\n        /* \"#utility.yul\":2432:2434   */\n      0x40\n        /* \"#utility.yul\":2421:2430   */\n      dup3\n        /* \"#utility.yul\":2417:2435   */\n      add\n        /* \"#utility.yul\":2409:2435   */\n      swap1\n      pop\n        /* \"#utility.yul\":2445:2510   */\n      tag_62\n        /* \"#utility.yul\":2507:2508   */\n      0x00\n        /* \"#utility.yul\":2496:2505   */\n      dup4\n        /* \"#utility.yul\":2492:2509   */\n      add\n        /* \"#utility.yul\":2483:2489   */\n      dup6\n        /* \"#utility.yul\":2445:2510   */\n      tag_26\n      jump\t// in\n    tag_62:\n        /* \"#utility.yul\":2557:2566   */\n      dup2\n        /* \"#utility.yul\":2551:2555   */\n      dup2\n        /* \"#utility.yul\":2547:2567   */\n      sub\n        /* \"#utility.yul\":2542:2544   */\n      0x20\n        /* \"#utility.yul\":2531:2540   */\n      dup4\n        /* \"#utility.yul\":2527:2545   */\n      add\n        /* \"#utility.yul\":2520:2568   */\n      mstore\n        /* \"#utility.yul\":2585:2663   */\n      tag_63\n        /* \"#utility.yul\":2658:2662   */\n      dup2\n        /* \"#utility.yul\":2649:2655   */\n      dup5\n        /* \"#utility.yul\":2585:2663   */\n      tag_31\n      jump\t// in\n    tag_63:\n        /* \"#utility.yul\":2577:2663   */\n      swap1\n      pop\n        /* \"#utility.yul\":2259:2670   */\n      swap4\n      swap3\n      pop\n      pop\n      pop\n      jump\t// out\n\n    auxdata: 0xa26469706673582212202d6263a32fc08a7fe0fd3c833df6c65e5e573fc79633c796bd83d9e7eb16f60064736f6c63430008120033\n}\n",
				"bytecode": {
					"linkReferences": {},
					"object": "608060405234801561001057600080fd5b50610309806100206000396000f3fe608060405234801561001057600080fd5b506004361061002b5760003560e01c80635f72f45014610030575b600080fd5b61004a600480360381019061004591906101cb565b610061565b6040516100589291906102a3565b60405180910390f35b60006060603c8310156100fc576000602884101580156100815750603c84105b6100c0576040518060400160405280601581526020017f426574746572204c75636b204e6578742054696d6500000000000000000000008152506100f7565b6040518060400160405280600181526020017f43000000000000000000000000000000000000000000000000000000000000008152505b610187565b600160508410158015610110575060648411155b61014f576040518060400160405280600181526020017f4200000000000000000000000000000000000000000000000000000000000000815250610186565b6040518060400160405280600181526020017f41000000000000000000000000000000000000000000000000000000000000008152505b5b91509150915091565b600080fd5b6000819050919050565b6101a881610195565b81146101b357600080fd5b50565b6000813590506101c58161019f565b92915050565b6000602082840312156101e1576101e0610190565b5b60006101ef848285016101b6565b91505092915050565b60008115159050919050565b61020d816101f8565b82525050565b600081519050919050565b600082825260208201905092915050565b60005b8381101561024d578082015181840152602081019050610232565b60008484015250505050565b6000601f19601f8301169050919050565b600061027582610213565b61027f818561021e565b935061028f81856020860161022f565b61029881610259565b840191505092915050565b60006040820190506102b86000830185610204565b81810360208301526102ca818461026a565b9050939250505056fea26469706673582212202d6263a32fc08a7fe0fd3c833df6c65e5e573fc79633c796bd83d9e7eb16f60064736f6c63430008120033",
					"opcodes": "PUSH1 0x80 PUSH1 0x40 MSTORE CALLVALUE DUP1 ISZERO PUSH2 0x10 JUMPI PUSH1 0x0 DUP1 REVERT JUMPDEST POP PUSH2 0x309 DUP1 PUSH2 0x20 PUSH1 0x0 CODECOPY PUSH1 0x0 RETURN INVALID PUSH1 0x80 PUSH1 0x40 MSTORE CALLVALUE DUP1 ISZERO PUSH2 0x10 JUMPI PUSH1 0x0 DUP1 REVERT JUMPDEST POP PUSH1 0x4 CALLDATASIZE LT PUSH2 0x2B JUMPI PUSH1 0x0 CALLDATALOAD PUSH1 0xE0 SHR DUP1 PUSH4 0x5F72F450 EQ PUSH2 0x30 JUMPI JUMPDEST PUSH1 0x0 DUP1 REVERT JUMPDEST PUSH2 0x4A PUSH1 0x4 DUP1 CALLDATASIZE SUB DUP2 ADD SWAP1 PUSH2 0x45 SWAP2 SWAP1 PUSH2 0x1CB JUMP JUMPDEST PUSH2 0x61 JUMP JUMPDEST PUSH1 0x40 MLOAD PUSH2 0x58 SWAP3 SWAP2 SWAP1 PUSH2 0x2A3 JUMP JUMPDEST PUSH1 0x40 MLOAD DUP1 SWAP2 SUB SWAP1 RETURN JUMPDEST PUSH1 0x0 PUSH1 0x60 PUSH1 0x3C DUP4 LT ISZERO PUSH2 0xFC JUMPI PUSH1 0x0 PUSH1 0x28 DUP5 LT ISZERO DUP1 ISZERO PUSH2 0x81 JUMPI POP PUSH1 0x3C DUP5 LT JUMPDEST PUSH2 0xC0 JUMPI PUSH1 0x40 MLOAD DUP1 PUSH1 0x40 ADD PUSH1 0x40 MSTORE DUP1 PUSH1 0x15 DUP2 MSTORE PUSH1 0x20 ADD PUSH32 0x426574746572204C75636B204E6578742054696D650000000000000000000000 DUP2 MSTORE POP PUSH2 0xF7 JUMP JUMPDEST PUSH1 0x40 MLOAD DUP1 PUSH1 0x40 ADD PUSH1 0x40 MSTORE DUP1 PUSH1 0x1 DUP2 MSTORE PUSH1 0x20 ADD PUSH32 0x4300000000000000000000000000000000000000000000000000000000000000 DUP2 MSTORE POP JUMPDEST PUSH2 0x187 JUMP JUMPDEST PUSH1 0x1 PUSH1 0x50 DUP5 LT ISZERO DUP1 ISZERO PUSH2 0x110 JUMPI POP PUSH1 0x64 DUP5 GT ISZERO JUMPDEST PUSH2 0x14F JUMPI PUSH1 0x40 MLOAD DUP1 PUSH1 0x40 ADD PUSH1 0x40 MSTORE DUP1 PUSH1 0x1 DUP2 MSTORE PUSH1 0x20 ADD PUSH32 0x4200000000000000000000000000000000000000000000000000000000000000 DUP2 MSTORE POP PUSH2 0x186 JUMP JUMPDEST PUSH1 0x40 MLOAD DUP1 PUSH1 0x40 ADD PUSH1 0x40 MSTORE DUP1 PUSH1 0x1 DUP2 MSTORE PUSH1 0x20 ADD PUSH32 0x4100000000000000000000000000000000000000000000000000000000000000 DUP2 MSTORE POP JUMPDEST JUMPDEST SWAP2 POP SWAP2 POP SWAP2 POP SWAP2 JUMP JUMPDEST PUSH1 0x0 DUP1 REVERT JUMPDEST PUSH1 0x0 DUP2 SWAP1 POP SWAP2 SWAP1 POP JUMP JUMPDEST PUSH2 0x1A8 DUP2 PUSH2 0x195 JUMP JUMPDEST DUP2 EQ PUSH2 0x1B3 JUMPI PUSH1 0x0 DUP1 REVERT JUMPDEST POP JUMP JUMPDEST PUSH1 0x0 DUP2 CALLDATALOAD SWAP1 POP PUSH2 0x1C5 DUP2 PUSH2 0x19F JUMP JUMPDEST SWAP3 SWAP2 POP POP JUMP JUMPDEST PUSH1 0x0 PUSH1 0x20 DUP3 DUP5 SUB SLT ISZERO PUSH2 0x1E1 JUMPI PUSH2 0x1E0 PUSH2 0x190 JUMP JUMPDEST JUMPDEST PUSH1 0x0 PUSH2 0x1EF DUP5 DUP3 DUP6 ADD PUSH2 0x1B6 JUMP JUMPDEST SWAP2 POP POP SWAP3 SWAP2 POP POP JUMP JUMPDEST PUSH1 0x0 DUP2 ISZERO ISZERO SWAP1 POP SWAP2 SWAP1 POP JUMP JUMPDEST PUSH2 0x20D DUP2 PUSH2 0x1F8 JUMP JUMPDEST DUP3 MSTORE POP POP JUMP JUMPDEST PUSH1 0x0 DUP2 MLOAD SWAP1 POP SWAP2 SWAP1 POP JUMP JUMPDEST PUSH1 0x0 DUP3 DUP3 MSTORE PUSH1 0x20 DUP3 ADD SWAP1 POP SWAP3 SWAP2 POP POP JUMP JUMPDEST PUSH1 0x0 JUMPDEST DUP4 DUP2 LT ISZERO PUSH2 0x24D JUMPI DUP1 DUP3 ADD MLOAD DUP2 DUP5 ADD MSTORE PUSH1 0x20 DUP2 ADD SWAP1 POP PUSH2 0x232 JUMP JUMPDEST PUSH1 0x0 DUP5 DUP5 ADD MSTORE POP POP POP POP JUMP JUMPDEST PUSH1 0x0 PUSH1 0x1F NOT PUSH1 0x1F DUP4 ADD AND SWAP1 POP SWAP2 SWAP1 POP JUMP JUMPDEST PUSH1 0x0 PUSH2 0x275 DUP3 PUSH2 0x213 JUMP JUMPDEST PUSH2 0x27F DUP2 DUP6 PUSH2 0x21E JUMP JUMPDEST SWAP4 POP PUSH2 0x28F DUP2 DUP6 PUSH1 0x20 DUP7 ADD PUSH2 0x22F JUMP JUMPDEST PUSH2 0x298 DUP2 PUSH2 0x259 JUMP JUMPDEST DUP5 ADD SWAP2 POP POP SWAP3 SWAP2 POP POP JUMP JUMPDEST PUSH1 0x0 PUSH1 0x40 DUP3 ADD SWAP1 POP PUSH2 0x2B8 PUSH1 0x0 DUP4 ADD DUP6 PUSH2 0x204 JUMP JUMPDEST DUP2 DUP2 SUB PUSH1 0x20 DUP4 ADD MSTORE PUSH2 0x2CA DUP2 DUP5 PUSH2 0x26A JUMP JUMPDEST SWAP1 POP SWAP4 SWAP3 POP POP POP JUMP INVALID LOG2 PUSH5 0x6970667358 0x22 SLT KECCAK256 0x2D PUSH3 0x63A32F 0xC0 DUP11 PUSH32 0xE0FD3C833DF6C65E5E573FC79633C796BD83D9E7EB16F60064736F6C63430008 SLT STOP CALLER "
				},
				"gasEstimates": {
					"creation": {
						"codeDepositCost": "155400",
						"executionCost": "202",
						"totalCost": "155602"
					},
					"external": {
						"check(uint256)": "infinite"
					}
				},
				"methodIdentifiers": {
					"check(uint256)": "5f72f450"
				}
			},
			"storageLayout": {
				"storage": [],
				"types": null
			},
			"userdoc": {
				"kind": "user",
				"methods": {},
				"version": 1
			}
		}
	}
}