{
	"data": {
		"bytecode": {
			"linkReferences": {},
			"object": "608060405234801561001057600080fd5b506105ae806100206000396000f3fe608060405234801561001057600080fd5b50600436106100575760003560e01c80631b45ece31461005c57806338d94193146100785780636d4ce63c146100a8578063a16d3598146100c6578063c3344af8146100e4575b600080fd5b6100766004803603810190610071919061039c565b6100ee565b005b610092600480360381019061008d91906103f8565b610113565b60405161009f919061043e565b60405180910390f35b6100b061012e565b6040516100bd9190610504565b60405180910390f35b6100ce610179565b6040516100db919061052e565b60405180910390f35b6100ec610182565b005b808260008151811061010357610102610549565b5b6020026020010181815250505050565b6000816004811061012357600080fd5b016000915090505481565b6101366101d7565b600060048060200260405190810160405280929190826004801561016f576020028201915b81548152602001906001019080831161015b575b5050505050905090565b60006004905090565b60056000806004811061019857610197610549565b5b0181905550600560006002600481106101b4576101b3610549565b5b0181905550600a60006003600481106101d0576101cf610549565b5b0181905550565b6040518060800160405280600490602082028036833780820191505090505090565b6000604051905090565b600080fd5b600080fd5b600080fd5b6000601f19601f8301169050919050565b7f4e487b7100000000000000000000000000000000000000000000000000000000600052604160045260246000fd5b61025b82610212565b810181811067ffffffffffffffff8211171561027a57610279610223565b5b80604052505050565b600061028d6101f9565b90506102998282610252565b919050565b600067ffffffffffffffff8211156102b9576102b8610223565b5b602082029050602081019050919050565b600080fd5b6000819050919050565b6102e2816102cf565b81146102ed57600080fd5b50565b6000813590506102ff816102d9565b92915050565b60006103186103138461029e565b610283565b9050808382526020820190506020840283018581111561033b5761033a6102ca565b5b835b81811015610364578061035088826102f0565b84526020840193505060208101905061033d565b5050509392505050565b600082601f8301126103835761038261020d565b5b8135610393848260208601610305565b91505092915050565b600080604083850312156103b3576103b2610203565b5b600083013567ffffffffffffffff8111156103d1576103d0610208565b5b6103dd8582860161036e565b92505060206103ee858286016102f0565b9150509250929050565b60006020828403121561040e5761040d610203565b5b600061041c848285016102f0565b91505092915050565b6000819050919050565b61043881610425565b82525050565b6000602082019050610453600083018461042f565b92915050565b600060049050919050565b600081905092915050565b6000819050919050565b61048281610425565b82525050565b60006104948383610479565b60208301905092915050565b6000602082019050919050565b6104b681610459565b6104c08184610464565b92506104cb8261046f565b8060005b838110156104fc5781516104e38782610488565b96506104ee836104a0565b9250506001810190506104cf565b505050505050565b600060808201905061051960008301846104ad565b92915050565b610528816102cf565b82525050565b6000602082019050610543600083018461051f565b92915050565b7f4e487b7100000000000000000000000000000000000000000000000000000000600052603260045260246000fdfea264697066735822122035105bdb2975f144240523c268732c765388020442a1f99bd7497d2f6d70709564736f6c63430008120033",
			"opcodes": "PUSH1 0x80 PUSH1 0x40 MSTORE CALLVALUE DUP1 ISZERO PUSH2 0x10 JUMPI PUSH1 0x0 DUP1 REVERT JUMPDEST POP PUSH2 0x5AE DUP1 PUSH2 0x20 PUSH1 0x0 CODECOPY PUSH1 0x0 RETURN INVALID PUSH1 0x80 PUSH1 0x40 MSTORE CALLVALUE DUP1 ISZERO PUSH2 0x10 JUMPI PUSH1 0x0 DUP1 REVERT JUMPDEST POP PUSH1 0x4 CALLDATASIZE LT PUSH2 0x57 JUMPI PUSH1 0x0 CALLDATALOAD PUSH1 0xE0 SHR DUP1 PUSH4 0x1B45ECE3 EQ PUSH2 0x5C JUMPI DUP1 PUSH4 0x38D94193 EQ PUSH2 0x78 JUMPI DUP1 PUSH4 0x6D4CE63C EQ PUSH2 0xA8 JUMPI DUP1 PUSH4 0xA16D3598 EQ PUSH2 0xC6 JUMPI DUP1 PUSH4 0xC3344AF8 EQ PUSH2 0xE4 JUMPI JUMPDEST PUSH1 0x0 DUP1 REVERT JUMPDEST PUSH2 0x76 PUSH1 0x4 DUP1 CALLDATASIZE SUB DUP2 ADD SWAP1 PUSH2 0x71 SWAP2 SWAP1 PUSH2 0x39C JUMP JUMPDEST PUSH2 0xEE JUMP JUMPDEST STOP JUMPDEST PUSH2 0x92 PUSH1 0x4 DUP1 CALLDATASIZE SUB DUP2 ADD SWAP1 PUSH2 0x8D SWAP2 SWAP1 PUSH2 0x3F8 JUMP JUMPDEST PUSH2 0x113 JUMP JUMPDEST PUSH1 0x40 MLOAD PUSH2 0x9F SWAP2 SWAP1 PUSH2 0x43E JUMP JUMPDEST PUSH1 0x40 MLOAD DUP1 SWAP2 SUB SWAP1 RETURN JUMPDEST PUSH2 0xB0 PUSH2 0x12E JUMP JUMPDEST PUSH1 0x40 MLOAD PUSH2 0xBD SWAP2 SWAP1 PUSH2 0x504 JUMP JUMPDEST PUSH1 0x40 MLOAD DUP1 SWAP2 SUB SWAP1 RETURN JUMPDEST PUSH2 0xCE PUSH2 0x179 JUMP JUMPDEST PUSH1 0x40 MLOAD PUSH2 0xDB SWAP2 SWAP1 PUSH2 0x52E JUMP JUMPDEST PUSH1 0x40 MLOAD DUP1 SWAP2 SUB SWAP1 RETURN JUMPDEST PUSH2 0xEC PUSH2 0x182 JUMP JUMPDEST STOP JUMPDEST DUP1 DUP3 PUSH1 0x0 DUP2 MLOAD DUP2 LT PUSH2 0x103 JUMPI PUSH2 0x102 PUSH2 0x549 JUMP JUMPDEST JUMPDEST PUSH1 0x20 MUL PUSH1 0x20 ADD ADD DUP2 DUP2 MSTORE POP POP POP POP JUMP JUMPDEST PUSH1 0x0 DUP2 PUSH1 0x4 DUP2 LT PUSH2 0x123 JUMPI PUSH1 0x0 DUP1 REVERT JUMPDEST ADD PUSH1 0x0 SWAP2 POP SWAP1 POP SLOAD DUP2 JUMP JUMPDEST PUSH2 0x136 PUSH2 0x1D7 JUMP JUMPDEST PUSH1 0x0 PUSH1 0x4 DUP1 PUSH1 0x20 MUL PUSH1 0x40 MLOAD SWAP1 DUP2 ADD PUSH1 0x40 MSTORE DUP1 SWAP3 SWAP2 SWAP1 DUP3 PUSH1 0x4 DUP1 ISZERO PUSH2 0x16F JUMPI PUSH1 0x20 MUL DUP3 ADD SWAP2 JUMPDEST DUP2 SLOAD DUP2 MSTORE PUSH1 0x20 ADD SWAP1 PUSH1 0x1 ADD SWAP1 DUP1 DUP4 GT PUSH2 0x15B JUMPI JUMPDEST POP POP POP POP POP SWAP1 POP SWAP1 JUMP JUMPDEST PUSH1 0x0 PUSH1 0x4 SWAP1 POP SWAP1 JUMP JUMPDEST PUSH1 0x5 PUSH1 0x0 DUP1 PUSH1 0x4 DUP2 LT PUSH2 0x198 JUMPI PUSH2 0x197 PUSH2 0x549 JUMP JUMPDEST JUMPDEST ADD DUP2 SWAP1 SSTORE POP PUSH1 0x5 PUSH1 0x0 PUSH1 0x2 PUSH1 0x4 DUP2 LT PUSH2 0x1B4 JUMPI PUSH2 0x1B3 PUSH2 0x549 JUMP JUMPDEST JUMPDEST ADD DUP2 SWAP1 SSTORE POP PUSH1 0xA PUSH1 0x0 PUSH1 0x3 PUSH1 0x4 DUP2 LT PUSH2 0x1D0 JUMPI PUSH2 0x1CF PUSH2 0x549 JUMP JUMPDEST JUMPDEST ADD DUP2 SWAP1 SSTORE POP JUMP JUMPDEST PUSH1 0x40 MLOAD DUP1 PUSH1 0x80 ADD PUSH1 0x40 MSTORE DUP1 PUSH1 0x4 SWAP1 PUSH1 0x20 DUP3 MUL DUP1 CALLDATASIZE DUP4 CALLDATACOPY DUP1 DUP3 ADD SWAP2 POP POP SWAP1 POP POP SWAP1 JUMP JUMPDEST PUSH1 0x0 PUSH1 0x40 MLOAD SWAP1 POP SWAP1 JUMP JUMPDEST PUSH1 0x0 DUP1 REVERT JUMPDEST PUSH1 0x0 DUP1 REVERT JUMPDEST PUSH1 0x0 DUP1 REVERT JUMPDEST PUSH1 0x0 PUSH1 0x1F NOT PUSH1 0x1F DUP4 ADD AND SWAP1 POP SWAP2 SWAP1 POP JUMP JUMPDEST PUSH32 0x4E487B7100000000000000000000000000000000000000000000000000000000 PUSH1 0x0 MSTORE PUSH1 0x41 PUSH1 0x4 MSTORE PUSH1 0x24 PUSH1 0x0 REVERT JUMPDEST PUSH2 0x25B DUP3 PUSH2 0x212 JUMP JUMPDEST DUP2 ADD DUP2 DUP2 LT PUSH8 0xFFFFFFFFFFFFFFFF DUP3 GT OR ISZERO PUSH2 0x27A JUMPI PUSH2 0x279 PUSH2 0x223 JUMP JUMPDEST JUMPDEST DUP1 PUSH1 0x40 MSTORE POP POP POP JUMP JUMPDEST PUSH1 0x0 PUSH2 0x28D PUSH2 0x1F9 JUMP JUMPDEST SWAP1 POP PUSH2 0x299 DUP3 DUP3 PUSH2 0x252 JUMP JUMPDEST SWAP2 SWAP1 POP JUMP JUMPDEST PUSH1 0x0 PUSH8 0xFFFFFFFFFFFFFFFF DUP3 GT ISZERO PUSH2 0x2B9 JUMPI PUSH2 0x2B8 PUSH2 0x223 JUMP JUMPDEST JUMPDEST PUSH1 0x20 DUP3 MUL SWAP1 POP PUSH1 0x20 DUP2 ADD SWAP1 POP SWAP2 SWAP1 POP JUMP JUMPDEST PUSH1 0x0 DUP1 REVERT JUMPDEST PUSH1 0x0 DUP2 SWAP1 POP SWAP2 SWAP1 POP JUMP JUMPDEST PUSH2 0x2E2 DUP2 PUSH2 0x2CF JUMP JUMPDEST DUP2 EQ PUSH2 0x2ED JUMPI PUSH1 0x0 DUP1 REVERT JUMPDEST POP JUMP JUMPDEST PUSH1 0x0 DUP2 CALLDATALOAD SWAP1 POP PUSH2 0x2FF DUP2 PUSH2 0x2D9 JUMP JUMPDEST SWAP3 SWAP2 POP POP JUMP JUMPDEST PUSH1 0x0 PUSH2 0x318 PUSH2 0x313 DUP5 PUSH2 0x29E JUMP JUMPDEST PUSH2 0x283 JUMP JUMPDEST SWAP1 POP DUP1 DUP4 DUP3 MSTORE PUSH1 0x20 DUP3 ADD SWAP1 POP PUSH1 0x20 DUP5 MUL DUP4 ADD DUP6 DUP2 GT ISZERO PUSH2 0x33B JUMPI PUSH2 0x33A PUSH2 0x2CA JUMP JUMPDEST JUMPDEST DUP4 JUMPDEST DUP2 DUP2 LT ISZERO PUSH2 0x364 JUMPI DUP1 PUSH2 0x350 DUP9 DUP3 PUSH2 0x2F0 JUMP JUMPDEST DUP5 MSTORE PUSH1 0x20 DUP5 ADD SWAP4 POP POP PUSH1 0x20 DUP2 ADD SWAP1 POP PUSH2 0x33D JUMP JUMPDEST POP POP POP SWAP4 SWAP3 POP POP POP JUMP JUMPDEST PUSH1 0x0 DUP3 PUSH1 0x1F DUP4 ADD SLT PUSH2 0x383 JUMPI PUSH2 0x382 PUSH2 0x20D JUMP JUMPDEST JUMPDEST DUP2 CALLDATALOAD PUSH2 0x393 DUP5 DUP3 PUSH1 0x20 DUP7 ADD PUSH2 0x305 JUMP JUMPDEST SWAP2 POP POP SWAP3 SWAP2 POP POP JUMP JUMPDEST PUSH1 0x0 DUP1 PUSH1 0x40 DUP4 DUP6 SUB SLT ISZERO PUSH2 0x3B3 JUMPI PUSH2 0x3B2 PUSH2 0x203 JUMP JUMPDEST JUMPDEST PUSH1 0x0 DUP4 ADD CALLDATALOAD PUSH8 0xFFFFFFFFFFFFFFFF DUP2 GT ISZERO PUSH2 0x3D1 JUMPI PUSH2 0x3D0 PUSH2 0x208 JUMP JUMPDEST JUMPDEST PUSH2 0x3DD DUP6 DUP3 DUP7 ADD PUSH2 0x36E JUMP JUMPDEST SWAP3 POP POP PUSH1 0x20 PUSH2 0x3EE DUP6 DUP3 DUP7 ADD PUSH2 0x2F0 JUMP JUMPDEST SWAP2 POP POP SWAP3 POP SWAP3 SWAP1 POP JUMP JUMPDEST PUSH1 0x0 PUSH1 0x20 DUP3 DUP5 SUB SLT ISZERO PUSH2 0x40E JUMPI PUSH2 0x40D PUSH2 0x203 JUMP JUMPDEST JUMPDEST PUSH1 0x0 PUSH2 0x41C DUP5 DUP3 DUP6 ADD PUSH2 0x2F0 JUMP JUMPDEST SWAP2 POP POP SWAP3 SWAP2 POP POP JUMP JUMPDEST PUSH1 0x0 DUP2 SWAP1 POP SWAP2 SWAP1 POP JUMP JUMPDEST PUSH2 0x438 DUP2 PUSH2 0x425 JUMP JUMPDEST DUP3 MSTORE POP POP JUMP JUMPDEST PUSH1 0x0 PUSH1 0x20 DUP3 ADD SWAP1 POP PUSH2 0x453 PUSH1 0x0 DUP4 ADD DUP5 PUSH2 0x42F JUMP JUMPDEST SWAP3 SWAP2 POP POP JUMP JUMPDEST PUSH1 0x0 PUSH1 0x4 SWAP1 POP SWAP2 SWAP1 POP JUMP JUMPDEST PUSH1 0x0 DUP2 SWAP1 POP SWAP3 SWAP2 POP POP JUMP JUMPDEST PUSH1 0x0 DUP2 SWAP1 POP SWAP2 SWAP1 POP JUMP JUMPDEST PUSH2 0x482 DUP2 PUSH2 0x425 JUMP JUMPDEST DUP3 MSTORE POP POP JUMP JUMPDEST PUSH1 0x0 PUSH2 0x494 DUP4 DUP4 PUSH2 0x479 JUMP JUMPDEST PUSH1 0x20 DUP4 ADD SWAP1 POP SWAP3 SWAP2 POP POP JUMP JUMPDEST PUSH1 0x0 PUSH1 0x20 DUP3 ADD SWAP1 POP SWAP2 SWAP1 POP JUMP JUMPDEST PUSH2 0x4B6 DUP2 PUSH2 0x459 JUMP JUMPDEST PUSH2 0x4C0 DUP2 DUP5 PUSH2 0x464 JUMP JUMPDEST SWAP3 POP PUSH2 0x4CB DUP3 PUSH2 0x46F JUMP JUMPDEST DUP1 PUSH1 0x0 JUMPDEST DUP4 DUP2 LT ISZERO PUSH2 0x4FC JUMPI DUP2 MLOAD PUSH2 0x4E3 DUP8 DUP3 PUSH2 0x488 JUMP JUMPDEST SWAP7 POP PUSH2 0x4EE DUP4 PUSH2 0x4A0 JUMP JUMPDEST SWAP3 POP POP PUSH1 0x1 DUP2 ADD SWAP1 POP PUSH2 0x4CF JUMP JUMPDEST POP POP POP POP POP POP JUMP JUMPDEST PUSH1 0x0 PUSH1 0x80 DUP3 ADD SWAP1 POP PUSH2 0x519 PUSH1 0x0 DUP4 ADD DUP5 PUSH2 0x4AD JUMP JUMPDEST SWAP3 SWAP2 POP POP JUMP JUMPDEST PUSH2 0x528 DUP2 PUSH2 0x2CF JUMP JUMPDEST DUP3 MSTORE POP POP JUMP JUMPDEST PUSH1 0x0 PUSH1 0x20 DUP3 ADD SWAP1 POP PUSH2 0x543 PUSH1 0x0 DUP4 ADD DUP5 PUSH2 0x51F JUMP JUMPDEST SWAP3 SWAP2 POP POP JUMP JUMPDEST PUSH32 0x4E487B7100000000000000000000000000000000000000000000000000000000 PUSH1 0x0 MSTORE PUSH1 0x32 PUSH1 0x4 MSTORE PUSH1 0x24 PUSH1 0x0 REVERT INVALID LOG2 PUSH5 0x6970667358 0x22 SLT KECCAK256 CALLDATALOAD LT JUMPDEST 0xDB 0x29 PUSH22 0xF144240523C268732C765388020442A1F99BD7497D2F PUSH14 0x70709564736F6C63430008120033 "
		},
		"gasEstimates": {
			"creation": {
				"codeDepositCost": "290800",
				"executionCost": "331",
				"totalCost": "291131"
			},
			"external": {
				"array(uint256)": "2731",
				"get()": "infinite",
				"getlength()": "381",
				"ipush()": "66639",
				"updateArray(uint256[],uint256)": "1091"
			}
		},
		"methodIdentifiers": {
			"array(uint256)": "38d94193",
			"get()": "6d4ce63c",
			"getlength()": "a16d3598",
			"ipush()": "c3344af8",
			"updateArray(uint256[],uint256)": "1b45ece3"
		}
	},
	"abi": [
		{
			"inputs": [
				{
					"internalType": "uint256",
					"name": "",
					"type": "uint256"
				}
			],
			"name": "array",
			"outputs": [
				{
					"internalType": "int256",
					"name": "",
					"type": "int256"
				}
			],
			"stateMutability": "view",
			"type": "function"
		},
		{
			"inputs": [],
			"name": "get",
			"outputs": [
				{
					"internalType": "int256[4]",
					"name": "",
					"type": "int256[4]"
				}
			],
			"stateMutability": "view",
			"type": "function"
		},
		{
			"inputs": [],
			"name": "getlength",
			"outputs": [
				{
					"internalType": "uint256",
					"name": "",
					"type": "uint256"
				}
			],
			"stateMutability": "view",
			"type": "function"
		},
		{
			"inputs": [],
			"name": "ipush",
			"outputs": [],
			"stateMutability": "nonpayable",
			"type": "function"
		},
		{
			"inputs": [
				{
					"internalType": "uint256[]",
					"name": "_arr",
					"type": "uint256[]"
				},
				{
					"internalType": "uint256",
					"name": "newValue",
					"type": "uint256"
				}
			],
			"name": "updateArray",
			"outputs": [],
			"stateMutability": "pure",
			"type": "function"
		}
	]
}