{
	"data": {
		"bytecode": {
			"linkReferences": {},
			"object": "608060405234801561001057600080fd5b50610464806100206000396000f3fe608060405234801561001057600080fd5b50600436106100575760003560e01c80630abbf1141461005c5780631c7cdcf2146100665780636ff2bce214610070578063809db6d61461008e578063c31c174614610098575b600080fd5b6100646100a2565b005b61006e61014a565b005b6100786101ae565b6040516100859190610413565b60405180910390f35b610096610232565b005b6100a0610298565b005b6040518060600160405280600181526020016000815260200173472ebdcbb17076a3724c2bf14f234edd4310382073ffffffffffffffffffffffffffffffffffffffff1681525060008082015181600001556020820151816001015560408201518160020160006101000a81548173ffffffffffffffffffffffffffffffffffffffff021916908373ffffffffffffffffffffffffffffffffffffffff160217905550905050565b6001600080018190555073472ebdcbb17076a3724c2bf14f234edd43103820600060020160006101000a81548173ffffffffffffffffffffffffffffffffffffffff021916908373ffffffffffffffffffffffffffffffffffffffff160217905550565b6101b6610340565b600060405180606001604052908160008201548152602001600182015481526020016002820160009054906101000a900473ffffffffffffffffffffffffffffffffffffffff1673ffffffffffffffffffffffffffffffffffffffff1673ffffffffffffffffffffffffffffffffffffffff1681525050905090565b60006001816000018190555073472ebdcbb17076a3724c2bf14f234edd431038208160020160006101000a81548173ffffffffffffffffffffffffffffffffffffffff021916908373ffffffffffffffffffffffffffffffffffffffff16021790555050565b6040518060600160405280600181526020016000815260200173472ebdcbb17076a3724c2bf14f234edd4310382073ffffffffffffffffffffffffffffffffffffffff1681525060008082015181600001556020820151816001015560408201518160020160006101000a81548173ffffffffffffffffffffffffffffffffffffffff021916908373ffffffffffffffffffffffffffffffffffffffff160217905550905050565b60405180606001604052806000815260200160008152602001600073ffffffffffffffffffffffffffffffffffffffff1681525090565b6000819050919050565b61038a81610377565b82525050565b600073ffffffffffffffffffffffffffffffffffffffff82169050919050565b60006103bb82610390565b9050919050565b6103cb816103b0565b82525050565b6060820160008201516103e76000850182610381565b5060208201516103fa6020850182610381565b50604082015161040d60408501826103c2565b50505050565b600060608201905061042860008301846103d1565b9291505056fea264697066735822122079b14b8ab6d88f0ee83487f5dc11eb5d53ccd51fffc1c205303f2a047b22b63464736f6c63430008120033",
			"opcodes": "PUSH1 0x80 PUSH1 0x40 MSTORE CALLVALUE DUP1 ISZERO PUSH2 0x10 JUMPI PUSH1 0x0 DUP1 REVERT JUMPDEST POP PUSH2 0x464 DUP1 PUSH2 0x20 PUSH1 0x0 CODECOPY PUSH1 0x0 RETURN INVALID PUSH1 0x80 PUSH1 0x40 MSTORE CALLVALUE DUP1 ISZERO PUSH2 0x10 JUMPI PUSH1 0x0 DUP1 REVERT JUMPDEST POP PUSH1 0x4 CALLDATASIZE LT PUSH2 0x57 JUMPI PUSH1 0x0 CALLDATALOAD PUSH1 0xE0 SHR DUP1 PUSH4 0xABBF114 EQ PUSH2 0x5C JUMPI DUP1 PUSH4 0x1C7CDCF2 EQ PUSH2 0x66 JUMPI DUP1 PUSH4 0x6FF2BCE2 EQ PUSH2 0x70 JUMPI DUP1 PUSH4 0x809DB6D6 EQ PUSH2 0x8E JUMPI DUP1 PUSH4 0xC31C1746 EQ PUSH2 0x98 JUMPI JUMPDEST PUSH1 0x0 DUP1 REVERT JUMPDEST PUSH2 0x64 PUSH2 0xA2 JUMP JUMPDEST STOP JUMPDEST PUSH2 0x6E PUSH2 0x14A JUMP JUMPDEST STOP JUMPDEST PUSH2 0x78 PUSH2 0x1AE JUMP JUMPDEST PUSH1 0x40 MLOAD PUSH2 0x85 SWAP2 SWAP1 PUSH2 0x413 JUMP JUMPDEST PUSH1 0x40 MLOAD DUP1 SWAP2 SUB SWAP1 RETURN JUMPDEST PUSH2 0x96 PUSH2 0x232 JUMP JUMPDEST STOP JUMPDEST PUSH2 0xA0 PUSH2 0x298 JUMP JUMPDEST STOP JUMPDEST PUSH1 0x40 MLOAD DUP1 PUSH1 0x60 ADD PUSH1 0x40 MSTORE DUP1 PUSH1 0x1 DUP2 MSTORE PUSH1 0x20 ADD PUSH1 0x0 DUP2 MSTORE PUSH1 0x20 ADD PUSH20 0x472EBDCBB17076A3724C2BF14F234EDD43103820 PUSH20 0xFFFFFFFFFFFFFFFFFFFFFFFFFFFFFFFFFFFFFFFF AND DUP2 MSTORE POP PUSH1 0x0 DUP1 DUP3 ADD MLOAD DUP2 PUSH1 0x0 ADD SSTORE PUSH1 0x20 DUP3 ADD MLOAD DUP2 PUSH1 0x1 ADD SSTORE PUSH1 0x40 DUP3 ADD MLOAD DUP2 PUSH1 0x2 ADD PUSH1 0x0 PUSH2 0x100 EXP DUP2 SLOAD DUP2 PUSH20 0xFFFFFFFFFFFFFFFFFFFFFFFFFFFFFFFFFFFFFFFF MUL NOT AND SWAP1 DUP4 PUSH20 0xFFFFFFFFFFFFFFFFFFFFFFFFFFFFFFFFFFFFFFFF AND MUL OR SWAP1 SSTORE POP SWAP1 POP POP JUMP JUMPDEST PUSH1 0x1 PUSH1 0x0 DUP1 ADD DUP2 SWAP1 SSTORE POP PUSH20 0x472EBDCBB17076A3724C2BF14F234EDD43103820 PUSH1 0x0 PUSH1 0x2 ADD PUSH1 0x0 PUSH2 0x100 EXP DUP2 SLOAD DUP2 PUSH20 0xFFFFFFFFFFFFFFFFFFFFFFFFFFFFFFFFFFFFFFFF MUL NOT AND SWAP1 DUP4 PUSH20 0xFFFFFFFFFFFFFFFFFFFFFFFFFFFFFFFFFFFFFFFF AND MUL OR SWAP1 SSTORE POP JUMP JUMPDEST PUSH2 0x1B6 PUSH2 0x340 JUMP JUMPDEST PUSH1 0x0 PUSH1 0x40 MLOAD DUP1 PUSH1 0x60 ADD PUSH1 0x40 MSTORE SWAP1 DUP2 PUSH1 0x0 DUP3 ADD SLOAD DUP2 MSTORE PUSH1 0x20 ADD PUSH1 0x1 DUP3 ADD SLOAD DUP2 MSTORE PUSH1 0x20 ADD PUSH1 0x2 DUP3 ADD PUSH1 0x0 SWAP1 SLOAD SWAP1 PUSH2 0x100 EXP SWAP1 DIV PUSH20 0xFFFFFFFFFFFFFFFFFFFFFFFFFFFFFFFFFFFFFFFF AND PUSH20 0xFFFFFFFFFFFFFFFFFFFFFFFFFFFFFFFFFFFFFFFF AND PUSH20 0xFFFFFFFFFFFFFFFFFFFFFFFFFFFFFFFFFFFFFFFF AND DUP2 MSTORE POP POP SWAP1 POP SWAP1 JUMP JUMPDEST PUSH1 0x0 PUSH1 0x1 DUP2 PUSH1 0x0 ADD DUP2 SWAP1 SSTORE POP PUSH20 0x472EBDCBB17076A3724C2BF14F234EDD43103820 DUP2 PUSH1 0x2 ADD PUSH1 0x0 PUSH2 0x100 EXP DUP2 SLOAD DUP2 PUSH20 0xFFFFFFFFFFFFFFFFFFFFFFFFFFFFFFFFFFFFFFFF MUL NOT AND SWAP1 DUP4 PUSH20 0xFFFFFFFFFFFFFFFFFFFFFFFFFFFFFFFFFFFFFFFF AND MUL OR SWAP1 SSTORE POP POP JUMP JUMPDEST PUSH1 0x40 MLOAD DUP1 PUSH1 0x60 ADD PUSH1 0x40 MSTORE DUP1 PUSH1 0x1 DUP2 MSTORE PUSH1 0x20 ADD PUSH1 0x0 DUP2 MSTORE PUSH1 0x20 ADD PUSH20 0x472EBDCBB17076A3724C2BF14F234EDD43103820 PUSH20 0xFFFFFFFFFFFFFFFFFFFFFFFFFFFFFFFFFFFFFFFF AND DUP2 MSTORE POP PUSH1 0x0 DUP1 DUP3 ADD MLOAD DUP2 PUSH1 0x0 ADD SSTORE PUSH1 0x20 DUP3 ADD MLOAD DUP2 PUSH1 0x1 ADD SSTORE PUSH1 0x40 DUP3 ADD MLOAD DUP2 PUSH1 0x2 ADD PUSH1 0x0 PUSH2 0x100 EXP DUP2 SLOAD DUP2 PUSH20 0xFFFFFFFFFFFFFFFFFFFFFFFFFFFFFFFFFFFFFFFF MUL NOT AND SWAP1 DUP4 PUSH20 0xFFFFFFFFFFFFFFFFFFFFFFFFFFFFFFFFFFFFFFFF AND MUL OR SWAP1 SSTORE POP SWAP1 POP POP JUMP JUMPDEST PUSH1 0x40 MLOAD DUP1 PUSH1 0x60 ADD PUSH1 0x40 MSTORE DUP1 PUSH1 0x0 DUP2 MSTORE PUSH1 0x20 ADD PUSH1 0x0 DUP2 MSTORE PUSH1 0x20 ADD PUSH1 0x0 PUSH20 0xFFFFFFFFFFFFFFFFFFFFFFFFFFFFFFFFFFFFFFFF AND DUP2 MSTORE POP SWAP1 JUMP JUMPDEST PUSH1 0x0 DUP2 SWAP1 POP SWAP2 SWAP1 POP JUMP JUMPDEST PUSH2 0x38A DUP2 PUSH2 0x377 JUMP JUMPDEST DUP3 MSTORE POP POP JUMP JUMPDEST PUSH1 0x0 PUSH20 0xFFFFFFFFFFFFFFFFFFFFFFFFFFFFFFFFFFFFFFFF DUP3 AND SWAP1 POP SWAP2 SWAP1 POP JUMP JUMPDEST PUSH1 0x0 PUSH2 0x3BB DUP3 PUSH2 0x390 JUMP JUMPDEST SWAP1 POP SWAP2 SWAP1 POP JUMP JUMPDEST PUSH2 0x3CB DUP2 PUSH2 0x3B0 JUMP JUMPDEST DUP3 MSTORE POP POP JUMP JUMPDEST PUSH1 0x60 DUP3 ADD PUSH1 0x0 DUP3 ADD MLOAD PUSH2 0x3E7 PUSH1 0x0 DUP6 ADD DUP3 PUSH2 0x381 JUMP JUMPDEST POP PUSH1 0x20 DUP3 ADD MLOAD PUSH2 0x3FA PUSH1 0x20 DUP6 ADD DUP3 PUSH2 0x381 JUMP JUMPDEST POP PUSH1 0x40 DUP3 ADD MLOAD PUSH2 0x40D PUSH1 0x40 DUP6 ADD DUP3 PUSH2 0x3C2 JUMP JUMPDEST POP POP POP POP JUMP JUMPDEST PUSH1 0x0 PUSH1 0x60 DUP3 ADD SWAP1 POP PUSH2 0x428 PUSH1 0x0 DUP4 ADD DUP5 PUSH2 0x3D1 JUMP JUMPDEST SWAP3 SWAP2 POP POP JUMP INVALID LOG2 PUSH5 0x6970667358 0x22 SLT KECCAK256 PUSH26 0xB14B8AB6D88F0EE83487F5DC11EB5D53CCD51FFFC1C205303F2A DIV PUSH28 0x22B63464736F6C634300081200330000000000000000000000000000 "
		},
		"gasEstimates": {
			"creation": {
				"codeDepositCost": "224800",
				"executionCost": "269",
				"totalCost": "225069"
			},
			"external": {
				"AcountGetter()": "infinite",
				"createAcountM1()": "46586",
				"createAcountM2()": "46537",
				"createAcountM3()": "51639",
				"createAcountM4()": "51727"
			}
		},
		"methodIdentifiers": {
			"AcountGetter()": "6ff2bce2",
			"createAcountM1()": "809db6d6",
			"createAcountM2()": "1c7cdcf2",
			"createAcountM3()": "0abbf114",
			"createAcountM4()": "c31c1746"
		}
	},
	"abi": [
		{
			"inputs": [],
			"name": "AcountGetter",
			"outputs": [
				{
					"components": [
						{
							"internalType": "uint256",
							"name": "ID",
							"type": "uint256"
						},
						{
							"internalType": "uint256",
							"name": "Balance",
							"type": "uint256"
						},
						{
							"internalType": "address",
							"name": "Owner",
							"type": "address"
						}
					],
					"internalType": "struct Bank.BankAcount",
					"name": "",
					"type": "tuple"
				}
			],
			"stateMutability": "view",
			"type": "function"
		},
		{
			"inputs": [],
			"name": "createAcountM1",
			"outputs": [],
			"stateMutability": "nonpayable",
			"type": "function"
		},
		{
			"inputs": [],
			"name": "createAcountM2",
			"outputs": [],
			"stateMutability": "nonpayable",
			"type": "function"
		},
		{
			"inputs": [],
			"name": "createAcountM3",
			"outputs": [],
			"stateMutability": "nonpayable",
			"type": "function"
		},
		{
			"inputs": [],
			"name": "createAcountM4",
			"outputs": [],
			"stateMutability": "nonpayable",
			"type": "function"
		}
	]
}