{
	"data": {
		"bytecode": {
			"linkReferences": {},
			"object": "60806040526003600060016101000a81548160ff0219169083600381111561002a5761002961007e565b5b0217905550600260038111156100435761004261007e565b5b600060026101000a81548160ff021916908360038111156100675761006661007e565b5b021790555034801561007857600080fd5b506100ad565b7f4e487b7100000000000000000000000000000000000000000000000000000000600052602160045260246000fd5b610395806100bc6000396000f3fe608060405234801561001057600080fd5b50600436106100885760003560e01c8063a2c2d6661161005b578063a2c2d666146100f1578063a79180831461010f578063ce251a3014610119578063ea70a0171461012357610088565b8063552670ff1461008d57806356800b52146100975780637e44755b146100b55780639b31f9e8146100d3575b600080fd5b61009561012d565b005b61009f610193565b6040516100ac91906102e1565b60405180910390f35b6100bd6101a6565b6040516100ca9190610344565b60405180910390f35b6100db6101b9565b6040516100e891906102e1565b60405180910390f35b6100f96101cc565b60405161010691906102e1565b60405180910390f35b6101176101dd565b005b6101216101f0565b005b61012b610256565b005b600060038111156101415761014061026a565b5b60008054906101000a900460ff1660038111156101615761016061026a565b5b036101915760026000806101000a81548160ff0219169083600381111561018b5761018a61026a565b5b02179055505b565b600060029054906101000a900460ff1681565b600060039054906101000a900460ff1681565b600060019054906101000a900460ff1681565b60008054906101000a900460ff1681565b6000806101000a81549060ff0219169055565b600160038111156102045761020361026a565b5b60008054906101000a900460ff1660038111156102245761022361026a565b5b036102545760036000806101000a81548160ff0219169083600381111561024e5761024d61026a565b5b02179055505b565b600060036101000a81549060ff0219169055565b7f4e487b7100000000000000000000000000000000000000000000000000000000600052602160045260246000fd5b600481106102aa576102a961026a565b5b50565b60008190506102bb82610299565b919050565b60006102cb826102ad565b9050919050565b6102db816102c0565b82525050565b60006020820190506102f660008301846102d2565b92915050565b6005811061030d5761030c61026a565b5b50565b600081905061031e826102fc565b919050565b600061032e82610310565b9050919050565b61033e81610323565b82525050565b60006020820190506103596000830184610335565b9291505056fea26469706673582212203b33181ebf44af3d2ca2bc1992badd74e04bc03ca757c03b651beeb0b568197864736f6c63430008120033",
			"opcodes": "PUSH1 0x80 PUSH1 0x40 MSTORE PUSH1 0x3 PUSH1 0x0 PUSH1 0x1 PUSH2 0x100 EXP DUP2 SLOAD DUP2 PUSH1 0xFF MUL NOT AND SWAP1 DUP4 PUSH1 0x3 DUP2 GT ISZERO PUSH2 0x2A JUMPI PUSH2 0x29 PUSH2 0x7E JUMP JUMPDEST JUMPDEST MUL OR SWAP1 SSTORE POP PUSH1 0x2 PUSH1 0x3 DUP2 GT ISZERO PUSH2 0x43 JUMPI PUSH2 0x42 PUSH2 0x7E JUMP JUMPDEST JUMPDEST PUSH1 0x0 PUSH1 0x2 PUSH2 0x100 EXP DUP2 SLOAD DUP2 PUSH1 0xFF MUL NOT AND SWAP1 DUP4 PUSH1 0x3 DUP2 GT ISZERO PUSH2 0x67 JUMPI PUSH2 0x66 PUSH2 0x7E JUMP JUMPDEST JUMPDEST MUL OR SWAP1 SSTORE POP CALLVALUE DUP1 ISZERO PUSH2 0x78 JUMPI PUSH1 0x0 DUP1 REVERT JUMPDEST POP PUSH2 0xAD JUMP JUMPDEST PUSH32 0x4E487B7100000000000000000000000000000000000000000000000000000000 PUSH1 0x0 MSTORE PUSH1 0x21 PUSH1 0x4 MSTORE PUSH1 0x24 PUSH1 0x0 REVERT JUMPDEST PUSH2 0x395 DUP1 PUSH2 0xBC PUSH1 0x0 CODECOPY PUSH1 0x0 RETURN INVALID PUSH1 0x80 PUSH1 0x40 MSTORE CALLVALUE DUP1 ISZERO PUSH2 0x10 JUMPI PUSH1 0x0 DUP1 REVERT JUMPDEST POP PUSH1 0x4 CALLDATASIZE LT PUSH2 0x88 JUMPI PUSH1 0x0 CALLDATALOAD PUSH1 0xE0 SHR DUP1 PUSH4 0xA2C2D666 GT PUSH2 0x5B JUMPI DUP1 PUSH4 0xA2C2D666 EQ PUSH2 0xF1 JUMPI DUP1 PUSH4 0xA7918083 EQ PUSH2 0x10F JUMPI DUP1 PUSH4 0xCE251A30 EQ PUSH2 0x119 JUMPI DUP1 PUSH4 0xEA70A017 EQ PUSH2 0x123 JUMPI PUSH2 0x88 JUMP JUMPDEST DUP1 PUSH4 0x552670FF EQ PUSH2 0x8D JUMPI DUP1 PUSH4 0x56800B52 EQ PUSH2 0x97 JUMPI DUP1 PUSH4 0x7E44755B EQ PUSH2 0xB5 JUMPI DUP1 PUSH4 0x9B31F9E8 EQ PUSH2 0xD3 JUMPI JUMPDEST PUSH1 0x0 DUP1 REVERT JUMPDEST PUSH2 0x95 PUSH2 0x12D JUMP JUMPDEST STOP JUMPDEST PUSH2 0x9F PUSH2 0x193 JUMP JUMPDEST PUSH1 0x40 MLOAD PUSH2 0xAC SWAP2 SWAP1 PUSH2 0x2E1 JUMP JUMPDEST PUSH1 0x40 MLOAD DUP1 SWAP2 SUB SWAP1 RETURN JUMPDEST PUSH2 0xBD PUSH2 0x1A6 JUMP JUMPDEST PUSH1 0x40 MLOAD PUSH2 0xCA SWAP2 SWAP1 PUSH2 0x344 JUMP JUMPDEST PUSH1 0x40 MLOAD DUP1 SWAP2 SUB SWAP1 RETURN JUMPDEST PUSH2 0xDB PUSH2 0x1B9 JUMP JUMPDEST PUSH1 0x40 MLOAD PUSH2 0xE8 SWAP2 SWAP1 PUSH2 0x2E1 JUMP JUMPDEST PUSH1 0x40 MLOAD DUP1 SWAP2 SUB SWAP1 RETURN JUMPDEST PUSH2 0xF9 PUSH2 0x1CC JUMP JUMPDEST PUSH1 0x40 MLOAD PUSH2 0x106 SWAP2 SWAP1 PUSH2 0x2E1 JUMP JUMPDEST PUSH1 0x40 MLOAD DUP1 SWAP2 SUB SWAP1 RETURN JUMPDEST PUSH2 0x117 PUSH2 0x1DD JUMP JUMPDEST STOP JUMPDEST PUSH2 0x121 PUSH2 0x1F0 JUMP JUMPDEST STOP JUMPDEST PUSH2 0x12B PUSH2 0x256 JUMP JUMPDEST STOP JUMPDEST PUSH1 0x0 PUSH1 0x3 DUP2 GT ISZERO PUSH2 0x141 JUMPI PUSH2 0x140 PUSH2 0x26A JUMP JUMPDEST JUMPDEST PUSH1 0x0 DUP1 SLOAD SWAP1 PUSH2 0x100 EXP SWAP1 DIV PUSH1 0xFF AND PUSH1 0x3 DUP2 GT ISZERO PUSH2 0x161 JUMPI PUSH2 0x160 PUSH2 0x26A JUMP JUMPDEST JUMPDEST SUB PUSH2 0x191 JUMPI PUSH1 0x2 PUSH1 0x0 DUP1 PUSH2 0x100 EXP DUP2 SLOAD DUP2 PUSH1 0xFF MUL NOT AND SWAP1 DUP4 PUSH1 0x3 DUP2 GT ISZERO PUSH2 0x18B JUMPI PUSH2 0x18A PUSH2 0x26A JUMP JUMPDEST JUMPDEST MUL OR SWAP1 SSTORE POP JUMPDEST JUMP JUMPDEST PUSH1 0x0 PUSH1 0x2 SWAP1 SLOAD SWAP1 PUSH2 0x100 EXP SWAP1 DIV PUSH1 0xFF AND DUP2 JUMP JUMPDEST PUSH1 0x0 PUSH1 0x3 SWAP1 SLOAD SWAP1 PUSH2 0x100 EXP SWAP1 DIV PUSH1 0xFF AND DUP2 JUMP JUMPDEST PUSH1 0x0 PUSH1 0x1 SWAP1 SLOAD SWAP1 PUSH2 0x100 EXP SWAP1 DIV PUSH1 0xFF AND DUP2 JUMP JUMPDEST PUSH1 0x0 DUP1 SLOAD SWAP1 PUSH2 0x100 EXP SWAP1 DIV PUSH1 0xFF AND DUP2 JUMP JUMPDEST PUSH1 0x0 DUP1 PUSH2 0x100 EXP DUP2 SLOAD SWAP1 PUSH1 0xFF MUL NOT AND SWAP1 SSTORE JUMP JUMPDEST PUSH1 0x1 PUSH1 0x3 DUP2 GT ISZERO PUSH2 0x204 JUMPI PUSH2 0x203 PUSH2 0x26A JUMP JUMPDEST JUMPDEST PUSH1 0x0 DUP1 SLOAD SWAP1 PUSH2 0x100 EXP SWAP1 DIV PUSH1 0xFF AND PUSH1 0x3 DUP2 GT ISZERO PUSH2 0x224 JUMPI PUSH2 0x223 PUSH2 0x26A JUMP JUMPDEST JUMPDEST SUB PUSH2 0x254 JUMPI PUSH1 0x3 PUSH1 0x0 DUP1 PUSH2 0x100 EXP DUP2 SLOAD DUP2 PUSH1 0xFF MUL NOT AND SWAP1 DUP4 PUSH1 0x3 DUP2 GT ISZERO PUSH2 0x24E JUMPI PUSH2 0x24D PUSH2 0x26A JUMP JUMPDEST JUMPDEST MUL OR SWAP1 SSTORE POP JUMPDEST JUMP JUMPDEST PUSH1 0x0 PUSH1 0x3 PUSH2 0x100 EXP DUP2 SLOAD SWAP1 PUSH1 0xFF MUL NOT AND SWAP1 SSTORE JUMP JUMPDEST PUSH32 0x4E487B7100000000000000000000000000000000000000000000000000000000 PUSH1 0x0 MSTORE PUSH1 0x21 PUSH1 0x4 MSTORE PUSH1 0x24 PUSH1 0x0 REVERT JUMPDEST PUSH1 0x4 DUP2 LT PUSH2 0x2AA JUMPI PUSH2 0x2A9 PUSH2 0x26A JUMP JUMPDEST JUMPDEST POP JUMP JUMPDEST PUSH1 0x0 DUP2 SWAP1 POP PUSH2 0x2BB DUP3 PUSH2 0x299 JUMP JUMPDEST SWAP2 SWAP1 POP JUMP JUMPDEST PUSH1 0x0 PUSH2 0x2CB DUP3 PUSH2 0x2AD JUMP JUMPDEST SWAP1 POP SWAP2 SWAP1 POP JUMP JUMPDEST PUSH2 0x2DB DUP2 PUSH2 0x2C0 JUMP JUMPDEST DUP3 MSTORE POP POP JUMP JUMPDEST PUSH1 0x0 PUSH1 0x20 DUP3 ADD SWAP1 POP PUSH2 0x2F6 PUSH1 0x0 DUP4 ADD DUP5 PUSH2 0x2D2 JUMP JUMPDEST SWAP3 SWAP2 POP POP JUMP JUMPDEST PUSH1 0x5 DUP2 LT PUSH2 0x30D JUMPI PUSH2 0x30C PUSH2 0x26A JUMP JUMPDEST JUMPDEST POP JUMP JUMPDEST PUSH1 0x0 DUP2 SWAP1 POP PUSH2 0x31E DUP3 PUSH2 0x2FC JUMP JUMPDEST SWAP2 SWAP1 POP JUMP JUMPDEST PUSH1 0x0 PUSH2 0x32E DUP3 PUSH2 0x310 JUMP JUMPDEST SWAP1 POP SWAP2 SWAP1 POP JUMP JUMPDEST PUSH2 0x33E DUP2 PUSH2 0x323 JUMP JUMPDEST DUP3 MSTORE POP POP JUMP JUMPDEST PUSH1 0x0 PUSH1 0x20 DUP3 ADD SWAP1 POP PUSH2 0x359 PUSH1 0x0 DUP4 ADD DUP5 PUSH2 0x335 JUMP JUMPDEST SWAP3 SWAP2 POP POP JUMP INVALID LOG2 PUSH5 0x6970667358 0x22 SLT KECCAK256 EXTCODESIZE CALLER XOR 0x1E 0xBF PREVRANDAO 0xAF RETURNDATASIZE 0x2C LOG2 0xBC NOT SWAP3 0xBA 0xDD PUSH21 0xE04BC03CA757C03B651BEEB0B568197864736F6C63 NUMBER STOP ADDMOD SLT STOP CALLER "
		},
		"gasEstimates": {
			"creation": {
				"codeDepositCost": "183400",
				"executionCost": "48938",
				"totalCost": "232338"
			},
			"external": {
				"Fail()": "26640",
				"Scholarship()": "26683",
				"e1()": "2557",
				"e2()": "2677",
				"e3()": "2633",
				"iDelete()": "24408",
				"idelete()": "24502",
				"w1()": "2655"
			}
		},
		"methodIdentifiers": {
			"Fail()": "552670ff",
			"Scholarship()": "ce251a30",
			"e1()": "a2c2d666",
			"e2()": "9b31f9e8",
			"e3()": "56800b52",
			"iDelete()": "a7918083",
			"idelete()": "ea70a017",
			"w1()": "7e44755b"
		}
	},
	"abi": [
		{
			"inputs": [],
			"name": "Fail",
			"outputs": [],
			"stateMutability": "nonpayable",
			"type": "function"
		},
		{
			"inputs": [],
			"name": "Scholarship",
			"outputs": [],
			"stateMutability": "nonpayable",
			"type": "function"
		},
		{
			"inputs": [],
			"name": "e1",
			"outputs": [
				{
					"internalType": "enum Enum.Exam",
					"name": "",
					"type": "uint8"
				}
			],
			"stateMutability": "view",
			"type": "function"
		},
		{
			"inputs": [],
			"name": "e2",
			"outputs": [
				{
					"internalType": "enum Enum.Exam",
					"name": "",
					"type": "uint8"
				}
			],
			"stateMutability": "view",
			"type": "function"
		},
		{
			"inputs": [],
			"name": "e3",
			"outputs": [
				{
					"internalType": "enum Enum.Exam",
					"name": "",
					"type": "uint8"
				}
			],
			"stateMutability": "view",
			"type": "function"
		},
		{
			"inputs": [],
			"name": "iDelete",
			"outputs": [],
			"stateMutability": "nonpayable",
			"type": "function"
		},
		{
			"inputs": [],
			"name": "idelete",
			"outputs": [],
			"stateMutability": "nonpayable",
			"type": "function"
		},
		{
			"inputs": [],
			"name": "w1",
			"outputs": [
				{
					"internalType": "enum Enum.WorkingDays",
					"name": "",
					"type": "uint8"
				}
			],
			"stateMutability": "view",
			"type": "function"
		}
	]
}