{
	"lib/integers.sol": {
		"IntegerVariations": {
			"abi": [
				{
					"inputs": [],
					"name": "b",
					"outputs": [
						{
							"internalType": "bytes16",
							"name": "",
							"type": "bytes16"
						}
					],
					"stateMutability": "view",
					"type": "function"
				},
				{
					"inputs": [],
					"name": "int128Var",
					"outputs": [
						{
							"internalType": "int128",
							"name": "",
							"type": "int128"
						}
					],
					"stateMutability": "view",
					"type": "function"
				},
				{
					"inputs": [],
					"name": "int16Var",
					"outputs": [
						{
							"internalType": "int16",
							"name": "",
							"type": "int16"
						}
					],
					"stateMutability": "view",
					"type": "function"
				},
				{
					"inputs": [],
					"name": "int256Var",
					"outputs": [
						{
							"internalType": "int256",
							"name": "",
							"type": "int256"
						}
					],
					"stateMutability": "view",
					"type": "function"
				},
				{
					"inputs": [],
					"name": "int32Var",
					"outputs": [
						{
							"internalType": "int32",
							"name": "",
							"type": "int32"
						}
					],
					"stateMutability": "view",
					"type": "function"
				},
				{
					"inputs": [],
					"name": "int64Var",
					"outputs": [
						{
							"internalType": "int64",
							"name": "",
							"type": "int64"
						}
					],
					"stateMutability": "view",
					"type": "function"
				},
				{
					"inputs": [],
					"name": "int8Var",
					"outputs": [
						{
							"internalType": "int8",
							"name": "",
							"type": "int8"
						}
					],
					"stateMutability": "view",
					"type": "function"
				},
				{
					"inputs": [],
					"name": "maxInt128",
					"outputs": [
						{
							"internalType": "int256",
							"name": "",
							"type": "int256"
						}
					],
					"stateMutability": "view",
					"type": "function"
				},
				{
					"inputs": [],
					"name": "maxInt16",
					"outputs": [
						{
							"internalType": "int256",
							"name": "",
							"type": "int256"
						}
					],
					"stateMutability": "view",
					"type": "function"
				},
				{
					"inputs": [],
					"name": "maxInt256",
					"outputs": [
						{
							"internalType": "int256",
							"name": "",
							"type": "int256"
						}
					],
					"stateMutability": "view",
					"type": "function"
				},
				{
					"inputs": [],
					"name": "maxInt32",
					"outputs": [
						{
							"internalType": "int256",
							"name": "",
							"type": "int256"
						}
					],
					"stateMutability": "view",
					"type": "function"
				},
				{
					"inputs": [],
					"name": "maxInt64",
					"outputs": [
						{
							"internalType": "int256",
							"name": "",
							"type": "int256"
						}
					],
					"stateMutability": "view",
					"type": "function"
				},
				{
					"inputs": [],
					"name": "maxInt8",
					"outputs": [
						{
							"internalType": "int256",
							"name": "",
							"type": "int256"
						}
					],
					"stateMutability": "view",
					"type": "function"
				},
				{
					"inputs": [],
					"name": "maxUint",
					"outputs": [
						{
							"internalType": "uint256",
							"name": "",
							"type": "uint256"
						}
					],
					"stateMutability": "view",
					"type": "function"
				},
				{
					"inputs": [],
					"name": "maxUint128",
					"outputs": [
						{
							"internalType": "uint256",
							"name": "",
							"type": "uint256"
						}
					],
					"stateMutability": "view",
					"type": "function"
				},
				{
					"inputs": [],
					"name": "maxUint16",
					"outputs": [
						{
							"internalType": "uint256",
							"name": "",
							"type": "uint256"
						}
					],
					"stateMutability": "view",
					"type": "function"
				},
				{
					"inputs": [],
					"name": "maxUint256",
					"outputs": [
						{
							"internalType": "uint256",
							"name": "",
							"type": "uint256"
						}
					],
					"stateMutability": "view",
					"type": "function"
				},
				{
					"inputs": [],
					"name": "maxUint32",
					"outputs": [
						{
							"internalType": "uint256",
							"name": "",
							"type": "uint256"
						}
					],
					"stateMutability": "view",
					"type": "function"
				},
				{
					"inputs": [],
					"name": "maxUint64",
					"outputs": [
						{
							"internalType": "uint256",
							"name": "",
							"type": "uint256"
						}
					],
					"stateMutability": "view",
					"type": "function"
				},
				{
					"inputs": [],
					"name": "maxUint8",
					"outputs": [
						{
							"internalType": "uint256",
							"name": "",
							"type": "uint256"
						}
					],
					"stateMutability": "view",
					"type": "function"
				},
				{
					"inputs": [],
					"name": "minInt128",
					"outputs": [
						{
							"internalType": "int256",
							"name": "",
							"type": "int256"
						}
					],
					"stateMutability": "view",
					"type": "function"
				},
				{
					"inputs": [],
					"name": "minInt16",
					"outputs": [
						{
							"internalType": "int256",
							"name": "",
							"type": "int256"
						}
					],
					"stateMutability": "view",
					"type": "function"
				},
				{
					"inputs": [],
					"name": "minInt256",
					"outputs": [
						{
							"internalType": "int256",
							"name": "",
							"type": "int256"
						}
					],
					"stateMutability": "view",
					"type": "function"
				},
				{
					"inputs": [],
					"name": "minInt32",
					"outputs": [
						{
							"internalType": "int256",
							"name": "",
							"type": "int256"
						}
					],
					"stateMutability": "view",
					"type": "function"
				},
				{
					"inputs": [],
					"name": "minInt64",
					"outputs": [
						{
							"internalType": "int256",
							"name": "",
							"type": "int256"
						}
					],
					"stateMutability": "view",
					"type": "function"
				},
				{
					"inputs": [],
					"name": "minInt8",
					"outputs": [
						{
							"internalType": "int256",
							"name": "",
							"type": "int256"
						}
					],
					"stateMutability": "view",
					"type": "function"
				},
				{
					"inputs": [],
					"name": "minUint128",
					"outputs": [
						{
							"internalType": "uint256",
							"name": "",
							"type": "uint256"
						}
					],
					"stateMutability": "view",
					"type": "function"
				},
				{
					"inputs": [],
					"name": "minUint16",
					"outputs": [
						{
							"internalType": "uint256",
							"name": "",
							"type": "uint256"
						}
					],
					"stateMutability": "view",
					"type": "function"
				},
				{
					"inputs": [],
					"name": "minUint256",
					"outputs": [
						{
							"internalType": "uint256",
							"name": "",
							"type": "uint256"
						}
					],
					"stateMutability": "view",
					"type": "function"
				},
				{
					"inputs": [],
					"name": "minUint32",
					"outputs": [
						{
							"internalType": "uint256",
							"name": "",
							"type": "uint256"
						}
					],
					"stateMutability": "view",
					"type": "function"
				},
				{
					"inputs": [],
					"name": "minUint64",
					"outputs": [
						{
							"internalType": "uint256",
							"name": "",
							"type": "uint256"
						}
					],
					"stateMutability": "view",
					"type": "function"
				},
				{
					"inputs": [],
					"name": "minUint8",
					"outputs": [
						{
							"internalType": "uint256",
							"name": "",
							"type": "uint256"
						}
					],
					"stateMutability": "view",
					"type": "function"
				},
				{
					"inputs": [],
					"name": "uint128Var",
					"outputs": [
						{
							"internalType": "uint128",
							"name": "",
							"type": "uint128"
						}
					],
					"stateMutability": "view",
					"type": "function"
				},
				{
					"inputs": [],
					"name": "uint16Var",
					"outputs": [
						{
							"internalType": "uint16",
							"name": "",
							"type": "uint16"
						}
					],
					"stateMutability": "view",
					"type": "function"
				},
				{
					"inputs": [],
					"name": "uint256Var",
					"outputs": [
						{
							"internalType": "uint256",
							"name": "",
							"type": "uint256"
						}
					],
					"stateMutability": "view",
					"type": "function"
				},
				{
					"inputs": [],
					"name": "uint32Var",
					"outputs": [
						{
							"internalType": "uint32",
							"name": "",
							"type": "uint32"
						}
					],
					"stateMutability": "view",
					"type": "function"
				},
				{
					"inputs": [],
					"name": "uint64Var",
					"outputs": [
						{
							"internalType": "uint64",
							"name": "",
							"type": "uint64"
						}
					],
					"stateMutability": "view",
					"type": "function"
				},
				{
					"inputs": [],
					"name": "uint8Var",
					"outputs": [
						{
							"internalType": "uint8",
							"name": "",
							"type": "uint8"
						}
					],
					"stateMutability": "view",
					"type": "function"
				}
			],
			"devdoc": {
				"kind": "dev",
				"methods": {},
				"version": 1
			},
			"evm": {
				"assembly": "    /* \"lib/integers.sol\":57:1636  contract IntegerVariations {... */\n  mstore(0x40, 0x80)\n    /* \"lib/integers.sol\":508:522  type(uint).max */\n  0xffffffffffffffffffffffffffffffffffffffffffffffffffffffffffffffff\n    /* \"lib/integers.sol\":486:522  uint public maxUint = type(uint).max */\n  0x05\n  sstore\n    /* \"lib/integers.sol\":549:563  type(int8).min */\n  0xffffffffffffffffffffffffffffffffffffffffffffffffffffffffffffff80\n    /* \"lib/integers.sol\":528:563  int public minInt8 = type(int8).min */\n  0x00\n  signextend\n  0x06\n  sstore\n    /* \"lib/integers.sol\":590:604  type(int8).max */\n  0x7f\n    /* \"lib/integers.sol\":569:604  int public maxInt8 = type(int8).max */\n  0x00\n  signextend\n  0x07\n  sstore\n    /* \"lib/integers.sol\":632:647  type(int16).min */\n  0xffffffffffffffffffffffffffffffffffffffffffffffffffffffffffff8000\n    /* \"lib/integers.sol\":610:647  int public minInt16 = type(int16).min */\n  0x01\n  signextend\n  0x08\n  sstore\n    /* \"lib/integers.sol\":675:690  type(int16).max */\n  0x7fff\n    /* \"lib/integers.sol\":653:690  int public maxInt16 = type(int16).max */\n  0x01\n  signextend\n  0x09\n  sstore\n    /* \"lib/integers.sol\":718:733  type(int32).min */\n  0xffffffffffffffffffffffffffffffffffffffffffffffffffffffff80000000\n    /* \"lib/integers.sol\":696:733  int public minInt32 = type(int32).min */\n  0x03\n  signextend\n  0x0a\n  sstore\n    /* \"lib/integers.sol\":761:776  type(int32).max */\n  0x7fffffff\n    /* \"lib/integers.sol\":739:776  int public maxInt32 = type(int32).max */\n  0x03\n  signextend\n  0x0b\n  sstore\n    /* \"lib/integers.sol\":804:819  type(int64).min */\n  0xffffffffffffffffffffffffffffffffffffffffffffffff8000000000000000\n    /* \"lib/integers.sol\":782:819  int public minInt64 = type(int64).min */\n  0x07\n  signextend\n  0x0c\n  sstore\n    /* \"lib/integers.sol\":847:862  type(int64).max */\n  0x7fffffffffffffff\n    /* \"lib/integers.sol\":825:862  int public maxInt64 = type(int64).max */\n  0x07\n  signextend\n  0x0d\n  sstore\n    /* \"lib/integers.sol\":891:907  type(int128).min */\n  0xffffffffffffffffffffffffffffffff80000000000000000000000000000000\n    /* \"lib/integers.sol\":868:907  int public minInt128 = type(int128).min */\n  0x0f\n  signextend\n  0x0e\n  sstore\n    /* \"lib/integers.sol\":936:952  type(int128).max */\n  0x7fffffffffffffffffffffffffffffff\n    /* \"lib/integers.sol\":913:952  int public maxInt128 = type(int128).max */\n  0x0f\n  signextend\n  0x0f\n  sstore\n    /* \"lib/integers.sol\":981:997  type(int256).min */\n  0x8000000000000000000000000000000000000000000000000000000000000000\n    /* \"lib/integers.sol\":958:997  int public minInt256 = type(int256).min */\n  0x10\n  sstore\n    /* \"lib/integers.sol\":1026:1042  type(int256).max */\n  0x7fffffffffffffffffffffffffffffffffffffffffffffffffffffffffffffff\n    /* \"lib/integers.sol\":1003:1042  int public maxInt256 = type(int256).max */\n  0x11\n  sstore\n    /* \"lib/integers.sol\":1106:1121  type(uint8).min */\n  0x00\n    /* \"lib/integers.sol\":1083:1121  uint public minUint8 = type(uint8).min */\n  0xff\n  and\n  0x12\n  sstore\n    /* \"lib/integers.sol\":1150:1165  type(uint8).max */\n  0xff\n    /* \"lib/integers.sol\":1127:1165  uint public maxUint8 = type(uint8).max */\n  dup1\n  and\n  0x13\n  sstore\n    /* \"lib/integers.sol\":1195:1211  type(uint16).min */\n  0x00\n    /* \"lib/integers.sol\":1171:1211  uint public minUint16 = type(uint16).min */\n  0xffff\n  and\n  0x14\n  sstore\n    /* \"lib/integers.sol\":1241:1257  type(uint16).max */\n  0xffff\n    /* \"lib/integers.sol\":1217:1257  uint public maxUint16 = type(uint16).max */\n  dup1\n  and\n  0x15\n  sstore\n    /* \"lib/integers.sol\":1287:1303  type(uint32).min */\n  0x00\n    /* \"lib/integers.sol\":1263:1303  uint public minUint32 = type(uint32).min */\n  0xffffffff\n  and\n  0x16\n  sstore\n    /* \"lib/integers.sol\":1333:1349  type(uint32).max */\n  0xffffffff\n    /* \"lib/integers.sol\":1309:1349  uint public maxUint32 = type(uint32).max */\n  dup1\n  and\n  0x17\n  sstore\n    /* \"lib/integers.sol\":1379:1395  type(uint64).min */\n  0x00\n    /* \"lib/integers.sol\":1355:1395  uint public minUint64 = type(uint64).min */\n  0xffffffffffffffff\n  and\n  0x18\n  sstore\n    /* \"lib/integers.sol\":1425:1441  type(uint64).max */\n  0xffffffffffffffff\n    /* \"lib/integers.sol\":1401:1441  uint public maxUint64 = type(uint64).max */\n  dup1\n  and\n  0x19\n  sstore\n    /* \"lib/integers.sol\":1472:1489  type(uint128).min */\n  0x00\n    /* \"lib/integers.sol\":1447:1489  uint public minUint128 = type(uint128).min */\n  0xffffffffffffffffffffffffffffffff\n  and\n  0x1a\n  sstore\n    /* \"lib/integers.sol\":1520:1537  type(uint128).max */\n  0xffffffffffffffffffffffffffffffff\n    /* \"lib/integers.sol\":1495:1537  uint public maxUint128 = type(uint128).max */\n  dup1\n  and\n  0x1b\n  sstore\n    /* \"lib/integers.sol\":1568:1585  type(uint256).min */\n  0x00\n    /* \"lib/integers.sol\":1543:1585  uint public minUint256 = type(uint256).min */\n  0x1c\n  sstore\n    /* \"lib/integers.sol\":1616:1633  type(uint256).max */\n  0xffffffffffffffffffffffffffffffffffffffffffffffffffffffffffffffff\n    /* \"lib/integers.sol\":1591:1633  uint public maxUint256 = type(uint256).max */\n  0x1d\n  sstore\n    /* \"lib/integers.sol\":57:1636  contract IntegerVariations {... */\n  callvalue\n  dup1\n  iszero\n  tag_1\n  jumpi\n  0x00\n  dup1\n  revert\ntag_1:\n  pop\n  dataSize(sub_0)\n  dup1\n  dataOffset(sub_0)\n  0x00\n  codecopy\n  0x00\n  return\nstop\n\nsub_0: assembly {\n        /* \"lib/integers.sol\":57:1636  contract IntegerVariations {... */\n      mstore(0x40, 0x80)\n      callvalue\n      dup1\n      iszero\n      tag_1\n      jumpi\n      0x00\n      dup1\n      revert\n    tag_1:\n      pop\n      jumpi(tag_2, lt(calldatasize, 0x04))\n      shr(0xe0, calldataload(0x00))\n      dup1\n      0x93b027b4\n      gt\n      tag_41\n      jumpi\n      dup1\n      0xbeaf6db8\n      gt\n      tag_42\n      jumpi\n      dup1\n      0xded7bf2e\n      gt\n      tag_43\n      jumpi\n      dup1\n      0xded7bf2e\n      eq\n      tag_36\n      jumpi\n      dup1\n      0xe267157b\n      eq\n      tag_37\n      jumpi\n      dup1\n      0xe74beb79\n      eq\n      tag_38\n      jumpi\n      dup1\n      0xf260cd4c\n      eq\n      tag_39\n      jumpi\n      dup1\n      0xf614eb31\n      eq\n      tag_40\n      jumpi\n      jump(tag_2)\n    tag_43:\n      dup1\n      0xbeaf6db8\n      eq\n      tag_31\n      jumpi\n      dup1\n      0xcf8bd4ba\n      eq\n      tag_32\n      jumpi\n      dup1\n      0xd451e120\n      eq\n      tag_33\n      jumpi\n      dup1\n      0xdbce5e68\n      eq\n      tag_34\n      jumpi\n      dup1\n      0xddd14c89\n      eq\n      tag_35\n      jumpi\n      jump(tag_2)\n    tag_42:\n      dup1\n      0xa631eb62\n      gt\n      tag_44\n      jumpi\n      dup1\n      0xa631eb62\n      eq\n      tag_26\n      jumpi\n      dup1\n      0xa7df2feb\n      eq\n      tag_27\n      jumpi\n      dup1\n      0xb1ec7ca6\n      eq\n      tag_28\n      jumpi\n      dup1\n      0xb9330829\n      eq\n      tag_29\n      jumpi\n      dup1\n      0xbdc18c4c\n      eq\n      tag_30\n      jumpi\n      jump(tag_2)\n    tag_44:\n      dup1\n      0x93b027b4\n      eq\n      tag_22\n      jumpi\n      dup1\n      0x94827955\n      eq\n      tag_23\n      jumpi\n      dup1\n      0x9a574632\n      eq\n      tag_24\n      jumpi\n      dup1\n      0xa02d51f7\n      eq\n      tag_25\n      jumpi\n      jump(tag_2)\n    tag_41:\n      dup1\n      0x55677467\n      gt\n      tag_45\n      jumpi\n      dup1\n      0x7c1bd7c8\n      gt\n      tag_46\n      jumpi\n      dup1\n      0x7c1bd7c8\n      eq\n      tag_17\n      jumpi\n      dup1\n      0x85d350f1\n      eq\n      tag_18\n      jumpi\n      dup1\n      0x86e233f3\n      eq\n      tag_19\n      jumpi\n      dup1\n      0x8c5a007b\n      eq\n      tag_20\n      jumpi\n      dup1\n      0x91312246\n      eq\n      tag_21\n      jumpi\n      jump(tag_2)\n    tag_46:\n      dup1\n      0x55677467\n      eq\n      tag_12\n      jumpi\n      dup1\n      0x5d0fa032\n      eq\n      tag_13\n      jumpi\n      dup1\n      0x6ebe7f5b\n      eq\n      tag_14\n      jumpi\n      dup1\n      0x6fa025fa\n      eq\n      tag_15\n      jumpi\n      dup1\n      0x719e9613\n      eq\n      tag_16\n      jumpi\n      jump(tag_2)\n    tag_45:\n      dup1\n      0x1d87d574\n      gt\n      tag_47\n      jumpi\n      dup1\n      0x1d87d574\n      eq\n      tag_7\n      jumpi\n      dup1\n      0x24d02974\n      eq\n      tag_8\n      jumpi\n      dup1\n      0x3550fb04\n      eq\n      tag_9\n      jumpi\n      dup1\n      0x3814c856\n      eq\n      tag_10\n      jumpi\n      dup1\n      0x4df7e3d0\n      eq\n      tag_11\n      jumpi\n      jump(tag_2)\n    tag_47:\n      dup1\n      0x11f6a807\n      eq\n      tag_3\n      jumpi\n      dup1\n      0x12d69389\n      eq\n      tag_4\n      jumpi\n      dup1\n      0x155f2f85\n      eq\n      tag_5\n      jumpi\n      dup1\n      0x16a0c5b5\n      eq\n      tag_6\n      jumpi\n    tag_2:\n      0x00\n      dup1\n      revert\n        /* \"lib/integers.sol\":361:384  uint64 public uint64Var */\n    tag_3:\n      tag_48\n      tag_49\n      jump\t// in\n    tag_48:\n      mload(0x40)\n      tag_50\n      swap2\n      swap1\n      tag_51\n      jump\t// in\n    tag_50:\n      mload(0x40)\n      dup1\n      swap2\n      sub\n      swap1\n      return\n        /* \"lib/integers.sol\":1309:1349  uint public maxUint32 = type(uint32).max */\n    tag_4:\n      tag_52\n      tag_53\n      jump\t// in\n    tag_52:\n      mload(0x40)\n      tag_54\n      swap2\n      swap1\n      tag_55\n      jump\t// in\n    tag_54:\n      mload(0x40)\n      dup1\n      swap2\n      sub\n      swap1\n      return\n        /* \"lib/integers.sol\":1355:1395  uint public minUint64 = type(uint64).min */\n    tag_5:\n      tag_56\n      tag_57\n      jump\t// in\n    tag_56:\n      mload(0x40)\n      tag_58\n      swap2\n      swap1\n      tag_55\n      jump\t// in\n    tag_58:\n      mload(0x40)\n      dup1\n      swap2\n      sub\n      swap1\n      return\n        /* \"lib/integers.sol\":486:522  uint public maxUint = type(uint).max */\n    tag_6:\n      tag_59\n      tag_60\n      jump\t// in\n    tag_59:\n      mload(0x40)\n      tag_61\n      swap2\n      swap1\n      tag_55\n      jump\t// in\n    tag_61:\n      mload(0x40)\n      dup1\n      swap2\n      sub\n      swap1\n      return\n        /* \"lib/integers.sol\":825:862  int public maxInt64 = type(int64).max */\n    tag_7:\n      tag_62\n      tag_63\n      jump\t// in\n    tag_62:\n      mload(0x40)\n      tag_64\n      swap2\n      swap1\n      tag_65\n      jump\t// in\n    tag_64:\n      mload(0x40)\n      dup1\n      swap2\n      sub\n      swap1\n      return\n        /* \"lib/integers.sol\":1127:1165  uint public maxUint8 = type(uint8).max */\n    tag_8:\n      tag_66\n      tag_67\n      jump\t// in\n    tag_66:\n      mload(0x40)\n      tag_68\n      swap2\n      swap1\n      tag_55\n      jump\t// in\n    tag_68:\n      mload(0x40)\n      dup1\n      swap2\n      sub\n      swap1\n      return\n        /* \"lib/integers.sol\":739:776  int public maxInt32 = type(int32).max */\n    tag_9:\n      tag_69\n      tag_70\n      jump\t// in\n    tag_69:\n      mload(0x40)\n      tag_71\n      swap2\n      swap1\n      tag_65\n      jump\t// in\n    tag_71:\n      mload(0x40)\n      dup1\n      swap2\n      sub\n      swap1\n      return\n        /* \"lib/integers.sol\":569:604  int public maxInt8 = type(int8).max */\n    tag_10:\n      tag_72\n      tag_73\n      jump\t// in\n    tag_72:\n      mload(0x40)\n      tag_74\n      swap2\n      swap1\n      tag_65\n      jump\t// in\n    tag_74:\n      mload(0x40)\n      dup1\n      swap2\n      sub\n      swap1\n      return\n        /* \"lib/integers.sol\":90:106  bytes16 public b */\n    tag_11:\n      tag_75\n      tag_76\n      jump\t// in\n    tag_75:\n      mload(0x40)\n      tag_77\n      swap2\n      swap1\n      tag_78\n      jump\t// in\n    tag_77:\n      mload(0x40)\n      dup1\n      swap2\n      sub\n      swap1\n      return\n        /* \"lib/integers.sol\":913:952  int public maxInt128 = type(int128).max */\n    tag_12:\n      tag_79\n      tag_80\n      jump\t// in\n    tag_79:\n      mload(0x40)\n      tag_81\n      swap2\n      swap1\n      tag_65\n      jump\t// in\n    tag_81:\n      mload(0x40)\n      dup1\n      swap2\n      sub\n      swap1\n      return\n        /* \"lib/integers.sol\":696:733  int public minInt32 = type(int32).min */\n    tag_13:\n      tag_82\n      tag_83\n      jump\t// in\n    tag_82:\n      mload(0x40)\n      tag_84\n      swap2\n      swap1\n      tag_65\n      jump\t// in\n    tag_84:\n      mload(0x40)\n      dup1\n      swap2\n      sub\n      swap1\n      return\n        /* \"lib/integers.sol\":1401:1441  uint public maxUint64 = type(uint64).max */\n    tag_14:\n      tag_85\n      tag_86\n      jump\t// in\n    tag_85:\n      mload(0x40)\n      tag_87\n      swap2\n      swap1\n      tag_55\n      jump\t// in\n    tag_87:\n      mload(0x40)\n      dup1\n      swap2\n      sub\n      swap1\n      return\n        /* \"lib/integers.sol\":164:185  int32 public int32Var */\n    tag_15:\n      tag_88\n      tag_89\n      jump\t// in\n    tag_88:\n      mload(0x40)\n      tag_90\n      swap2\n      swap1\n      tag_91\n      jump\t// in\n    tag_90:\n      mload(0x40)\n      dup1\n      swap2\n      sub\n      swap1\n      return\n        /* \"lib/integers.sol\":1217:1257  uint public maxUint16 = type(uint16).max */\n    tag_16:\n      tag_92\n      tag_93\n      jump\t// in\n    tag_92:\n      mload(0x40)\n      tag_94\n      swap2\n      swap1\n      tag_55\n      jump\t// in\n    tag_94:\n      mload(0x40)\n      dup1\n      swap2\n      sub\n      swap1\n      return\n        /* \"lib/integers.sol\":958:997  int public minInt256 = type(int256).min */\n    tag_17:\n      tag_95\n      tag_96\n      jump\t// in\n    tag_95:\n      mload(0x40)\n      tag_97\n      swap2\n      swap1\n      tag_65\n      jump\t// in\n    tag_97:\n      mload(0x40)\n      dup1\n      swap2\n      sub\n      swap1\n      return\n        /* \"lib/integers.sol\":1083:1121  uint public minUint8 = type(uint8).min */\n    tag_18:\n      tag_98\n      tag_99\n      jump\t// in\n    tag_98:\n      mload(0x40)\n      tag_100\n      swap2\n      swap1\n      tag_55\n      jump\t// in\n    tag_100:\n      mload(0x40)\n      dup1\n      swap2\n      sub\n      swap1\n      return\n        /* \"lib/integers.sol\":1543:1585  uint public minUint256 = type(uint256).min */\n    tag_19:\n      tag_101\n      tag_102\n      jump\t// in\n    tag_101:\n      mload(0x40)\n      tag_103\n      swap2\n      swap1\n      tag_55\n      jump\t// in\n    tag_103:\n      mload(0x40)\n      dup1\n      swap2\n      sub\n      swap1\n      return\n        /* \"lib/integers.sol\":332:355  uint32 public uint32Var */\n    tag_20:\n      tag_104\n      tag_105\n      jump\t// in\n    tag_104:\n      mload(0x40)\n      tag_106\n      swap2\n      swap1\n      tag_107\n      jump\t// in\n    tag_106:\n      mload(0x40)\n      dup1\n      swap2\n      sub\n      swap1\n      return\n        /* \"lib/integers.sol\":1263:1303  uint public minUint32 = type(uint32).min */\n    tag_21:\n      tag_108\n      tag_109\n      jump\t// in\n    tag_108:\n      mload(0x40)\n      tag_110\n      swap2\n      swap1\n      tag_55\n      jump\t// in\n    tag_110:\n      mload(0x40)\n      dup1\n      swap2\n      sub\n      swap1\n      return\n        /* \"lib/integers.sol\":1003:1042  int public maxInt256 = type(int256).max */\n    tag_22:\n      tag_111\n      tag_112\n      jump\t// in\n    tag_111:\n      mload(0x40)\n      tag_113\n      swap2\n      swap1\n      tag_65\n      jump\t// in\n    tag_113:\n      mload(0x40)\n      dup1\n      swap2\n      sub\n      swap1\n      return\n        /* \"lib/integers.sol\":782:819  int public minInt64 = type(int64).min */\n    tag_23:\n      tag_114\n      tag_115\n      jump\t// in\n    tag_114:\n      mload(0x40)\n      tag_116\n      swap2\n      swap1\n      tag_65\n      jump\t// in\n    tag_116:\n      mload(0x40)\n      dup1\n      swap2\n      sub\n      swap1\n      return\n        /* \"lib/integers.sol\":247:270  int256 public int256Var */\n    tag_24:\n      tag_117\n      tag_118\n      jump\t// in\n    tag_117:\n      mload(0x40)\n      tag_119\n      swap2\n      swap1\n      tag_65\n      jump\t// in\n    tag_119:\n      mload(0x40)\n      dup1\n      swap2\n      sub\n      swap1\n      return\n        /* \"lib/integers.sol\":276:297  uint8 public uint8Var */\n    tag_25:\n      tag_120\n      tag_121\n      jump\t// in\n    tag_120:\n      mload(0x40)\n      tag_122\n      swap2\n      swap1\n      tag_123\n      jump\t// in\n    tag_122:\n      mload(0x40)\n      dup1\n      swap2\n      sub\n      swap1\n      return\n        /* \"lib/integers.sol\":528:563  int public minInt8 = type(int8).min */\n    tag_26:\n      tag_124\n      tag_125\n      jump\t// in\n    tag_124:\n      mload(0x40)\n      tag_126\n      swap2\n      swap1\n      tag_65\n      jump\t// in\n    tag_126:\n      mload(0x40)\n      dup1\n      swap2\n      sub\n      swap1\n      return\n        /* \"lib/integers.sol\":653:690  int public maxInt16 = type(int16).max */\n    tag_27:\n      tag_127\n      tag_128\n      jump\t// in\n    tag_127:\n      mload(0x40)\n      tag_129\n      swap2\n      swap1\n      tag_65\n      jump\t// in\n    tag_129:\n      mload(0x40)\n      dup1\n      swap2\n      sub\n      swap1\n      return\n        /* \"lib/integers.sol\":303:326  uint16 public uint16Var */\n    tag_28:\n      tag_130\n      tag_131\n      jump\t// in\n    tag_130:\n      mload(0x40)\n      tag_132\n      swap2\n      swap1\n      tag_133\n      jump\t// in\n    tag_132:\n      mload(0x40)\n      dup1\n      swap2\n      sub\n      swap1\n      return\n        /* \"lib/integers.sol\":1591:1633  uint public maxUint256 = type(uint256).max */\n    tag_29:\n      tag_134\n      tag_135\n      jump\t// in\n    tag_134:\n      mload(0x40)\n      tag_136\n      swap2\n      swap1\n      tag_55\n      jump\t// in\n    tag_136:\n      mload(0x40)\n      dup1\n      swap2\n      sub\n      swap1\n      return\n        /* \"lib/integers.sol\":218:241  int128 public int128Var */\n    tag_30:\n      tag_137\n      tag_138\n      jump\t// in\n    tag_137:\n      mload(0x40)\n      tag_139\n      swap2\n      swap1\n      tag_140\n      jump\t// in\n    tag_139:\n      mload(0x40)\n      dup1\n      swap2\n      sub\n      swap1\n      return\n        /* \"lib/integers.sol\":112:131  int8 public int8Var */\n    tag_31:\n      tag_141\n      tag_142\n      jump\t// in\n    tag_141:\n      mload(0x40)\n      tag_143\n      swap2\n      swap1\n      tag_144\n      jump\t// in\n    tag_143:\n      mload(0x40)\n      dup1\n      swap2\n      sub\n      swap1\n      return\n        /* \"lib/integers.sol\":1495:1537  uint public maxUint128 = type(uint128).max */\n    tag_32:\n      tag_145\n      tag_146\n      jump\t// in\n    tag_145:\n      mload(0x40)\n      tag_147\n      swap2\n      swap1\n      tag_55\n      jump\t// in\n    tag_147:\n      mload(0x40)\n      dup1\n      swap2\n      sub\n      swap1\n      return\n        /* \"lib/integers.sol\":137:158  int16 public int16Var */\n    tag_33:\n      tag_148\n      tag_149\n      jump\t// in\n    tag_148:\n      mload(0x40)\n      tag_150\n      swap2\n      swap1\n      tag_151\n      jump\t// in\n    tag_150:\n      mload(0x40)\n      dup1\n      swap2\n      sub\n      swap1\n      return\n        /* \"lib/integers.sol\":610:647  int public minInt16 = type(int16).min */\n    tag_34:\n      tag_152\n      tag_153\n      jump\t// in\n    tag_152:\n      mload(0x40)\n      tag_154\n      swap2\n      swap1\n      tag_65\n      jump\t// in\n    tag_154:\n      mload(0x40)\n      dup1\n      swap2\n      sub\n      swap1\n      return\n        /* \"lib/integers.sol\":191:212  int64 public int64Var */\n    tag_35:\n      tag_155\n      tag_156\n      jump\t// in\n    tag_155:\n      mload(0x40)\n      tag_157\n      swap2\n      swap1\n      tag_158\n      jump\t// in\n    tag_157:\n      mload(0x40)\n      dup1\n      swap2\n      sub\n      swap1\n      return\n        /* \"lib/integers.sol\":868:907  int public minInt128 = type(int128).min */\n    tag_36:\n      tag_159\n      tag_160\n      jump\t// in\n    tag_159:\n      mload(0x40)\n      tag_161\n      swap2\n      swap1\n      tag_65\n      jump\t// in\n    tag_161:\n      mload(0x40)\n      dup1\n      swap2\n      sub\n      swap1\n      return\n        /* \"lib/integers.sol\":1447:1489  uint public minUint128 = type(uint128).min */\n    tag_37:\n      tag_162\n      tag_163\n      jump\t// in\n    tag_162:\n      mload(0x40)\n      tag_164\n      swap2\n      swap1\n      tag_55\n      jump\t// in\n    tag_164:\n      mload(0x40)\n      dup1\n      swap2\n      sub\n      swap1\n      return\n        /* \"lib/integers.sol\":390:415  uint128 public uint128Var */\n    tag_38:\n      tag_165\n      tag_166\n      jump\t// in\n    tag_165:\n      mload(0x40)\n      tag_167\n      swap2\n      swap1\n      tag_168\n      jump\t// in\n    tag_167:\n      mload(0x40)\n      dup1\n      swap2\n      sub\n      swap1\n      return\n        /* \"lib/integers.sol\":1171:1211  uint public minUint16 = type(uint16).min */\n    tag_39:\n      tag_169\n      tag_170\n      jump\t// in\n    tag_169:\n      mload(0x40)\n      tag_171\n      swap2\n      swap1\n      tag_55\n      jump\t// in\n    tag_171:\n      mload(0x40)\n      dup1\n      swap2\n      sub\n      swap1\n      return\n        /* \"lib/integers.sol\":421:446  uint256 public uint256Var */\n    tag_40:\n      tag_172\n      tag_173\n      jump\t// in\n    tag_172:\n      mload(0x40)\n      tag_174\n      swap2\n      swap1\n      tag_55\n      jump\t// in\n    tag_174:\n      mload(0x40)\n      dup1\n      swap2\n      sub\n      swap1\n      return\n        /* \"lib/integers.sol\":361:384  uint64 public uint64Var */\n    tag_49:\n      0x03\n      0x07\n      swap1\n      sload\n      swap1\n      0x0100\n      exp\n      swap1\n      div\n      0xffffffffffffffff\n      and\n      dup2\n      jump\t// out\n        /* \"lib/integers.sol\":1309:1349  uint public maxUint32 = type(uint32).max */\n    tag_53:\n      sload(0x17)\n      dup2\n      jump\t// out\n        /* \"lib/integers.sol\":1355:1395  uint public minUint64 = type(uint64).min */\n    tag_57:\n      sload(0x18)\n      dup2\n      jump\t// out\n        /* \"lib/integers.sol\":486:522  uint public maxUint = type(uint).max */\n    tag_60:\n      sload(0x05)\n      dup2\n      jump\t// out\n        /* \"lib/integers.sol\":825:862  int public maxInt64 = type(int64).max */\n    tag_63:\n      sload(0x0d)\n      dup2\n      jump\t// out\n        /* \"lib/integers.sol\":1127:1165  uint public maxUint8 = type(uint8).max */\n    tag_67:\n      sload(0x13)\n      dup2\n      jump\t// out\n        /* \"lib/integers.sol\":739:776  int public maxInt32 = type(int32).max */\n    tag_70:\n      sload(0x0b)\n      dup2\n      jump\t// out\n        /* \"lib/integers.sol\":569:604  int public maxInt8 = type(int8).max */\n    tag_73:\n      sload(0x07)\n      dup2\n      jump\t// out\n        /* \"lib/integers.sol\":90:106  bytes16 public b */\n    tag_76:\n      0x00\n      dup1\n      sload\n      swap1\n      0x0100\n      exp\n      swap1\n      div\n      0x80\n      shl\n      dup2\n      jump\t// out\n        /* \"lib/integers.sol\":913:952  int public maxInt128 = type(int128).max */\n    tag_80:\n      sload(0x0f)\n      dup2\n      jump\t// out\n        /* \"lib/integers.sol\":696:733  int public minInt32 = type(int32).min */\n    tag_83:\n      sload(0x0a)\n      dup2\n      jump\t// out\n        /* \"lib/integers.sol\":1401:1441  uint public maxUint64 = type(uint64).max */\n    tag_86:\n      sload(0x19)\n      dup2\n      jump\t// out\n        /* \"lib/integers.sol\":164:185  int32 public int32Var */\n    tag_89:\n      0x00\n      0x13\n      swap1\n      sload\n      swap1\n      0x0100\n      exp\n      swap1\n      div\n      0x03\n      signextend\n      dup2\n      jump\t// out\n        /* \"lib/integers.sol\":1217:1257  uint public maxUint16 = type(uint16).max */\n    tag_93:\n      sload(0x15)\n      dup2\n      jump\t// out\n        /* \"lib/integers.sol\":958:997  int public minInt256 = type(int256).min */\n    tag_96:\n      sload(0x10)\n      dup2\n      jump\t// out\n        /* \"lib/integers.sol\":1083:1121  uint public minUint8 = type(uint8).min */\n    tag_99:\n      sload(0x12)\n      dup2\n      jump\t// out\n        /* \"lib/integers.sol\":1543:1585  uint public minUint256 = type(uint256).min */\n    tag_102:\n      sload(0x1c)\n      dup2\n      jump\t// out\n        /* \"lib/integers.sol\":332:355  uint32 public uint32Var */\n    tag_105:\n      0x03\n      dup1\n      sload\n      swap1\n      0x0100\n      exp\n      swap1\n      div\n      0xffffffff\n      and\n      dup2\n      jump\t// out\n        /* \"lib/integers.sol\":1263:1303  uint public minUint32 = type(uint32).min */\n    tag_109:\n      sload(0x16)\n      dup2\n      jump\t// out\n        /* \"lib/integers.sol\":1003:1042  int public maxInt256 = type(int256).max */\n    tag_112:\n      sload(0x11)\n      dup2\n      jump\t// out\n        /* \"lib/integers.sol\":782:819  int public minInt64 = type(int64).min */\n    tag_115:\n      sload(0x0c)\n      dup2\n      jump\t// out\n        /* \"lib/integers.sol\":247:270  int256 public int256Var */\n    tag_118:\n      sload(0x02)\n      dup2\n      jump\t// out\n        /* \"lib/integers.sol\":276:297  uint8 public uint8Var */\n    tag_121:\n      0x03\n      0x00\n      swap1\n      sload\n      swap1\n      0x0100\n      exp\n      swap1\n      div\n      0xff\n      and\n      dup2\n      jump\t// out\n        /* \"lib/integers.sol\":528:563  int public minInt8 = type(int8).min */\n    tag_125:\n      sload(0x06)\n      dup2\n      jump\t// out\n        /* \"lib/integers.sol\":653:690  int public maxInt16 = type(int16).max */\n    tag_128:\n      sload(0x09)\n      dup2\n      jump\t// out\n        /* \"lib/integers.sol\":303:326  uint16 public uint16Var */\n    tag_131:\n      0x03\n      0x01\n      swap1\n      sload\n      swap1\n      0x0100\n      exp\n      swap1\n      div\n      0xffff\n      and\n      dup2\n      jump\t// out\n        /* \"lib/integers.sol\":1591:1633  uint public maxUint256 = type(uint256).max */\n    tag_135:\n      sload(0x1d)\n      dup2\n      jump\t// out\n        /* \"lib/integers.sol\":218:241  int128 public int128Var */\n    tag_138:\n      0x01\n      0x00\n      swap1\n      sload\n      swap1\n      0x0100\n      exp\n      swap1\n      div\n      0x0f\n      signextend\n      dup2\n      jump\t// out\n        /* \"lib/integers.sol\":112:131  int8 public int8Var */\n    tag_142:\n      0x00\n      0x10\n      swap1\n      sload\n      swap1\n      0x0100\n      exp\n      swap1\n      div\n      0x00\n      signextend\n      dup2\n      jump\t// out\n        /* \"lib/integers.sol\":1495:1537  uint public maxUint128 = type(uint128).max */\n    tag_146:\n      sload(0x1b)\n      dup2\n      jump\t// out\n        /* \"lib/integers.sol\":137:158  int16 public int16Var */\n    tag_149:\n      0x00\n      0x11\n      swap1\n      sload\n      swap1\n      0x0100\n      exp\n      swap1\n      div\n      0x01\n      signextend\n      dup2\n      jump\t// out\n        /* \"lib/integers.sol\":610:647  int public minInt16 = type(int16).min */\n    tag_153:\n      sload(0x08)\n      dup2\n      jump\t// out\n        /* \"lib/integers.sol\":191:212  int64 public int64Var */\n    tag_156:\n      0x00\n      0x17\n      swap1\n      sload\n      swap1\n      0x0100\n      exp\n      swap1\n      div\n      0x07\n      signextend\n      dup2\n      jump\t// out\n        /* \"lib/integers.sol\":868:907  int public minInt128 = type(int128).min */\n    tag_160:\n      sload(0x0e)\n      dup2\n      jump\t// out\n        /* \"lib/integers.sol\":1447:1489  uint public minUint128 = type(uint128).min */\n    tag_163:\n      sload(0x1a)\n      dup2\n      jump\t// out\n        /* \"lib/integers.sol\":390:415  uint128 public uint128Var */\n    tag_166:\n      0x03\n      0x0f\n      swap1\n      sload\n      swap1\n      0x0100\n      exp\n      swap1\n      div\n      0xffffffffffffffffffffffffffffffff\n      and\n      dup2\n      jump\t// out\n        /* \"lib/integers.sol\":1171:1211  uint public minUint16 = type(uint16).min */\n    tag_170:\n      sload(0x14)\n      dup2\n      jump\t// out\n        /* \"lib/integers.sol\":421:446  uint256 public uint256Var */\n    tag_173:\n      sload(0x04)\n      dup2\n      jump\t// out\n        /* \"#utility.yul\":7:108   */\n    tag_175:\n        /* \"#utility.yul\":43:50   */\n      0x00\n        /* \"#utility.yul\":83:101   */\n      0xffffffffffffffff\n        /* \"#utility.yul\":76:81   */\n      dup3\n        /* \"#utility.yul\":72:102   */\n      and\n        /* \"#utility.yul\":61:102   */\n      swap1\n      pop\n        /* \"#utility.yul\":7:108   */\n      swap2\n      swap1\n      pop\n      jump\t// out\n        /* \"#utility.yul\":114:229   */\n    tag_176:\n        /* \"#utility.yul\":199:222   */\n      tag_204\n        /* \"#utility.yul\":216:221   */\n      dup2\n        /* \"#utility.yul\":199:222   */\n      tag_175\n      jump\t// in\n    tag_204:\n        /* \"#utility.yul\":194:197   */\n      dup3\n        /* \"#utility.yul\":187:223   */\n      mstore\n        /* \"#utility.yul\":114:229   */\n      pop\n      pop\n      jump\t// out\n        /* \"#utility.yul\":235:453   */\n    tag_51:\n        /* \"#utility.yul\":326:330   */\n      0x00\n        /* \"#utility.yul\":364:366   */\n      0x20\n        /* \"#utility.yul\":353:362   */\n      dup3\n        /* \"#utility.yul\":349:367   */\n      add\n        /* \"#utility.yul\":341:367   */\n      swap1\n      pop\n        /* \"#utility.yul\":377:446   */\n      tag_206\n        /* \"#utility.yul\":443:444   */\n      0x00\n        /* \"#utility.yul\":432:441   */\n      dup4\n        /* \"#utility.yul\":428:445   */\n      add\n        /* \"#utility.yul\":419:425   */\n      dup5\n        /* \"#utility.yul\":377:446   */\n      tag_176\n      jump\t// in\n    tag_206:\n        /* \"#utility.yul\":235:453   */\n      swap3\n      swap2\n      pop\n      pop\n      jump\t// out\n        /* \"#utility.yul\":459:536   */\n    tag_177:\n        /* \"#utility.yul\":496:503   */\n      0x00\n        /* \"#utility.yul\":525:530   */\n      dup2\n        /* \"#utility.yul\":514:530   */\n      swap1\n      pop\n        /* \"#utility.yul\":459:536   */\n      swap2\n      swap1\n      pop\n      jump\t// out\n        /* \"#utility.yul\":542:660   */\n    tag_178:\n        /* \"#utility.yul\":629:653   */\n      tag_209\n        /* \"#utility.yul\":647:652   */\n      dup2\n        /* \"#utility.yul\":629:653   */\n      tag_177\n      jump\t// in\n    tag_209:\n        /* \"#utility.yul\":624:627   */\n      dup3\n        /* \"#utility.yul\":617:654   */\n      mstore\n        /* \"#utility.yul\":542:660   */\n      pop\n      pop\n      jump\t// out\n        /* \"#utility.yul\":666:888   */\n    tag_55:\n        /* \"#utility.yul\":759:763   */\n      0x00\n        /* \"#utility.yul\":797:799   */\n      0x20\n        /* \"#utility.yul\":786:795   */\n      dup3\n        /* \"#utility.yul\":782:800   */\n      add\n        /* \"#utility.yul\":774:800   */\n      swap1\n      pop\n        /* \"#utility.yul\":810:881   */\n      tag_211\n        /* \"#utility.yul\":878:879   */\n      0x00\n        /* \"#utility.yul\":867:876   */\n      dup4\n        /* \"#utility.yul\":863:880   */\n      add\n        /* \"#utility.yul\":854:860   */\n      dup5\n        /* \"#utility.yul\":810:881   */\n      tag_178\n      jump\t// in\n    tag_211:\n        /* \"#utility.yul\":666:888   */\n      swap3\n      swap2\n      pop\n      pop\n      jump\t// out\n        /* \"#utility.yul\":894:970   */\n    tag_179:\n        /* \"#utility.yul\":930:937   */\n      0x00\n        /* \"#utility.yul\":959:964   */\n      dup2\n        /* \"#utility.yul\":948:964   */\n      swap1\n      pop\n        /* \"#utility.yul\":894:970   */\n      swap2\n      swap1\n      pop\n      jump\t// out\n        /* \"#utility.yul\":976:1091   */\n    tag_180:\n        /* \"#utility.yul\":1061:1084   */\n      tag_214\n        /* \"#utility.yul\":1078:1083   */\n      dup2\n        /* \"#utility.yul\":1061:1084   */\n      tag_179\n      jump\t// in\n    tag_214:\n        /* \"#utility.yul\":1056:1059   */\n      dup3\n        /* \"#utility.yul\":1049:1085   */\n      mstore\n        /* \"#utility.yul\":976:1091   */\n      pop\n      pop\n      jump\t// out\n        /* \"#utility.yul\":1097:1315   */\n    tag_65:\n        /* \"#utility.yul\":1188:1192   */\n      0x00\n        /* \"#utility.yul\":1226:1228   */\n      0x20\n        /* \"#utility.yul\":1215:1224   */\n      dup3\n        /* \"#utility.yul\":1211:1229   */\n      add\n        /* \"#utility.yul\":1203:1229   */\n      swap1\n      pop\n        /* \"#utility.yul\":1239:1308   */\n      tag_216\n        /* \"#utility.yul\":1305:1306   */\n      0x00\n        /* \"#utility.yul\":1294:1303   */\n      dup4\n        /* \"#utility.yul\":1290:1307   */\n      add\n        /* \"#utility.yul\":1281:1287   */\n      dup5\n        /* \"#utility.yul\":1239:1308   */\n      tag_180\n      jump\t// in\n    tag_216:\n        /* \"#utility.yul\":1097:1315   */\n      swap3\n      swap2\n      pop\n      pop\n      jump\t// out\n        /* \"#utility.yul\":1321:1471   */\n    tag_181:\n        /* \"#utility.yul\":1358:1365   */\n      0x00\n        /* \"#utility.yul\":1398:1464   */\n      0xffffffffffffffffffffffffffffffff00000000000000000000000000000000\n        /* \"#utility.yul\":1391:1396   */\n      dup3\n        /* \"#utility.yul\":1387:1465   */\n      and\n        /* \"#utility.yul\":1376:1465   */\n      swap1\n      pop\n        /* \"#utility.yul\":1321:1471   */\n      swap2\n      swap1\n      pop\n      jump\t// out\n        /* \"#utility.yul\":1477:1595   */\n    tag_182:\n        /* \"#utility.yul\":1564:1588   */\n      tag_219\n        /* \"#utility.yul\":1582:1587   */\n      dup2\n        /* \"#utility.yul\":1564:1588   */\n      tag_181\n      jump\t// in\n    tag_219:\n        /* \"#utility.yul\":1559:1562   */\n      dup3\n        /* \"#utility.yul\":1552:1589   */\n      mstore\n        /* \"#utility.yul\":1477:1595   */\n      pop\n      pop\n      jump\t// out\n        /* \"#utility.yul\":1601:1823   */\n    tag_78:\n        /* \"#utility.yul\":1694:1698   */\n      0x00\n        /* \"#utility.yul\":1732:1734   */\n      0x20\n        /* \"#utility.yul\":1721:1730   */\n      dup3\n        /* \"#utility.yul\":1717:1735   */\n      add\n        /* \"#utility.yul\":1709:1735   */\n      swap1\n      pop\n        /* \"#utility.yul\":1745:1816   */\n      tag_221\n        /* \"#utility.yul\":1813:1814   */\n      0x00\n        /* \"#utility.yul\":1802:1811   */\n      dup4\n        /* \"#utility.yul\":1798:1815   */\n      add\n        /* \"#utility.yul\":1789:1795   */\n      dup5\n        /* \"#utility.yul\":1745:1816   */\n      tag_182\n      jump\t// in\n    tag_221:\n        /* \"#utility.yul\":1601:1823   */\n      swap3\n      swap2\n      pop\n      pop\n      jump\t// out\n        /* \"#utility.yul\":1829:1919   */\n    tag_183:\n        /* \"#utility.yul\":1864:1871   */\n      0x00\n        /* \"#utility.yul\":1907:1912   */\n      dup2\n        /* \"#utility.yul\":1904:1905   */\n      0x03\n        /* \"#utility.yul\":1893:1913   */\n      signextend\n        /* \"#utility.yul\":1882:1913   */\n      swap1\n      pop\n        /* \"#utility.yul\":1829:1919   */\n      swap2\n      swap1\n      pop\n      jump\t// out\n        /* \"#utility.yul\":1925:2037   */\n    tag_184:\n        /* \"#utility.yul\":2008:2030   */\n      tag_224\n        /* \"#utility.yul\":2024:2029   */\n      dup2\n        /* \"#utility.yul\":2008:2030   */\n      tag_183\n      jump\t// in\n    tag_224:\n        /* \"#utility.yul\":2003:2006   */\n      dup3\n        /* \"#utility.yul\":1996:2031   */\n      mstore\n        /* \"#utility.yul\":1925:2037   */\n      pop\n      pop\n      jump\t// out\n        /* \"#utility.yul\":2043:2257   */\n    tag_91:\n        /* \"#utility.yul\":2132:2136   */\n      0x00\n        /* \"#utility.yul\":2170:2172   */\n      0x20\n        /* \"#utility.yul\":2159:2168   */\n      dup3\n        /* \"#utility.yul\":2155:2173   */\n      add\n        /* \"#utility.yul\":2147:2173   */\n      swap1\n      pop\n        /* \"#utility.yul\":2183:2250   */\n      tag_226\n        /* \"#utility.yul\":2247:2248   */\n      0x00\n        /* \"#utility.yul\":2236:2245   */\n      dup4\n        /* \"#utility.yul\":2232:2249   */\n      add\n        /* \"#utility.yul\":2223:2229   */\n      dup5\n        /* \"#utility.yul\":2183:2250   */\n      tag_184\n      jump\t// in\n    tag_226:\n        /* \"#utility.yul\":2043:2257   */\n      swap3\n      swap2\n      pop\n      pop\n      jump\t// out\n        /* \"#utility.yul\":2263:2356   */\n    tag_185:\n        /* \"#utility.yul\":2299:2306   */\n      0x00\n        /* \"#utility.yul\":2339:2349   */\n      0xffffffff\n        /* \"#utility.yul\":2332:2337   */\n      dup3\n        /* \"#utility.yul\":2328:2350   */\n      and\n        /* \"#utility.yul\":2317:2350   */\n      swap1\n      pop\n        /* \"#utility.yul\":2263:2356   */\n      swap2\n      swap1\n      pop\n      jump\t// out\n        /* \"#utility.yul\":2362:2477   */\n    tag_186:\n        /* \"#utility.yul\":2447:2470   */\n      tag_229\n        /* \"#utility.yul\":2464:2469   */\n      dup2\n        /* \"#utility.yul\":2447:2470   */\n      tag_185\n      jump\t// in\n    tag_229:\n        /* \"#utility.yul\":2442:2445   */\n      dup3\n        /* \"#utility.yul\":2435:2471   */\n      mstore\n        /* \"#utility.yul\":2362:2477   */\n      pop\n      pop\n      jump\t// out\n        /* \"#utility.yul\":2483:2701   */\n    tag_107:\n        /* \"#utility.yul\":2574:2578   */\n      0x00\n        /* \"#utility.yul\":2612:2614   */\n      0x20\n        /* \"#utility.yul\":2601:2610   */\n      dup3\n        /* \"#utility.yul\":2597:2615   */\n      add\n        /* \"#utility.yul\":2589:2615   */\n      swap1\n      pop\n        /* \"#utility.yul\":2625:2694   */\n      tag_231\n        /* \"#utility.yul\":2691:2692   */\n      0x00\n        /* \"#utility.yul\":2680:2689   */\n      dup4\n        /* \"#utility.yul\":2676:2693   */\n      add\n        /* \"#utility.yul\":2667:2673   */\n      dup5\n        /* \"#utility.yul\":2625:2694   */\n      tag_186\n      jump\t// in\n    tag_231:\n        /* \"#utility.yul\":2483:2701   */\n      swap3\n      swap2\n      pop\n      pop\n      jump\t// out\n        /* \"#utility.yul\":2707:2793   */\n    tag_187:\n        /* \"#utility.yul\":2742:2749   */\n      0x00\n        /* \"#utility.yul\":2782:2786   */\n      0xff\n        /* \"#utility.yul\":2775:2780   */\n      dup3\n        /* \"#utility.yul\":2771:2787   */\n      and\n        /* \"#utility.yul\":2760:2787   */\n      swap1\n      pop\n        /* \"#utility.yul\":2707:2793   */\n      swap2\n      swap1\n      pop\n      jump\t// out\n        /* \"#utility.yul\":2799:2911   */\n    tag_188:\n        /* \"#utility.yul\":2882:2904   */\n      tag_234\n        /* \"#utility.yul\":2898:2903   */\n      dup2\n        /* \"#utility.yul\":2882:2904   */\n      tag_187\n      jump\t// in\n    tag_234:\n        /* \"#utility.yul\":2877:2880   */\n      dup3\n        /* \"#utility.yul\":2870:2905   */\n      mstore\n        /* \"#utility.yul\":2799:2911   */\n      pop\n      pop\n      jump\t// out\n        /* \"#utility.yul\":2917:3131   */\n    tag_123:\n        /* \"#utility.yul\":3006:3010   */\n      0x00\n        /* \"#utility.yul\":3044:3046   */\n      0x20\n        /* \"#utility.yul\":3033:3042   */\n      dup3\n        /* \"#utility.yul\":3029:3047   */\n      add\n        /* \"#utility.yul\":3021:3047   */\n      swap1\n      pop\n        /* \"#utility.yul\":3057:3124   */\n      tag_236\n        /* \"#utility.yul\":3121:3122   */\n      0x00\n        /* \"#utility.yul\":3110:3119   */\n      dup4\n        /* \"#utility.yul\":3106:3123   */\n      add\n        /* \"#utility.yul\":3097:3103   */\n      dup5\n        /* \"#utility.yul\":3057:3124   */\n      tag_188\n      jump\t// in\n    tag_236:\n        /* \"#utility.yul\":2917:3131   */\n      swap3\n      swap2\n      pop\n      pop\n      jump\t// out\n        /* \"#utility.yul\":3137:3226   */\n    tag_189:\n        /* \"#utility.yul\":3173:3180   */\n      0x00\n        /* \"#utility.yul\":3213:3219   */\n      0xffff\n        /* \"#utility.yul\":3206:3211   */\n      dup3\n        /* \"#utility.yul\":3202:3220   */\n      and\n        /* \"#utility.yul\":3191:3220   */\n      swap1\n      pop\n        /* \"#utility.yul\":3137:3226   */\n      swap2\n      swap1\n      pop\n      jump\t// out\n        /* \"#utility.yul\":3232:3347   */\n    tag_190:\n        /* \"#utility.yul\":3317:3340   */\n      tag_239\n        /* \"#utility.yul\":3334:3339   */\n      dup2\n        /* \"#utility.yul\":3317:3340   */\n      tag_189\n      jump\t// in\n    tag_239:\n        /* \"#utility.yul\":3312:3315   */\n      dup3\n        /* \"#utility.yul\":3305:3341   */\n      mstore\n        /* \"#utility.yul\":3232:3347   */\n      pop\n      pop\n      jump\t// out\n        /* \"#utility.yul\":3353:3571   */\n    tag_133:\n        /* \"#utility.yul\":3444:3448   */\n      0x00\n        /* \"#utility.yul\":3482:3484   */\n      0x20\n        /* \"#utility.yul\":3471:3480   */\n      dup3\n        /* \"#utility.yul\":3467:3485   */\n      add\n        /* \"#utility.yul\":3459:3485   */\n      swap1\n      pop\n        /* \"#utility.yul\":3495:3564   */\n      tag_241\n        /* \"#utility.yul\":3561:3562   */\n      0x00\n        /* \"#utility.yul\":3550:3559   */\n      dup4\n        /* \"#utility.yul\":3546:3563   */\n      add\n        /* \"#utility.yul\":3537:3543   */\n      dup5\n        /* \"#utility.yul\":3495:3564   */\n      tag_190\n      jump\t// in\n    tag_241:\n        /* \"#utility.yul\":3353:3571   */\n      swap3\n      swap2\n      pop\n      pop\n      jump\t// out\n        /* \"#utility.yul\":3577:3669   */\n    tag_191:\n        /* \"#utility.yul\":3613:3620   */\n      0x00\n        /* \"#utility.yul\":3657:3662   */\n      dup2\n        /* \"#utility.yul\":3653:3655   */\n      0x0f\n        /* \"#utility.yul\":3642:3663   */\n      signextend\n        /* \"#utility.yul\":3631:3663   */\n      swap1\n      pop\n        /* \"#utility.yul\":3577:3669   */\n      swap2\n      swap1\n      pop\n      jump\t// out\n        /* \"#utility.yul\":3675:3790   */\n    tag_192:\n        /* \"#utility.yul\":3760:3783   */\n      tag_244\n        /* \"#utility.yul\":3777:3782   */\n      dup2\n        /* \"#utility.yul\":3760:3783   */\n      tag_191\n      jump\t// in\n    tag_244:\n        /* \"#utility.yul\":3755:3758   */\n      dup3\n        /* \"#utility.yul\":3748:3784   */\n      mstore\n        /* \"#utility.yul\":3675:3790   */\n      pop\n      pop\n      jump\t// out\n        /* \"#utility.yul\":3796:4014   */\n    tag_140:\n        /* \"#utility.yul\":3887:3891   */\n      0x00\n        /* \"#utility.yul\":3925:3927   */\n      0x20\n        /* \"#utility.yul\":3914:3923   */\n      dup3\n        /* \"#utility.yul\":3910:3928   */\n      add\n        /* \"#utility.yul\":3902:3928   */\n      swap1\n      pop\n        /* \"#utility.yul\":3938:4007   */\n      tag_246\n        /* \"#utility.yul\":4004:4005   */\n      0x00\n        /* \"#utility.yul\":3993:4002   */\n      dup4\n        /* \"#utility.yul\":3989:4006   */\n      add\n        /* \"#utility.yul\":3980:3986   */\n      dup5\n        /* \"#utility.yul\":3938:4007   */\n      tag_192\n      jump\t// in\n    tag_246:\n        /* \"#utility.yul\":3796:4014   */\n      swap3\n      swap2\n      pop\n      pop\n      jump\t// out\n        /* \"#utility.yul\":4020:4109   */\n    tag_193:\n        /* \"#utility.yul\":4054:4061   */\n      0x00\n        /* \"#utility.yul\":4097:4102   */\n      dup2\n        /* \"#utility.yul\":4094:4095   */\n      0x00\n        /* \"#utility.yul\":4083:4103   */\n      signextend\n        /* \"#utility.yul\":4072:4103   */\n      swap1\n      pop\n        /* \"#utility.yul\":4020:4109   */\n      swap2\n      swap1\n      pop\n      jump\t// out\n        /* \"#utility.yul\":4115:4224   */\n    tag_194:\n        /* \"#utility.yul\":4196:4217   */\n      tag_249\n        /* \"#utility.yul\":4211:4216   */\n      dup2\n        /* \"#utility.yul\":4196:4217   */\n      tag_193\n      jump\t// in\n    tag_249:\n        /* \"#utility.yul\":4191:4194   */\n      dup3\n        /* \"#utility.yul\":4184:4218   */\n      mstore\n        /* \"#utility.yul\":4115:4224   */\n      pop\n      pop\n      jump\t// out\n        /* \"#utility.yul\":4230:4440   */\n    tag_144:\n        /* \"#utility.yul\":4317:4321   */\n      0x00\n        /* \"#utility.yul\":4355:4357   */\n      0x20\n        /* \"#utility.yul\":4344:4353   */\n      dup3\n        /* \"#utility.yul\":4340:4358   */\n      add\n        /* \"#utility.yul\":4332:4358   */\n      swap1\n      pop\n        /* \"#utility.yul\":4368:4433   */\n      tag_251\n        /* \"#utility.yul\":4430:4431   */\n      0x00\n        /* \"#utility.yul\":4419:4428   */\n      dup4\n        /* \"#utility.yul\":4415:4432   */\n      add\n        /* \"#utility.yul\":4406:4412   */\n      dup5\n        /* \"#utility.yul\":4368:4433   */\n      tag_194\n      jump\t// in\n    tag_251:\n        /* \"#utility.yul\":4230:4440   */\n      swap3\n      swap2\n      pop\n      pop\n      jump\t// out\n        /* \"#utility.yul\":4446:4536   */\n    tag_195:\n        /* \"#utility.yul\":4481:4488   */\n      0x00\n        /* \"#utility.yul\":4524:4529   */\n      dup2\n        /* \"#utility.yul\":4521:4522   */\n      0x01\n        /* \"#utility.yul\":4510:4530   */\n      signextend\n        /* \"#utility.yul\":4499:4530   */\n      swap1\n      pop\n        /* \"#utility.yul\":4446:4536   */\n      swap2\n      swap1\n      pop\n      jump\t// out\n        /* \"#utility.yul\":4542:4654   */\n    tag_196:\n        /* \"#utility.yul\":4625:4647   */\n      tag_254\n        /* \"#utility.yul\":4641:4646   */\n      dup2\n        /* \"#utility.yul\":4625:4647   */\n      tag_195\n      jump\t// in\n    tag_254:\n        /* \"#utility.yul\":4620:4623   */\n      dup3\n        /* \"#utility.yul\":4613:4648   */\n      mstore\n        /* \"#utility.yul\":4542:4654   */\n      pop\n      pop\n      jump\t// out\n        /* \"#utility.yul\":4660:4874   */\n    tag_151:\n        /* \"#utility.yul\":4749:4753   */\n      0x00\n        /* \"#utility.yul\":4787:4789   */\n      0x20\n        /* \"#utility.yul\":4776:4785   */\n      dup3\n        /* \"#utility.yul\":4772:4790   */\n      add\n        /* \"#utility.yul\":4764:4790   */\n      swap1\n      pop\n        /* \"#utility.yul\":4800:4867   */\n      tag_256\n        /* \"#utility.yul\":4864:4865   */\n      0x00\n        /* \"#utility.yul\":4853:4862   */\n      dup4\n        /* \"#utility.yul\":4849:4866   */\n      add\n        /* \"#utility.yul\":4840:4846   */\n      dup5\n        /* \"#utility.yul\":4800:4867   */\n      tag_196\n      jump\t// in\n    tag_256:\n        /* \"#utility.yul\":4660:4874   */\n      swap3\n      swap2\n      pop\n      pop\n      jump\t// out\n        /* \"#utility.yul\":4880:4970   */\n    tag_197:\n        /* \"#utility.yul\":4915:4922   */\n      0x00\n        /* \"#utility.yul\":4958:4963   */\n      dup2\n        /* \"#utility.yul\":4955:4956   */\n      0x07\n        /* \"#utility.yul\":4944:4964   */\n      signextend\n        /* \"#utility.yul\":4933:4964   */\n      swap1\n      pop\n        /* \"#utility.yul\":4880:4970   */\n      swap2\n      swap1\n      pop\n      jump\t// out\n        /* \"#utility.yul\":4976:5088   */\n    tag_198:\n        /* \"#utility.yul\":5059:5081   */\n      tag_259\n        /* \"#utility.yul\":5075:5080   */\n      dup2\n        /* \"#utility.yul\":5059:5081   */\n      tag_197\n      jump\t// in\n    tag_259:\n        /* \"#utility.yul\":5054:5057   */\n      dup3\n        /* \"#utility.yul\":5047:5082   */\n      mstore\n        /* \"#utility.yul\":4976:5088   */\n      pop\n      pop\n      jump\t// out\n        /* \"#utility.yul\":5094:5308   */\n    tag_158:\n        /* \"#utility.yul\":5183:5187   */\n      0x00\n        /* \"#utility.yul\":5221:5223   */\n      0x20\n        /* \"#utility.yul\":5210:5219   */\n      dup3\n        /* \"#utility.yul\":5206:5224   */\n      add\n        /* \"#utility.yul\":5198:5224   */\n      swap1\n      pop\n        /* \"#utility.yul\":5234:5301   */\n      tag_261\n        /* \"#utility.yul\":5298:5299   */\n      0x00\n        /* \"#utility.yul\":5287:5296   */\n      dup4\n        /* \"#utility.yul\":5283:5300   */\n      add\n        /* \"#utility.yul\":5274:5280   */\n      dup5\n        /* \"#utility.yul\":5234:5301   */\n      tag_198\n      jump\t// in\n    tag_261:\n        /* \"#utility.yul\":5094:5308   */\n      swap3\n      swap2\n      pop\n      pop\n      jump\t// out\n        /* \"#utility.yul\":5314:5432   */\n    tag_199:\n        /* \"#utility.yul\":5351:5358   */\n      0x00\n        /* \"#utility.yul\":5391:5425   */\n      0xffffffffffffffffffffffffffffffff\n        /* \"#utility.yul\":5384:5389   */\n      dup3\n        /* \"#utility.yul\":5380:5426   */\n      and\n        /* \"#utility.yul\":5369:5426   */\n      swap1\n      pop\n        /* \"#utility.yul\":5314:5432   */\n      swap2\n      swap1\n      pop\n      jump\t// out\n        /* \"#utility.yul\":5438:5556   */\n    tag_200:\n        /* \"#utility.yul\":5525:5549   */\n      tag_264\n        /* \"#utility.yul\":5543:5548   */\n      dup2\n        /* \"#utility.yul\":5525:5549   */\n      tag_199\n      jump\t// in\n    tag_264:\n        /* \"#utility.yul\":5520:5523   */\n      dup3\n        /* \"#utility.yul\":5513:5550   */\n      mstore\n        /* \"#utility.yul\":5438:5556   */\n      pop\n      pop\n      jump\t// out\n        /* \"#utility.yul\":5562:5784   */\n    tag_168:\n        /* \"#utility.yul\":5655:5659   */\n      0x00\n        /* \"#utility.yul\":5693:5695   */\n      0x20\n        /* \"#utility.yul\":5682:5691   */\n      dup3\n        /* \"#utility.yul\":5678:5696   */\n      add\n        /* \"#utility.yul\":5670:5696   */\n      swap1\n      pop\n        /* \"#utility.yul\":5706:5777   */\n      tag_266\n        /* \"#utility.yul\":5774:5775   */\n      0x00\n        /* \"#utility.yul\":5763:5772   */\n      dup4\n        /* \"#utility.yul\":5759:5776   */\n      add\n        /* \"#utility.yul\":5750:5756   */\n      dup5\n        /* \"#utility.yul\":5706:5777   */\n      tag_200\n      jump\t// in\n    tag_266:\n        /* \"#utility.yul\":5562:5784   */\n      swap3\n      swap2\n      pop\n      pop\n      jump\t// out\n\n    auxdata: 0xa264697066735822122014d4a3ce04ae9ffc82f8e5286ef4086869ba7826912244c34dd5ff845ffb43c864736f6c63430008120033\n}\n",
				"bytecode": {
					"linkReferences": {},
					"object": "60806040527fffffffffffffffffffffffffffffffffffffffffffffffffffffffffffffffff6005557fffffffffffffffffffffffffffffffffffffffffffffffffffffffffffffff8060000b600655607f60000b6007557fffffffffffffffffffffffffffffffffffffffffffffffffffffffffffff800060010b600855617fff60010b6009557fffffffffffffffffffffffffffffffffffffffffffffffffffffffff8000000060030b600a55637fffffff60030b600b557fffffffffffffffffffffffffffffffffffffffffffffffff800000000000000060070b600c55677fffffffffffffff60070b600d557fffffffffffffffffffffffffffffffff80000000000000000000000000000000600f0b600e556f7fffffffffffffffffffffffffffffff600f0b600f557f80000000000000000000000000000000000000000000000000000000000000006010557f7fffffffffffffffffffffffffffffffffffffffffffffffffffffffffffffff601155600060ff1660125560ff8016601355600061ffff1660145561ffff8016601555600063ffffffff1660165563ffffffff8016601755600067ffffffffffffffff1660185567ffffffffffffffff801660195560006fffffffffffffffffffffffffffffffff16601a556fffffffffffffffffffffffffffffffff8016601b556000601c557fffffffffffffffffffffffffffffffffffffffffffffffffffffffffffffffff601d5534801561022957600080fd5b50610b68806102396000396000f3fe608060405234801561001057600080fd5b50600436106102325760003560e01c806393b027b411610130578063beaf6db8116100b8578063ded7bf2e1161007c578063ded7bf2e14610615578063e267157b14610633578063e74beb7914610651578063f260cd4c1461066f578063f614eb311461068d57610232565b8063beaf6db81461057f578063cf8bd4ba1461059d578063d451e120146105bb578063dbce5e68146105d9578063ddd14c89146105f757610232565b8063a631eb62116100ff578063a631eb62146104e9578063a7df2feb14610507578063b1ec7ca614610525578063b933082914610543578063bdc18c4c1461056157610232565b806393b027b414610471578063948279551461048f5780639a574632146104ad578063a02d51f7146104cb57610232565b806355677467116101be5780637c1bd7c8116101825780637c1bd7c8146103db57806385d350f1146103f957806386e233f3146104175780638c5a007b14610435578063913122461461045357610232565b806355677467146103455780635d0fa032146103635780636ebe7f5b146103815780636fa025fa1461039f578063719e9613146103bd57610232565b80631d87d574116102055780631d87d574146102af57806324d02974146102cd5780633550fb04146102eb5780633814c856146103095780634df7e3d01461032757610232565b806311f6a8071461023757806312d6938914610255578063155f2f851461027357806316a0c5b514610291575b600080fd5b61023f6106ab565b60405161024c9190610857565b60405180910390f35b61025d6106c5565b60405161026a919061088b565b60405180910390f35b61027b6106cb565b604051610288919061088b565b60405180910390f35b6102996106d1565b6040516102a6919061088b565b60405180910390f35b6102b76106d7565b6040516102c491906108bf565b60405180910390f35b6102d56106dd565b6040516102e2919061088b565b60405180910390f35b6102f36106e3565b60405161030091906108bf565b60405180910390f35b6103116106e9565b60405161031e91906108bf565b60405180910390f35b61032f6106ef565b60405161033c9190610915565b60405180910390f35b61034d610700565b60405161035a91906108bf565b60405180910390f35b61036b610706565b60405161037891906108bf565b60405180910390f35b61038961070c565b604051610396919061088b565b60405180910390f35b6103a7610712565b6040516103b4919061094c565b60405180910390f35b6103c5610725565b6040516103d2919061088b565b60405180910390f35b6103e361072b565b6040516103f091906108bf565b60405180910390f35b610401610731565b60405161040e919061088b565b60405180910390f35b61041f610737565b60405161042c919061088b565b60405180910390f35b61043d61073d565b60405161044a9190610986565b60405180910390f35b61045b610751565b604051610468919061088b565b60405180910390f35b610479610757565b60405161048691906108bf565b60405180910390f35b61049761075d565b6040516104a491906108bf565b60405180910390f35b6104b5610763565b6040516104c291906108bf565b60405180910390f35b6104d3610769565b6040516104e091906109bd565b60405180910390f35b6104f161077c565b6040516104fe91906108bf565b60405180910390f35b61050f610782565b60405161051c91906108bf565b60405180910390f35b61052d610788565b60405161053a91906109f5565b60405180910390f35b61054b61079c565b604051610558919061088b565b60405180910390f35b6105696107a2565b6040516105769190610a2c565b60405180910390f35b6105876107b5565b6040516105949190610a63565b60405180910390f35b6105a56107c8565b6040516105b2919061088b565b60405180910390f35b6105c36107ce565b6040516105d09190610a9a565b60405180910390f35b6105e16107e1565b6040516105ee91906108bf565b60405180910390f35b6105ff6107e7565b60405161060c9190610ad1565b60405180910390f35b61061d6107fa565b60405161062a91906108bf565b60405180910390f35b61063b610800565b604051610648919061088b565b60405180910390f35b610659610806565b6040516106669190610b17565b60405180910390f35b610677610828565b604051610684919061088b565b60405180910390f35b61069561082e565b6040516106a2919061088b565b60405180910390f35b600360079054906101000a900467ffffffffffffffff1681565b60175481565b60185481565b60055481565b600d5481565b60135481565b600b5481565b60075481565b60008054906101000a900460801b81565b600f5481565b600a5481565b60195481565b600060139054906101000a900460030b81565b60155481565b60105481565b60125481565b601c5481565b60038054906101000a900463ffffffff1681565b60165481565b60115481565b600c5481565b60025481565b600360009054906101000a900460ff1681565b60065481565b60095481565b600360019054906101000a900461ffff1681565b601d5481565b600160009054906101000a9004600f0b81565b600060109054906101000a900460000b81565b601b5481565b600060119054906101000a900460010b81565b60085481565b600060179054906101000a900460070b81565b600e5481565b601a5481565b6003600f9054906101000a90046fffffffffffffffffffffffffffffffff1681565b60145481565b60045481565b600067ffffffffffffffff82169050919050565b61085181610834565b82525050565b600060208201905061086c6000830184610848565b92915050565b6000819050919050565b61088581610872565b82525050565b60006020820190506108a0600083018461087c565b92915050565b6000819050919050565b6108b9816108a6565b82525050565b60006020820190506108d460008301846108b0565b92915050565b60007fffffffffffffffffffffffffffffffff0000000000000000000000000000000082169050919050565b61090f816108da565b82525050565b600060208201905061092a6000830184610906565b92915050565b60008160030b9050919050565b61094681610930565b82525050565b6000602082019050610961600083018461093d565b92915050565b600063ffffffff82169050919050565b61098081610967565b82525050565b600060208201905061099b6000830184610977565b92915050565b600060ff82169050919050565b6109b7816109a1565b82525050565b60006020820190506109d260008301846109ae565b92915050565b600061ffff82169050919050565b6109ef816109d8565b82525050565b6000602082019050610a0a60008301846109e6565b92915050565b600081600f0b9050919050565b610a2681610a10565b82525050565b6000602082019050610a416000830184610a1d565b92915050565b60008160000b9050919050565b610a5d81610a47565b82525050565b6000602082019050610a786000830184610a54565b92915050565b60008160010b9050919050565b610a9481610a7e565b82525050565b6000602082019050610aaf6000830184610a8b565b92915050565b60008160070b9050919050565b610acb81610ab5565b82525050565b6000602082019050610ae66000830184610ac2565b92915050565b60006fffffffffffffffffffffffffffffffff82169050919050565b610b1181610aec565b82525050565b6000602082019050610b2c6000830184610b08565b9291505056fea264697066735822122014d4a3ce04ae9ffc82f8e5286ef4086869ba7826912244c34dd5ff845ffb43c864736f6c63430008120033",
					"opcodes": "PUSH1 0x80 PUSH1 0x40 MSTORE PUSH32 0xFFFFFFFFFFFFFFFFFFFFFFFFFFFFFFFFFFFFFFFFFFFFFFFFFFFFFFFFFFFFFFFF PUSH1 0x5 SSTORE PUSH32 0xFFFFFFFFFFFFFFFFFFFFFFFFFFFFFFFFFFFFFFFFFFFFFFFFFFFFFFFFFFFFFF80 PUSH1 0x0 SIGNEXTEND PUSH1 0x6 SSTORE PUSH1 0x7F PUSH1 0x0 SIGNEXTEND PUSH1 0x7 SSTORE PUSH32 0xFFFFFFFFFFFFFFFFFFFFFFFFFFFFFFFFFFFFFFFFFFFFFFFFFFFFFFFFFFFF8000 PUSH1 0x1 SIGNEXTEND PUSH1 0x8 SSTORE PUSH2 0x7FFF PUSH1 0x1 SIGNEXTEND PUSH1 0x9 SSTORE PUSH32 0xFFFFFFFFFFFFFFFFFFFFFFFFFFFFFFFFFFFFFFFFFFFFFFFFFFFFFFFF80000000 PUSH1 0x3 SIGNEXTEND PUSH1 0xA SSTORE PUSH4 0x7FFFFFFF PUSH1 0x3 SIGNEXTEND PUSH1 0xB SSTORE PUSH32 0xFFFFFFFFFFFFFFFFFFFFFFFFFFFFFFFFFFFFFFFFFFFFFFFF8000000000000000 PUSH1 0x7 SIGNEXTEND PUSH1 0xC SSTORE PUSH8 0x7FFFFFFFFFFFFFFF PUSH1 0x7 SIGNEXTEND PUSH1 0xD SSTORE PUSH32 0xFFFFFFFFFFFFFFFFFFFFFFFFFFFFFFFF80000000000000000000000000000000 PUSH1 0xF SIGNEXTEND PUSH1 0xE SSTORE PUSH16 0x7FFFFFFFFFFFFFFFFFFFFFFFFFFFFFFF PUSH1 0xF SIGNEXTEND PUSH1 0xF SSTORE PUSH32 0x8000000000000000000000000000000000000000000000000000000000000000 PUSH1 0x10 SSTORE PUSH32 0x7FFFFFFFFFFFFFFFFFFFFFFFFFFFFFFFFFFFFFFFFFFFFFFFFFFFFFFFFFFFFFFF PUSH1 0x11 SSTORE PUSH1 0x0 PUSH1 0xFF AND PUSH1 0x12 SSTORE PUSH1 0xFF DUP1 AND PUSH1 0x13 SSTORE PUSH1 0x0 PUSH2 0xFFFF AND PUSH1 0x14 SSTORE PUSH2 0xFFFF DUP1 AND PUSH1 0x15 SSTORE PUSH1 0x0 PUSH4 0xFFFFFFFF AND PUSH1 0x16 SSTORE PUSH4 0xFFFFFFFF DUP1 AND PUSH1 0x17 SSTORE PUSH1 0x0 PUSH8 0xFFFFFFFFFFFFFFFF AND PUSH1 0x18 SSTORE PUSH8 0xFFFFFFFFFFFFFFFF DUP1 AND PUSH1 0x19 SSTORE PUSH1 0x0 PUSH16 0xFFFFFFFFFFFFFFFFFFFFFFFFFFFFFFFF AND PUSH1 0x1A SSTORE PUSH16 0xFFFFFFFFFFFFFFFFFFFFFFFFFFFFFFFF DUP1 AND PUSH1 0x1B SSTORE PUSH1 0x0 PUSH1 0x1C SSTORE PUSH32 0xFFFFFFFFFFFFFFFFFFFFFFFFFFFFFFFFFFFFFFFFFFFFFFFFFFFFFFFFFFFFFFFF PUSH1 0x1D SSTORE CALLVALUE DUP1 ISZERO PUSH2 0x229 JUMPI PUSH1 0x0 DUP1 REVERT JUMPDEST POP PUSH2 0xB68 DUP1 PUSH2 0x239 PUSH1 0x0 CODECOPY PUSH1 0x0 RETURN INVALID PUSH1 0x80 PUSH1 0x40 MSTORE CALLVALUE DUP1 ISZERO PUSH2 0x10 JUMPI PUSH1 0x0 DUP1 REVERT JUMPDEST POP PUSH1 0x4 CALLDATASIZE LT PUSH2 0x232 JUMPI PUSH1 0x0 CALLDATALOAD PUSH1 0xE0 SHR DUP1 PUSH4 0x93B027B4 GT PUSH2 0x130 JUMPI DUP1 PUSH4 0xBEAF6DB8 GT PUSH2 0xB8 JUMPI DUP1 PUSH4 0xDED7BF2E GT PUSH2 0x7C JUMPI DUP1 PUSH4 0xDED7BF2E EQ PUSH2 0x615 JUMPI DUP1 PUSH4 0xE267157B EQ PUSH2 0x633 JUMPI DUP1 PUSH4 0xE74BEB79 EQ PUSH2 0x651 JUMPI DUP1 PUSH4 0xF260CD4C EQ PUSH2 0x66F JUMPI DUP1 PUSH4 0xF614EB31 EQ PUSH2 0x68D JUMPI PUSH2 0x232 JUMP JUMPDEST DUP1 PUSH4 0xBEAF6DB8 EQ PUSH2 0x57F JUMPI DUP1 PUSH4 0xCF8BD4BA EQ PUSH2 0x59D JUMPI DUP1 PUSH4 0xD451E120 EQ PUSH2 0x5BB JUMPI DUP1 PUSH4 0xDBCE5E68 EQ PUSH2 0x5D9 JUMPI DUP1 PUSH4 0xDDD14C89 EQ PUSH2 0x5F7 JUMPI PUSH2 0x232 JUMP JUMPDEST DUP1 PUSH4 0xA631EB62 GT PUSH2 0xFF JUMPI DUP1 PUSH4 0xA631EB62 EQ PUSH2 0x4E9 JUMPI DUP1 PUSH4 0xA7DF2FEB EQ PUSH2 0x507 JUMPI DUP1 PUSH4 0xB1EC7CA6 EQ PUSH2 0x525 JUMPI DUP1 PUSH4 0xB9330829 EQ PUSH2 0x543 JUMPI DUP1 PUSH4 0xBDC18C4C EQ PUSH2 0x561 JUMPI PUSH2 0x232 JUMP JUMPDEST DUP1 PUSH4 0x93B027B4 EQ PUSH2 0x471 JUMPI DUP1 PUSH4 0x94827955 EQ PUSH2 0x48F JUMPI DUP1 PUSH4 0x9A574632 EQ PUSH2 0x4AD JUMPI DUP1 PUSH4 0xA02D51F7 EQ PUSH2 0x4CB JUMPI PUSH2 0x232 JUMP JUMPDEST DUP1 PUSH4 0x55677467 GT PUSH2 0x1BE JUMPI DUP1 PUSH4 0x7C1BD7C8 GT PUSH2 0x182 JUMPI DUP1 PUSH4 0x7C1BD7C8 EQ PUSH2 0x3DB JUMPI DUP1 PUSH4 0x85D350F1 EQ PUSH2 0x3F9 JUMPI DUP1 PUSH4 0x86E233F3 EQ PUSH2 0x417 JUMPI DUP1 PUSH4 0x8C5A007B EQ PUSH2 0x435 JUMPI DUP1 PUSH4 0x91312246 EQ PUSH2 0x453 JUMPI PUSH2 0x232 JUMP JUMPDEST DUP1 PUSH4 0x55677467 EQ PUSH2 0x345 JUMPI DUP1 PUSH4 0x5D0FA032 EQ PUSH2 0x363 JUMPI DUP1 PUSH4 0x6EBE7F5B EQ PUSH2 0x381 JUMPI DUP1 PUSH4 0x6FA025FA EQ PUSH2 0x39F JUMPI DUP1 PUSH4 0x719E9613 EQ PUSH2 0x3BD JUMPI PUSH2 0x232 JUMP JUMPDEST DUP1 PUSH4 0x1D87D574 GT PUSH2 0x205 JUMPI DUP1 PUSH4 0x1D87D574 EQ PUSH2 0x2AF JUMPI DUP1 PUSH4 0x24D02974 EQ PUSH2 0x2CD JUMPI DUP1 PUSH4 0x3550FB04 EQ PUSH2 0x2EB JUMPI DUP1 PUSH4 0x3814C856 EQ PUSH2 0x309 JUMPI DUP1 PUSH4 0x4DF7E3D0 EQ PUSH2 0x327 JUMPI PUSH2 0x232 JUMP JUMPDEST DUP1 PUSH4 0x11F6A807 EQ PUSH2 0x237 JUMPI DUP1 PUSH4 0x12D69389 EQ PUSH2 0x255 JUMPI DUP1 PUSH4 0x155F2F85 EQ PUSH2 0x273 JUMPI DUP1 PUSH4 0x16A0C5B5 EQ PUSH2 0x291 JUMPI JUMPDEST PUSH1 0x0 DUP1 REVERT JUMPDEST PUSH2 0x23F PUSH2 0x6AB JUMP JUMPDEST PUSH1 0x40 MLOAD PUSH2 0x24C SWAP2 SWAP1 PUSH2 0x857 JUMP JUMPDEST PUSH1 0x40 MLOAD DUP1 SWAP2 SUB SWAP1 RETURN JUMPDEST PUSH2 0x25D PUSH2 0x6C5 JUMP JUMPDEST PUSH1 0x40 MLOAD PUSH2 0x26A SWAP2 SWAP1 PUSH2 0x88B JUMP JUMPDEST PUSH1 0x40 MLOAD DUP1 SWAP2 SUB SWAP1 RETURN JUMPDEST PUSH2 0x27B PUSH2 0x6CB JUMP JUMPDEST PUSH1 0x40 MLOAD PUSH2 0x288 SWAP2 SWAP1 PUSH2 0x88B JUMP JUMPDEST PUSH1 0x40 MLOAD DUP1 SWAP2 SUB SWAP1 RETURN JUMPDEST PUSH2 0x299 PUSH2 0x6D1 JUMP JUMPDEST PUSH1 0x40 MLOAD PUSH2 0x2A6 SWAP2 SWAP1 PUSH2 0x88B JUMP JUMPDEST PUSH1 0x40 MLOAD DUP1 SWAP2 SUB SWAP1 RETURN JUMPDEST PUSH2 0x2B7 PUSH2 0x6D7 JUMP JUMPDEST PUSH1 0x40 MLOAD PUSH2 0x2C4 SWAP2 SWAP1 PUSH2 0x8BF JUMP JUMPDEST PUSH1 0x40 MLOAD DUP1 SWAP2 SUB SWAP1 RETURN JUMPDEST PUSH2 0x2D5 PUSH2 0x6DD JUMP JUMPDEST PUSH1 0x40 MLOAD PUSH2 0x2E2 SWAP2 SWAP1 PUSH2 0x88B JUMP JUMPDEST PUSH1 0x40 MLOAD DUP1 SWAP2 SUB SWAP1 RETURN JUMPDEST PUSH2 0x2F3 PUSH2 0x6E3 JUMP JUMPDEST PUSH1 0x40 MLOAD PUSH2 0x300 SWAP2 SWAP1 PUSH2 0x8BF JUMP JUMPDEST PUSH1 0x40 MLOAD DUP1 SWAP2 SUB SWAP1 RETURN JUMPDEST PUSH2 0x311 PUSH2 0x6E9 JUMP JUMPDEST PUSH1 0x40 MLOAD PUSH2 0x31E SWAP2 SWAP1 PUSH2 0x8BF JUMP JUMPDEST PUSH1 0x40 MLOAD DUP1 SWAP2 SUB SWAP1 RETURN JUMPDEST PUSH2 0x32F PUSH2 0x6EF JUMP JUMPDEST PUSH1 0x40 MLOAD PUSH2 0x33C SWAP2 SWAP1 PUSH2 0x915 JUMP JUMPDEST PUSH1 0x40 MLOAD DUP1 SWAP2 SUB SWAP1 RETURN JUMPDEST PUSH2 0x34D PUSH2 0x700 JUMP JUMPDEST PUSH1 0x40 MLOAD PUSH2 0x35A SWAP2 SWAP1 PUSH2 0x8BF JUMP JUMPDEST PUSH1 0x40 MLOAD DUP1 SWAP2 SUB SWAP1 RETURN JUMPDEST PUSH2 0x36B PUSH2 0x706 JUMP JUMPDEST PUSH1 0x40 MLOAD PUSH2 0x378 SWAP2 SWAP1 PUSH2 0x8BF JUMP JUMPDEST PUSH1 0x40 MLOAD DUP1 SWAP2 SUB SWAP1 RETURN JUMPDEST PUSH2 0x389 PUSH2 0x70C JUMP JUMPDEST PUSH1 0x40 MLOAD PUSH2 0x396 SWAP2 SWAP1 PUSH2 0x88B JUMP JUMPDEST PUSH1 0x40 MLOAD DUP1 SWAP2 SUB SWAP1 RETURN JUMPDEST PUSH2 0x3A7 PUSH2 0x712 JUMP JUMPDEST PUSH1 0x40 MLOAD PUSH2 0x3B4 SWAP2 SWAP1 PUSH2 0x94C JUMP JUMPDEST PUSH1 0x40 MLOAD DUP1 SWAP2 SUB SWAP1 RETURN JUMPDEST PUSH2 0x3C5 PUSH2 0x725 JUMP JUMPDEST PUSH1 0x40 MLOAD PUSH2 0x3D2 SWAP2 SWAP1 PUSH2 0x88B JUMP JUMPDEST PUSH1 0x40 MLOAD DUP1 SWAP2 SUB SWAP1 RETURN JUMPDEST PUSH2 0x3E3 PUSH2 0x72B JUMP JUMPDEST PUSH1 0x40 MLOAD PUSH2 0x3F0 SWAP2 SWAP1 PUSH2 0x8BF JUMP JUMPDEST PUSH1 0x40 MLOAD DUP1 SWAP2 SUB SWAP1 RETURN JUMPDEST PUSH2 0x401 PUSH2 0x731 JUMP JUMPDEST PUSH1 0x40 MLOAD PUSH2 0x40E SWAP2 SWAP1 PUSH2 0x88B JUMP JUMPDEST PUSH1 0x40 MLOAD DUP1 SWAP2 SUB SWAP1 RETURN JUMPDEST PUSH2 0x41F PUSH2 0x737 JUMP JUMPDEST PUSH1 0x40 MLOAD PUSH2 0x42C SWAP2 SWAP1 PUSH2 0x88B JUMP JUMPDEST PUSH1 0x40 MLOAD DUP1 SWAP2 SUB SWAP1 RETURN JUMPDEST PUSH2 0x43D PUSH2 0x73D JUMP JUMPDEST PUSH1 0x40 MLOAD PUSH2 0x44A SWAP2 SWAP1 PUSH2 0x986 JUMP JUMPDEST PUSH1 0x40 MLOAD DUP1 SWAP2 SUB SWAP1 RETURN JUMPDEST PUSH2 0x45B PUSH2 0x751 JUMP JUMPDEST PUSH1 0x40 MLOAD PUSH2 0x468 SWAP2 SWAP1 PUSH2 0x88B JUMP JUMPDEST PUSH1 0x40 MLOAD DUP1 SWAP2 SUB SWAP1 RETURN JUMPDEST PUSH2 0x479 PUSH2 0x757 JUMP JUMPDEST PUSH1 0x40 MLOAD PUSH2 0x486 SWAP2 SWAP1 PUSH2 0x8BF JUMP JUMPDEST PUSH1 0x40 MLOAD DUP1 SWAP2 SUB SWAP1 RETURN JUMPDEST PUSH2 0x497 PUSH2 0x75D JUMP JUMPDEST PUSH1 0x40 MLOAD PUSH2 0x4A4 SWAP2 SWAP1 PUSH2 0x8BF JUMP JUMPDEST PUSH1 0x40 MLOAD DUP1 SWAP2 SUB SWAP1 RETURN JUMPDEST PUSH2 0x4B5 PUSH2 0x763 JUMP JUMPDEST PUSH1 0x40 MLOAD PUSH2 0x4C2 SWAP2 SWAP1 PUSH2 0x8BF JUMP JUMPDEST PUSH1 0x40 MLOAD DUP1 SWAP2 SUB SWAP1 RETURN JUMPDEST PUSH2 0x4D3 PUSH2 0x769 JUMP JUMPDEST PUSH1 0x40 MLOAD PUSH2 0x4E0 SWAP2 SWAP1 PUSH2 0x9BD JUMP JUMPDEST PUSH1 0x40 MLOAD DUP1 SWAP2 SUB SWAP1 RETURN JUMPDEST PUSH2 0x4F1 PUSH2 0x77C JUMP JUMPDEST PUSH1 0x40 MLOAD PUSH2 0x4FE SWAP2 SWAP1 PUSH2 0x8BF JUMP JUMPDEST PUSH1 0x40 MLOAD DUP1 SWAP2 SUB SWAP1 RETURN JUMPDEST PUSH2 0x50F PUSH2 0x782 JUMP JUMPDEST PUSH1 0x40 MLOAD PUSH2 0x51C SWAP2 SWAP1 PUSH2 0x8BF JUMP JUMPDEST PUSH1 0x40 MLOAD DUP1 SWAP2 SUB SWAP1 RETURN JUMPDEST PUSH2 0x52D PUSH2 0x788 JUMP JUMPDEST PUSH1 0x40 MLOAD PUSH2 0x53A SWAP2 SWAP1 PUSH2 0x9F5 JUMP JUMPDEST PUSH1 0x40 MLOAD DUP1 SWAP2 SUB SWAP1 RETURN JUMPDEST PUSH2 0x54B PUSH2 0x79C JUMP JUMPDEST PUSH1 0x40 MLOAD PUSH2 0x558 SWAP2 SWAP1 PUSH2 0x88B JUMP JUMPDEST PUSH1 0x40 MLOAD DUP1 SWAP2 SUB SWAP1 RETURN JUMPDEST PUSH2 0x569 PUSH2 0x7A2 JUMP JUMPDEST PUSH1 0x40 MLOAD PUSH2 0x576 SWAP2 SWAP1 PUSH2 0xA2C JUMP JUMPDEST PUSH1 0x40 MLOAD DUP1 SWAP2 SUB SWAP1 RETURN JUMPDEST PUSH2 0x587 PUSH2 0x7B5 JUMP JUMPDEST PUSH1 0x40 MLOAD PUSH2 0x594 SWAP2 SWAP1 PUSH2 0xA63 JUMP JUMPDEST PUSH1 0x40 MLOAD DUP1 SWAP2 SUB SWAP1 RETURN JUMPDEST PUSH2 0x5A5 PUSH2 0x7C8 JUMP JUMPDEST PUSH1 0x40 MLOAD PUSH2 0x5B2 SWAP2 SWAP1 PUSH2 0x88B JUMP JUMPDEST PUSH1 0x40 MLOAD DUP1 SWAP2 SUB SWAP1 RETURN JUMPDEST PUSH2 0x5C3 PUSH2 0x7CE JUMP JUMPDEST PUSH1 0x40 MLOAD PUSH2 0x5D0 SWAP2 SWAP1 PUSH2 0xA9A JUMP JUMPDEST PUSH1 0x40 MLOAD DUP1 SWAP2 SUB SWAP1 RETURN JUMPDEST PUSH2 0x5E1 PUSH2 0x7E1 JUMP JUMPDEST PUSH1 0x40 MLOAD PUSH2 0x5EE SWAP2 SWAP1 PUSH2 0x8BF JUMP JUMPDEST PUSH1 0x40 MLOAD DUP1 SWAP2 SUB SWAP1 RETURN JUMPDEST PUSH2 0x5FF PUSH2 0x7E7 JUMP JUMPDEST PUSH1 0x40 MLOAD PUSH2 0x60C SWAP2 SWAP1 PUSH2 0xAD1 JUMP JUMPDEST PUSH1 0x40 MLOAD DUP1 SWAP2 SUB SWAP1 RETURN JUMPDEST PUSH2 0x61D PUSH2 0x7FA JUMP JUMPDEST PUSH1 0x40 MLOAD PUSH2 0x62A SWAP2 SWAP1 PUSH2 0x8BF JUMP JUMPDEST PUSH1 0x40 MLOAD DUP1 SWAP2 SUB SWAP1 RETURN JUMPDEST PUSH2 0x63B PUSH2 0x800 JUMP JUMPDEST PUSH1 0x40 MLOAD PUSH2 0x648 SWAP2 SWAP1 PUSH2 0x88B JUMP JUMPDEST PUSH1 0x40 MLOAD DUP1 SWAP2 SUB SWAP1 RETURN JUMPDEST PUSH2 0x659 PUSH2 0x806 JUMP JUMPDEST PUSH1 0x40 MLOAD PUSH2 0x666 SWAP2 SWAP1 PUSH2 0xB17 JUMP JUMPDEST PUSH1 0x40 MLOAD DUP1 SWAP2 SUB SWAP1 RETURN JUMPDEST PUSH2 0x677 PUSH2 0x828 JUMP JUMPDEST PUSH1 0x40 MLOAD PUSH2 0x684 SWAP2 SWAP1 PUSH2 0x88B JUMP JUMPDEST PUSH1 0x40 MLOAD DUP1 SWAP2 SUB SWAP1 RETURN JUMPDEST PUSH2 0x695 PUSH2 0x82E JUMP JUMPDEST PUSH1 0x40 MLOAD PUSH2 0x6A2 SWAP2 SWAP1 PUSH2 0x88B JUMP JUMPDEST PUSH1 0x40 MLOAD DUP1 SWAP2 SUB SWAP1 RETURN JUMPDEST PUSH1 0x3 PUSH1 0x7 SWAP1 SLOAD SWAP1 PUSH2 0x100 EXP SWAP1 DIV PUSH8 0xFFFFFFFFFFFFFFFF AND DUP2 JUMP JUMPDEST PUSH1 0x17 SLOAD DUP2 JUMP JUMPDEST PUSH1 0x18 SLOAD DUP2 JUMP JUMPDEST PUSH1 0x5 SLOAD DUP2 JUMP JUMPDEST PUSH1 0xD SLOAD DUP2 JUMP JUMPDEST PUSH1 0x13 SLOAD DUP2 JUMP JUMPDEST PUSH1 0xB SLOAD DUP2 JUMP JUMPDEST PUSH1 0x7 SLOAD DUP2 JUMP JUMPDEST PUSH1 0x0 DUP1 SLOAD SWAP1 PUSH2 0x100 EXP SWAP1 DIV PUSH1 0x80 SHL DUP2 JUMP JUMPDEST PUSH1 0xF SLOAD DUP2 JUMP JUMPDEST PUSH1 0xA SLOAD DUP2 JUMP JUMPDEST PUSH1 0x19 SLOAD DUP2 JUMP JUMPDEST PUSH1 0x0 PUSH1 0x13 SWAP1 SLOAD SWAP1 PUSH2 0x100 EXP SWAP1 DIV PUSH1 0x3 SIGNEXTEND DUP2 JUMP JUMPDEST PUSH1 0x15 SLOAD DUP2 JUMP JUMPDEST PUSH1 0x10 SLOAD DUP2 JUMP JUMPDEST PUSH1 0x12 SLOAD DUP2 JUMP JUMPDEST PUSH1 0x1C SLOAD DUP2 JUMP JUMPDEST PUSH1 0x3 DUP1 SLOAD SWAP1 PUSH2 0x100 EXP SWAP1 DIV PUSH4 0xFFFFFFFF AND DUP2 JUMP JUMPDEST PUSH1 0x16 SLOAD DUP2 JUMP JUMPDEST PUSH1 0x11 SLOAD DUP2 JUMP JUMPDEST PUSH1 0xC SLOAD DUP2 JUMP JUMPDEST PUSH1 0x2 SLOAD DUP2 JUMP JUMPDEST PUSH1 0x3 PUSH1 0x0 SWAP1 SLOAD SWAP1 PUSH2 0x100 EXP SWAP1 DIV PUSH1 0xFF AND DUP2 JUMP JUMPDEST PUSH1 0x6 SLOAD DUP2 JUMP JUMPDEST PUSH1 0x9 SLOAD DUP2 JUMP JUMPDEST PUSH1 0x3 PUSH1 0x1 SWAP1 SLOAD SWAP1 PUSH2 0x100 EXP SWAP1 DIV PUSH2 0xFFFF AND DUP2 JUMP JUMPDEST PUSH1 0x1D SLOAD DUP2 JUMP JUMPDEST PUSH1 0x1 PUSH1 0x0 SWAP1 SLOAD SWAP1 PUSH2 0x100 EXP SWAP1 DIV PUSH1 0xF SIGNEXTEND DUP2 JUMP JUMPDEST PUSH1 0x0 PUSH1 0x10 SWAP1 SLOAD SWAP1 PUSH2 0x100 EXP SWAP1 DIV PUSH1 0x0 SIGNEXTEND DUP2 JUMP JUMPDEST PUSH1 0x1B SLOAD DUP2 JUMP JUMPDEST PUSH1 0x0 PUSH1 0x11 SWAP1 SLOAD SWAP1 PUSH2 0x100 EXP SWAP1 DIV PUSH1 0x1 SIGNEXTEND DUP2 JUMP JUMPDEST PUSH1 0x8 SLOAD DUP2 JUMP JUMPDEST PUSH1 0x0 PUSH1 0x17 SWAP1 SLOAD SWAP1 PUSH2 0x100 EXP SWAP1 DIV PUSH1 0x7 SIGNEXTEND DUP2 JUMP JUMPDEST PUSH1 0xE SLOAD DUP2 JUMP JUMPDEST PUSH1 0x1A SLOAD DUP2 JUMP JUMPDEST PUSH1 0x3 PUSH1 0xF SWAP1 SLOAD SWAP1 PUSH2 0x100 EXP SWAP1 DIV PUSH16 0xFFFFFFFFFFFFFFFFFFFFFFFFFFFFFFFF AND DUP2 JUMP JUMPDEST PUSH1 0x14 SLOAD DUP2 JUMP JUMPDEST PUSH1 0x4 SLOAD DUP2 JUMP JUMPDEST PUSH1 0x0 PUSH8 0xFFFFFFFFFFFFFFFF DUP3 AND SWAP1 POP SWAP2 SWAP1 POP JUMP JUMPDEST PUSH2 0x851 DUP2 PUSH2 0x834 JUMP JUMPDEST DUP3 MSTORE POP POP JUMP JUMPDEST PUSH1 0x0 PUSH1 0x20 DUP3 ADD SWAP1 POP PUSH2 0x86C PUSH1 0x0 DUP4 ADD DUP5 PUSH2 0x848 JUMP JUMPDEST SWAP3 SWAP2 POP POP JUMP JUMPDEST PUSH1 0x0 DUP2 SWAP1 POP SWAP2 SWAP1 POP JUMP JUMPDEST PUSH2 0x885 DUP2 PUSH2 0x872 JUMP JUMPDEST DUP3 MSTORE POP POP JUMP JUMPDEST PUSH1 0x0 PUSH1 0x20 DUP3 ADD SWAP1 POP PUSH2 0x8A0 PUSH1 0x0 DUP4 ADD DUP5 PUSH2 0x87C JUMP JUMPDEST SWAP3 SWAP2 POP POP JUMP JUMPDEST PUSH1 0x0 DUP2 SWAP1 POP SWAP2 SWAP1 POP JUMP JUMPDEST PUSH2 0x8B9 DUP2 PUSH2 0x8A6 JUMP JUMPDEST DUP3 MSTORE POP POP JUMP JUMPDEST PUSH1 0x0 PUSH1 0x20 DUP3 ADD SWAP1 POP PUSH2 0x8D4 PUSH1 0x0 DUP4 ADD DUP5 PUSH2 0x8B0 JUMP JUMPDEST SWAP3 SWAP2 POP POP JUMP JUMPDEST PUSH1 0x0 PUSH32 0xFFFFFFFFFFFFFFFFFFFFFFFFFFFFFFFF00000000000000000000000000000000 DUP3 AND SWAP1 POP SWAP2 SWAP1 POP JUMP JUMPDEST PUSH2 0x90F DUP2 PUSH2 0x8DA JUMP JUMPDEST DUP3 MSTORE POP POP JUMP JUMPDEST PUSH1 0x0 PUSH1 0x20 DUP3 ADD SWAP1 POP PUSH2 0x92A PUSH1 0x0 DUP4 ADD DUP5 PUSH2 0x906 JUMP JUMPDEST SWAP3 SWAP2 POP POP JUMP JUMPDEST PUSH1 0x0 DUP2 PUSH1 0x3 SIGNEXTEND SWAP1 POP SWAP2 SWAP1 POP JUMP JUMPDEST PUSH2 0x946 DUP2 PUSH2 0x930 JUMP JUMPDEST DUP3 MSTORE POP POP JUMP JUMPDEST PUSH1 0x0 PUSH1 0x20 DUP3 ADD SWAP1 POP PUSH2 0x961 PUSH1 0x0 DUP4 ADD DUP5 PUSH2 0x93D JUMP JUMPDEST SWAP3 SWAP2 POP POP JUMP JUMPDEST PUSH1 0x0 PUSH4 0xFFFFFFFF DUP3 AND SWAP1 POP SWAP2 SWAP1 POP JUMP JUMPDEST PUSH2 0x980 DUP2 PUSH2 0x967 JUMP JUMPDEST DUP3 MSTORE POP POP JUMP JUMPDEST PUSH1 0x0 PUSH1 0x20 DUP3 ADD SWAP1 POP PUSH2 0x99B PUSH1 0x0 DUP4 ADD DUP5 PUSH2 0x977 JUMP JUMPDEST SWAP3 SWAP2 POP POP JUMP JUMPDEST PUSH1 0x0 PUSH1 0xFF DUP3 AND SWAP1 POP SWAP2 SWAP1 POP JUMP JUMPDEST PUSH2 0x9B7 DUP2 PUSH2 0x9A1 JUMP JUMPDEST DUP3 MSTORE POP POP JUMP JUMPDEST PUSH1 0x0 PUSH1 0x20 DUP3 ADD SWAP1 POP PUSH2 0x9D2 PUSH1 0x0 DUP4 ADD DUP5 PUSH2 0x9AE JUMP JUMPDEST SWAP3 SWAP2 POP POP JUMP JUMPDEST PUSH1 0x0 PUSH2 0xFFFF DUP3 AND SWAP1 POP SWAP2 SWAP1 POP JUMP JUMPDEST PUSH2 0x9EF DUP2 PUSH2 0x9D8 JUMP JUMPDEST DUP3 MSTORE POP POP JUMP JUMPDEST PUSH1 0x0 PUSH1 0x20 DUP3 ADD SWAP1 POP PUSH2 0xA0A PUSH1 0x0 DUP4 ADD DUP5 PUSH2 0x9E6 JUMP JUMPDEST SWAP3 SWAP2 POP POP JUMP JUMPDEST PUSH1 0x0 DUP2 PUSH1 0xF SIGNEXTEND SWAP1 POP SWAP2 SWAP1 POP JUMP JUMPDEST PUSH2 0xA26 DUP2 PUSH2 0xA10 JUMP JUMPDEST DUP3 MSTORE POP POP JUMP JUMPDEST PUSH1 0x0 PUSH1 0x20 DUP3 ADD SWAP1 POP PUSH2 0xA41 PUSH1 0x0 DUP4 ADD DUP5 PUSH2 0xA1D JUMP JUMPDEST SWAP3 SWAP2 POP POP JUMP JUMPDEST PUSH1 0x0 DUP2 PUSH1 0x0 SIGNEXTEND SWAP1 POP SWAP2 SWAP1 POP JUMP JUMPDEST PUSH2 0xA5D DUP2 PUSH2 0xA47 JUMP JUMPDEST DUP3 MSTORE POP POP JUMP JUMPDEST PUSH1 0x0 PUSH1 0x20 DUP3 ADD SWAP1 POP PUSH2 0xA78 PUSH1 0x0 DUP4 ADD DUP5 PUSH2 0xA54 JUMP JUMPDEST SWAP3 SWAP2 POP POP JUMP JUMPDEST PUSH1 0x0 DUP2 PUSH1 0x1 SIGNEXTEND SWAP1 POP SWAP2 SWAP1 POP JUMP JUMPDEST PUSH2 0xA94 DUP2 PUSH2 0xA7E JUMP JUMPDEST DUP3 MSTORE POP POP JUMP JUMPDEST PUSH1 0x0 PUSH1 0x20 DUP3 ADD SWAP1 POP PUSH2 0xAAF PUSH1 0x0 DUP4 ADD DUP5 PUSH2 0xA8B JUMP JUMPDEST SWAP3 SWAP2 POP POP JUMP JUMPDEST PUSH1 0x0 DUP2 PUSH1 0x7 SIGNEXTEND SWAP1 POP SWAP2 SWAP1 POP JUMP JUMPDEST PUSH2 0xACB DUP2 PUSH2 0xAB5 JUMP JUMPDEST DUP3 MSTORE POP POP JUMP JUMPDEST PUSH1 0x0 PUSH1 0x20 DUP3 ADD SWAP1 POP PUSH2 0xAE6 PUSH1 0x0 DUP4 ADD DUP5 PUSH2 0xAC2 JUMP JUMPDEST SWAP3 SWAP2 POP POP JUMP JUMPDEST PUSH1 0x0 PUSH16 0xFFFFFFFFFFFFFFFFFFFFFFFFFFFFFFFF DUP3 AND SWAP1 POP SWAP2 SWAP1 POP JUMP JUMPDEST PUSH2 0xB11 DUP2 PUSH2 0xAEC JUMP JUMPDEST DUP3 MSTORE POP POP JUMP JUMPDEST PUSH1 0x0 PUSH1 0x20 DUP3 ADD SWAP1 POP PUSH2 0xB2C PUSH1 0x0 DUP4 ADD DUP5 PUSH2 0xB08 JUMP JUMPDEST SWAP3 SWAP2 POP POP JUMP INVALID LOG2 PUSH5 0x6970667358 0x22 SLT KECCAK256 EQ 0xD4 LOG3 0xCE DIV 0xAE SWAP16 0xFC DUP3 0xF8 0xE5 0x28 PUSH15 0xF4086869BA7826912244C34DD5FF84 0x5F 0xFB NUMBER 0xC8 PUSH5 0x736F6C6343 STOP ADDMOD SLT STOP CALLER "
				},
				"gasEstimates": {
					"creation": {
						"codeDepositCost": "584000",
						"executionCost": "450809",
						"totalCost": "1034809"
					},
					"external": {
						"b()": "2602",
						"int128Var()": "2608",
						"int16Var()": "2614",
						"int256Var()": "2519",
						"int32Var()": "2637",
						"int64Var()": "2658",
						"int8Var()": "2570",
						"maxInt128()": "2475",
						"maxInt16()": "2496",
						"maxInt256()": "2475",
						"maxInt32()": "2519",
						"maxInt64()": "2475",
						"maxInt8()": "2541",
						"maxUint()": "2542",
						"maxUint128()": "2496",
						"maxUint16()": "2563",
						"maxUint256()": "2540",
						"maxUint32()": "2498",
						"maxUint64()": "2519",
						"maxUint8()": "2497",
						"minInt128()": "2473",
						"minInt16()": "2540",
						"minInt256()": "2474",
						"minInt32()": "2497",
						"minInt64()": "2497",
						"minInt8()": "2474",
						"minUint128()": "2495",
						"minUint16()": "2539",
						"minUint256()": "2518",
						"minUint32()": "2562",
						"minUint64()": "2520",
						"minUint8()": "2496",
						"uint128Var()": "2609",
						"uint16Var()": "2610",
						"uint256Var()": "2561",
						"uint32Var()": "2629",
						"uint64Var()": "2568",
						"uint8Var()": "2583"
					}
				},
				"methodIdentifiers": {
					"b()": "4df7e3d0",
					"int128Var()": "bdc18c4c",
					"int16Var()": "d451e120",
					"int256Var()": "9a574632",
					"int32Var()": "6fa025fa",
					"int64Var()": "ddd14c89",
					"int8Var()": "beaf6db8",
					"maxInt128()": "55677467",
					"maxInt16()": "a7df2feb",
					"maxInt256()": "93b027b4",
					"maxInt32()": "3550fb04",
					"maxInt64()": "1d87d574",
					"maxInt8()": "3814c856",
					"maxUint()": "16a0c5b5",
					"maxUint128()": "cf8bd4ba",
					"maxUint16()": "719e9613",
					"maxUint256()": "b9330829",
					"maxUint32()": "12d69389",
					"maxUint64()": "6ebe7f5b",
					"maxUint8()": "24d02974",
					"minInt128()": "ded7bf2e",
					"minInt16()": "dbce5e68",
					"minInt256()": "7c1bd7c8",
					"minInt32()": "5d0fa032",
					"minInt64()": "94827955",
					"minInt8()": "a631eb62",
					"minUint128()": "e267157b",
					"minUint16()": "f260cd4c",
					"minUint256()": "86e233f3",
					"minUint32()": "91312246",
					"minUint64()": "155f2f85",
					"minUint8()": "85d350f1",
					"uint128Var()": "e74beb79",
					"uint16Var()": "b1ec7ca6",
					"uint256Var()": "f614eb31",
					"uint32Var()": "8c5a007b",
					"uint64Var()": "11f6a807",
					"uint8Var()": "a02d51f7"
				}
			},
			"storageLayout": {
				"storage": [
					{
						"astId": 3,
						"contract": "lib/integers.sol:IntegerVariations",
						"label": "b",
						"offset": 0,
						"slot": "0",
						"type": "t_bytes16"
					},
					{
						"astId": 5,
						"contract": "lib/integers.sol:IntegerVariations",
						"label": "int8Var",
						"offset": 16,
						"slot": "0",
						"type": "t_int8"
					},
					{
						"astId": 7,
						"contract": "lib/integers.sol:IntegerVariations",
						"label": "int16Var",
						"offset": 17,
						"slot": "0",
						"type": "t_int16"
					},
					{
						"astId": 9,
						"contract": "lib/integers.sol:IntegerVariations",
						"label": "int32Var",
						"offset": 19,
						"slot": "0",
						"type": "t_int32"
					},
					{
						"astId": 11,
						"contract": "lib/integers.sol:IntegerVariations",
						"label": "int64Var",
						"offset": 23,
						"slot": "0",
						"type": "t_int64"
					},
					{
						"astId": 13,
						"contract": "lib/integers.sol:IntegerVariations",
						"label": "int128Var",
						"offset": 0,
						"slot": "1",
						"type": "t_int128"
					},
					{
						"astId": 15,
						"contract": "lib/integers.sol:IntegerVariations",
						"label": "int256Var",
						"offset": 0,
						"slot": "2",
						"type": "t_int256"
					},
					{
						"astId": 17,
						"contract": "lib/integers.sol:IntegerVariations",
						"label": "uint8Var",
						"offset": 0,
						"slot": "3",
						"type": "t_uint8"
					},
					{
						"astId": 19,
						"contract": "lib/integers.sol:IntegerVariations",
						"label": "uint16Var",
						"offset": 1,
						"slot": "3",
						"type": "t_uint16"
					},
					{
						"astId": 21,
						"contract": "lib/integers.sol:IntegerVariations",
						"label": "uint32Var",
						"offset": 3,
						"slot": "3",
						"type": "t_uint32"
					},
					{
						"astId": 23,
						"contract": "lib/integers.sol:IntegerVariations",
						"label": "uint64Var",
						"offset": 7,
						"slot": "3",
						"type": "t_uint64"
					},
					{
						"astId": 25,
						"contract": "lib/integers.sol:IntegerVariations",
						"label": "uint128Var",
						"offset": 15,
						"slot": "3",
						"type": "t_uint128"
					},
					{
						"astId": 27,
						"contract": "lib/integers.sol:IntegerVariations",
						"label": "uint256Var",
						"offset": 0,
						"slot": "4",
						"type": "t_uint256"
					},
					{
						"astId": 34,
						"contract": "lib/integers.sol:IntegerVariations",
						"label": "maxUint",
						"offset": 0,
						"slot": "5",
						"type": "t_uint256"
					},
					{
						"astId": 41,
						"contract": "lib/integers.sol:IntegerVariations",
						"label": "minInt8",
						"offset": 0,
						"slot": "6",
						"type": "t_int256"
					},
					{
						"astId": 48,
						"contract": "lib/integers.sol:IntegerVariations",
						"label": "maxInt8",
						"offset": 0,
						"slot": "7",
						"type": "t_int256"
					},
					{
						"astId": 55,
						"contract": "lib/integers.sol:IntegerVariations",
						"label": "minInt16",
						"offset": 0,
						"slot": "8",
						"type": "t_int256"
					},
					{
						"astId": 62,
						"contract": "lib/integers.sol:IntegerVariations",
						"label": "maxInt16",
						"offset": 0,
						"slot": "9",
						"type": "t_int256"
					},
					{
						"astId": 69,
						"contract": "lib/integers.sol:IntegerVariations",
						"label": "minInt32",
						"offset": 0,
						"slot": "10",
						"type": "t_int256"
					},
					{
						"astId": 76,
						"contract": "lib/integers.sol:IntegerVariations",
						"label": "maxInt32",
						"offset": 0,
						"slot": "11",
						"type": "t_int256"
					},
					{
						"astId": 83,
						"contract": "lib/integers.sol:IntegerVariations",
						"label": "minInt64",
						"offset": 0,
						"slot": "12",
						"type": "t_int256"
					},
					{
						"astId": 90,
						"contract": "lib/integers.sol:IntegerVariations",
						"label": "maxInt64",
						"offset": 0,
						"slot": "13",
						"type": "t_int256"
					},
					{
						"astId": 97,
						"contract": "lib/integers.sol:IntegerVariations",
						"label": "minInt128",
						"offset": 0,
						"slot": "14",
						"type": "t_int256"
					},
					{
						"astId": 104,
						"contract": "lib/integers.sol:IntegerVariations",
						"label": "maxInt128",
						"offset": 0,
						"slot": "15",
						"type": "t_int256"
					},
					{
						"astId": 111,
						"contract": "lib/integers.sol:IntegerVariations",
						"label": "minInt256",
						"offset": 0,
						"slot": "16",
						"type": "t_int256"
					},
					{
						"astId": 118,
						"contract": "lib/integers.sol:IntegerVariations",
						"label": "maxInt256",
						"offset": 0,
						"slot": "17",
						"type": "t_int256"
					},
					{
						"astId": 125,
						"contract": "lib/integers.sol:IntegerVariations",
						"label": "minUint8",
						"offset": 0,
						"slot": "18",
						"type": "t_uint256"
					},
					{
						"astId": 132,
						"contract": "lib/integers.sol:IntegerVariations",
						"label": "maxUint8",
						"offset": 0,
						"slot": "19",
						"type": "t_uint256"
					},
					{
						"astId": 139,
						"contract": "lib/integers.sol:IntegerVariations",
						"label": "minUint16",
						"offset": 0,
						"slot": "20",
						"type": "t_uint256"
					},
					{
						"astId": 146,
						"contract": "lib/integers.sol:IntegerVariations",
						"label": "maxUint16",
						"offset": 0,
						"slot": "21",
						"type": "t_uint256"
					},
					{
						"astId": 153,
						"contract": "lib/integers.sol:IntegerVariations",
						"label": "minUint32",
						"offset": 0,
						"slot": "22",
						"type": "t_uint256"
					},
					{
						"astId": 160,
						"contract": "lib/integers.sol:IntegerVariations",
						"label": "maxUint32",
						"offset": 0,
						"slot": "23",
						"type": "t_uint256"
					},
					{
						"astId": 167,
						"contract": "lib/integers.sol:IntegerVariations",
						"label": "minUint64",
						"offset": 0,
						"slot": "24",
						"type": "t_uint256"
					},
					{
						"astId": 174,
						"contract": "lib/integers.sol:IntegerVariations",
						"label": "maxUint64",
						"offset": 0,
						"slot": "25",
						"type": "t_uint256"
					},
					{
						"astId": 181,
						"contract": "lib/integers.sol:IntegerVariations",
						"label": "minUint128",
						"offset": 0,
						"slot": "26",
						"type": "t_uint256"
					},
					{
						"astId": 188,
						"contract": "lib/integers.sol:IntegerVariations",
						"label": "maxUint128",
						"offset": 0,
						"slot": "27",
						"type": "t_uint256"
					},
					{
						"astId": 195,
						"contract": "lib/integers.sol:IntegerVariations",
						"label": "minUint256",
						"offset": 0,
						"slot": "28",
						"type": "t_uint256"
					},
					{
						"astId": 202,
						"contract": "lib/integers.sol:IntegerVariations",
						"label": "maxUint256",
						"offset": 0,
						"slot": "29",
						"type": "t_uint256"
					}
				],
				"types": {
					"t_bytes16": {
						"encoding": "inplace",
						"label": "bytes16",
						"numberOfBytes": "16"
					},
					"t_int128": {
						"encoding": "inplace",
						"label": "int128",
						"numberOfBytes": "16"
					},
					"t_int16": {
						"encoding": "inplace",
						"label": "int16",
						"numberOfBytes": "2"
					},
					"t_int256": {
						"encoding": "inplace",
						"label": "int256",
						"numberOfBytes": "32"
					},
					"t_int32": {
						"encoding": "inplace",
						"label": "int32",
						"numberOfBytes": "4"
					},
					"t_int64": {
						"encoding": "inplace",
						"label": "int64",
						"numberOfBytes": "8"
					},
					"t_int8": {
						"encoding": "inplace",
						"label": "int8",
						"numberOfBytes": "1"
					},
					"t_uint128": {
						"encoding": "inplace",
						"label": "uint128",
						"numberOfBytes": "16"
					},
					"t_uint16": {
						"encoding": "inplace",
						"label": "uint16",
						"numberOfBytes": "2"
					},
					"t_uint256": {
						"encoding": "inplace",
						"label": "uint256",
						"numberOfBytes": "32"
					},
					"t_uint32": {
						"encoding": "inplace",
						"label": "uint32",
						"numberOfBytes": "4"
					},
					"t_uint64": {
						"encoding": "inplace",
						"label": "uint64",
						"numberOfBytes": "8"
					},
					"t_uint8": {
						"encoding": "inplace",
						"label": "uint8",
						"numberOfBytes": "1"
					}
				}
			},
			"userdoc": {
				"kind": "user",
				"methods": {},
				"version": 1
			}
		}
	}
}