{
	"labs/01-8-23/01 observeAndRun.sol": {
		"Enum": {
			"abi": [
				{
					"inputs": [],
					"name": "Fail",
					"outputs": [],
					"stateMutability": "nonpayable",
					"type": "function"
				},
				{
					"inputs": [],
					"name": "Scholarship",
					"outputs": [],
					"stateMutability": "nonpayable",
					"type": "function"
				},
				{
					"inputs": [],
					"name": "e1",
					"outputs": [
						{
							"internalType": "enum Enum.Exam",
							"name": "",
							"type": "uint8"
						}
					],
					"stateMutability": "view",
					"type": "function"
				},
				{
					"inputs": [],
					"name": "e2",
					"outputs": [
						{
							"internalType": "enum Enum.Exam",
							"name": "",
							"type": "uint8"
						}
					],
					"stateMutability": "view",
					"type": "function"
				},
				{
					"inputs": [],
					"name": "e3",
					"outputs": [
						{
							"internalType": "enum Enum.Exam",
							"name": "",
							"type": "uint8"
						}
					],
					"stateMutability": "view",
					"type": "function"
				},
				{
					"inputs": [],
					"name": "iDelete",
					"outputs": [],
					"stateMutability": "nonpayable",
					"type": "function"
				}
			],
			"devdoc": {
				"kind": "dev",
				"methods": {},
				"version": 1
			},
			"evm": {
				"assembly": "    /* \"labs/01-8-23/01 observeAndRun.sol\":58:783  contract Enum{... */\n  mstore(0x40, 0x80)\n    /* \"labs/01-8-23/01 observeAndRun.sol\":256:272  Exam.Scholarship */\n  0x03\n    /* \"labs/01-8-23/01 observeAndRun.sol\":239:272  Exam public e2 = Exam.Scholarship */\n  0x00\n  exp(0x0100, 0x01)\n  dup2\n  sload\n  dup2\n  0xff\n  mul\n  not\n  and\n  swap1\n  dup4\n  0x03\n  dup2\n  gt\n  iszero\n  tag_1\n  jumpi\n  tag_2\n  tag_3\n  jump\t// in\ntag_2:\ntag_1:\n  mul\n  or\n  swap1\n  sstore\n  pop\n    /* \"labs/01-8-23/01 observeAndRun.sol\":301:302  2 */\n  0x02\n    /* \"labs/01-8-23/01 observeAndRun.sol\":296:303  Exam(2) */\n  0x03\n  dup2\n  gt\n  iszero\n  tag_4\n  jumpi\n  tag_5\n  tag_3\n  jump\t// in\ntag_5:\ntag_4:\n    /* \"labs/01-8-23/01 observeAndRun.sol\":279:303  Exam public e3 = Exam(2) */\n  0x00\n  exp(0x0100, 0x02)\n  dup2\n  sload\n  dup2\n  0xff\n  mul\n  not\n  and\n  swap1\n  dup4\n  0x03\n  dup2\n  gt\n  iszero\n  tag_6\n  jumpi\n  tag_7\n  tag_3\n  jump\t// in\ntag_7:\ntag_6:\n  mul\n  or\n  swap1\n  sstore\n  pop\n    /* \"labs/01-8-23/01 observeAndRun.sol\":58:783  contract Enum{... */\n  callvalue\n  dup1\n  iszero\n  tag_8\n  jumpi\n  0x00\n  dup1\n  revert\ntag_8:\n  pop\n  jump(tag_9)\n    /* \"#utility.yul\":7:187   */\ntag_3:\n    /* \"#utility.yul\":55:132   */\n  0x4e487b7100000000000000000000000000000000000000000000000000000000\n    /* \"#utility.yul\":52:53   */\n  0x00\n    /* \"#utility.yul\":45:133   */\n  mstore\n    /* \"#utility.yul\":152:156   */\n  0x21\n    /* \"#utility.yul\":149:150   */\n  0x04\n    /* \"#utility.yul\":142:157   */\n  mstore\n    /* \"#utility.yul\":176:180   */\n  0x24\n    /* \"#utility.yul\":173:174   */\n  0x00\n    /* \"#utility.yul\":166:181   */\n  revert\n    /* \"labs/01-8-23/01 observeAndRun.sol\":58:783  contract Enum{... */\ntag_9:\n  dataSize(sub_0)\n  dup1\n  dataOffset(sub_0)\n  0x00\n  codecopy\n  0x00\n  return\nstop\n\nsub_0: assembly {\n        /* \"labs/01-8-23/01 observeAndRun.sol\":58:783  contract Enum{... */\n      mstore(0x40, 0x80)\n      callvalue\n      dup1\n      iszero\n      tag_1\n      jumpi\n      0x00\n      dup1\n      revert\n    tag_1:\n      pop\n      jumpi(tag_2, lt(calldatasize, 0x04))\n      shr(0xe0, calldataload(0x00))\n      dup1\n      0x552670ff\n      eq\n      tag_3\n      jumpi\n      dup1\n      0x56800b52\n      eq\n      tag_4\n      jumpi\n      dup1\n      0x9b31f9e8\n      eq\n      tag_5\n      jumpi\n      dup1\n      0xa2c2d666\n      eq\n      tag_6\n      jumpi\n      dup1\n      0xa7918083\n      eq\n      tag_7\n      jumpi\n      dup1\n      0xce251a30\n      eq\n      tag_8\n      jumpi\n    tag_2:\n      0x00\n      dup1\n      revert\n        /* \"labs/01-8-23/01 observeAndRun.sol\":343:507  function Fail() public{... */\n    tag_3:\n      tag_9\n      tag_10\n      jump\t// in\n    tag_9:\n      stop\n        /* \"labs/01-8-23/01 observeAndRun.sol\":279:303  Exam public e3 = Exam(2) */\n    tag_4:\n      tag_11\n      tag_12\n      jump\t// in\n    tag_11:\n      mload(0x40)\n      tag_13\n      swap2\n      swap1\n      tag_14\n      jump\t// in\n    tag_13:\n      mload(0x40)\n      dup1\n      swap2\n      sub\n      swap1\n      return\n        /* \"labs/01-8-23/01 observeAndRun.sol\":239:272  Exam public e2 = Exam.Scholarship */\n    tag_5:\n      tag_15\n      tag_16\n      jump\t// in\n    tag_15:\n      mload(0x40)\n      tag_17\n      swap2\n      swap1\n      tag_14\n      jump\t// in\n    tag_17:\n      mload(0x40)\n      dup1\n      swap2\n      sub\n      swap1\n      return\n        /* \"labs/01-8-23/01 observeAndRun.sol\":218:232  Exam public e1 */\n    tag_6:\n      tag_18\n      tag_19\n      jump\t// in\n    tag_18:\n      mload(0x40)\n      tag_20\n      swap2\n      swap1\n      tag_14\n      jump\t// in\n    tag_20:\n      mload(0x40)\n      dup1\n      swap2\n      sub\n      swap1\n      return\n        /* \"labs/01-8-23/01 observeAndRun.sol\":696:780  function iDelete() public{  //  Reset e1 to Default Value... */\n    tag_7:\n      tag_21\n      tag_22\n      jump\t// in\n    tag_21:\n      stop\n        /* \"labs/01-8-23/01 observeAndRun.sol\":515:688  function Scholarship() public{... */\n    tag_8:\n      tag_23\n      tag_24\n      jump\t// in\n    tag_23:\n      stop\n        /* \"labs/01-8-23/01 observeAndRun.sol\":343:507  function Fail() public{... */\n    tag_10:\n        /* \"labs/01-8-23/01 observeAndRun.sol\":385:398  Exam.Checking */\n      0x00\n        /* \"labs/01-8-23/01 observeAndRun.sol\":379:398  e1 == Exam.Checking */\n      0x03\n      dup2\n      gt\n      iszero\n      tag_26\n      jumpi\n      tag_27\n      tag_28\n      jump\t// in\n    tag_27:\n    tag_26:\n        /* \"labs/01-8-23/01 observeAndRun.sol\":379:381  e1 */\n      0x00\n      dup1\n      sload\n      swap1\n      0x0100\n      exp\n      swap1\n      div\n      0xff\n      and\n        /* \"labs/01-8-23/01 observeAndRun.sol\":379:398  e1 == Exam.Checking */\n      0x03\n      dup2\n      gt\n      iszero\n      tag_29\n      jumpi\n      tag_30\n      tag_28\n      jump\t// in\n    tag_30:\n    tag_29:\n      sub\n        /* \"labs/01-8-23/01 observeAndRun.sol\":376:500  if(e1 == Exam.Checking){    // e1 to Fail, only if ‘e1’ is in the Checking state... */\n      tag_31\n      jumpi\n        /* \"labs/01-8-23/01 observeAndRun.sol\":479:488  Exam.Fail */\n      0x02\n        /* \"labs/01-8-23/01 observeAndRun.sol\":474:476  e1 */\n      0x00\n      dup1\n        /* \"labs/01-8-23/01 observeAndRun.sol\":474:488  e1 = Exam.Fail */\n      0x0100\n      exp\n      dup2\n      sload\n      dup2\n      0xff\n      mul\n      not\n      and\n      swap1\n      dup4\n      0x03\n      dup2\n      gt\n      iszero\n      tag_32\n      jumpi\n      tag_33\n      tag_28\n      jump\t// in\n    tag_33:\n    tag_32:\n      mul\n      or\n      swap1\n      sstore\n      pop\n        /* \"labs/01-8-23/01 observeAndRun.sol\":376:500  if(e1 == Exam.Checking){    // e1 to Fail, only if ‘e1’ is in the Checking state... */\n    tag_31:\n        /* \"labs/01-8-23/01 observeAndRun.sol\":343:507  function Fail() public{... */\n      jump\t// out\n        /* \"labs/01-8-23/01 observeAndRun.sol\":279:303  Exam public e3 = Exam(2) */\n    tag_12:\n      0x00\n      0x02\n      swap1\n      sload\n      swap1\n      0x0100\n      exp\n      swap1\n      div\n      0xff\n      and\n      dup2\n      jump\t// out\n        /* \"labs/01-8-23/01 observeAndRun.sol\":239:272  Exam public e2 = Exam.Scholarship */\n    tag_16:\n      0x00\n      0x01\n      swap1\n      sload\n      swap1\n      0x0100\n      exp\n      swap1\n      div\n      0xff\n      and\n      dup2\n      jump\t// out\n        /* \"labs/01-8-23/01 observeAndRun.sol\":218:232  Exam public e1 */\n    tag_19:\n      0x00\n      dup1\n      sload\n      swap1\n      0x0100\n      exp\n      swap1\n      div\n      0xff\n      and\n      dup2\n      jump\t// out\n        /* \"labs/01-8-23/01 observeAndRun.sol\":696:780  function iDelete() public{  //  Reset e1 to Default Value... */\n    tag_22:\n        /* \"labs/01-8-23/01 observeAndRun.sol\":770:772  e1 */\n      0x00\n      dup1\n        /* \"labs/01-8-23/01 observeAndRun.sol\":763:772  delete e1 */\n      0x0100\n      exp\n      dup2\n      sload\n      swap1\n      0xff\n      mul\n      not\n      and\n      swap1\n      sstore\n        /* \"labs/01-8-23/01 observeAndRun.sol\":696:780  function iDelete() public{  //  Reset e1 to Default Value... */\n      jump\t// out\n        /* \"labs/01-8-23/01 observeAndRun.sol\":515:688  function Scholarship() public{... */\n    tag_24:\n        /* \"labs/01-8-23/01 observeAndRun.sol\":564:573  Exam.Pass */\n      0x01\n        /* \"labs/01-8-23/01 observeAndRun.sol\":558:573  e1 == Exam.Pass */\n      0x03\n      dup2\n      gt\n      iszero\n      tag_36\n      jumpi\n      tag_37\n      tag_28\n      jump\t// in\n    tag_37:\n    tag_36:\n        /* \"labs/01-8-23/01 observeAndRun.sol\":558:560  e1 */\n      0x00\n      dup1\n      sload\n      swap1\n      0x0100\n      exp\n      swap1\n      div\n      0xff\n      and\n        /* \"labs/01-8-23/01 observeAndRun.sol\":558:573  e1 == Exam.Pass */\n      0x03\n      dup2\n      gt\n      iszero\n      tag_38\n      jumpi\n      tag_39\n      tag_28\n      jump\t// in\n    tag_39:\n    tag_38:\n      sub\n        /* \"labs/01-8-23/01 observeAndRun.sol\":555:681  if(e1 == Exam.Pass){    // e1 to Scholarship, only if ‘e1’ is in Pass state... */\n      tag_40\n      jumpi\n        /* \"labs/01-8-23/01 observeAndRun.sol\":653:669  Exam.Scholarship */\n      0x03\n        /* \"labs/01-8-23/01 observeAndRun.sol\":648:650  e1 */\n      0x00\n      dup1\n        /* \"labs/01-8-23/01 observeAndRun.sol\":648:669  e1 = Exam.Scholarship */\n      0x0100\n      exp\n      dup2\n      sload\n      dup2\n      0xff\n      mul\n      not\n      and\n      swap1\n      dup4\n      0x03\n      dup2\n      gt\n      iszero\n      tag_41\n      jumpi\n      tag_42\n      tag_28\n      jump\t// in\n    tag_42:\n    tag_41:\n      mul\n      or\n      swap1\n      sstore\n      pop\n        /* \"labs/01-8-23/01 observeAndRun.sol\":555:681  if(e1 == Exam.Pass){    // e1 to Scholarship, only if ‘e1’ is in Pass state... */\n    tag_40:\n        /* \"labs/01-8-23/01 observeAndRun.sol\":515:688  function Scholarship() public{... */\n      jump\t// out\n        /* \"#utility.yul\":7:187   */\n    tag_28:\n        /* \"#utility.yul\":55:132   */\n      0x4e487b7100000000000000000000000000000000000000000000000000000000\n        /* \"#utility.yul\":52:53   */\n      0x00\n        /* \"#utility.yul\":45:133   */\n      mstore\n        /* \"#utility.yul\":152:156   */\n      0x21\n        /* \"#utility.yul\":149:150   */\n      0x04\n        /* \"#utility.yul\":142:157   */\n      mstore\n        /* \"#utility.yul\":176:180   */\n      0x24\n        /* \"#utility.yul\":173:174   */\n      0x00\n        /* \"#utility.yul\":166:181   */\n      revert\n        /* \"#utility.yul\":193:304   */\n    tag_43:\n        /* \"#utility.yul\":272:273   */\n      0x04\n        /* \"#utility.yul\":265:270   */\n      dup2\n        /* \"#utility.yul\":262:274   */\n      lt\n        /* \"#utility.yul\":252:298   */\n      tag_50\n      jumpi\n        /* \"#utility.yul\":278:296   */\n      tag_51\n      tag_28\n      jump\t// in\n    tag_51:\n        /* \"#utility.yul\":252:298   */\n    tag_50:\n        /* \"#utility.yul\":193:304   */\n      pop\n      jump\t// out\n        /* \"#utility.yul\":310:433   */\n    tag_44:\n        /* \"#utility.yul\":353:360   */\n      0x00\n        /* \"#utility.yul\":382:387   */\n      dup2\n        /* \"#utility.yul\":371:387   */\n      swap1\n      pop\n        /* \"#utility.yul\":388:427   */\n      tag_53\n        /* \"#utility.yul\":421:426   */\n      dup3\n        /* \"#utility.yul\":388:427   */\n      tag_43\n      jump\t// in\n    tag_53:\n        /* \"#utility.yul\":310:433   */\n      swap2\n      swap1\n      pop\n      jump\t// out\n        /* \"#utility.yul\":439:562   */\n    tag_45:\n        /* \"#utility.yul\":493:502   */\n      0x00\n        /* \"#utility.yul\":526:556   */\n      tag_55\n        /* \"#utility.yul\":550:555   */\n      dup3\n        /* \"#utility.yul\":526:556   */\n      tag_44\n      jump\t// in\n    tag_55:\n        /* \"#utility.yul\":513:556   */\n      swap1\n      pop\n        /* \"#utility.yul\":439:562   */\n      swap2\n      swap1\n      pop\n      jump\t// out\n        /* \"#utility.yul\":568:707   */\n    tag_46:\n        /* \"#utility.yul\":659:700   */\n      tag_57\n        /* \"#utility.yul\":694:699   */\n      dup2\n        /* \"#utility.yul\":659:700   */\n      tag_45\n      jump\t// in\n    tag_57:\n        /* \"#utility.yul\":654:657   */\n      dup3\n        /* \"#utility.yul\":647:701   */\n      mstore\n        /* \"#utility.yul\":568:707   */\n      pop\n      pop\n      jump\t// out\n        /* \"#utility.yul\":713:943   */\n    tag_14:\n        /* \"#utility.yul\":810:814   */\n      0x00\n        /* \"#utility.yul\":848:850   */\n      0x20\n        /* \"#utility.yul\":837:846   */\n      dup3\n        /* \"#utility.yul\":833:851   */\n      add\n        /* \"#utility.yul\":825:851   */\n      swap1\n      pop\n        /* \"#utility.yul\":861:936   */\n      tag_59\n        /* \"#utility.yul\":933:934   */\n      0x00\n        /* \"#utility.yul\":922:931   */\n      dup4\n        /* \"#utility.yul\":918:935   */\n      add\n        /* \"#utility.yul\":909:915   */\n      dup5\n        /* \"#utility.yul\":861:936   */\n      tag_46\n      jump\t// in\n    tag_59:\n        /* \"#utility.yul\":713:943   */\n      swap3\n      swap2\n      pop\n      pop\n      jump\t// out\n\n    auxdata: 0xa26469706673582212208ad1247e1c789c2f589456a92fc6f15249584787a70721672655d1aaedb7931b64736f6c63430008120033\n}\n",
				"bytecode": {
					"linkReferences": {},
					"object": "60806040526003600060016101000a81548160ff0219169083600381111561002a5761002961007e565b5b0217905550600260038111156100435761004261007e565b5b600060026101000a81548160ff021916908360038111156100675761006661007e565b5b021790555034801561007857600080fd5b506100ad565b7f4e487b7100000000000000000000000000000000000000000000000000000000600052602160045260246000fd5b6102bd806100bc6000396000f3fe608060405234801561001057600080fd5b50600436106100625760003560e01c8063552670ff1461006757806356800b52146100715780639b31f9e81461008f578063a2c2d666146100ad578063a7918083146100cb578063ce251a30146100d5575b600080fd5b61006f6100df565b005b610079610145565b604051610086919061026c565b60405180910390f35b610097610158565b6040516100a4919061026c565b60405180910390f35b6100b561016b565b6040516100c2919061026c565b60405180910390f35b6100d361017c565b005b6100dd61018f565b005b600060038111156100f3576100f26101f5565b5b60008054906101000a900460ff166003811115610113576101126101f5565b5b036101435760026000806101000a81548160ff0219169083600381111561013d5761013c6101f5565b5b02179055505b565b600060029054906101000a900460ff1681565b600060019054906101000a900460ff1681565b60008054906101000a900460ff1681565b6000806101000a81549060ff0219169055565b600160038111156101a3576101a26101f5565b5b60008054906101000a900460ff1660038111156101c3576101c26101f5565b5b036101f35760036000806101000a81548160ff021916908360038111156101ed576101ec6101f5565b5b02179055505b565b7f4e487b7100000000000000000000000000000000000000000000000000000000600052602160045260246000fd5b60048110610235576102346101f5565b5b50565b600081905061024682610224565b919050565b600061025682610238565b9050919050565b6102668161024b565b82525050565b6000602082019050610281600083018461025d565b9291505056fea26469706673582212208ad1247e1c789c2f589456a92fc6f15249584787a70721672655d1aaedb7931b64736f6c63430008120033",
					"opcodes": "PUSH1 0x80 PUSH1 0x40 MSTORE PUSH1 0x3 PUSH1 0x0 PUSH1 0x1 PUSH2 0x100 EXP DUP2 SLOAD DUP2 PUSH1 0xFF MUL NOT AND SWAP1 DUP4 PUSH1 0x3 DUP2 GT ISZERO PUSH2 0x2A JUMPI PUSH2 0x29 PUSH2 0x7E JUMP JUMPDEST JUMPDEST MUL OR SWAP1 SSTORE POP PUSH1 0x2 PUSH1 0x3 DUP2 GT ISZERO PUSH2 0x43 JUMPI PUSH2 0x42 PUSH2 0x7E JUMP JUMPDEST JUMPDEST PUSH1 0x0 PUSH1 0x2 PUSH2 0x100 EXP DUP2 SLOAD DUP2 PUSH1 0xFF MUL NOT AND SWAP1 DUP4 PUSH1 0x3 DUP2 GT ISZERO PUSH2 0x67 JUMPI PUSH2 0x66 PUSH2 0x7E JUMP JUMPDEST JUMPDEST MUL OR SWAP1 SSTORE POP CALLVALUE DUP1 ISZERO PUSH2 0x78 JUMPI PUSH1 0x0 DUP1 REVERT JUMPDEST POP PUSH2 0xAD JUMP JUMPDEST PUSH32 0x4E487B7100000000000000000000000000000000000000000000000000000000 PUSH1 0x0 MSTORE PUSH1 0x21 PUSH1 0x4 MSTORE PUSH1 0x24 PUSH1 0x0 REVERT JUMPDEST PUSH2 0x2BD DUP1 PUSH2 0xBC PUSH1 0x0 CODECOPY PUSH1 0x0 RETURN INVALID PUSH1 0x80 PUSH1 0x40 MSTORE CALLVALUE DUP1 ISZERO PUSH2 0x10 JUMPI PUSH1 0x0 DUP1 REVERT JUMPDEST POP PUSH1 0x4 CALLDATASIZE LT PUSH2 0x62 JUMPI PUSH1 0x0 CALLDATALOAD PUSH1 0xE0 SHR DUP1 PUSH4 0x552670FF EQ PUSH2 0x67 JUMPI DUP1 PUSH4 0x56800B52 EQ PUSH2 0x71 JUMPI DUP1 PUSH4 0x9B31F9E8 EQ PUSH2 0x8F JUMPI DUP1 PUSH4 0xA2C2D666 EQ PUSH2 0xAD JUMPI DUP1 PUSH4 0xA7918083 EQ PUSH2 0xCB JUMPI DUP1 PUSH4 0xCE251A30 EQ PUSH2 0xD5 JUMPI JUMPDEST PUSH1 0x0 DUP1 REVERT JUMPDEST PUSH2 0x6F PUSH2 0xDF JUMP JUMPDEST STOP JUMPDEST PUSH2 0x79 PUSH2 0x145 JUMP JUMPDEST PUSH1 0x40 MLOAD PUSH2 0x86 SWAP2 SWAP1 PUSH2 0x26C JUMP JUMPDEST PUSH1 0x40 MLOAD DUP1 SWAP2 SUB SWAP1 RETURN JUMPDEST PUSH2 0x97 PUSH2 0x158 JUMP JUMPDEST PUSH1 0x40 MLOAD PUSH2 0xA4 SWAP2 SWAP1 PUSH2 0x26C JUMP JUMPDEST PUSH1 0x40 MLOAD DUP1 SWAP2 SUB SWAP1 RETURN JUMPDEST PUSH2 0xB5 PUSH2 0x16B JUMP JUMPDEST PUSH1 0x40 MLOAD PUSH2 0xC2 SWAP2 SWAP1 PUSH2 0x26C JUMP JUMPDEST PUSH1 0x40 MLOAD DUP1 SWAP2 SUB SWAP1 RETURN JUMPDEST PUSH2 0xD3 PUSH2 0x17C JUMP JUMPDEST STOP JUMPDEST PUSH2 0xDD PUSH2 0x18F JUMP JUMPDEST STOP JUMPDEST PUSH1 0x0 PUSH1 0x3 DUP2 GT ISZERO PUSH2 0xF3 JUMPI PUSH2 0xF2 PUSH2 0x1F5 JUMP JUMPDEST JUMPDEST PUSH1 0x0 DUP1 SLOAD SWAP1 PUSH2 0x100 EXP SWAP1 DIV PUSH1 0xFF AND PUSH1 0x3 DUP2 GT ISZERO PUSH2 0x113 JUMPI PUSH2 0x112 PUSH2 0x1F5 JUMP JUMPDEST JUMPDEST SUB PUSH2 0x143 JUMPI PUSH1 0x2 PUSH1 0x0 DUP1 PUSH2 0x100 EXP DUP2 SLOAD DUP2 PUSH1 0xFF MUL NOT AND SWAP1 DUP4 PUSH1 0x3 DUP2 GT ISZERO PUSH2 0x13D JUMPI PUSH2 0x13C PUSH2 0x1F5 JUMP JUMPDEST JUMPDEST MUL OR SWAP1 SSTORE POP JUMPDEST JUMP JUMPDEST PUSH1 0x0 PUSH1 0x2 SWAP1 SLOAD SWAP1 PUSH2 0x100 EXP SWAP1 DIV PUSH1 0xFF AND DUP2 JUMP JUMPDEST PUSH1 0x0 PUSH1 0x1 SWAP1 SLOAD SWAP1 PUSH2 0x100 EXP SWAP1 DIV PUSH1 0xFF AND DUP2 JUMP JUMPDEST PUSH1 0x0 DUP1 SLOAD SWAP1 PUSH2 0x100 EXP SWAP1 DIV PUSH1 0xFF AND DUP2 JUMP JUMPDEST PUSH1 0x0 DUP1 PUSH2 0x100 EXP DUP2 SLOAD SWAP1 PUSH1 0xFF MUL NOT AND SWAP1 SSTORE JUMP JUMPDEST PUSH1 0x1 PUSH1 0x3 DUP2 GT ISZERO PUSH2 0x1A3 JUMPI PUSH2 0x1A2 PUSH2 0x1F5 JUMP JUMPDEST JUMPDEST PUSH1 0x0 DUP1 SLOAD SWAP1 PUSH2 0x100 EXP SWAP1 DIV PUSH1 0xFF AND PUSH1 0x3 DUP2 GT ISZERO PUSH2 0x1C3 JUMPI PUSH2 0x1C2 PUSH2 0x1F5 JUMP JUMPDEST JUMPDEST SUB PUSH2 0x1F3 JUMPI PUSH1 0x3 PUSH1 0x0 DUP1 PUSH2 0x100 EXP DUP2 SLOAD DUP2 PUSH1 0xFF MUL NOT AND SWAP1 DUP4 PUSH1 0x3 DUP2 GT ISZERO PUSH2 0x1ED JUMPI PUSH2 0x1EC PUSH2 0x1F5 JUMP JUMPDEST JUMPDEST MUL OR SWAP1 SSTORE POP JUMPDEST JUMP JUMPDEST PUSH32 0x4E487B7100000000000000000000000000000000000000000000000000000000 PUSH1 0x0 MSTORE PUSH1 0x21 PUSH1 0x4 MSTORE PUSH1 0x24 PUSH1 0x0 REVERT JUMPDEST PUSH1 0x4 DUP2 LT PUSH2 0x235 JUMPI PUSH2 0x234 PUSH2 0x1F5 JUMP JUMPDEST JUMPDEST POP JUMP JUMPDEST PUSH1 0x0 DUP2 SWAP1 POP PUSH2 0x246 DUP3 PUSH2 0x224 JUMP JUMPDEST SWAP2 SWAP1 POP JUMP JUMPDEST PUSH1 0x0 PUSH2 0x256 DUP3 PUSH2 0x238 JUMP JUMPDEST SWAP1 POP SWAP2 SWAP1 POP JUMP JUMPDEST PUSH2 0x266 DUP2 PUSH2 0x24B JUMP JUMPDEST DUP3 MSTORE POP POP JUMP JUMPDEST PUSH1 0x0 PUSH1 0x20 DUP3 ADD SWAP1 POP PUSH2 0x281 PUSH1 0x0 DUP4 ADD DUP5 PUSH2 0x25D JUMP JUMPDEST SWAP3 SWAP2 POP POP JUMP INVALID LOG2 PUSH5 0x6970667358 0x22 SLT KECCAK256 DUP11 0xD1 0x24 PUSH31 0x1C789C2F589456A92FC6F15249584787A70721672655D1AAEDB7931B64736F PUSH13 0x63430008120033000000000000 "
				},
				"gasEstimates": {
					"creation": {
						"codeDepositCost": "140200",
						"executionCost": "48895",
						"totalCost": "189095"
					},
					"external": {
						"Fail()": "26617",
						"Scholarship()": "26727",
						"e1()": "2601",
						"e2()": "2632",
						"e3()": "2610",
						"iDelete()": "24452"
					}
				},
				"methodIdentifiers": {
					"Fail()": "552670ff",
					"Scholarship()": "ce251a30",
					"e1()": "a2c2d666",
					"e2()": "9b31f9e8",
					"e3()": "56800b52",
					"iDelete()": "a7918083"
				}
			},
			"storageLayout": {
				"storage": [
					{
						"astId": 9,
						"contract": "labs/01-8-23/01 observeAndRun.sol:Enum",
						"label": "e1",
						"offset": 0,
						"slot": "0",
						"type": "t_enum(Exam)6"
					},
					{
						"astId": 14,
						"contract": "labs/01-8-23/01 observeAndRun.sol:Enum",
						"label": "e2",
						"offset": 1,
						"slot": "0",
						"type": "t_enum(Exam)6"
					},
					{
						"astId": 20,
						"contract": "labs/01-8-23/01 observeAndRun.sol:Enum",
						"label": "e3",
						"offset": 2,
						"slot": "0",
						"type": "t_enum(Exam)6"
					}
				],
				"types": {
					"t_enum(Exam)6": {
						"encoding": "inplace",
						"label": "enum Enum.Exam",
						"numberOfBytes": "1"
					}
				}
			},
			"userdoc": {
				"kind": "user",
				"methods": {},
				"version": 1
			}
		}
	}
}