{
	"labs/02-8-23/loops.sol": {
		"ControlFlow": {
			"abi": [
				{
					"inputs": [],
					"name": "dowhileTest",
					"outputs": [
						{
							"internalType": "uint256",
							"name": "",
							"type": "uint256"
						}
					],
					"stateMutability": "pure",
					"type": "function"
				},
				{
					"inputs": [],
					"name": "forTest",
					"outputs": [
						{
							"internalType": "uint256",
							"name": "",
							"type": "uint256"
						}
					],
					"stateMutability": "pure",
					"type": "function"
				},
				{
					"inputs": [],
					"name": "whileTest",
					"outputs": [
						{
							"internalType": "uint256",
							"name": "",
							"type": "uint256"
						}
					],
					"stateMutability": "pure",
					"type": "function"
				}
			],
			"devdoc": {
				"kind": "dev",
				"methods": {},
				"version": 1
			},
			"evm": {
				"assembly": "    /* \"labs/02-8-23/loops.sol\":353:1055  contract ControlFlow {... */\n  mstore(0x40, 0x80)\n  callvalue\n  dup1\n  iszero\n  tag_1\n  jumpi\n  0x00\n  dup1\n  revert\ntag_1:\n  pop\n  dataSize(sub_0)\n  dup1\n  dataOffset(sub_0)\n  0x00\n  codecopy\n  0x00\n  return\nstop\n\nsub_0: assembly {\n        /* \"labs/02-8-23/loops.sol\":353:1055  contract ControlFlow {... */\n      mstore(0x40, 0x80)\n      callvalue\n      dup1\n      iszero\n      tag_1\n      jumpi\n      0x00\n      dup1\n      revert\n    tag_1:\n      pop\n      jumpi(tag_2, lt(calldatasize, 0x04))\n      shr(0xe0, calldataload(0x00))\n      dup1\n      0x5d14639d\n      eq\n      tag_3\n      jumpi\n      dup1\n      0xd4271de5\n      eq\n      tag_4\n      jumpi\n      dup1\n      0xde152f8d\n      eq\n      tag_5\n      jumpi\n    tag_2:\n      0x00\n      dup1\n      revert\n        /* \"labs/02-8-23/loops.sol\":383:602  function whileTest() public pure returns(uint256){... */\n    tag_3:\n      tag_6\n      tag_7\n      jump\t// in\n    tag_6:\n      mload(0x40)\n      tag_8\n      swap2\n      swap1\n      tag_9\n      jump\t// in\n    tag_8:\n      mload(0x40)\n      dup1\n      swap2\n      sub\n      swap1\n      return\n        /* \"labs/02-8-23/loops.sol\":816:1052  function dowhileTest() public pure returns(uint256){... */\n    tag_4:\n      tag_10\n      tag_11\n      jump\t// in\n    tag_10:\n      mload(0x40)\n      tag_12\n      swap2\n      swap1\n      tag_9\n      jump\t// in\n    tag_12:\n      mload(0x40)\n      dup1\n      swap2\n      sub\n      swap1\n      return\n        /* \"labs/02-8-23/loops.sol\":610:808  function forTest() public pure returns(uint256){... */\n    tag_5:\n      tag_13\n      tag_14\n      jump\t// in\n    tag_13:\n      mload(0x40)\n      tag_15\n      swap2\n      swap1\n      tag_9\n      jump\t// in\n    tag_15:\n      mload(0x40)\n      dup1\n      swap2\n      sub\n      swap1\n      return\n        /* \"labs/02-8-23/loops.sol\":383:602  function whileTest() public pure returns(uint256){... */\n    tag_7:\n        /* \"labs/02-8-23/loops.sol\":424:431  uint256 */\n      0x00\n        /* \"labs/02-8-23/loops.sol\":443:451  uint sum */\n      dup1\n        /* \"labs/02-8-23/loops.sol\":454:455  0 */\n      0x00\n        /* \"labs/02-8-23/loops.sol\":443:455  uint sum = 0 */\n      swap1\n      pop\n        /* \"labs/02-8-23/loops.sol\":466:472  uint i */\n      0x00\n        /* \"labs/02-8-23/loops.sol\":487:573  while(i < 15){... */\n    tag_17:\n        /* \"labs/02-8-23/loops.sol\":497:499  15 */\n      0x0f\n        /* \"labs/02-8-23/loops.sol\":493:494  i */\n      dup2\n        /* \"labs/02-8-23/loops.sol\":493:499  i < 15 */\n      lt\n        /* \"labs/02-8-23/loops.sol\":487:573  while(i < 15){... */\n      iszero\n      tag_18\n      jumpi\n        /* \"labs/02-8-23/loops.sol\":521:522  i */\n      dup1\n        /* \"labs/02-8-23/loops.sol\":515:522  sum +=i */\n      dup3\n      tag_19\n      swap2\n      swap1\n      tag_20\n      jump\t// in\n    tag_19:\n      swap2\n      pop\n        /* \"labs/02-8-23/loops.sol\":558:561  i++ */\n      dup1\n      dup1\n      tag_21\n      swap1\n      tag_22\n      jump\t// in\n    tag_21:\n      swap2\n      pop\n      pop\n        /* \"labs/02-8-23/loops.sol\":487:573  while(i < 15){... */\n      jump(tag_17)\n    tag_18:\n        /* \"labs/02-8-23/loops.sol\":590:593  sum */\n      dup2\n        /* \"labs/02-8-23/loops.sol\":583:594  return(sum) */\n      swap3\n      pop\n      pop\n      pop\n        /* \"labs/02-8-23/loops.sol\":383:602  function whileTest() public pure returns(uint256){... */\n      swap1\n      jump\t// out\n        /* \"labs/02-8-23/loops.sol\":816:1052  function dowhileTest() public pure returns(uint256){... */\n    tag_11:\n        /* \"labs/02-8-23/loops.sol\":859:866  uint256 */\n      0x00\n        /* \"labs/02-8-23/loops.sol\":878:886  uint sum */\n      dup1\n        /* \"labs/02-8-23/loops.sol\":889:890  0 */\n      0x00\n        /* \"labs/02-8-23/loops.sol\":878:890  uint sum = 0 */\n      swap1\n      pop\n        /* \"labs/02-8-23/loops.sol\":901:907  uint i */\n      0x00\n        /* \"labs/02-8-23/loops.sol\":922:1023  do{            ... */\n    tag_24:\n        /* \"labs/02-8-23/loops.sol\":957:958  i */\n      dup1\n        /* \"labs/02-8-23/loops.sol\":951:958  sum +=i */\n      dup3\n      tag_27\n      swap2\n      swap1\n      tag_20\n      jump\t// in\n    tag_27:\n      swap2\n      pop\n        /* \"labs/02-8-23/loops.sol\":994:997  i++ */\n      dup1\n      dup1\n      tag_28\n      swap1\n      tag_22\n      jump\t// in\n    tag_28:\n      swap2\n      pop\n      pop\n        /* \"labs/02-8-23/loops.sol\":1019:1021  15 */\n      0x0f\n        /* \"labs/02-8-23/loops.sol\":1015:1016  i */\n      dup2\n        /* \"labs/02-8-23/loops.sol\":1015:1021  i < 15 */\n      lt\n        /* \"labs/02-8-23/loops.sol\":922:1023  do{            ... */\n      tag_24\n      jumpi\n        /* \"labs/02-8-23/loops.sol\":1040:1043  sum */\n      dup2\n        /* \"labs/02-8-23/loops.sol\":1033:1044  return(sum) */\n      swap3\n      pop\n      pop\n      pop\n        /* \"labs/02-8-23/loops.sol\":816:1052  function dowhileTest() public pure returns(uint256){... */\n      swap1\n      jump\t// out\n        /* \"labs/02-8-23/loops.sol\":610:808  function forTest() public pure returns(uint256){... */\n    tag_14:\n        /* \"labs/02-8-23/loops.sol\":649:656  uint256 */\n      0x00\n        /* \"labs/02-8-23/loops.sol\":668:676  uint sum */\n      dup1\n        /* \"labs/02-8-23/loops.sol\":679:680  0 */\n      0x00\n        /* \"labs/02-8-23/loops.sol\":668:680  uint sum = 0 */\n      swap1\n      pop\n        /* \"labs/02-8-23/loops.sol\":696:702  uint i */\n      0x00\n        /* \"labs/02-8-23/loops.sol\":691:769  for (uint i=0;i<15;i++){... */\n    tag_30:\n        /* \"labs/02-8-23/loops.sol\":707:709  15 */\n      0x0f\n        /* \"labs/02-8-23/loops.sol\":705:706  i */\n      dup2\n        /* \"labs/02-8-23/loops.sol\":705:709  i<15 */\n      lt\n        /* \"labs/02-8-23/loops.sol\":691:769  for (uint i=0;i<15;i++){... */\n      iszero\n      tag_31\n      jumpi\n        /* \"labs/02-8-23/loops.sol\":735:736  i */\n      dup1\n        /* \"labs/02-8-23/loops.sol\":729:736  sum +=i */\n      dup3\n      tag_33\n      swap2\n      swap1\n      tag_20\n      jump\t// in\n    tag_33:\n      swap2\n      pop\n        /* \"labs/02-8-23/loops.sol\":710:713  i++ */\n      dup1\n      dup1\n      tag_34\n      swap1\n      tag_22\n      jump\t// in\n    tag_34:\n      swap2\n      pop\n      pop\n        /* \"labs/02-8-23/loops.sol\":691:769  for (uint i=0;i<15;i++){... */\n      jump(tag_30)\n    tag_31:\n      pop\n        /* \"labs/02-8-23/loops.sol\":786:789  sum */\n      dup1\n        /* \"labs/02-8-23/loops.sol\":779:790  return(sum) */\n      swap2\n      pop\n      pop\n        /* \"labs/02-8-23/loops.sol\":610:808  function forTest() public pure returns(uint256){... */\n      swap1\n      jump\t// out\n        /* \"#utility.yul\":7:84   */\n    tag_35:\n        /* \"#utility.yul\":44:51   */\n      0x00\n        /* \"#utility.yul\":73:78   */\n      dup2\n        /* \"#utility.yul\":62:78   */\n      swap1\n      pop\n        /* \"#utility.yul\":7:84   */\n      swap2\n      swap1\n      pop\n      jump\t// out\n        /* \"#utility.yul\":90:208   */\n    tag_36:\n        /* \"#utility.yul\":177:201   */\n      tag_41\n        /* \"#utility.yul\":195:200   */\n      dup2\n        /* \"#utility.yul\":177:201   */\n      tag_35\n      jump\t// in\n    tag_41:\n        /* \"#utility.yul\":172:175   */\n      dup3\n        /* \"#utility.yul\":165:202   */\n      mstore\n        /* \"#utility.yul\":90:208   */\n      pop\n      pop\n      jump\t// out\n        /* \"#utility.yul\":214:436   */\n    tag_9:\n        /* \"#utility.yul\":307:311   */\n      0x00\n        /* \"#utility.yul\":345:347   */\n      0x20\n        /* \"#utility.yul\":334:343   */\n      dup3\n        /* \"#utility.yul\":330:348   */\n      add\n        /* \"#utility.yul\":322:348   */\n      swap1\n      pop\n        /* \"#utility.yul\":358:429   */\n      tag_43\n        /* \"#utility.yul\":426:427   */\n      0x00\n        /* \"#utility.yul\":415:424   */\n      dup4\n        /* \"#utility.yul\":411:428   */\n      add\n        /* \"#utility.yul\":402:408   */\n      dup5\n        /* \"#utility.yul\":358:429   */\n      tag_36\n      jump\t// in\n    tag_43:\n        /* \"#utility.yul\":214:436   */\n      swap3\n      swap2\n      pop\n      pop\n      jump\t// out\n        /* \"#utility.yul\":442:622   */\n    tag_37:\n        /* \"#utility.yul\":490:567   */\n      0x4e487b7100000000000000000000000000000000000000000000000000000000\n        /* \"#utility.yul\":487:488   */\n      0x00\n        /* \"#utility.yul\":480:568   */\n      mstore\n        /* \"#utility.yul\":587:591   */\n      0x11\n        /* \"#utility.yul\":584:585   */\n      0x04\n        /* \"#utility.yul\":577:592   */\n      mstore\n        /* \"#utility.yul\":611:615   */\n      0x24\n        /* \"#utility.yul\":608:609   */\n      0x00\n        /* \"#utility.yul\":601:616   */\n      revert\n        /* \"#utility.yul\":628:819   */\n    tag_20:\n        /* \"#utility.yul\":668:671   */\n      0x00\n        /* \"#utility.yul\":687:707   */\n      tag_46\n        /* \"#utility.yul\":705:706   */\n      dup3\n        /* \"#utility.yul\":687:707   */\n      tag_35\n      jump\t// in\n    tag_46:\n        /* \"#utility.yul\":682:707   */\n      swap2\n      pop\n        /* \"#utility.yul\":721:741   */\n      tag_47\n        /* \"#utility.yul\":739:740   */\n      dup4\n        /* \"#utility.yul\":721:741   */\n      tag_35\n      jump\t// in\n    tag_47:\n        /* \"#utility.yul\":716:741   */\n      swap3\n      pop\n        /* \"#utility.yul\":764:765   */\n      dup3\n        /* \"#utility.yul\":761:762   */\n      dup3\n        /* \"#utility.yul\":757:766   */\n      add\n        /* \"#utility.yul\":750:766   */\n      swap1\n      pop\n        /* \"#utility.yul\":785:788   */\n      dup1\n        /* \"#utility.yul\":782:783   */\n      dup3\n        /* \"#utility.yul\":779:789   */\n      gt\n        /* \"#utility.yul\":776:812   */\n      iszero\n      tag_48\n      jumpi\n        /* \"#utility.yul\":792:810   */\n      tag_49\n      tag_37\n      jump\t// in\n    tag_49:\n        /* \"#utility.yul\":776:812   */\n    tag_48:\n        /* \"#utility.yul\":628:819   */\n      swap3\n      swap2\n      pop\n      pop\n      jump\t// out\n        /* \"#utility.yul\":825:1058   */\n    tag_22:\n        /* \"#utility.yul\":864:867   */\n      0x00\n        /* \"#utility.yul\":887:911   */\n      tag_51\n        /* \"#utility.yul\":905:910   */\n      dup3\n        /* \"#utility.yul\":887:911   */\n      tag_35\n      jump\t// in\n    tag_51:\n        /* \"#utility.yul\":878:911   */\n      swap2\n      pop\n        /* \"#utility.yul\":933:999   */\n      0xffffffffffffffffffffffffffffffffffffffffffffffffffffffffffffffff\n        /* \"#utility.yul\":926:931   */\n      dup3\n        /* \"#utility.yul\":923:1000   */\n      sub\n        /* \"#utility.yul\":920:1023   */\n      tag_52\n      jumpi\n        /* \"#utility.yul\":1003:1021   */\n      tag_53\n      tag_37\n      jump\t// in\n    tag_53:\n        /* \"#utility.yul\":920:1023   */\n    tag_52:\n        /* \"#utility.yul\":1050:1051   */\n      0x01\n        /* \"#utility.yul\":1043:1048   */\n      dup3\n        /* \"#utility.yul\":1039:1052   */\n      add\n        /* \"#utility.yul\":1032:1052   */\n      swap1\n      pop\n        /* \"#utility.yul\":825:1058   */\n      swap2\n      swap1\n      pop\n      jump\t// out\n\n    auxdata: 0xa2646970667358221220adfd44547adbc98ad1d462dfbfc2e18816fbb3b31bd04b6308bd296606316b4464736f6c63430008120033\n}\n",
				"bytecode": {
					"linkReferences": {},
					"object": "608060405234801561001057600080fd5b50610263806100206000396000f3fe608060405234801561001057600080fd5b50600436106100415760003560e01c80635d14639d14610046578063d4271de514610064578063de152f8d14610082575b600080fd5b61004e6100a0565b60405161005b9190610167565b60405180910390f35b61006c6100dc565b6040516100799190610167565b60405180910390f35b61008a610112565b6040516100979190610167565b60405180910390f35b6000806000905060005b600f8110156100d45780826100bf91906101b1565b915080806100cc906101e5565b9150506100aa565b819250505090565b6000806000905060005b80826100f291906101b1565b915080806100ff906101e5565b915050600f81106100e657819250505090565b6000806000905060005b600f81101561014657808261013191906101b1565b9150808061013e906101e5565b91505061011c565b508091505090565b6000819050919050565b6101618161014e565b82525050565b600060208201905061017c6000830184610158565b92915050565b7f4e487b7100000000000000000000000000000000000000000000000000000000600052601160045260246000fd5b60006101bc8261014e565b91506101c78361014e565b92508282019050808211156101df576101de610182565b5b92915050565b60006101f08261014e565b91507fffffffffffffffffffffffffffffffffffffffffffffffffffffffffffffffff820361022257610221610182565b5b60018201905091905056fea2646970667358221220adfd44547adbc98ad1d462dfbfc2e18816fbb3b31bd04b6308bd296606316b4464736f6c63430008120033",
					"opcodes": "PUSH1 0x80 PUSH1 0x40 MSTORE CALLVALUE DUP1 ISZERO PUSH2 0x10 JUMPI PUSH1 0x0 DUP1 REVERT JUMPDEST POP PUSH2 0x263 DUP1 PUSH2 0x20 PUSH1 0x0 CODECOPY PUSH1 0x0 RETURN INVALID PUSH1 0x80 PUSH1 0x40 MSTORE CALLVALUE DUP1 ISZERO PUSH2 0x10 JUMPI PUSH1 0x0 DUP1 REVERT JUMPDEST POP PUSH1 0x4 CALLDATASIZE LT PUSH2 0x41 JUMPI PUSH1 0x0 CALLDATALOAD PUSH1 0xE0 SHR DUP1 PUSH4 0x5D14639D EQ PUSH2 0x46 JUMPI DUP1 PUSH4 0xD4271DE5 EQ PUSH2 0x64 JUMPI DUP1 PUSH4 0xDE152F8D EQ PUSH2 0x82 JUMPI JUMPDEST PUSH1 0x0 DUP1 REVERT JUMPDEST PUSH2 0x4E PUSH2 0xA0 JUMP JUMPDEST PUSH1 0x40 MLOAD PUSH2 0x5B SWAP2 SWAP1 PUSH2 0x167 JUMP JUMPDEST PUSH1 0x40 MLOAD DUP1 SWAP2 SUB SWAP1 RETURN JUMPDEST PUSH2 0x6C PUSH2 0xDC JUMP JUMPDEST PUSH1 0x40 MLOAD PUSH2 0x79 SWAP2 SWAP1 PUSH2 0x167 JUMP JUMPDEST PUSH1 0x40 MLOAD DUP1 SWAP2 SUB SWAP1 RETURN JUMPDEST PUSH2 0x8A PUSH2 0x112 JUMP JUMPDEST PUSH1 0x40 MLOAD PUSH2 0x97 SWAP2 SWAP1 PUSH2 0x167 JUMP JUMPDEST PUSH1 0x40 MLOAD DUP1 SWAP2 SUB SWAP1 RETURN JUMPDEST PUSH1 0x0 DUP1 PUSH1 0x0 SWAP1 POP PUSH1 0x0 JUMPDEST PUSH1 0xF DUP2 LT ISZERO PUSH2 0xD4 JUMPI DUP1 DUP3 PUSH2 0xBF SWAP2 SWAP1 PUSH2 0x1B1 JUMP JUMPDEST SWAP2 POP DUP1 DUP1 PUSH2 0xCC SWAP1 PUSH2 0x1E5 JUMP JUMPDEST SWAP2 POP POP PUSH2 0xAA JUMP JUMPDEST DUP2 SWAP3 POP POP POP SWAP1 JUMP JUMPDEST PUSH1 0x0 DUP1 PUSH1 0x0 SWAP1 POP PUSH1 0x0 JUMPDEST DUP1 DUP3 PUSH2 0xF2 SWAP2 SWAP1 PUSH2 0x1B1 JUMP JUMPDEST SWAP2 POP DUP1 DUP1 PUSH2 0xFF SWAP1 PUSH2 0x1E5 JUMP JUMPDEST SWAP2 POP POP PUSH1 0xF DUP2 LT PUSH2 0xE6 JUMPI DUP2 SWAP3 POP POP POP SWAP1 JUMP JUMPDEST PUSH1 0x0 DUP1 PUSH1 0x0 SWAP1 POP PUSH1 0x0 JUMPDEST PUSH1 0xF DUP2 LT ISZERO PUSH2 0x146 JUMPI DUP1 DUP3 PUSH2 0x131 SWAP2 SWAP1 PUSH2 0x1B1 JUMP JUMPDEST SWAP2 POP DUP1 DUP1 PUSH2 0x13E SWAP1 PUSH2 0x1E5 JUMP JUMPDEST SWAP2 POP POP PUSH2 0x11C JUMP JUMPDEST POP DUP1 SWAP2 POP POP SWAP1 JUMP JUMPDEST PUSH1 0x0 DUP2 SWAP1 POP SWAP2 SWAP1 POP JUMP JUMPDEST PUSH2 0x161 DUP2 PUSH2 0x14E JUMP JUMPDEST DUP3 MSTORE POP POP JUMP JUMPDEST PUSH1 0x0 PUSH1 0x20 DUP3 ADD SWAP1 POP PUSH2 0x17C PUSH1 0x0 DUP4 ADD DUP5 PUSH2 0x158 JUMP JUMPDEST SWAP3 SWAP2 POP POP JUMP JUMPDEST PUSH32 0x4E487B7100000000000000000000000000000000000000000000000000000000 PUSH1 0x0 MSTORE PUSH1 0x11 PUSH1 0x4 MSTORE PUSH1 0x24 PUSH1 0x0 REVERT JUMPDEST PUSH1 0x0 PUSH2 0x1BC DUP3 PUSH2 0x14E JUMP JUMPDEST SWAP2 POP PUSH2 0x1C7 DUP4 PUSH2 0x14E JUMP JUMPDEST SWAP3 POP DUP3 DUP3 ADD SWAP1 POP DUP1 DUP3 GT ISZERO PUSH2 0x1DF JUMPI PUSH2 0x1DE PUSH2 0x182 JUMP JUMPDEST JUMPDEST SWAP3 SWAP2 POP POP JUMP JUMPDEST PUSH1 0x0 PUSH2 0x1F0 DUP3 PUSH2 0x14E JUMP JUMPDEST SWAP2 POP PUSH32 0xFFFFFFFFFFFFFFFFFFFFFFFFFFFFFFFFFFFFFFFFFFFFFFFFFFFFFFFFFFFFFFFF DUP3 SUB PUSH2 0x222 JUMPI PUSH2 0x221 PUSH2 0x182 JUMP JUMPDEST JUMPDEST PUSH1 0x1 DUP3 ADD SWAP1 POP SWAP2 SWAP1 POP JUMP INVALID LOG2 PUSH5 0x6970667358 0x22 SLT KECCAK256 0xAD REVERT PREVRANDAO SLOAD PUSH27 0xDBC98AD1D462DFBFC2E18816FBB3B31BD04B6308BD296606316B44 PUSH5 0x736F6C6343 STOP ADDMOD SLT STOP CALLER "
				},
				"gasEstimates": {
					"creation": {
						"codeDepositCost": "122200",
						"executionCost": "171",
						"totalCost": "122371"
					},
					"external": {
						"dowhileTest()": "infinite",
						"forTest()": "infinite",
						"whileTest()": "infinite"
					}
				},
				"methodIdentifiers": {
					"dowhileTest()": "d4271de5",
					"forTest()": "de152f8d",
					"whileTest()": "5d14639d"
				}
			},
			"storageLayout": {
				"storage": [],
				"types": null
			},
			"userdoc": {
				"kind": "user",
				"methods": {},
				"version": 1
			}
		}
	}
}