{
	"labs/02-8-23/loops.sol": {
		"Loop": {
			"abi": [
				{
					"inputs": [],
					"name": "getter",
					"outputs": [
						{
							"internalType": "uint256[]",
							"name": "",
							"type": "uint256[]"
						}
					],
					"stateMutability": "view",
					"type": "function"
				},
				{
					"inputs": [],
					"name": "loop",
					"outputs": [
						{
							"internalType": "uint256[]",
							"name": "",
							"type": "uint256[]"
						}
					],
					"stateMutability": "nonpayable",
					"type": "function"
				}
			],
			"devdoc": {
				"kind": "dev",
				"methods": {},
				"version": 1
			},
			"evm": {
				"assembly": "    /* \"labs/02-8-23/loops.sol\":59:349  contract Loop {... */\n  mstore(0x40, 0x80)\n  callvalue\n  dup1\n  iszero\n  tag_1\n  jumpi\n  0x00\n  dup1\n  revert\ntag_1:\n  pop\n  dataSize(sub_0)\n  dup1\n  dataOffset(sub_0)\n  0x00\n  codecopy\n  0x00\n  return\nstop\n\nsub_0: assembly {\n        /* \"labs/02-8-23/loops.sol\":59:349  contract Loop {... */\n      mstore(0x40, 0x80)\n      callvalue\n      dup1\n      iszero\n      tag_1\n      jumpi\n      0x00\n      dup1\n      revert\n    tag_1:\n      pop\n      jumpi(tag_2, lt(calldatasize, 0x04))\n      shr(0xe0, calldataload(0x00))\n      dup1\n      0x993a04b7\n      eq\n      tag_3\n      jumpi\n      dup1\n      0xa92100cb\n      eq\n      tag_4\n      jumpi\n    tag_2:\n      0x00\n      dup1\n      revert\n        /* \"labs/02-8-23/loops.sol\":265:346  function getter()public view returns(uint[] memory){... */\n    tag_3:\n      tag_5\n      tag_6\n      jump\t// in\n    tag_5:\n      mload(0x40)\n      tag_7\n      swap2\n      swap1\n      tag_8\n      jump\t// in\n    tag_7:\n      mload(0x40)\n      dup1\n      swap2\n      sub\n      swap1\n      return\n        /* \"labs/02-8-23/loops.sol\":98:257  function loop() public returns (uint[] memory) {... */\n    tag_4:\n      tag_9\n      tag_10\n      jump\t// in\n    tag_9:\n      mload(0x40)\n      tag_11\n      swap2\n      swap1\n      tag_8\n      jump\t// in\n    tag_11:\n      mload(0x40)\n      dup1\n      swap2\n      sub\n      swap1\n      return\n        /* \"labs/02-8-23/loops.sol\":265:346  function getter()public view returns(uint[] memory){... */\n    tag_6:\n        /* \"labs/02-8-23/loops.sol\":302:315  uint[] memory */\n      0x60\n        /* \"labs/02-8-23/loops.sol\":334:338  data */\n      0x00\n        /* \"labs/02-8-23/loops.sol\":327:338  return data */\n      dup1\n      sload\n      dup1\n      0x20\n      mul\n      0x20\n      add\n      mload(0x40)\n      swap1\n      dup2\n      add\n      0x40\n      mstore\n      dup1\n      swap3\n      swap2\n      swap1\n      dup2\n      dup2\n      mstore\n      0x20\n      add\n      dup3\n      dup1\n      sload\n      dup1\n      iszero\n      tag_13\n      jumpi\n      0x20\n      mul\n      dup3\n      add\n      swap2\n      swap1\n      0x00\n      mstore\n      keccak256(0x00, 0x20)\n      swap1\n    tag_14:\n      dup2\n      sload\n      dup2\n      mstore\n      0x20\n      add\n      swap1\n      0x01\n      add\n      swap1\n      dup1\n      dup4\n      gt\n      tag_14\n      jumpi\n    tag_13:\n      pop\n      pop\n      pop\n      pop\n      pop\n      swap1\n      pop\n        /* \"labs/02-8-23/loops.sol\":265:346  function getter()public view returns(uint[] memory){... */\n      swap1\n      jump\t// out\n        /* \"labs/02-8-23/loops.sol\":98:257  function loop() public returns (uint[] memory) {... */\n    tag_10:\n        /* \"labs/02-8-23/loops.sol\":130:143  uint[] memory */\n      0x60\n        /* \"labs/02-8-23/loops.sol\":161:168  uint8 i */\n      0x00\n        /* \"labs/02-8-23/loops.sol\":171:172  1 */\n      0x01\n        /* \"labs/02-8-23/loops.sol\":161:172  uint8 i = 1 */\n      swap1\n      pop\n        /* \"labs/02-8-23/loops.sol\":156:228  for (uint8 i = 1; i < 20; i=i+2) {... */\n    tag_16:\n        /* \"labs/02-8-23/loops.sol\":178:180  20 */\n      0x14\n        /* \"labs/02-8-23/loops.sol\":174:175  i */\n      dup2\n        /* \"labs/02-8-23/loops.sol\":174:180  i < 20 */\n      0xff\n      and\n      lt\n        /* \"labs/02-8-23/loops.sol\":156:228  for (uint8 i = 1; i < 20; i=i+2) {... */\n      iszero\n      tag_17\n      jumpi\n        /* \"labs/02-8-23/loops.sol\":204:208  data */\n      0x00\n        /* \"labs/02-8-23/loops.sol\":214:215  i */\n      dup2\n        /* \"labs/02-8-23/loops.sol\":204:216  data.push(i) */\n      swap1\n      dup1\n      0x01\n      dup2\n      sload\n      add\n      dup1\n      dup3\n      sstore\n      dup1\n      swap2\n      pop\n      pop\n      0x01\n      swap1\n      sub\n      swap1\n      0x00\n      mstore\n      keccak256(0x00, 0x20)\n      add\n      0x00\n      swap1\n      swap2\n      0xff\n      and\n      swap1\n      swap2\n      swap1\n      swap2\n      pop\n      sstore\n        /* \"labs/02-8-23/loops.sol\":186:187  2 */\n      0x02\n        /* \"labs/02-8-23/loops.sol\":184:185  i */\n      dup2\n        /* \"labs/02-8-23/loops.sol\":184:187  i+2 */\n      tag_20\n      swap2\n      swap1\n      tag_21\n      jump\t// in\n    tag_20:\n        /* \"labs/02-8-23/loops.sol\":182:187  i=i+2 */\n      swap1\n      pop\n        /* \"labs/02-8-23/loops.sol\":156:228  for (uint8 i = 1; i < 20; i=i+2) {... */\n      jump(tag_16)\n    tag_17:\n      pop\n        /* \"labs/02-8-23/loops.sol\":245:249  data */\n      0x00\n        /* \"labs/02-8-23/loops.sol\":238:249  return data */\n      dup1\n      sload\n      dup1\n      0x20\n      mul\n      0x20\n      add\n      mload(0x40)\n      swap1\n      dup2\n      add\n      0x40\n      mstore\n      dup1\n      swap3\n      swap2\n      swap1\n      dup2\n      dup2\n      mstore\n      0x20\n      add\n      dup3\n      dup1\n      sload\n      dup1\n      iszero\n      tag_22\n      jumpi\n      0x20\n      mul\n      dup3\n      add\n      swap2\n      swap1\n      0x00\n      mstore\n      keccak256(0x00, 0x20)\n      swap1\n    tag_23:\n      dup2\n      sload\n      dup2\n      mstore\n      0x20\n      add\n      swap1\n      0x01\n      add\n      swap1\n      dup1\n      dup4\n      gt\n      tag_23\n      jumpi\n    tag_22:\n      pop\n      pop\n      pop\n      pop\n      pop\n      swap1\n      pop\n        /* \"labs/02-8-23/loops.sol\":98:257  function loop() public returns (uint[] memory) {... */\n      swap1\n      jump\t// out\n        /* \"#utility.yul\":7:121   */\n    tag_24:\n        /* \"#utility.yul\":74:80   */\n      0x00\n        /* \"#utility.yul\":108:113   */\n      dup2\n        /* \"#utility.yul\":102:114   */\n      mload\n        /* \"#utility.yul\":92:114   */\n      swap1\n      pop\n        /* \"#utility.yul\":7:121   */\n      swap2\n      swap1\n      pop\n      jump\t// out\n        /* \"#utility.yul\":127:311   */\n    tag_25:\n        /* \"#utility.yul\":226:237   */\n      0x00\n        /* \"#utility.yul\":260:266   */\n      dup3\n        /* \"#utility.yul\":255:258   */\n      dup3\n        /* \"#utility.yul\":248:267   */\n      mstore\n        /* \"#utility.yul\":300:304   */\n      0x20\n        /* \"#utility.yul\":295:298   */\n      dup3\n        /* \"#utility.yul\":291:305   */\n      add\n        /* \"#utility.yul\":276:305   */\n      swap1\n      pop\n        /* \"#utility.yul\":127:311   */\n      swap3\n      swap2\n      pop\n      pop\n      jump\t// out\n        /* \"#utility.yul\":317:449   */\n    tag_26:\n        /* \"#utility.yul\":384:388   */\n      0x00\n        /* \"#utility.yul\":407:410   */\n      dup2\n        /* \"#utility.yul\":399:410   */\n      swap1\n      pop\n        /* \"#utility.yul\":437:441   */\n      0x20\n        /* \"#utility.yul\":432:435   */\n      dup3\n        /* \"#utility.yul\":428:442   */\n      add\n        /* \"#utility.yul\":420:442   */\n      swap1\n      pop\n        /* \"#utility.yul\":317:449   */\n      swap2\n      swap1\n      pop\n      jump\t// out\n        /* \"#utility.yul\":455:532   */\n    tag_27:\n        /* \"#utility.yul\":492:499   */\n      0x00\n        /* \"#utility.yul\":521:526   */\n      dup2\n        /* \"#utility.yul\":510:526   */\n      swap1\n      pop\n        /* \"#utility.yul\":455:532   */\n      swap2\n      swap1\n      pop\n      jump\t// out\n        /* \"#utility.yul\":538:646   */\n    tag_28:\n        /* \"#utility.yul\":615:639   */\n      tag_40\n        /* \"#utility.yul\":633:638   */\n      dup2\n        /* \"#utility.yul\":615:639   */\n      tag_27\n      jump\t// in\n    tag_40:\n        /* \"#utility.yul\":610:613   */\n      dup3\n        /* \"#utility.yul\":603:640   */\n      mstore\n        /* \"#utility.yul\":538:646   */\n      pop\n      pop\n      jump\t// out\n        /* \"#utility.yul\":652:831   */\n    tag_29:\n        /* \"#utility.yul\":721:731   */\n      0x00\n        /* \"#utility.yul\":742:788   */\n      tag_42\n        /* \"#utility.yul\":784:787   */\n      dup4\n        /* \"#utility.yul\":776:782   */\n      dup4\n        /* \"#utility.yul\":742:788   */\n      tag_28\n      jump\t// in\n    tag_42:\n        /* \"#utility.yul\":820:824   */\n      0x20\n        /* \"#utility.yul\":815:818   */\n      dup4\n        /* \"#utility.yul\":811:825   */\n      add\n        /* \"#utility.yul\":797:825   */\n      swap1\n      pop\n        /* \"#utility.yul\":652:831   */\n      swap3\n      swap2\n      pop\n      pop\n      jump\t// out\n        /* \"#utility.yul\":837:950   */\n    tag_30:\n        /* \"#utility.yul\":907:911   */\n      0x00\n        /* \"#utility.yul\":939:943   */\n      0x20\n        /* \"#utility.yul\":934:937   */\n      dup3\n        /* \"#utility.yul\":930:944   */\n      add\n        /* \"#utility.yul\":922:944   */\n      swap1\n      pop\n        /* \"#utility.yul\":837:950   */\n      swap2\n      swap1\n      pop\n      jump\t// out\n        /* \"#utility.yul\":986:1718   */\n    tag_31:\n        /* \"#utility.yul\":1105:1108   */\n      0x00\n        /* \"#utility.yul\":1134:1188   */\n      tag_45\n        /* \"#utility.yul\":1182:1187   */\n      dup3\n        /* \"#utility.yul\":1134:1188   */\n      tag_24\n      jump\t// in\n    tag_45:\n        /* \"#utility.yul\":1204:1290   */\n      tag_46\n        /* \"#utility.yul\":1283:1289   */\n      dup2\n        /* \"#utility.yul\":1278:1281   */\n      dup6\n        /* \"#utility.yul\":1204:1290   */\n      tag_25\n      jump\t// in\n    tag_46:\n        /* \"#utility.yul\":1197:1290   */\n      swap4\n      pop\n        /* \"#utility.yul\":1314:1370   */\n      tag_47\n        /* \"#utility.yul\":1364:1369   */\n      dup4\n        /* \"#utility.yul\":1314:1370   */\n      tag_26\n      jump\t// in\n    tag_47:\n        /* \"#utility.yul\":1393:1400   */\n      dup1\n        /* \"#utility.yul\":1424:1425   */\n      0x00\n        /* \"#utility.yul\":1409:1693   */\n    tag_48:\n        /* \"#utility.yul\":1434:1440   */\n      dup4\n        /* \"#utility.yul\":1431:1432   */\n      dup2\n        /* \"#utility.yul\":1428:1441   */\n      lt\n        /* \"#utility.yul\":1409:1693   */\n      iszero\n      tag_50\n      jumpi\n        /* \"#utility.yul\":1510:1516   */\n      dup2\n        /* \"#utility.yul\":1504:1517   */\n      mload\n        /* \"#utility.yul\":1537:1600   */\n      tag_51\n        /* \"#utility.yul\":1596:1599   */\n      dup9\n        /* \"#utility.yul\":1581:1594   */\n      dup3\n        /* \"#utility.yul\":1537:1600   */\n      tag_29\n      jump\t// in\n    tag_51:\n        /* \"#utility.yul\":1530:1600   */\n      swap8\n      pop\n        /* \"#utility.yul\":1623:1683   */\n      tag_52\n        /* \"#utility.yul\":1676:1682   */\n      dup4\n        /* \"#utility.yul\":1623:1683   */\n      tag_30\n      jump\t// in\n    tag_52:\n        /* \"#utility.yul\":1613:1683   */\n      swap3\n      pop\n        /* \"#utility.yul\":1469:1693   */\n      pop\n        /* \"#utility.yul\":1456:1457   */\n      0x01\n        /* \"#utility.yul\":1453:1454   */\n      dup2\n        /* \"#utility.yul\":1449:1458   */\n      add\n        /* \"#utility.yul\":1444:1458   */\n      swap1\n      pop\n        /* \"#utility.yul\":1409:1693   */\n      jump(tag_48)\n    tag_50:\n        /* \"#utility.yul\":1413:1427   */\n      pop\n        /* \"#utility.yul\":1709:1712   */\n      dup6\n        /* \"#utility.yul\":1702:1712   */\n      swap4\n      pop\n        /* \"#utility.yul\":1110:1718   */\n      pop\n      pop\n      pop\n        /* \"#utility.yul\":986:1718   */\n      swap3\n      swap2\n      pop\n      pop\n      jump\t// out\n        /* \"#utility.yul\":1724:2097   */\n    tag_8:\n        /* \"#utility.yul\":1867:1871   */\n      0x00\n        /* \"#utility.yul\":1905:1907   */\n      0x20\n        /* \"#utility.yul\":1894:1903   */\n      dup3\n        /* \"#utility.yul\":1890:1908   */\n      add\n        /* \"#utility.yul\":1882:1908   */\n      swap1\n      pop\n        /* \"#utility.yul\":1954:1963   */\n      dup2\n        /* \"#utility.yul\":1948:1952   */\n      dup2\n        /* \"#utility.yul\":1944:1964   */\n      sub\n        /* \"#utility.yul\":1940:1941   */\n      0x00\n        /* \"#utility.yul\":1929:1938   */\n      dup4\n        /* \"#utility.yul\":1925:1942   */\n      add\n        /* \"#utility.yul\":1918:1965   */\n      mstore\n        /* \"#utility.yul\":1982:2090   */\n      tag_54\n        /* \"#utility.yul\":2085:2089   */\n      dup2\n        /* \"#utility.yul\":2076:2082   */\n      dup5\n        /* \"#utility.yul\":1982:2090   */\n      tag_31\n      jump\t// in\n    tag_54:\n        /* \"#utility.yul\":1974:2090   */\n      swap1\n      pop\n        /* \"#utility.yul\":1724:2097   */\n      swap3\n      swap2\n      pop\n      pop\n      jump\t// out\n        /* \"#utility.yul\":2103:2189   */\n    tag_32:\n        /* \"#utility.yul\":2138:2145   */\n      0x00\n        /* \"#utility.yul\":2178:2182   */\n      0xff\n        /* \"#utility.yul\":2171:2176   */\n      dup3\n        /* \"#utility.yul\":2167:2183   */\n      and\n        /* \"#utility.yul\":2156:2183   */\n      swap1\n      pop\n        /* \"#utility.yul\":2103:2189   */\n      swap2\n      swap1\n      pop\n      jump\t// out\n        /* \"#utility.yul\":2195:2375   */\n    tag_33:\n        /* \"#utility.yul\":2243:2320   */\n      0x4e487b7100000000000000000000000000000000000000000000000000000000\n        /* \"#utility.yul\":2240:2241   */\n      0x00\n        /* \"#utility.yul\":2233:2321   */\n      mstore\n        /* \"#utility.yul\":2340:2344   */\n      0x11\n        /* \"#utility.yul\":2337:2338   */\n      0x04\n        /* \"#utility.yul\":2330:2345   */\n      mstore\n        /* \"#utility.yul\":2364:2368   */\n      0x24\n        /* \"#utility.yul\":2361:2362   */\n      0x00\n        /* \"#utility.yul\":2354:2369   */\n      revert\n        /* \"#utility.yul\":2381:2569   */\n    tag_21:\n        /* \"#utility.yul\":2419:2422   */\n      0x00\n        /* \"#utility.yul\":2438:2456   */\n      tag_58\n        /* \"#utility.yul\":2454:2455   */\n      dup3\n        /* \"#utility.yul\":2438:2456   */\n      tag_32\n      jump\t// in\n    tag_58:\n        /* \"#utility.yul\":2433:2456   */\n      swap2\n      pop\n        /* \"#utility.yul\":2470:2488   */\n      tag_59\n        /* \"#utility.yul\":2486:2487   */\n      dup4\n        /* \"#utility.yul\":2470:2488   */\n      tag_32\n      jump\t// in\n    tag_59:\n        /* \"#utility.yul\":2465:2488   */\n      swap3\n      pop\n        /* \"#utility.yul\":2511:2512   */\n      dup3\n        /* \"#utility.yul\":2508:2509   */\n      dup3\n        /* \"#utility.yul\":2504:2513   */\n      add\n        /* \"#utility.yul\":2497:2513   */\n      swap1\n      pop\n        /* \"#utility.yul\":2534:2538   */\n      0xff\n        /* \"#utility.yul\":2529:2532   */\n      dup2\n        /* \"#utility.yul\":2526:2539   */\n      gt\n        /* \"#utility.yul\":2523:2562   */\n      iszero\n      tag_60\n      jumpi\n        /* \"#utility.yul\":2542:2560   */\n      tag_61\n      tag_33\n      jump\t// in\n    tag_61:\n        /* \"#utility.yul\":2523:2562   */\n    tag_60:\n        /* \"#utility.yul\":2381:2569   */\n      swap3\n      swap2\n      pop\n      pop\n      jump\t// out\n\n    auxdata: 0xa264697066735822122023fe3dc1ac3c1baa3b3d9fc9f4ae6a5fdf90178542fc61da3984a2a6f89f7c7064736f6c63430008120033\n}\n",
				"bytecode": {
					"linkReferences": {},
					"object": "608060405234801561001057600080fd5b5061030c806100206000396000f3fe608060405234801561001057600080fd5b50600436106100365760003560e01c8063993a04b71461003b578063a92100cb14610059575b600080fd5b610043610077565b6040516100509190610243565b60405180910390f35b6100616100cf565b60405161006e9190610243565b60405180910390f35b606060008054806020026020016040519081016040528092919081815260200182805480156100c557602002820191906000526020600020905b8154815260200190600101908083116100b1575b5050505050905090565b60606000600190505b60148160ff16101561012457600081908060018154018082558091505060019003906000526020600020016000909160ff1690919091505560028161011d91906102a1565b90506100d8565b50600080548060200260200160405190810160405280929190818152602001828054801561017157602002820191906000526020600020905b81548152602001906001019080831161015d575b5050505050905090565b600081519050919050565b600082825260208201905092915050565b6000819050602082019050919050565b6000819050919050565b6101ba816101a7565b82525050565b60006101cc83836101b1565b60208301905092915050565b6000602082019050919050565b60006101f08261017b565b6101fa8185610186565b935061020583610197565b8060005b8381101561023657815161021d88826101c0565b9750610228836101d8565b925050600181019050610209565b5085935050505092915050565b6000602082019050818103600083015261025d81846101e5565b905092915050565b600060ff82169050919050565b7f4e487b7100000000000000000000000000000000000000000000000000000000600052601160045260246000fd5b60006102ac82610265565b91506102b783610265565b9250828201905060ff8111156102d0576102cf610272565b5b9291505056fea264697066735822122023fe3dc1ac3c1baa3b3d9fc9f4ae6a5fdf90178542fc61da3984a2a6f89f7c7064736f6c63430008120033",
					"opcodes": "PUSH1 0x80 PUSH1 0x40 MSTORE CALLVALUE DUP1 ISZERO PUSH2 0x10 JUMPI PUSH1 0x0 DUP1 REVERT JUMPDEST POP PUSH2 0x30C DUP1 PUSH2 0x20 PUSH1 0x0 CODECOPY PUSH1 0x0 RETURN INVALID PUSH1 0x80 PUSH1 0x40 MSTORE CALLVALUE DUP1 ISZERO PUSH2 0x10 JUMPI PUSH1 0x0 DUP1 REVERT JUMPDEST POP PUSH1 0x4 CALLDATASIZE LT PUSH2 0x36 JUMPI PUSH1 0x0 CALLDATALOAD PUSH1 0xE0 SHR DUP1 PUSH4 0x993A04B7 EQ PUSH2 0x3B JUMPI DUP1 PUSH4 0xA92100CB EQ PUSH2 0x59 JUMPI JUMPDEST PUSH1 0x0 DUP1 REVERT JUMPDEST PUSH2 0x43 PUSH2 0x77 JUMP JUMPDEST PUSH1 0x40 MLOAD PUSH2 0x50 SWAP2 SWAP1 PUSH2 0x243 JUMP JUMPDEST PUSH1 0x40 MLOAD DUP1 SWAP2 SUB SWAP1 RETURN JUMPDEST PUSH2 0x61 PUSH2 0xCF JUMP JUMPDEST PUSH1 0x40 MLOAD PUSH2 0x6E SWAP2 SWAP1 PUSH2 0x243 JUMP JUMPDEST PUSH1 0x40 MLOAD DUP1 SWAP2 SUB SWAP1 RETURN JUMPDEST PUSH1 0x60 PUSH1 0x0 DUP1 SLOAD DUP1 PUSH1 0x20 MUL PUSH1 0x20 ADD PUSH1 0x40 MLOAD SWAP1 DUP2 ADD PUSH1 0x40 MSTORE DUP1 SWAP3 SWAP2 SWAP1 DUP2 DUP2 MSTORE PUSH1 0x20 ADD DUP3 DUP1 SLOAD DUP1 ISZERO PUSH2 0xC5 JUMPI PUSH1 0x20 MUL DUP3 ADD SWAP2 SWAP1 PUSH1 0x0 MSTORE PUSH1 0x20 PUSH1 0x0 KECCAK256 SWAP1 JUMPDEST DUP2 SLOAD DUP2 MSTORE PUSH1 0x20 ADD SWAP1 PUSH1 0x1 ADD SWAP1 DUP1 DUP4 GT PUSH2 0xB1 JUMPI JUMPDEST POP POP POP POP POP SWAP1 POP SWAP1 JUMP JUMPDEST PUSH1 0x60 PUSH1 0x0 PUSH1 0x1 SWAP1 POP JUMPDEST PUSH1 0x14 DUP2 PUSH1 0xFF AND LT ISZERO PUSH2 0x124 JUMPI PUSH1 0x0 DUP2 SWAP1 DUP1 PUSH1 0x1 DUP2 SLOAD ADD DUP1 DUP3 SSTORE DUP1 SWAP2 POP POP PUSH1 0x1 SWAP1 SUB SWAP1 PUSH1 0x0 MSTORE PUSH1 0x20 PUSH1 0x0 KECCAK256 ADD PUSH1 0x0 SWAP1 SWAP2 PUSH1 0xFF AND SWAP1 SWAP2 SWAP1 SWAP2 POP SSTORE PUSH1 0x2 DUP2 PUSH2 0x11D SWAP2 SWAP1 PUSH2 0x2A1 JUMP JUMPDEST SWAP1 POP PUSH2 0xD8 JUMP JUMPDEST POP PUSH1 0x0 DUP1 SLOAD DUP1 PUSH1 0x20 MUL PUSH1 0x20 ADD PUSH1 0x40 MLOAD SWAP1 DUP2 ADD PUSH1 0x40 MSTORE DUP1 SWAP3 SWAP2 SWAP1 DUP2 DUP2 MSTORE PUSH1 0x20 ADD DUP3 DUP1 SLOAD DUP1 ISZERO PUSH2 0x171 JUMPI PUSH1 0x20 MUL DUP3 ADD SWAP2 SWAP1 PUSH1 0x0 MSTORE PUSH1 0x20 PUSH1 0x0 KECCAK256 SWAP1 JUMPDEST DUP2 SLOAD DUP2 MSTORE PUSH1 0x20 ADD SWAP1 PUSH1 0x1 ADD SWAP1 DUP1 DUP4 GT PUSH2 0x15D JUMPI JUMPDEST POP POP POP POP POP SWAP1 POP SWAP1 JUMP JUMPDEST PUSH1 0x0 DUP2 MLOAD SWAP1 POP SWAP2 SWAP1 POP JUMP JUMPDEST PUSH1 0x0 DUP3 DUP3 MSTORE PUSH1 0x20 DUP3 ADD SWAP1 POP SWAP3 SWAP2 POP POP JUMP JUMPDEST PUSH1 0x0 DUP2 SWAP1 POP PUSH1 0x20 DUP3 ADD SWAP1 POP SWAP2 SWAP1 POP JUMP JUMPDEST PUSH1 0x0 DUP2 SWAP1 POP SWAP2 SWAP1 POP JUMP JUMPDEST PUSH2 0x1BA DUP2 PUSH2 0x1A7 JUMP JUMPDEST DUP3 MSTORE POP POP JUMP JUMPDEST PUSH1 0x0 PUSH2 0x1CC DUP4 DUP4 PUSH2 0x1B1 JUMP JUMPDEST PUSH1 0x20 DUP4 ADD SWAP1 POP SWAP3 SWAP2 POP POP JUMP JUMPDEST PUSH1 0x0 PUSH1 0x20 DUP3 ADD SWAP1 POP SWAP2 SWAP1 POP JUMP JUMPDEST PUSH1 0x0 PUSH2 0x1F0 DUP3 PUSH2 0x17B JUMP JUMPDEST PUSH2 0x1FA DUP2 DUP6 PUSH2 0x186 JUMP JUMPDEST SWAP4 POP PUSH2 0x205 DUP4 PUSH2 0x197 JUMP JUMPDEST DUP1 PUSH1 0x0 JUMPDEST DUP4 DUP2 LT ISZERO PUSH2 0x236 JUMPI DUP2 MLOAD PUSH2 0x21D DUP9 DUP3 PUSH2 0x1C0 JUMP JUMPDEST SWAP8 POP PUSH2 0x228 DUP4 PUSH2 0x1D8 JUMP JUMPDEST SWAP3 POP POP PUSH1 0x1 DUP2 ADD SWAP1 POP PUSH2 0x209 JUMP JUMPDEST POP DUP6 SWAP4 POP POP POP POP SWAP3 SWAP2 POP POP JUMP JUMPDEST PUSH1 0x0 PUSH1 0x20 DUP3 ADD SWAP1 POP DUP2 DUP2 SUB PUSH1 0x0 DUP4 ADD MSTORE PUSH2 0x25D DUP2 DUP5 PUSH2 0x1E5 JUMP JUMPDEST SWAP1 POP SWAP3 SWAP2 POP POP JUMP JUMPDEST PUSH1 0x0 PUSH1 0xFF DUP3 AND SWAP1 POP SWAP2 SWAP1 POP JUMP JUMPDEST PUSH32 0x4E487B7100000000000000000000000000000000000000000000000000000000 PUSH1 0x0 MSTORE PUSH1 0x11 PUSH1 0x4 MSTORE PUSH1 0x24 PUSH1 0x0 REVERT JUMPDEST PUSH1 0x0 PUSH2 0x2AC DUP3 PUSH2 0x265 JUMP JUMPDEST SWAP2 POP PUSH2 0x2B7 DUP4 PUSH2 0x265 JUMP JUMPDEST SWAP3 POP DUP3 DUP3 ADD SWAP1 POP PUSH1 0xFF DUP2 GT ISZERO PUSH2 0x2D0 JUMPI PUSH2 0x2CF PUSH2 0x272 JUMP JUMPDEST JUMPDEST SWAP3 SWAP2 POP POP JUMP INVALID LOG2 PUSH5 0x6970667358 0x22 SLT KECCAK256 0x23 INVALID RETURNDATASIZE 0xC1 0xAC EXTCODECOPY SHL 0xAA EXTCODESIZE RETURNDATASIZE SWAP16 0xC9 DELEGATECALL 0xAE PUSH11 0x5FDF90178542FC61DA3984 LOG2 0xA6 0xF8 SWAP16 PUSH29 0x7064736F6C634300081200330000000000000000000000000000000000 "
				},
				"gasEstimates": {
					"creation": {
						"codeDepositCost": "156000",
						"executionCost": "202",
						"totalCost": "156202"
					},
					"external": {
						"getter()": "infinite",
						"loop()": "infinite"
					}
				},
				"methodIdentifiers": {
					"getter()": "993a04b7",
					"loop()": "a92100cb"
				}
			},
			"storageLayout": {
				"storage": [
					{
						"astId": 4,
						"contract": "labs/02-8-23/loops.sol:Loop",
						"label": "data",
						"offset": 0,
						"slot": "0",
						"type": "t_array(t_uint256)dyn_storage"
					}
				],
				"types": {
					"t_array(t_uint256)dyn_storage": {
						"base": "t_uint256",
						"encoding": "dynamic_array",
						"label": "uint256[]",
						"numberOfBytes": "32"
					},
					"t_uint256": {
						"encoding": "inplace",
						"label": "uint256",
						"numberOfBytes": "32"
					}
				}
			},
			"userdoc": {
				"kind": "user",
				"methods": {},
				"version": 1
			}
		}
	}
}