{
	"labs/02-8-23/TicketBookingSystem.sol": {
		"TicketBookingSystem": {
			"abi": [
				{
					"inputs": [
						{
							"internalType": "string",
							"name": "_passenger",
							"type": "string"
						},
						{
							"internalType": "enum TicketBookingSystem.Days",
							"name": "_day",
							"type": "uint8"
						},
						{
							"internalType": "enum TicketBookingSystem.TicketType",
							"name": "_ticketType",
							"type": "uint8"
						}
					],
					"name": "bookTicket",
					"outputs": [],
					"stateMutability": "nonpayable",
					"type": "function"
				},
				{
					"inputs": [
						{
							"internalType": "uint256",
							"name": "_index",
							"type": "uint256"
						}
					],
					"name": "getTicketDay",
					"outputs": [
						{
							"internalType": "enum TicketBookingSystem.Days",
							"name": "",
							"type": "uint8"
						}
					],
					"stateMutability": "view",
					"type": "function"
				},
				{
					"inputs": [
						{
							"internalType": "uint256",
							"name": "_index",
							"type": "uint256"
						}
					],
					"name": "getTicketType",
					"outputs": [
						{
							"internalType": "enum TicketBookingSystem.TicketType",
							"name": "",
							"type": "uint8"
						}
					],
					"stateMutability": "view",
					"type": "function"
				},
				{
					"inputs": [
						{
							"internalType": "uint256",
							"name": "",
							"type": "uint256"
						}
					],
					"name": "tickets",
					"outputs": [
						{
							"internalType": "string",
							"name": "passenger",
							"type": "string"
						},
						{
							"internalType": "enum TicketBookingSystem.TicketType",
							"name": "ticketType",
							"type": "uint8"
						},
						{
							"internalType": "enum TicketBookingSystem.Days",
							"name": "day",
							"type": "uint8"
						},
						{
							"internalType": "bool",
							"name": "isBooked",
							"type": "bool"
						}
					],
					"stateMutability": "view",
					"type": "function"
				},
				{
					"inputs": [
						{
							"internalType": "uint256",
							"name": "_index",
							"type": "uint256"
						}
					],
					"name": "toggleStatus",
					"outputs": [],
					"stateMutability": "nonpayable",
					"type": "function"
				}
			],
			"devdoc": {
				"kind": "dev",
				"methods": {},
				"version": 1
			},
			"evm": {
				"assembly": "    /* \"labs/02-8-23/TicketBookingSystem.sol\":61:1029  contract TicketBookingSystem{... */\n  mstore(0x40, 0x80)\n  callvalue\n  dup1\n  iszero\n  tag_1\n  jumpi\n  0x00\n  dup1\n  revert\ntag_1:\n  pop\n  dataSize(sub_0)\n  dup1\n  dataOffset(sub_0)\n  0x00\n  codecopy\n  0x00\n  return\nstop\n\nsub_0: assembly {\n        /* \"labs/02-8-23/TicketBookingSystem.sol\":61:1029  contract TicketBookingSystem{... */\n      mstore(0x40, 0x80)\n      callvalue\n      dup1\n      iszero\n      tag_1\n      jumpi\n      0x00\n      dup1\n      revert\n    tag_1:\n      pop\n      jumpi(tag_2, lt(calldatasize, 0x04))\n      shr(0xe0, calldataload(0x00))\n      dup1\n      0x163e0f46\n      eq\n      tag_3\n      jumpi\n      dup1\n      0x50b44712\n      eq\n      tag_4\n      jumpi\n      dup1\n      0x51db2e76\n      eq\n      tag_5\n      jumpi\n      dup1\n      0x57f2f8ea\n      eq\n      tag_6\n      jumpi\n      dup1\n      0xb1d36506\n      eq\n      tag_7\n      jumpi\n    tag_2:\n      0x00\n      dup1\n      revert\n        /* \"labs/02-8-23/TicketBookingSystem.sol\":669:791  function getTicketType(uint256 _index) public view returns(TicketType){... */\n    tag_3:\n      tag_8\n      0x04\n      dup1\n      calldatasize\n      sub\n      dup2\n      add\n      swap1\n      tag_9\n      swap2\n      swap1\n      tag_10\n      jump\t// in\n    tag_9:\n      tag_11\n      jump\t// in\n    tag_8:\n      mload(0x40)\n      tag_12\n      swap2\n      swap1\n      tag_13\n      jump\t// in\n    tag_12:\n      mload(0x40)\n      dup1\n      swap2\n      sub\n      swap1\n      return\n        /* \"labs/02-8-23/TicketBookingSystem.sol\":468:491  Ticket[] public tickets */\n    tag_4:\n      tag_14\n      0x04\n      dup1\n      calldatasize\n      sub\n      dup2\n      add\n      swap1\n      tag_15\n      swap2\n      swap1\n      tag_10\n      jump\t// in\n    tag_15:\n      tag_16\n      jump\t// in\n    tag_14:\n      mload(0x40)\n      tag_17\n      swap5\n      swap4\n      swap3\n      swap2\n      swap1\n      tag_18\n      jump\t// in\n    tag_17:\n      mload(0x40)\n      dup1\n      swap2\n      sub\n      swap1\n      return\n        /* \"labs/02-8-23/TicketBookingSystem.sol\":913:1026  function toggleStatus(uint256 _index) public{... */\n    tag_5:\n      tag_19\n      0x04\n      dup1\n      calldatasize\n      sub\n      dup2\n      add\n      swap1\n      tag_20\n      swap2\n      swap1\n      tag_10\n      jump\t// in\n    tag_20:\n      tag_21\n      jump\t// in\n    tag_19:\n      stop\n        /* \"labs/02-8-23/TicketBookingSystem.sol\":799:907  function getTicketDay(uint256 _index) public view returns(Days){... */\n    tag_6:\n      tag_22\n      0x04\n      dup1\n      calldatasize\n      sub\n      dup2\n      add\n      swap1\n      tag_23\n      swap2\n      swap1\n      tag_10\n      jump\t// in\n    tag_23:\n      tag_24\n      jump\t// in\n    tag_22:\n      mload(0x40)\n      tag_25\n      swap2\n      swap1\n      tag_26\n      jump\t// in\n    tag_25:\n      mload(0x40)\n      dup1\n      swap2\n      sub\n      swap1\n      return\n        /* \"labs/02-8-23/TicketBookingSystem.sol\":500:661  function bookTicket(string memory _passenger, Days _day, TicketType _ticketType) public{... */\n    tag_7:\n      tag_27\n      0x04\n      dup1\n      calldatasize\n      sub\n      dup2\n      add\n      swap1\n      tag_28\n      swap2\n      swap1\n      tag_29\n      jump\t// in\n    tag_28:\n      tag_30\n      jump\t// in\n    tag_27:\n      stop\n        /* \"labs/02-8-23/TicketBookingSystem.sol\":669:791  function getTicketType(uint256 _index) public view returns(TicketType){... */\n    tag_11:\n        /* \"labs/02-8-23/TicketBookingSystem.sol\":728:738  TicketType */\n      0x00\n        /* \"labs/02-8-23/TicketBookingSystem.sol\":757:764  tickets */\n      dup1\n        /* \"labs/02-8-23/TicketBookingSystem.sol\":765:771  _index */\n      dup3\n        /* \"labs/02-8-23/TicketBookingSystem.sol\":757:772  tickets[_index] */\n      dup2\n      sload\n      dup2\n      lt\n      tag_32\n      jumpi\n      tag_33\n      tag_34\n      jump\t// in\n    tag_33:\n    tag_32:\n      swap1\n      0x00\n      mstore\n      keccak256(0x00, 0x20)\n      swap1\n      0x02\n      mul\n      add\n        /* \"labs/02-8-23/TicketBookingSystem.sol\":757:783  tickets[_index].ticketType */\n      0x01\n      add\n      0x00\n      swap1\n      sload\n      swap1\n      0x0100\n      exp\n      swap1\n      div\n      0xff\n      and\n        /* \"labs/02-8-23/TicketBookingSystem.sol\":750:783  return tickets[_index].ticketType */\n      swap1\n      pop\n        /* \"labs/02-8-23/TicketBookingSystem.sol\":669:791  function getTicketType(uint256 _index) public view returns(TicketType){... */\n      swap2\n      swap1\n      pop\n      jump\t// out\n        /* \"labs/02-8-23/TicketBookingSystem.sol\":468:491  Ticket[] public tickets */\n    tag_16:\n      0x00\n      dup2\n      dup2\n      sload\n      dup2\n      lt\n      tag_36\n      jumpi\n      0x00\n      dup1\n      revert\n    tag_36:\n      swap1\n      0x00\n      mstore\n      keccak256(0x00, 0x20)\n      swap1\n      0x02\n      mul\n      add\n      0x00\n      swap2\n      pop\n      swap1\n      pop\n      dup1\n      0x00\n      add\n      dup1\n      sload\n      tag_38\n      swap1\n      tag_39\n      jump\t// in\n    tag_38:\n      dup1\n      0x1f\n      add\n      0x20\n      dup1\n      swap2\n      div\n      mul\n      0x20\n      add\n      mload(0x40)\n      swap1\n      dup2\n      add\n      0x40\n      mstore\n      dup1\n      swap3\n      swap2\n      swap1\n      dup2\n      dup2\n      mstore\n      0x20\n      add\n      dup3\n      dup1\n      sload\n      tag_40\n      swap1\n      tag_39\n      jump\t// in\n    tag_40:\n      dup1\n      iszero\n      tag_41\n      jumpi\n      dup1\n      0x1f\n      lt\n      tag_42\n      jumpi\n      0x0100\n      dup1\n      dup4\n      sload\n      div\n      mul\n      dup4\n      mstore\n      swap2\n      0x20\n      add\n      swap2\n      jump(tag_41)\n    tag_42:\n      dup3\n      add\n      swap2\n      swap1\n      0x00\n      mstore\n      keccak256(0x00, 0x20)\n      swap1\n    tag_43:\n      dup2\n      sload\n      dup2\n      mstore\n      swap1\n      0x01\n      add\n      swap1\n      0x20\n      add\n      dup1\n      dup4\n      gt\n      tag_43\n      jumpi\n      dup3\n      swap1\n      sub\n      0x1f\n      and\n      dup3\n      add\n      swap2\n    tag_41:\n      pop\n      pop\n      pop\n      pop\n      pop\n      swap1\n      dup1\n      0x01\n      add\n      0x00\n      swap1\n      sload\n      swap1\n      0x0100\n      exp\n      swap1\n      div\n      0xff\n      and\n      swap1\n      dup1\n      0x01\n      add\n      0x01\n      swap1\n      sload\n      swap1\n      0x0100\n      exp\n      swap1\n      div\n      0xff\n      and\n      swap1\n      dup1\n      0x01\n      add\n      0x02\n      swap1\n      sload\n      swap1\n      0x0100\n      exp\n      swap1\n      div\n      0xff\n      and\n      swap1\n      pop\n      dup5\n      jump\t// out\n        /* \"labs/02-8-23/TicketBookingSystem.sol\":913:1026  function toggleStatus(uint256 _index) public{... */\n    tag_21:\n        /* \"labs/02-8-23/TicketBookingSystem.sol\":994:1001  tickets */\n      0x00\n        /* \"labs/02-8-23/TicketBookingSystem.sol\":1002:1008  _index */\n      dup2\n        /* \"labs/02-8-23/TicketBookingSystem.sol\":994:1009  tickets[_index] */\n      dup2\n      sload\n      dup2\n      lt\n      tag_45\n      jumpi\n      tag_46\n      tag_34\n      jump\t// in\n    tag_46:\n    tag_45:\n      swap1\n      0x00\n      mstore\n      keccak256(0x00, 0x20)\n      swap1\n      0x02\n      mul\n      add\n        /* \"labs/02-8-23/TicketBookingSystem.sol\":994:1018  tickets[_index].isBooked */\n      0x01\n      add\n      0x02\n      swap1\n      sload\n      swap1\n      0x0100\n      exp\n      swap1\n      div\n      0xff\n      and\n        /* \"labs/02-8-23/TicketBookingSystem.sol\":993:1018  !tickets[_index].isBooked */\n      iszero\n        /* \"labs/02-8-23/TicketBookingSystem.sol\":968:975  tickets */\n      0x00\n        /* \"labs/02-8-23/TicketBookingSystem.sol\":976:982  _index */\n      dup3\n        /* \"labs/02-8-23/TicketBookingSystem.sol\":968:983  tickets[_index] */\n      dup2\n      sload\n      dup2\n      lt\n      tag_48\n      jumpi\n      tag_49\n      tag_34\n      jump\t// in\n    tag_49:\n    tag_48:\n      swap1\n      0x00\n      mstore\n      keccak256(0x00, 0x20)\n      swap1\n      0x02\n      mul\n      add\n        /* \"labs/02-8-23/TicketBookingSystem.sol\":968:992  tickets[_index].isBooked */\n      0x01\n      add\n      0x02\n        /* \"labs/02-8-23/TicketBookingSystem.sol\":968:1018  tickets[_index].isBooked=!tickets[_index].isBooked */\n      0x0100\n      exp\n      dup2\n      sload\n      dup2\n      0xff\n      mul\n      not\n      and\n      swap1\n      dup4\n      iszero\n      iszero\n      mul\n      or\n      swap1\n      sstore\n      pop\n        /* \"labs/02-8-23/TicketBookingSystem.sol\":913:1026  function toggleStatus(uint256 _index) public{... */\n      pop\n      jump\t// out\n        /* \"labs/02-8-23/TicketBookingSystem.sol\":799:907  function getTicketDay(uint256 _index) public view returns(Days){... */\n    tag_24:\n        /* \"labs/02-8-23/TicketBookingSystem.sol\":857:861  Days */\n      0x00\n        /* \"labs/02-8-23/TicketBookingSystem.sol\":880:887  tickets */\n      dup1\n        /* \"labs/02-8-23/TicketBookingSystem.sol\":888:894  _index */\n      dup3\n        /* \"labs/02-8-23/TicketBookingSystem.sol\":880:895  tickets[_index] */\n      dup2\n      sload\n      dup2\n      lt\n      tag_52\n      jumpi\n      tag_53\n      tag_34\n      jump\t// in\n    tag_53:\n    tag_52:\n      swap1\n      0x00\n      mstore\n      keccak256(0x00, 0x20)\n      swap1\n      0x02\n      mul\n      add\n        /* \"labs/02-8-23/TicketBookingSystem.sol\":880:899  tickets[_index].day */\n      0x01\n      add\n      0x01\n      swap1\n      sload\n      swap1\n      0x0100\n      exp\n      swap1\n      div\n      0xff\n      and\n        /* \"labs/02-8-23/TicketBookingSystem.sol\":873:899  return tickets[_index].day */\n      swap1\n      pop\n        /* \"labs/02-8-23/TicketBookingSystem.sol\":799:907  function getTicketDay(uint256 _index) public view returns(Days){... */\n      swap2\n      swap1\n      pop\n      jump\t// out\n        /* \"labs/02-8-23/TicketBookingSystem.sol\":500:661  function bookTicket(string memory _passenger, Days _day, TicketType _ticketType) public{... */\n    tag_30:\n        /* \"labs/02-8-23/TicketBookingSystem.sol\":598:605  tickets */\n      0x00\n        /* \"labs/02-8-23/TicketBookingSystem.sol\":611:652  Ticket(_passenger,_ticketType,_day,false) */\n      mload(0x40)\n      dup1\n      0x80\n      add\n      0x40\n      mstore\n      dup1\n        /* \"labs/02-8-23/TicketBookingSystem.sol\":618:628  _passenger */\n      dup6\n        /* \"labs/02-8-23/TicketBookingSystem.sol\":611:652  Ticket(_passenger,_ticketType,_day,false) */\n      dup2\n      mstore\n      0x20\n      add\n        /* \"labs/02-8-23/TicketBookingSystem.sol\":629:640  _ticketType */\n      dup4\n        /* \"labs/02-8-23/TicketBookingSystem.sol\":611:652  Ticket(_passenger,_ticketType,_day,false) */\n      0x02\n      dup2\n      gt\n      iszero\n      tag_56\n      jumpi\n      tag_57\n      tag_58\n      jump\t// in\n    tag_57:\n    tag_56:\n      dup2\n      mstore\n      0x20\n      add\n        /* \"labs/02-8-23/TicketBookingSystem.sol\":641:645  _day */\n      dup5\n        /* \"labs/02-8-23/TicketBookingSystem.sol\":611:652  Ticket(_passenger,_ticketType,_day,false) */\n      0x06\n      dup2\n      gt\n      iszero\n      tag_59\n      jumpi\n      tag_60\n      tag_58\n      jump\t// in\n    tag_60:\n    tag_59:\n      dup2\n      mstore\n      0x20\n      add\n        /* \"labs/02-8-23/TicketBookingSystem.sol\":646:651  false */\n      0x00\n        /* \"labs/02-8-23/TicketBookingSystem.sol\":611:652  Ticket(_passenger,_ticketType,_day,false) */\n      iszero\n      iszero\n      dup2\n      mstore\n      pop\n        /* \"labs/02-8-23/TicketBookingSystem.sol\":598:653  tickets.push(Ticket(_passenger,_ticketType,_day,false)) */\n      swap1\n      dup1\n      0x01\n      dup2\n      sload\n      add\n      dup1\n      dup3\n      sstore\n      dup1\n      swap2\n      pop\n      pop\n      0x01\n      swap1\n      sub\n      swap1\n      0x00\n      mstore\n      keccak256(0x00, 0x20)\n      swap1\n      0x02\n      mul\n      add\n      0x00\n      swap1\n      swap2\n      swap1\n      swap2\n      swap1\n      swap2\n      pop\n      0x00\n      dup3\n      add\n      mload\n      dup2\n      0x00\n      add\n      swap1\n      dup2\n      tag_62\n      swap2\n      swap1\n      tag_63\n      jump\t// in\n    tag_62:\n      pop\n      0x20\n      dup3\n      add\n      mload\n      dup2\n      0x01\n      add\n      exp(0x0100, 0x00)\n      dup2\n      sload\n      dup2\n      0xff\n      mul\n      not\n      and\n      swap1\n      dup4\n      0x02\n      dup2\n      gt\n      iszero\n      tag_64\n      jumpi\n      tag_65\n      tag_58\n      jump\t// in\n    tag_65:\n    tag_64:\n      mul\n      or\n      swap1\n      sstore\n      pop\n      0x40\n      dup3\n      add\n      mload\n      dup2\n      0x01\n      add\n      exp(0x0100, 0x01)\n      dup2\n      sload\n      dup2\n      0xff\n      mul\n      not\n      and\n      swap1\n      dup4\n      0x06\n      dup2\n      gt\n      iszero\n      tag_66\n      jumpi\n      tag_67\n      tag_58\n      jump\t// in\n    tag_67:\n    tag_66:\n      mul\n      or\n      swap1\n      sstore\n      pop\n      0x60\n      dup3\n      add\n      mload\n      dup2\n      0x01\n      add\n      exp(0x0100, 0x02)\n      dup2\n      sload\n      dup2\n      0xff\n      mul\n      not\n      and\n      swap1\n      dup4\n      iszero\n      iszero\n      mul\n      or\n      swap1\n      sstore\n      pop\n      pop\n      pop\n        /* \"labs/02-8-23/TicketBookingSystem.sol\":500:661  function bookTicket(string memory _passenger, Days _day, TicketType _ticketType) public{... */\n      pop\n      pop\n      pop\n      jump\t// out\n        /* \"#utility.yul\":7:82   */\n    tag_68:\n        /* \"#utility.yul\":40:46   */\n      0x00\n        /* \"#utility.yul\":73:75   */\n      0x40\n        /* \"#utility.yul\":67:76   */\n      mload\n        /* \"#utility.yul\":57:76   */\n      swap1\n      pop\n        /* \"#utility.yul\":7:82   */\n      swap1\n      jump\t// out\n        /* \"#utility.yul\":88:205   */\n    tag_69:\n        /* \"#utility.yul\":197:198   */\n      0x00\n        /* \"#utility.yul\":194:195   */\n      dup1\n        /* \"#utility.yul\":187:199   */\n      revert\n        /* \"#utility.yul\":211:328   */\n    tag_70:\n        /* \"#utility.yul\":320:321   */\n      0x00\n        /* \"#utility.yul\":317:318   */\n      dup1\n        /* \"#utility.yul\":310:322   */\n      revert\n        /* \"#utility.yul\":334:411   */\n    tag_71:\n        /* \"#utility.yul\":371:378   */\n      0x00\n        /* \"#utility.yul\":400:405   */\n      dup2\n        /* \"#utility.yul\":389:405   */\n      swap1\n      pop\n        /* \"#utility.yul\":334:411   */\n      swap2\n      swap1\n      pop\n      jump\t// out\n        /* \"#utility.yul\":417:539   */\n    tag_72:\n        /* \"#utility.yul\":490:514   */\n      tag_124\n        /* \"#utility.yul\":508:513   */\n      dup2\n        /* \"#utility.yul\":490:514   */\n      tag_71\n      jump\t// in\n    tag_124:\n        /* \"#utility.yul\":483:488   */\n      dup2\n        /* \"#utility.yul\":480:515   */\n      eq\n        /* \"#utility.yul\":470:533   */\n      tag_125\n      jumpi\n        /* \"#utility.yul\":529:530   */\n      0x00\n        /* \"#utility.yul\":526:527   */\n      dup1\n        /* \"#utility.yul\":519:531   */\n      revert\n        /* \"#utility.yul\":470:533   */\n    tag_125:\n        /* \"#utility.yul\":417:539   */\n      pop\n      jump\t// out\n        /* \"#utility.yul\":545:684   */\n    tag_73:\n        /* \"#utility.yul\":591:596   */\n      0x00\n        /* \"#utility.yul\":629:635   */\n      dup2\n        /* \"#utility.yul\":616:636   */\n      calldataload\n        /* \"#utility.yul\":607:636   */\n      swap1\n      pop\n        /* \"#utility.yul\":645:678   */\n      tag_127\n        /* \"#utility.yul\":672:677   */\n      dup2\n        /* \"#utility.yul\":645:678   */\n      tag_72\n      jump\t// in\n    tag_127:\n        /* \"#utility.yul\":545:684   */\n      swap3\n      swap2\n      pop\n      pop\n      jump\t// out\n        /* \"#utility.yul\":690:1019   */\n    tag_10:\n        /* \"#utility.yul\":749:755   */\n      0x00\n        /* \"#utility.yul\":798:800   */\n      0x20\n        /* \"#utility.yul\":786:795   */\n      dup3\n        /* \"#utility.yul\":777:784   */\n      dup5\n        /* \"#utility.yul\":773:796   */\n      sub\n        /* \"#utility.yul\":769:801   */\n      slt\n        /* \"#utility.yul\":766:885   */\n      iszero\n      tag_129\n      jumpi\n        /* \"#utility.yul\":804:883   */\n      tag_130\n      tag_69\n      jump\t// in\n    tag_130:\n        /* \"#utility.yul\":766:885   */\n    tag_129:\n        /* \"#utility.yul\":924:925   */\n      0x00\n        /* \"#utility.yul\":949:1002   */\n      tag_131\n        /* \"#utility.yul\":994:1001   */\n      dup5\n        /* \"#utility.yul\":985:991   */\n      dup3\n        /* \"#utility.yul\":974:983   */\n      dup6\n        /* \"#utility.yul\":970:992   */\n      add\n        /* \"#utility.yul\":949:1002   */\n      tag_73\n      jump\t// in\n    tag_131:\n        /* \"#utility.yul\":939:1002   */\n      swap2\n      pop\n        /* \"#utility.yul\":895:1012   */\n      pop\n        /* \"#utility.yul\":690:1019   */\n      swap3\n      swap2\n      pop\n      pop\n      jump\t// out\n        /* \"#utility.yul\":1025:1205   */\n    tag_58:\n        /* \"#utility.yul\":1073:1150   */\n      0x4e487b7100000000000000000000000000000000000000000000000000000000\n        /* \"#utility.yul\":1070:1071   */\n      0x00\n        /* \"#utility.yul\":1063:1151   */\n      mstore\n        /* \"#utility.yul\":1170:1174   */\n      0x21\n        /* \"#utility.yul\":1167:1168   */\n      0x04\n        /* \"#utility.yul\":1160:1175   */\n      mstore\n        /* \"#utility.yul\":1194:1198   */\n      0x24\n        /* \"#utility.yul\":1191:1192   */\n      0x00\n        /* \"#utility.yul\":1184:1199   */\n      revert\n        /* \"#utility.yul\":1211:1328   */\n    tag_74:\n        /* \"#utility.yul\":1296:1297   */\n      0x03\n        /* \"#utility.yul\":1289:1294   */\n      dup2\n        /* \"#utility.yul\":1286:1298   */\n      lt\n        /* \"#utility.yul\":1276:1322   */\n      tag_134\n      jumpi\n        /* \"#utility.yul\":1302:1320   */\n      tag_135\n      tag_58\n      jump\t// in\n    tag_135:\n        /* \"#utility.yul\":1276:1322   */\n    tag_134:\n        /* \"#utility.yul\":1211:1328   */\n      pop\n      jump\t// out\n        /* \"#utility.yul\":1334:1469   */\n    tag_75:\n        /* \"#utility.yul\":1383:1390   */\n      0x00\n        /* \"#utility.yul\":1412:1417   */\n      dup2\n        /* \"#utility.yul\":1401:1417   */\n      swap1\n      pop\n        /* \"#utility.yul\":1418:1463   */\n      tag_137\n        /* \"#utility.yul\":1457:1462   */\n      dup3\n        /* \"#utility.yul\":1418:1463   */\n      tag_74\n      jump\t// in\n    tag_137:\n        /* \"#utility.yul\":1334:1469   */\n      swap2\n      swap1\n      pop\n      jump\t// out\n        /* \"#utility.yul\":1475:1610   */\n    tag_76:\n        /* \"#utility.yul\":1535:1544   */\n      0x00\n        /* \"#utility.yul\":1568:1604   */\n      tag_139\n        /* \"#utility.yul\":1598:1603   */\n      dup3\n        /* \"#utility.yul\":1568:1604   */\n      tag_75\n      jump\t// in\n    tag_139:\n        /* \"#utility.yul\":1555:1604   */\n      swap1\n      pop\n        /* \"#utility.yul\":1475:1610   */\n      swap2\n      swap1\n      pop\n      jump\t// out\n        /* \"#utility.yul\":1616:1767   */\n    tag_77:\n        /* \"#utility.yul\":1713:1760   */\n      tag_141\n        /* \"#utility.yul\":1754:1759   */\n      dup2\n        /* \"#utility.yul\":1713:1760   */\n      tag_76\n      jump\t// in\n    tag_141:\n        /* \"#utility.yul\":1708:1711   */\n      dup3\n        /* \"#utility.yul\":1701:1761   */\n      mstore\n        /* \"#utility.yul\":1616:1767   */\n      pop\n      pop\n      jump\t// out\n        /* \"#utility.yul\":1773:2015   */\n    tag_13:\n        /* \"#utility.yul\":1876:1880   */\n      0x00\n        /* \"#utility.yul\":1914:1916   */\n      0x20\n        /* \"#utility.yul\":1903:1912   */\n      dup3\n        /* \"#utility.yul\":1899:1917   */\n      add\n        /* \"#utility.yul\":1891:1917   */\n      swap1\n      pop\n        /* \"#utility.yul\":1927:2008   */\n      tag_143\n        /* \"#utility.yul\":2005:2006   */\n      0x00\n        /* \"#utility.yul\":1994:2003   */\n      dup4\n        /* \"#utility.yul\":1990:2007   */\n      add\n        /* \"#utility.yul\":1981:1987   */\n      dup5\n        /* \"#utility.yul\":1927:2008   */\n      tag_77\n      jump\t// in\n    tag_143:\n        /* \"#utility.yul\":1773:2015   */\n      swap3\n      swap2\n      pop\n      pop\n      jump\t// out\n        /* \"#utility.yul\":2021:2120   */\n    tag_78:\n        /* \"#utility.yul\":2073:2079   */\n      0x00\n        /* \"#utility.yul\":2107:2112   */\n      dup2\n        /* \"#utility.yul\":2101:2113   */\n      mload\n        /* \"#utility.yul\":2091:2113   */\n      swap1\n      pop\n        /* \"#utility.yul\":2021:2120   */\n      swap2\n      swap1\n      pop\n      jump\t// out\n        /* \"#utility.yul\":2126:2295   */\n    tag_79:\n        /* \"#utility.yul\":2210:2221   */\n      0x00\n        /* \"#utility.yul\":2244:2250   */\n      dup3\n        /* \"#utility.yul\":2239:2242   */\n      dup3\n        /* \"#utility.yul\":2232:2251   */\n      mstore\n        /* \"#utility.yul\":2284:2288   */\n      0x20\n        /* \"#utility.yul\":2279:2282   */\n      dup3\n        /* \"#utility.yul\":2275:2289   */\n      add\n        /* \"#utility.yul\":2260:2289   */\n      swap1\n      pop\n        /* \"#utility.yul\":2126:2295   */\n      swap3\n      swap2\n      pop\n      pop\n      jump\t// out\n        /* \"#utility.yul\":2301:2547   */\n    tag_80:\n        /* \"#utility.yul\":2382:2383   */\n      0x00\n        /* \"#utility.yul\":2392:2505   */\n    tag_147:\n        /* \"#utility.yul\":2406:2412   */\n      dup4\n        /* \"#utility.yul\":2403:2404   */\n      dup2\n        /* \"#utility.yul\":2400:2413   */\n      lt\n        /* \"#utility.yul\":2392:2505   */\n      iszero\n      tag_149\n      jumpi\n        /* \"#utility.yul\":2491:2492   */\n      dup1\n        /* \"#utility.yul\":2486:2489   */\n      dup3\n        /* \"#utility.yul\":2482:2493   */\n      add\n        /* \"#utility.yul\":2476:2494   */\n      mload\n        /* \"#utility.yul\":2472:2473   */\n      dup2\n        /* \"#utility.yul\":2467:2470   */\n      dup5\n        /* \"#utility.yul\":2463:2474   */\n      add\n        /* \"#utility.yul\":2456:2495   */\n      mstore\n        /* \"#utility.yul\":2428:2430   */\n      0x20\n        /* \"#utility.yul\":2425:2426   */\n      dup2\n        /* \"#utility.yul\":2421:2431   */\n      add\n        /* \"#utility.yul\":2416:2431   */\n      swap1\n      pop\n        /* \"#utility.yul\":2392:2505   */\n      jump(tag_147)\n    tag_149:\n        /* \"#utility.yul\":2539:2540   */\n      0x00\n        /* \"#utility.yul\":2530:2536   */\n      dup5\n        /* \"#utility.yul\":2525:2528   */\n      dup5\n        /* \"#utility.yul\":2521:2537   */\n      add\n        /* \"#utility.yul\":2514:2541   */\n      mstore\n        /* \"#utility.yul\":2363:2547   */\n      pop\n        /* \"#utility.yul\":2301:2547   */\n      pop\n      pop\n      pop\n      jump\t// out\n        /* \"#utility.yul\":2553:2655   */\n    tag_81:\n        /* \"#utility.yul\":2594:2600   */\n      0x00\n        /* \"#utility.yul\":2645:2647   */\n      0x1f\n        /* \"#utility.yul\":2641:2648   */\n      not\n        /* \"#utility.yul\":2636:2638   */\n      0x1f\n        /* \"#utility.yul\":2629:2634   */\n      dup4\n        /* \"#utility.yul\":2625:2639   */\n      add\n        /* \"#utility.yul\":2621:2649   */\n      and\n        /* \"#utility.yul\":2611:2649   */\n      swap1\n      pop\n        /* \"#utility.yul\":2553:2655   */\n      swap2\n      swap1\n      pop\n      jump\t// out\n        /* \"#utility.yul\":2661:3038   */\n    tag_82:\n        /* \"#utility.yul\":2749:2752   */\n      0x00\n        /* \"#utility.yul\":2777:2816   */\n      tag_152\n        /* \"#utility.yul\":2810:2815   */\n      dup3\n        /* \"#utility.yul\":2777:2816   */\n      tag_78\n      jump\t// in\n    tag_152:\n        /* \"#utility.yul\":2832:2903   */\n      tag_153\n        /* \"#utility.yul\":2896:2902   */\n      dup2\n        /* \"#utility.yul\":2891:2894   */\n      dup6\n        /* \"#utility.yul\":2832:2903   */\n      tag_79\n      jump\t// in\n    tag_153:\n        /* \"#utility.yul\":2825:2903   */\n      swap4\n      pop\n        /* \"#utility.yul\":2912:2977   */\n      tag_154\n        /* \"#utility.yul\":2970:2976   */\n      dup2\n        /* \"#utility.yul\":2965:2968   */\n      dup6\n        /* \"#utility.yul\":2958:2962   */\n      0x20\n        /* \"#utility.yul\":2951:2956   */\n      dup7\n        /* \"#utility.yul\":2947:2963   */\n      add\n        /* \"#utility.yul\":2912:2977   */\n      tag_80\n      jump\t// in\n    tag_154:\n        /* \"#utility.yul\":3002:3031   */\n      tag_155\n        /* \"#utility.yul\":3024:3030   */\n      dup2\n        /* \"#utility.yul\":3002:3031   */\n      tag_81\n      jump\t// in\n    tag_155:\n        /* \"#utility.yul\":2997:3000   */\n      dup5\n        /* \"#utility.yul\":2993:3032   */\n      add\n        /* \"#utility.yul\":2986:3032   */\n      swap2\n      pop\n        /* \"#utility.yul\":2753:3038   */\n      pop\n        /* \"#utility.yul\":2661:3038   */\n      swap3\n      swap2\n      pop\n      pop\n      jump\t// out\n        /* \"#utility.yul\":3044:3156   */\n    tag_83:\n        /* \"#utility.yul\":3124:3125   */\n      0x07\n        /* \"#utility.yul\":3117:3122   */\n      dup2\n        /* \"#utility.yul\":3114:3126   */\n      lt\n        /* \"#utility.yul\":3104:3150   */\n      tag_157\n      jumpi\n        /* \"#utility.yul\":3130:3148   */\n      tag_158\n      tag_58\n      jump\t// in\n    tag_158:\n        /* \"#utility.yul\":3104:3150   */\n    tag_157:\n        /* \"#utility.yul\":3044:3156   */\n      pop\n      jump\t// out\n        /* \"#utility.yul\":3162:3287   */\n    tag_84:\n        /* \"#utility.yul\":3206:3213   */\n      0x00\n        /* \"#utility.yul\":3235:3240   */\n      dup2\n        /* \"#utility.yul\":3224:3240   */\n      swap1\n      pop\n        /* \"#utility.yul\":3241:3281   */\n      tag_160\n        /* \"#utility.yul\":3275:3280   */\n      dup3\n        /* \"#utility.yul\":3241:3281   */\n      tag_83\n      jump\t// in\n    tag_160:\n        /* \"#utility.yul\":3162:3287   */\n      swap2\n      swap1\n      pop\n      jump\t// out\n        /* \"#utility.yul\":3293:3418   */\n    tag_85:\n        /* \"#utility.yul\":3348:3357   */\n      0x00\n        /* \"#utility.yul\":3381:3412   */\n      tag_162\n        /* \"#utility.yul\":3406:3411   */\n      dup3\n        /* \"#utility.yul\":3381:3412   */\n      tag_84\n      jump\t// in\n    tag_162:\n        /* \"#utility.yul\":3368:3412   */\n      swap1\n      pop\n        /* \"#utility.yul\":3293:3418   */\n      swap2\n      swap1\n      pop\n      jump\t// out\n        /* \"#utility.yul\":3424:3565   */\n    tag_86:\n        /* \"#utility.yul\":3516:3558   */\n      tag_164\n        /* \"#utility.yul\":3552:3557   */\n      dup2\n        /* \"#utility.yul\":3516:3558   */\n      tag_85\n      jump\t// in\n    tag_164:\n        /* \"#utility.yul\":3511:3514   */\n      dup3\n        /* \"#utility.yul\":3504:3559   */\n      mstore\n        /* \"#utility.yul\":3424:3565   */\n      pop\n      pop\n      jump\t// out\n        /* \"#utility.yul\":3571:3661   */\n    tag_87:\n        /* \"#utility.yul\":3605:3612   */\n      0x00\n        /* \"#utility.yul\":3648:3653   */\n      dup2\n        /* \"#utility.yul\":3641:3654   */\n      iszero\n        /* \"#utility.yul\":3634:3655   */\n      iszero\n        /* \"#utility.yul\":3623:3655   */\n      swap1\n      pop\n        /* \"#utility.yul\":3571:3661   */\n      swap2\n      swap1\n      pop\n      jump\t// out\n        /* \"#utility.yul\":3667:3776   */\n    tag_88:\n        /* \"#utility.yul\":3748:3769   */\n      tag_167\n        /* \"#utility.yul\":3763:3768   */\n      dup2\n        /* \"#utility.yul\":3748:3769   */\n      tag_87\n      jump\t// in\n    tag_167:\n        /* \"#utility.yul\":3743:3746   */\n      dup3\n        /* \"#utility.yul\":3736:3770   */\n      mstore\n        /* \"#utility.yul\":3667:3776   */\n      pop\n      pop\n      jump\t// out\n        /* \"#utility.yul\":3782:4444   */\n    tag_18:\n        /* \"#utility.yul\":3988:3992   */\n      0x00\n        /* \"#utility.yul\":4026:4029   */\n      0x80\n        /* \"#utility.yul\":4015:4024   */\n      dup3\n        /* \"#utility.yul\":4011:4030   */\n      add\n        /* \"#utility.yul\":4003:4030   */\n      swap1\n      pop\n        /* \"#utility.yul\":4076:4085   */\n      dup2\n        /* \"#utility.yul\":4070:4074   */\n      dup2\n        /* \"#utility.yul\":4066:4086   */\n      sub\n        /* \"#utility.yul\":4062:4063   */\n      0x00\n        /* \"#utility.yul\":4051:4060   */\n      dup4\n        /* \"#utility.yul\":4047:4064   */\n      add\n        /* \"#utility.yul\":4040:4087   */\n      mstore\n        /* \"#utility.yul\":4104:4182   */\n      tag_169\n        /* \"#utility.yul\":4177:4181   */\n      dup2\n        /* \"#utility.yul\":4168:4174   */\n      dup8\n        /* \"#utility.yul\":4104:4182   */\n      tag_82\n      jump\t// in\n    tag_169:\n        /* \"#utility.yul\":4096:4182   */\n      swap1\n      pop\n        /* \"#utility.yul\":4192:4274   */\n      tag_170\n        /* \"#utility.yul\":4270:4272   */\n      0x20\n        /* \"#utility.yul\":4259:4268   */\n      dup4\n        /* \"#utility.yul\":4255:4273   */\n      add\n        /* \"#utility.yul\":4246:4252   */\n      dup7\n        /* \"#utility.yul\":4192:4274   */\n      tag_77\n      jump\t// in\n    tag_170:\n        /* \"#utility.yul\":4284:4361   */\n      tag_171\n        /* \"#utility.yul\":4357:4359   */\n      0x40\n        /* \"#utility.yul\":4346:4355   */\n      dup4\n        /* \"#utility.yul\":4342:4360   */\n      add\n        /* \"#utility.yul\":4333:4339   */\n      dup6\n        /* \"#utility.yul\":4284:4361   */\n      tag_86\n      jump\t// in\n    tag_171:\n        /* \"#utility.yul\":4371:4437   */\n      tag_172\n        /* \"#utility.yul\":4433:4435   */\n      0x60\n        /* \"#utility.yul\":4422:4431   */\n      dup4\n        /* \"#utility.yul\":4418:4436   */\n      add\n        /* \"#utility.yul\":4409:4415   */\n      dup5\n        /* \"#utility.yul\":4371:4437   */\n      tag_88\n      jump\t// in\n    tag_172:\n        /* \"#utility.yul\":3782:4444   */\n      swap6\n      swap5\n      pop\n      pop\n      pop\n      pop\n      pop\n      jump\t// out\n        /* \"#utility.yul\":4450:4682   */\n    tag_26:\n        /* \"#utility.yul\":4548:4552   */\n      0x00\n        /* \"#utility.yul\":4586:4588   */\n      0x20\n        /* \"#utility.yul\":4575:4584   */\n      dup3\n        /* \"#utility.yul\":4571:4589   */\n      add\n        /* \"#utility.yul\":4563:4589   */\n      swap1\n      pop\n        /* \"#utility.yul\":4599:4675   */\n      tag_174\n        /* \"#utility.yul\":4672:4673   */\n      0x00\n        /* \"#utility.yul\":4661:4670   */\n      dup4\n        /* \"#utility.yul\":4657:4674   */\n      add\n        /* \"#utility.yul\":4648:4654   */\n      dup5\n        /* \"#utility.yul\":4599:4675   */\n      tag_86\n      jump\t// in\n    tag_174:\n        /* \"#utility.yul\":4450:4682   */\n      swap3\n      swap2\n      pop\n      pop\n      jump\t// out\n        /* \"#utility.yul\":4688:4805   */\n    tag_89:\n        /* \"#utility.yul\":4797:4798   */\n      0x00\n        /* \"#utility.yul\":4794:4795   */\n      dup1\n        /* \"#utility.yul\":4787:4799   */\n      revert\n        /* \"#utility.yul\":4811:4928   */\n    tag_90:\n        /* \"#utility.yul\":4920:4921   */\n      0x00\n        /* \"#utility.yul\":4917:4918   */\n      dup1\n        /* \"#utility.yul\":4910:4922   */\n      revert\n        /* \"#utility.yul\":4934:5114   */\n    tag_91:\n        /* \"#utility.yul\":4982:5059   */\n      0x4e487b7100000000000000000000000000000000000000000000000000000000\n        /* \"#utility.yul\":4979:4980   */\n      0x00\n        /* \"#utility.yul\":4972:5060   */\n      mstore\n        /* \"#utility.yul\":5079:5083   */\n      0x41\n        /* \"#utility.yul\":5076:5077   */\n      0x04\n        /* \"#utility.yul\":5069:5084   */\n      mstore\n        /* \"#utility.yul\":5103:5107   */\n      0x24\n        /* \"#utility.yul\":5100:5101   */\n      0x00\n        /* \"#utility.yul\":5093:5108   */\n      revert\n        /* \"#utility.yul\":5120:5401   */\n    tag_92:\n        /* \"#utility.yul\":5203:5230   */\n      tag_179\n        /* \"#utility.yul\":5225:5229   */\n      dup3\n        /* \"#utility.yul\":5203:5230   */\n      tag_81\n      jump\t// in\n    tag_179:\n        /* \"#utility.yul\":5195:5201   */\n      dup2\n        /* \"#utility.yul\":5191:5231   */\n      add\n        /* \"#utility.yul\":5333:5339   */\n      dup2\n        /* \"#utility.yul\":5321:5331   */\n      dup2\n        /* \"#utility.yul\":5318:5340   */\n      lt\n        /* \"#utility.yul\":5297:5315   */\n      0xffffffffffffffff\n        /* \"#utility.yul\":5285:5295   */\n      dup3\n        /* \"#utility.yul\":5282:5316   */\n      gt\n        /* \"#utility.yul\":5279:5341   */\n      or\n        /* \"#utility.yul\":5276:5364   */\n      iszero\n      tag_180\n      jumpi\n        /* \"#utility.yul\":5344:5362   */\n      tag_181\n      tag_91\n      jump\t// in\n    tag_181:\n        /* \"#utility.yul\":5276:5364   */\n    tag_180:\n        /* \"#utility.yul\":5384:5394   */\n      dup1\n        /* \"#utility.yul\":5380:5382   */\n      0x40\n        /* \"#utility.yul\":5373:5395   */\n      mstore\n        /* \"#utility.yul\":5163:5401   */\n      pop\n        /* \"#utility.yul\":5120:5401   */\n      pop\n      pop\n      jump\t// out\n        /* \"#utility.yul\":5407:5536   */\n    tag_93:\n        /* \"#utility.yul\":5441:5447   */\n      0x00\n        /* \"#utility.yul\":5468:5488   */\n      tag_183\n      tag_68\n      jump\t// in\n    tag_183:\n        /* \"#utility.yul\":5458:5488   */\n      swap1\n      pop\n        /* \"#utility.yul\":5497:5530   */\n      tag_184\n        /* \"#utility.yul\":5525:5529   */\n      dup3\n        /* \"#utility.yul\":5517:5523   */\n      dup3\n        /* \"#utility.yul\":5497:5530   */\n      tag_92\n      jump\t// in\n    tag_184:\n        /* \"#utility.yul\":5407:5536   */\n      swap2\n      swap1\n      pop\n      jump\t// out\n        /* \"#utility.yul\":5542:5850   */\n    tag_94:\n        /* \"#utility.yul\":5604:5608   */\n      0x00\n        /* \"#utility.yul\":5694:5712   */\n      0xffffffffffffffff\n        /* \"#utility.yul\":5686:5692   */\n      dup3\n        /* \"#utility.yul\":5683:5713   */\n      gt\n        /* \"#utility.yul\":5680:5736   */\n      iszero\n      tag_186\n      jumpi\n        /* \"#utility.yul\":5716:5734   */\n      tag_187\n      tag_91\n      jump\t// in\n    tag_187:\n        /* \"#utility.yul\":5680:5736   */\n    tag_186:\n        /* \"#utility.yul\":5754:5783   */\n      tag_188\n        /* \"#utility.yul\":5776:5782   */\n      dup3\n        /* \"#utility.yul\":5754:5783   */\n      tag_81\n      jump\t// in\n    tag_188:\n        /* \"#utility.yul\":5746:5783   */\n      swap1\n      pop\n        /* \"#utility.yul\":5838:5842   */\n      0x20\n        /* \"#utility.yul\":5832:5836   */\n      dup2\n        /* \"#utility.yul\":5828:5843   */\n      add\n        /* \"#utility.yul\":5820:5843   */\n      swap1\n      pop\n        /* \"#utility.yul\":5542:5850   */\n      swap2\n      swap1\n      pop\n      jump\t// out\n        /* \"#utility.yul\":5856:6002   */\n    tag_95:\n        /* \"#utility.yul\":5953:5959   */\n      dup3\n        /* \"#utility.yul\":5948:5951   */\n      dup2\n        /* \"#utility.yul\":5943:5946   */\n      dup4\n        /* \"#utility.yul\":5930:5960   */\n      calldatacopy\n        /* \"#utility.yul\":5994:5995   */\n      0x00\n        /* \"#utility.yul\":5985:5991   */\n      dup4\n        /* \"#utility.yul\":5980:5983   */\n      dup4\n        /* \"#utility.yul\":5976:5992   */\n      add\n        /* \"#utility.yul\":5969:5996   */\n      mstore\n        /* \"#utility.yul\":5856:6002   */\n      pop\n      pop\n      pop\n      jump\t// out\n        /* \"#utility.yul\":6008:6433   */\n    tag_96:\n        /* \"#utility.yul\":6086:6091   */\n      0x00\n        /* \"#utility.yul\":6111:6177   */\n      tag_191\n        /* \"#utility.yul\":6127:6176   */\n      tag_192\n        /* \"#utility.yul\":6169:6175   */\n      dup5\n        /* \"#utility.yul\":6127:6176   */\n      tag_94\n      jump\t// in\n    tag_192:\n        /* \"#utility.yul\":6111:6177   */\n      tag_93\n      jump\t// in\n    tag_191:\n        /* \"#utility.yul\":6102:6177   */\n      swap1\n      pop\n        /* \"#utility.yul\":6200:6206   */\n      dup3\n        /* \"#utility.yul\":6193:6198   */\n      dup2\n        /* \"#utility.yul\":6186:6207   */\n      mstore\n        /* \"#utility.yul\":6238:6242   */\n      0x20\n        /* \"#utility.yul\":6231:6236   */\n      dup2\n        /* \"#utility.yul\":6227:6243   */\n      add\n        /* \"#utility.yul\":6276:6279   */\n      dup5\n        /* \"#utility.yul\":6267:6273   */\n      dup5\n        /* \"#utility.yul\":6262:6265   */\n      dup5\n        /* \"#utility.yul\":6258:6274   */\n      add\n        /* \"#utility.yul\":6255:6280   */\n      gt\n        /* \"#utility.yul\":6252:6364   */\n      iszero\n      tag_193\n      jumpi\n        /* \"#utility.yul\":6283:6362   */\n      tag_194\n      tag_90\n      jump\t// in\n    tag_194:\n        /* \"#utility.yul\":6252:6364   */\n    tag_193:\n        /* \"#utility.yul\":6373:6427   */\n      tag_195\n        /* \"#utility.yul\":6420:6426   */\n      dup5\n        /* \"#utility.yul\":6415:6418   */\n      dup3\n        /* \"#utility.yul\":6410:6413   */\n      dup6\n        /* \"#utility.yul\":6373:6427   */\n      tag_95\n      jump\t// in\n    tag_195:\n        /* \"#utility.yul\":6092:6433   */\n      pop\n        /* \"#utility.yul\":6008:6433   */\n      swap4\n      swap3\n      pop\n      pop\n      pop\n      jump\t// out\n        /* \"#utility.yul\":6453:6793   */\n    tag_97:\n        /* \"#utility.yul\":6509:6514   */\n      0x00\n        /* \"#utility.yul\":6558:6561   */\n      dup3\n        /* \"#utility.yul\":6551:6555   */\n      0x1f\n        /* \"#utility.yul\":6543:6549   */\n      dup4\n        /* \"#utility.yul\":6539:6556   */\n      add\n        /* \"#utility.yul\":6535:6562   */\n      slt\n        /* \"#utility.yul\":6525:6647   */\n      tag_197\n      jumpi\n        /* \"#utility.yul\":6566:6645   */\n      tag_198\n      tag_89\n      jump\t// in\n    tag_198:\n        /* \"#utility.yul\":6525:6647   */\n    tag_197:\n        /* \"#utility.yul\":6683:6689   */\n      dup2\n        /* \"#utility.yul\":6670:6690   */\n      calldataload\n        /* \"#utility.yul\":6708:6787   */\n      tag_199\n        /* \"#utility.yul\":6783:6786   */\n      dup5\n        /* \"#utility.yul\":6775:6781   */\n      dup3\n        /* \"#utility.yul\":6768:6772   */\n      0x20\n        /* \"#utility.yul\":6760:6766   */\n      dup7\n        /* \"#utility.yul\":6756:6773   */\n      add\n        /* \"#utility.yul\":6708:6787   */\n      tag_96\n      jump\t// in\n    tag_199:\n        /* \"#utility.yul\":6699:6787   */\n      swap2\n      pop\n        /* \"#utility.yul\":6515:6793   */\n      pop\n        /* \"#utility.yul\":6453:6793   */\n      swap3\n      swap2\n      pop\n      pop\n      jump\t// out\n        /* \"#utility.yul\":6799:6905   */\n    tag_98:\n        /* \"#utility.yul\":6879:6880   */\n      0x07\n        /* \"#utility.yul\":6872:6877   */\n      dup2\n        /* \"#utility.yul\":6869:6881   */\n      lt\n        /* \"#utility.yul\":6859:6899   */\n      tag_201\n      jumpi\n        /* \"#utility.yul\":6895:6896   */\n      0x00\n        /* \"#utility.yul\":6892:6893   */\n      dup1\n        /* \"#utility.yul\":6885:6897   */\n      revert\n        /* \"#utility.yul\":6859:6899   */\n    tag_201:\n        /* \"#utility.yul\":6799:6905   */\n      pop\n      jump\t// out\n        /* \"#utility.yul\":6911:7064   */\n    tag_99:\n        /* \"#utility.yul\":6964:6969   */\n      0x00\n        /* \"#utility.yul\":7002:7008   */\n      dup2\n        /* \"#utility.yul\":6989:7009   */\n      calldataload\n        /* \"#utility.yul\":6980:7009   */\n      swap1\n      pop\n        /* \"#utility.yul\":7018:7058   */\n      tag_203\n        /* \"#utility.yul\":7052:7057   */\n      dup2\n        /* \"#utility.yul\":7018:7058   */\n      tag_98\n      jump\t// in\n    tag_203:\n        /* \"#utility.yul\":6911:7064   */\n      swap3\n      swap2\n      pop\n      pop\n      jump\t// out\n        /* \"#utility.yul\":7070:7181   */\n    tag_100:\n        /* \"#utility.yul\":7155:7156   */\n      0x03\n        /* \"#utility.yul\":7148:7153   */\n      dup2\n        /* \"#utility.yul\":7145:7157   */\n      lt\n        /* \"#utility.yul\":7135:7175   */\n      tag_205\n      jumpi\n        /* \"#utility.yul\":7171:7172   */\n      0x00\n        /* \"#utility.yul\":7168:7169   */\n      dup1\n        /* \"#utility.yul\":7161:7173   */\n      revert\n        /* \"#utility.yul\":7135:7175   */\n    tag_205:\n        /* \"#utility.yul\":7070:7181   */\n      pop\n      jump\t// out\n        /* \"#utility.yul\":7187:7350   */\n    tag_101:\n        /* \"#utility.yul\":7245:7250   */\n      0x00\n        /* \"#utility.yul\":7283:7289   */\n      dup2\n        /* \"#utility.yul\":7270:7290   */\n      calldataload\n        /* \"#utility.yul\":7261:7290   */\n      swap1\n      pop\n        /* \"#utility.yul\":7299:7344   */\n      tag_207\n        /* \"#utility.yul\":7338:7343   */\n      dup2\n        /* \"#utility.yul\":7299:7344   */\n      tag_100\n      jump\t// in\n    tag_207:\n        /* \"#utility.yul\":7187:7350   */\n      swap3\n      swap2\n      pop\n      pop\n      jump\t// out\n        /* \"#utility.yul\":7356:8193   */\n    tag_29:\n        /* \"#utility.yul\":7462:7468   */\n      0x00\n        /* \"#utility.yul\":7470:7476   */\n      dup1\n        /* \"#utility.yul\":7478:7484   */\n      0x00\n        /* \"#utility.yul\":7527:7529   */\n      0x60\n        /* \"#utility.yul\":7515:7524   */\n      dup5\n        /* \"#utility.yul\":7506:7513   */\n      dup7\n        /* \"#utility.yul\":7502:7525   */\n      sub\n        /* \"#utility.yul\":7498:7530   */\n      slt\n        /* \"#utility.yul\":7495:7614   */\n      iszero\n      tag_209\n      jumpi\n        /* \"#utility.yul\":7533:7612   */\n      tag_210\n      tag_69\n      jump\t// in\n    tag_210:\n        /* \"#utility.yul\":7495:7614   */\n    tag_209:\n        /* \"#utility.yul\":7681:7682   */\n      0x00\n        /* \"#utility.yul\":7670:7679   */\n      dup5\n        /* \"#utility.yul\":7666:7683   */\n      add\n        /* \"#utility.yul\":7653:7684   */\n      calldataload\n        /* \"#utility.yul\":7711:7729   */\n      0xffffffffffffffff\n        /* \"#utility.yul\":7703:7709   */\n      dup2\n        /* \"#utility.yul\":7700:7730   */\n      gt\n        /* \"#utility.yul\":7697:7814   */\n      iszero\n      tag_211\n      jumpi\n        /* \"#utility.yul\":7733:7812   */\n      tag_212\n      tag_70\n      jump\t// in\n    tag_212:\n        /* \"#utility.yul\":7697:7814   */\n    tag_211:\n        /* \"#utility.yul\":7838:7901   */\n      tag_213\n        /* \"#utility.yul\":7893:7900   */\n      dup7\n        /* \"#utility.yul\":7884:7890   */\n      dup3\n        /* \"#utility.yul\":7873:7882   */\n      dup8\n        /* \"#utility.yul\":7869:7891   */\n      add\n        /* \"#utility.yul\":7838:7901   */\n      tag_97\n      jump\t// in\n    tag_213:\n        /* \"#utility.yul\":7828:7901   */\n      swap4\n      pop\n        /* \"#utility.yul\":7624:7911   */\n      pop\n        /* \"#utility.yul\":7950:7952   */\n      0x20\n        /* \"#utility.yul\":7976:8036   */\n      tag_214\n        /* \"#utility.yul\":8028:8035   */\n      dup7\n        /* \"#utility.yul\":8019:8025   */\n      dup3\n        /* \"#utility.yul\":8008:8017   */\n      dup8\n        /* \"#utility.yul\":8004:8026   */\n      add\n        /* \"#utility.yul\":7976:8036   */\n      tag_99\n      jump\t// in\n    tag_214:\n        /* \"#utility.yul\":7966:8036   */\n      swap3\n      pop\n        /* \"#utility.yul\":7921:8046   */\n      pop\n        /* \"#utility.yul\":8085:8087   */\n      0x40\n        /* \"#utility.yul\":8111:8176   */\n      tag_215\n        /* \"#utility.yul\":8168:8175   */\n      dup7\n        /* \"#utility.yul\":8159:8165   */\n      dup3\n        /* \"#utility.yul\":8148:8157   */\n      dup8\n        /* \"#utility.yul\":8144:8166   */\n      add\n        /* \"#utility.yul\":8111:8176   */\n      tag_101\n      jump\t// in\n    tag_215:\n        /* \"#utility.yul\":8101:8176   */\n      swap2\n      pop\n        /* \"#utility.yul\":8056:8186   */\n      pop\n        /* \"#utility.yul\":7356:8193   */\n      swap3\n      pop\n      swap3\n      pop\n      swap3\n      jump\t// out\n        /* \"#utility.yul\":8199:8379   */\n    tag_34:\n        /* \"#utility.yul\":8247:8324   */\n      0x4e487b7100000000000000000000000000000000000000000000000000000000\n        /* \"#utility.yul\":8244:8245   */\n      0x00\n        /* \"#utility.yul\":8237:8325   */\n      mstore\n        /* \"#utility.yul\":8344:8348   */\n      0x32\n        /* \"#utility.yul\":8341:8342   */\n      0x04\n        /* \"#utility.yul\":8334:8349   */\n      mstore\n        /* \"#utility.yul\":8368:8372   */\n      0x24\n        /* \"#utility.yul\":8365:8366   */\n      0x00\n        /* \"#utility.yul\":8358:8373   */\n      revert\n        /* \"#utility.yul\":8385:8565   */\n    tag_102:\n        /* \"#utility.yul\":8433:8510   */\n      0x4e487b7100000000000000000000000000000000000000000000000000000000\n        /* \"#utility.yul\":8430:8431   */\n      0x00\n        /* \"#utility.yul\":8423:8511   */\n      mstore\n        /* \"#utility.yul\":8530:8534   */\n      0x22\n        /* \"#utility.yul\":8527:8528   */\n      0x04\n        /* \"#utility.yul\":8520:8535   */\n      mstore\n        /* \"#utility.yul\":8554:8558   */\n      0x24\n        /* \"#utility.yul\":8551:8552   */\n      0x00\n        /* \"#utility.yul\":8544:8559   */\n      revert\n        /* \"#utility.yul\":8571:8891   */\n    tag_39:\n        /* \"#utility.yul\":8615:8621   */\n      0x00\n        /* \"#utility.yul\":8652:8653   */\n      0x02\n        /* \"#utility.yul\":8646:8650   */\n      dup3\n        /* \"#utility.yul\":8642:8654   */\n      div\n        /* \"#utility.yul\":8632:8654   */\n      swap1\n      pop\n        /* \"#utility.yul\":8699:8700   */\n      0x01\n        /* \"#utility.yul\":8693:8697   */\n      dup3\n        /* \"#utility.yul\":8689:8701   */\n      and\n        /* \"#utility.yul\":8720:8738   */\n      dup1\n        /* \"#utility.yul\":8710:8791   */\n      tag_219\n      jumpi\n        /* \"#utility.yul\":8776:8780   */\n      0x7f\n        /* \"#utility.yul\":8768:8774   */\n      dup3\n        /* \"#utility.yul\":8764:8781   */\n      and\n        /* \"#utility.yul\":8754:8781   */\n      swap2\n      pop\n        /* \"#utility.yul\":8710:8791   */\n    tag_219:\n        /* \"#utility.yul\":8838:8840   */\n      0x20\n        /* \"#utility.yul\":8830:8836   */\n      dup3\n        /* \"#utility.yul\":8827:8841   */\n      lt\n        /* \"#utility.yul\":8807:8825   */\n      dup2\n        /* \"#utility.yul\":8804:8842   */\n      sub\n        /* \"#utility.yul\":8801:8885   */\n      tag_220\n      jumpi\n        /* \"#utility.yul\":8857:8875   */\n      tag_221\n      tag_102\n      jump\t// in\n    tag_221:\n        /* \"#utility.yul\":8801:8885   */\n    tag_220:\n        /* \"#utility.yul\":8622:8891   */\n      pop\n        /* \"#utility.yul\":8571:8891   */\n      swap2\n      swap1\n      pop\n      jump\t// out\n        /* \"#utility.yul\":8897:9038   */\n    tag_103:\n        /* \"#utility.yul\":8946:8950   */\n      0x00\n        /* \"#utility.yul\":8969:8972   */\n      dup2\n        /* \"#utility.yul\":8961:8972   */\n      swap1\n      pop\n        /* \"#utility.yul\":8992:8995   */\n      dup2\n        /* \"#utility.yul\":8989:8990   */\n      0x00\n        /* \"#utility.yul\":8982:8996   */\n      mstore\n        /* \"#utility.yul\":9026:9030   */\n      0x20\n        /* \"#utility.yul\":9023:9024   */\n      0x00\n        /* \"#utility.yul\":9013:9031   */\n      keccak256\n        /* \"#utility.yul\":9005:9031   */\n      swap1\n      pop\n        /* \"#utility.yul\":8897:9038   */\n      swap2\n      swap1\n      pop\n      jump\t// out\n        /* \"#utility.yul\":9044:9137   */\n    tag_104:\n        /* \"#utility.yul\":9081:9087   */\n      0x00\n        /* \"#utility.yul\":9128:9130   */\n      0x20\n        /* \"#utility.yul\":9123:9125   */\n      0x1f\n        /* \"#utility.yul\":9116:9121   */\n      dup4\n        /* \"#utility.yul\":9112:9126   */\n      add\n        /* \"#utility.yul\":9108:9131   */\n      div\n        /* \"#utility.yul\":9098:9131   */\n      swap1\n      pop\n        /* \"#utility.yul\":9044:9137   */\n      swap2\n      swap1\n      pop\n      jump\t// out\n        /* \"#utility.yul\":9143:9250   */\n    tag_105:\n        /* \"#utility.yul\":9187:9195   */\n      0x00\n        /* \"#utility.yul\":9237:9242   */\n      dup3\n        /* \"#utility.yul\":9231:9235   */\n      dup3\n        /* \"#utility.yul\":9227:9243   */\n      shl\n        /* \"#utility.yul\":9206:9243   */\n      swap1\n      pop\n        /* \"#utility.yul\":9143:9250   */\n      swap3\n      swap2\n      pop\n      pop\n      jump\t// out\n        /* \"#utility.yul\":9256:9649   */\n    tag_106:\n        /* \"#utility.yul\":9325:9331   */\n      0x00\n        /* \"#utility.yul\":9375:9376   */\n      0x08\n        /* \"#utility.yul\":9363:9373   */\n      dup4\n        /* \"#utility.yul\":9359:9377   */\n      mul\n        /* \"#utility.yul\":9398:9495   */\n      tag_226\n        /* \"#utility.yul\":9428:9494   */\n      0xffffffffffffffffffffffffffffffffffffffffffffffffffffffffffffffff\n        /* \"#utility.yul\":9417:9426   */\n      dup3\n        /* \"#utility.yul\":9398:9495   */\n      tag_105\n      jump\t// in\n    tag_226:\n        /* \"#utility.yul\":9516:9555   */\n      tag_227\n        /* \"#utility.yul\":9546:9554   */\n      dup7\n        /* \"#utility.yul\":9535:9544   */\n      dup4\n        /* \"#utility.yul\":9516:9555   */\n      tag_105\n      jump\t// in\n    tag_227:\n        /* \"#utility.yul\":9504:9555   */\n      swap6\n      pop\n        /* \"#utility.yul\":9588:9592   */\n      dup1\n        /* \"#utility.yul\":9584:9593   */\n      not\n        /* \"#utility.yul\":9577:9582   */\n      dup5\n        /* \"#utility.yul\":9573:9594   */\n      and\n        /* \"#utility.yul\":9564:9594   */\n      swap4\n      pop\n        /* \"#utility.yul\":9637:9641   */\n      dup1\n        /* \"#utility.yul\":9627:9635   */\n      dup7\n        /* \"#utility.yul\":9623:9642   */\n      and\n        /* \"#utility.yul\":9616:9621   */\n      dup5\n        /* \"#utility.yul\":9613:9643   */\n      or\n        /* \"#utility.yul\":9603:9643   */\n      swap3\n      pop\n        /* \"#utility.yul\":9332:9649   */\n      pop\n      pop\n        /* \"#utility.yul\":9256:9649   */\n      swap4\n      swap3\n      pop\n      pop\n      pop\n      jump\t// out\n        /* \"#utility.yul\":9655:9715   */\n    tag_107:\n        /* \"#utility.yul\":9683:9686   */\n      0x00\n        /* \"#utility.yul\":9704:9709   */\n      dup2\n        /* \"#utility.yul\":9697:9709   */\n      swap1\n      pop\n        /* \"#utility.yul\":9655:9715   */\n      swap2\n      swap1\n      pop\n      jump\t// out\n        /* \"#utility.yul\":9721:9863   */\n    tag_108:\n        /* \"#utility.yul\":9771:9780   */\n      0x00\n        /* \"#utility.yul\":9804:9857   */\n      tag_230\n        /* \"#utility.yul\":9822:9856   */\n      tag_231\n        /* \"#utility.yul\":9831:9855   */\n      tag_232\n        /* \"#utility.yul\":9849:9854   */\n      dup5\n        /* \"#utility.yul\":9831:9855   */\n      tag_71\n      jump\t// in\n    tag_232:\n        /* \"#utility.yul\":9822:9856   */\n      tag_107\n      jump\t// in\n    tag_231:\n        /* \"#utility.yul\":9804:9857   */\n      tag_71\n      jump\t// in\n    tag_230:\n        /* \"#utility.yul\":9791:9857   */\n      swap1\n      pop\n        /* \"#utility.yul\":9721:9863   */\n      swap2\n      swap1\n      pop\n      jump\t// out\n        /* \"#utility.yul\":9869:9944   */\n    tag_109:\n        /* \"#utility.yul\":9912:9915   */\n      0x00\n        /* \"#utility.yul\":9933:9938   */\n      dup2\n        /* \"#utility.yul\":9926:9938   */\n      swap1\n      pop\n        /* \"#utility.yul\":9869:9944   */\n      swap2\n      swap1\n      pop\n      jump\t// out\n        /* \"#utility.yul\":9950:10219   */\n    tag_110:\n        /* \"#utility.yul\":10060:10099   */\n      tag_235\n        /* \"#utility.yul\":10091:10098   */\n      dup4\n        /* \"#utility.yul\":10060:10099   */\n      tag_108\n      jump\t// in\n    tag_235:\n        /* \"#utility.yul\":10121:10212   */\n      tag_236\n        /* \"#utility.yul\":10170:10211   */\n      tag_237\n        /* \"#utility.yul\":10194:10210   */\n      dup3\n        /* \"#utility.yul\":10170:10211   */\n      tag_109\n      jump\t// in\n    tag_237:\n        /* \"#utility.yul\":10162:10168   */\n      dup5\n        /* \"#utility.yul\":10155:10159   */\n      dup5\n        /* \"#utility.yul\":10149:10160   */\n      sload\n        /* \"#utility.yul\":10121:10212   */\n      tag_106\n      jump\t// in\n    tag_236:\n        /* \"#utility.yul\":10115:10119   */\n      dup3\n        /* \"#utility.yul\":10108:10213   */\n      sstore\n        /* \"#utility.yul\":10026:10219   */\n      pop\n        /* \"#utility.yul\":9950:10219   */\n      pop\n      pop\n      pop\n      jump\t// out\n        /* \"#utility.yul\":10225:10298   */\n    tag_111:\n        /* \"#utility.yul\":10270:10273   */\n      0x00\n        /* \"#utility.yul\":10225:10298   */\n      swap1\n      jump\t// out\n        /* \"#utility.yul\":10304:10493   */\n    tag_112:\n        /* \"#utility.yul\":10381:10413   */\n      tag_240\n      tag_111\n      jump\t// in\n    tag_240:\n        /* \"#utility.yul\":10422:10487   */\n      tag_241\n        /* \"#utility.yul\":10480:10486   */\n      dup2\n        /* \"#utility.yul\":10472:10478   */\n      dup5\n        /* \"#utility.yul\":10466:10470   */\n      dup5\n        /* \"#utility.yul\":10422:10487   */\n      tag_110\n      jump\t// in\n    tag_241:\n        /* \"#utility.yul\":10357:10493   */\n      pop\n        /* \"#utility.yul\":10304:10493   */\n      pop\n      pop\n      jump\t// out\n        /* \"#utility.yul\":10499:10685   */\n    tag_113:\n        /* \"#utility.yul\":10559:10679   */\n    tag_243:\n        /* \"#utility.yul\":10576:10579   */\n      dup2\n        /* \"#utility.yul\":10569:10574   */\n      dup2\n        /* \"#utility.yul\":10566:10580   */\n      lt\n        /* \"#utility.yul\":10559:10679   */\n      iszero\n      tag_245\n      jumpi\n        /* \"#utility.yul\":10630:10669   */\n      tag_246\n        /* \"#utility.yul\":10667:10668   */\n      0x00\n        /* \"#utility.yul\":10660:10665   */\n      dup3\n        /* \"#utility.yul\":10630:10669   */\n      tag_112\n      jump\t// in\n    tag_246:\n        /* \"#utility.yul\":10603:10604   */\n      0x01\n        /* \"#utility.yul\":10596:10601   */\n      dup2\n        /* \"#utility.yul\":10592:10605   */\n      add\n        /* \"#utility.yul\":10583:10605   */\n      swap1\n      pop\n        /* \"#utility.yul\":10559:10679   */\n      jump(tag_243)\n    tag_245:\n        /* \"#utility.yul\":10499:10685   */\n      pop\n      pop\n      jump\t// out\n        /* \"#utility.yul\":10691:11234   */\n    tag_114:\n        /* \"#utility.yul\":10792:10794   */\n      0x1f\n        /* \"#utility.yul\":10787:10790   */\n      dup3\n        /* \"#utility.yul\":10784:10795   */\n      gt\n        /* \"#utility.yul\":10781:11227   */\n      iszero\n      tag_248\n      jumpi\n        /* \"#utility.yul\":10826:10864   */\n      tag_249\n        /* \"#utility.yul\":10858:10863   */\n      dup2\n        /* \"#utility.yul\":10826:10864   */\n      tag_103\n      jump\t// in\n    tag_249:\n        /* \"#utility.yul\":10910:10939   */\n      tag_250\n        /* \"#utility.yul\":10928:10938   */\n      dup5\n        /* \"#utility.yul\":10910:10939   */\n      tag_104\n      jump\t// in\n    tag_250:\n        /* \"#utility.yul\":10900:10908   */\n      dup2\n        /* \"#utility.yul\":10896:10940   */\n      add\n        /* \"#utility.yul\":11093:11095   */\n      0x20\n        /* \"#utility.yul\":11081:11091   */\n      dup6\n        /* \"#utility.yul\":11078:11096   */\n      lt\n        /* \"#utility.yul\":11075:11124   */\n      iszero\n      tag_251\n      jumpi\n        /* \"#utility.yul\":11114:11122   */\n      dup2\n        /* \"#utility.yul\":11099:11122   */\n      swap1\n      pop\n        /* \"#utility.yul\":11075:11124   */\n    tag_251:\n        /* \"#utility.yul\":11137:11217   */\n      tag_252\n        /* \"#utility.yul\":11193:11215   */\n      tag_253\n        /* \"#utility.yul\":11211:11214   */\n      dup6\n        /* \"#utility.yul\":11193:11215   */\n      tag_104\n      jump\t// in\n    tag_253:\n        /* \"#utility.yul\":11183:11191   */\n      dup4\n        /* \"#utility.yul\":11179:11216   */\n      add\n        /* \"#utility.yul\":11166:11177   */\n      dup3\n        /* \"#utility.yul\":11137:11217   */\n      tag_113\n      jump\t// in\n    tag_252:\n        /* \"#utility.yul\":10796:11227   */\n      pop\n      pop\n        /* \"#utility.yul\":10781:11227   */\n    tag_248:\n        /* \"#utility.yul\":10691:11234   */\n      pop\n      pop\n      pop\n      jump\t// out\n        /* \"#utility.yul\":11240:11357   */\n    tag_115:\n        /* \"#utility.yul\":11294:11302   */\n      0x00\n        /* \"#utility.yul\":11344:11349   */\n      dup3\n        /* \"#utility.yul\":11338:11342   */\n      dup3\n        /* \"#utility.yul\":11334:11350   */\n      shr\n        /* \"#utility.yul\":11313:11350   */\n      swap1\n      pop\n        /* \"#utility.yul\":11240:11357   */\n      swap3\n      swap2\n      pop\n      pop\n      jump\t// out\n        /* \"#utility.yul\":11363:11532   */\n    tag_116:\n        /* \"#utility.yul\":11407:11413   */\n      0x00\n        /* \"#utility.yul\":11440:11491   */\n      tag_256\n        /* \"#utility.yul\":11488:11489   */\n      0x00\n        /* \"#utility.yul\":11484:11490   */\n      not\n        /* \"#utility.yul\":11476:11481   */\n      dup5\n        /* \"#utility.yul\":11473:11474   */\n      0x08\n        /* \"#utility.yul\":11469:11482   */\n      mul\n        /* \"#utility.yul\":11440:11491   */\n      tag_115\n      jump\t// in\n    tag_256:\n        /* \"#utility.yul\":11436:11492   */\n      not\n        /* \"#utility.yul\":11521:11525   */\n      dup1\n        /* \"#utility.yul\":11515:11519   */\n      dup4\n        /* \"#utility.yul\":11511:11526   */\n      and\n        /* \"#utility.yul\":11501:11526   */\n      swap2\n      pop\n        /* \"#utility.yul\":11414:11532   */\n      pop\n        /* \"#utility.yul\":11363:11532   */\n      swap3\n      swap2\n      pop\n      pop\n      jump\t// out\n        /* \"#utility.yul\":11537:11832   */\n    tag_117:\n        /* \"#utility.yul\":11613:11617   */\n      0x00\n        /* \"#utility.yul\":11759:11788   */\n      tag_258\n        /* \"#utility.yul\":11784:11787   */\n      dup4\n        /* \"#utility.yul\":11778:11782   */\n      dup4\n        /* \"#utility.yul\":11759:11788   */\n      tag_116\n      jump\t// in\n    tag_258:\n        /* \"#utility.yul\":11751:11788   */\n      swap2\n      pop\n        /* \"#utility.yul\":11821:11824   */\n      dup3\n        /* \"#utility.yul\":11818:11819   */\n      0x02\n        /* \"#utility.yul\":11814:11825   */\n      mul\n        /* \"#utility.yul\":11808:11812   */\n      dup3\n        /* \"#utility.yul\":11805:11826   */\n      or\n        /* \"#utility.yul\":11797:11826   */\n      swap1\n      pop\n        /* \"#utility.yul\":11537:11832   */\n      swap3\n      swap2\n      pop\n      pop\n      jump\t// out\n        /* \"#utility.yul\":11837:13232   */\n    tag_63:\n        /* \"#utility.yul\":11954:11991   */\n      tag_260\n        /* \"#utility.yul\":11987:11990   */\n      dup3\n        /* \"#utility.yul\":11954:11991   */\n      tag_78\n      jump\t// in\n    tag_260:\n        /* \"#utility.yul\":12056:12074   */\n      0xffffffffffffffff\n        /* \"#utility.yul\":12048:12054   */\n      dup2\n        /* \"#utility.yul\":12045:12075   */\n      gt\n        /* \"#utility.yul\":12042:12098   */\n      iszero\n      tag_261\n      jumpi\n        /* \"#utility.yul\":12078:12096   */\n      tag_262\n      tag_91\n      jump\t// in\n    tag_262:\n        /* \"#utility.yul\":12042:12098   */\n    tag_261:\n        /* \"#utility.yul\":12122:12160   */\n      tag_263\n        /* \"#utility.yul\":12154:12158   */\n      dup3\n        /* \"#utility.yul\":12148:12159   */\n      sload\n        /* \"#utility.yul\":12122:12160   */\n      tag_39\n      jump\t// in\n    tag_263:\n        /* \"#utility.yul\":12207:12274   */\n      tag_264\n        /* \"#utility.yul\":12267:12273   */\n      dup3\n        /* \"#utility.yul\":12259:12265   */\n      dup3\n        /* \"#utility.yul\":12253:12257   */\n      dup6\n        /* \"#utility.yul\":12207:12274   */\n      tag_114\n      jump\t// in\n    tag_264:\n        /* \"#utility.yul\":12301:12302   */\n      0x00\n        /* \"#utility.yul\":12325:12329   */\n      0x20\n        /* \"#utility.yul\":12312:12329   */\n      swap1\n      pop\n        /* \"#utility.yul\":12357:12359   */\n      0x1f\n        /* \"#utility.yul\":12349:12355   */\n      dup4\n        /* \"#utility.yul\":12346:12360   */\n      gt\n        /* \"#utility.yul\":12374:12375   */\n      0x01\n        /* \"#utility.yul\":12369:12987   */\n      dup2\n      eq\n      tag_266\n      jumpi\n        /* \"#utility.yul\":13031:13032   */\n      0x00\n        /* \"#utility.yul\":13048:13054   */\n      dup5\n        /* \"#utility.yul\":13045:13122   */\n      iszero\n      tag_267\n      jumpi\n        /* \"#utility.yul\":13097:13106   */\n      dup3\n        /* \"#utility.yul\":13092:13095   */\n      dup8\n        /* \"#utility.yul\":13088:13107   */\n      add\n        /* \"#utility.yul\":13082:13108   */\n      mload\n        /* \"#utility.yul\":13073:13108   */\n      swap1\n      pop\n        /* \"#utility.yul\":13045:13122   */\n    tag_267:\n        /* \"#utility.yul\":13148:13215   */\n      tag_268\n        /* \"#utility.yul\":13208:13214   */\n      dup6\n        /* \"#utility.yul\":13201:13206   */\n      dup3\n        /* \"#utility.yul\":13148:13215   */\n      tag_117\n      jump\t// in\n    tag_268:\n        /* \"#utility.yul\":13142:13146   */\n      dup7\n        /* \"#utility.yul\":13135:13216   */\n      sstore\n        /* \"#utility.yul\":13004:13226   */\n      pop\n        /* \"#utility.yul\":12339:13226   */\n      jump(tag_265)\n        /* \"#utility.yul\":12369:12987   */\n    tag_266:\n        /* \"#utility.yul\":12421:12425   */\n      0x1f\n        /* \"#utility.yul\":12417:12426   */\n      not\n        /* \"#utility.yul\":12409:12415   */\n      dup5\n        /* \"#utility.yul\":12405:12427   */\n      and\n        /* \"#utility.yul\":12455:12492   */\n      tag_269\n        /* \"#utility.yul\":12487:12491   */\n      dup7\n        /* \"#utility.yul\":12455:12492   */\n      tag_103\n      jump\t// in\n    tag_269:\n        /* \"#utility.yul\":12514:12515   */\n      0x00\n        /* \"#utility.yul\":12528:12736   */\n    tag_270:\n        /* \"#utility.yul\":12542:12549   */\n      dup3\n        /* \"#utility.yul\":12539:12540   */\n      dup2\n        /* \"#utility.yul\":12536:12550   */\n      lt\n        /* \"#utility.yul\":12528:12736   */\n      iszero\n      tag_272\n      jumpi\n        /* \"#utility.yul\":12621:12630   */\n      dup5\n        /* \"#utility.yul\":12616:12619   */\n      dup10\n        /* \"#utility.yul\":12612:12631   */\n      add\n        /* \"#utility.yul\":12606:12632   */\n      mload\n        /* \"#utility.yul\":12598:12604   */\n      dup3\n        /* \"#utility.yul\":12591:12633   */\n      sstore\n        /* \"#utility.yul\":12672:12673   */\n      0x01\n        /* \"#utility.yul\":12664:12670   */\n      dup3\n        /* \"#utility.yul\":12660:12674   */\n      add\n        /* \"#utility.yul\":12650:12674   */\n      swap2\n      pop\n        /* \"#utility.yul\":12719:12721   */\n      0x20\n        /* \"#utility.yul\":12708:12717   */\n      dup6\n        /* \"#utility.yul\":12704:12722   */\n      add\n        /* \"#utility.yul\":12691:12722   */\n      swap5\n      pop\n        /* \"#utility.yul\":12565:12569   */\n      0x20\n        /* \"#utility.yul\":12562:12563   */\n      dup2\n        /* \"#utility.yul\":12558:12570   */\n      add\n        /* \"#utility.yul\":12553:12570   */\n      swap1\n      pop\n        /* \"#utility.yul\":12528:12736   */\n      jump(tag_270)\n    tag_272:\n        /* \"#utility.yul\":12764:12770   */\n      dup7\n        /* \"#utility.yul\":12755:12762   */\n      dup4\n        /* \"#utility.yul\":12752:12771   */\n      lt\n        /* \"#utility.yul\":12749:12928   */\n      iszero\n      tag_273\n      jumpi\n        /* \"#utility.yul\":12822:12831   */\n      dup5\n        /* \"#utility.yul\":12817:12820   */\n      dup10\n        /* \"#utility.yul\":12813:12832   */\n      add\n        /* \"#utility.yul\":12807:12833   */\n      mload\n        /* \"#utility.yul\":12865:12913   */\n      tag_274\n        /* \"#utility.yul\":12907:12911   */\n      0x1f\n        /* \"#utility.yul\":12899:12905   */\n      dup10\n        /* \"#utility.yul\":12895:12912   */\n      and\n        /* \"#utility.yul\":12884:12893   */\n      dup3\n        /* \"#utility.yul\":12865:12913   */\n      tag_116\n      jump\t// in\n    tag_274:\n        /* \"#utility.yul\":12857:12863   */\n      dup4\n        /* \"#utility.yul\":12850:12914   */\n      sstore\n        /* \"#utility.yul\":12772:12928   */\n      pop\n        /* \"#utility.yul\":12749:12928   */\n    tag_273:\n        /* \"#utility.yul\":12974:12975   */\n      0x01\n        /* \"#utility.yul\":12970:12971   */\n      0x02\n        /* \"#utility.yul\":12962:12968   */\n      dup9\n        /* \"#utility.yul\":12958:12972   */\n      mul\n        /* \"#utility.yul\":12954:12976   */\n      add\n        /* \"#utility.yul\":12948:12952   */\n      dup9\n        /* \"#utility.yul\":12941:12977   */\n      sstore\n        /* \"#utility.yul\":12376:12987   */\n      pop\n      pop\n      pop\n        /* \"#utility.yul\":12339:13226   */\n    tag_265:\n      pop\n        /* \"#utility.yul\":11929:13232   */\n      pop\n      pop\n      pop\n        /* \"#utility.yul\":11837:13232   */\n      pop\n      pop\n      jump\t// out\n\n    auxdata: 0xa26469706673582212206a0672288085fdd05c7263b69a0eaeb2a178554d03d639f5bb2bc9b388cb681664736f6c63430008120033\n}\n",
				"bytecode": {
					"linkReferences": {},
					"object": "608060405234801561001057600080fd5b50610ba3806100206000396000f3fe608060405234801561001057600080fd5b50600436106100575760003560e01c8063163e0f461461005c57806350b447121461008c57806351db2e76146100bf57806357f2f8ea146100db578063b1d365061461010b575b600080fd5b61007660048036038101906100719190610459565b610127565b60405161008391906104fd565b60405180910390f35b6100a660048036038101906100a19190610459565b610162565b6040516100b6949392919061060b565b60405180910390f35b6100d960048036038101906100d49190610459565b610251565b005b6100f560048036038101906100f09190610459565b6102c4565b6040516101029190610657565b60405180910390f35b610125600480360381019061012091906107f1565b6102ff565b005b600080828154811061013c5761013b610860565b5b906000526020600020906002020160010160009054906101000a900460ff169050919050565b6000818154811061017257600080fd5b9060005260206000209060020201600091509050806000018054610195906108be565b80601f01602080910402602001604051908101604052809291908181526020018280546101c1906108be565b801561020e5780601f106101e35761010080835404028352916020019161020e565b820191906000526020600020905b8154815290600101906020018083116101f157829003601f168201915b5050505050908060010160009054906101000a900460ff16908060010160019054906101000a900460ff16908060010160029054906101000a900460ff16905084565b6000818154811061026557610264610860565b5b906000526020600020906002020160010160029054906101000a900460ff16156000828154811061029957610298610860565b5b906000526020600020906002020160010160026101000a81548160ff02191690831515021790555050565b60008082815481106102d9576102d8610860565b5b906000526020600020906002020160010160019054906101000a900460ff169050919050565b6000604051806080016040528085815260200183600281111561032557610324610486565b5b815260200184600681111561033d5761033c610486565b5b815260200160001515815250908060018154018082558091505060019003906000526020600020906002020160009091909190915060008201518160000190816103879190610a9b565b5060208201518160010160006101000a81548160ff021916908360028111156103b3576103b2610486565b5b021790555060408201518160010160016101000a81548160ff021916908360068111156103e3576103e2610486565b5b021790555060608201518160010160026101000a81548160ff0219169083151502179055505050505050565b6000604051905090565b600080fd5b600080fd5b6000819050919050565b61043681610423565b811461044157600080fd5b50565b6000813590506104538161042d565b92915050565b60006020828403121561046f5761046e610419565b5b600061047d84828501610444565b91505092915050565b7f4e487b7100000000000000000000000000000000000000000000000000000000600052602160045260246000fd5b600381106104c6576104c5610486565b5b50565b60008190506104d7826104b5565b919050565b60006104e7826104c9565b9050919050565b6104f7816104dc565b82525050565b600060208201905061051260008301846104ee565b92915050565b600081519050919050565b600082825260208201905092915050565b60005b83811015610552578082015181840152602081019050610537565b60008484015250505050565b6000601f19601f8301169050919050565b600061057a82610518565b6105848185610523565b9350610594818560208601610534565b61059d8161055e565b840191505092915050565b600781106105b9576105b8610486565b5b50565b60008190506105ca826105a8565b919050565b60006105da826105bc565b9050919050565b6105ea816105cf565b82525050565b60008115159050919050565b610605816105f0565b82525050565b60006080820190508181036000830152610625818761056f565b905061063460208301866104ee565b61064160408301856105e1565b61064e60608301846105fc565b95945050505050565b600060208201905061066c60008301846105e1565b92915050565b600080fd5b600080fd5b7f4e487b7100000000000000000000000000000000000000000000000000000000600052604160045260246000fd5b6106b48261055e565b810181811067ffffffffffffffff821117156106d3576106d261067c565b5b80604052505050565b60006106e661040f565b90506106f282826106ab565b919050565b600067ffffffffffffffff8211156107125761071161067c565b5b61071b8261055e565b9050602081019050919050565b82818337600083830152505050565b600061074a610745846106f7565b6106dc565b90508281526020810184848401111561076657610765610677565b5b610771848285610728565b509392505050565b600082601f83011261078e5761078d610672565b5b813561079e848260208601610737565b91505092915050565b600781106107b457600080fd5b50565b6000813590506107c6816107a7565b92915050565b600381106107d957600080fd5b50565b6000813590506107eb816107cc565b92915050565b60008060006060848603121561080a57610809610419565b5b600084013567ffffffffffffffff8111156108285761082761041e565b5b61083486828701610779565b9350506020610845868287016107b7565b9250506040610856868287016107dc565b9150509250925092565b7f4e487b7100000000000000000000000000000000000000000000000000000000600052603260045260246000fd5b7f4e487b7100000000000000000000000000000000000000000000000000000000600052602260045260246000fd5b600060028204905060018216806108d657607f821691505b6020821081036108e9576108e861088f565b5b50919050565b60008190508160005260206000209050919050565b60006020601f8301049050919050565b600082821b905092915050565b6000600883026109517fffffffffffffffffffffffffffffffffffffffffffffffffffffffffffffffff82610914565b61095b8683610914565b95508019841693508086168417925050509392505050565b6000819050919050565b600061099861099361098e84610423565b610973565b610423565b9050919050565b6000819050919050565b6109b28361097d565b6109c66109be8261099f565b848454610921565b825550505050565b600090565b6109db6109ce565b6109e68184846109a9565b505050565b5b81811015610a0a576109ff6000826109d3565b6001810190506109ec565b5050565b601f821115610a4f57610a20816108ef565b610a2984610904565b81016020851015610a38578190505b610a4c610a4485610904565b8301826109eb565b50505b505050565b600082821c905092915050565b6000610a7260001984600802610a54565b1980831691505092915050565b6000610a8b8383610a61565b9150826002028217905092915050565b610aa482610518565b67ffffffffffffffff811115610abd57610abc61067c565b5b610ac782546108be565b610ad2828285610a0e565b600060209050601f831160018114610b055760008415610af3578287015190505b610afd8582610a7f565b865550610b65565b601f198416610b13866108ef565b60005b82811015610b3b57848901518255600182019150602085019450602081019050610b16565b86831015610b585784890151610b54601f891682610a61565b8355505b6001600288020188555050505b50505050505056fea26469706673582212206a0672288085fdd05c7263b69a0eaeb2a178554d03d639f5bb2bc9b388cb681664736f6c63430008120033",
					"opcodes": "PUSH1 0x80 PUSH1 0x40 MSTORE CALLVALUE DUP1 ISZERO PUSH2 0x10 JUMPI PUSH1 0x0 DUP1 REVERT JUMPDEST POP PUSH2 0xBA3 DUP1 PUSH2 0x20 PUSH1 0x0 CODECOPY PUSH1 0x0 RETURN INVALID PUSH1 0x80 PUSH1 0x40 MSTORE CALLVALUE DUP1 ISZERO PUSH2 0x10 JUMPI PUSH1 0x0 DUP1 REVERT JUMPDEST POP PUSH1 0x4 CALLDATASIZE LT PUSH2 0x57 JUMPI PUSH1 0x0 CALLDATALOAD PUSH1 0xE0 SHR DUP1 PUSH4 0x163E0F46 EQ PUSH2 0x5C JUMPI DUP1 PUSH4 0x50B44712 EQ PUSH2 0x8C JUMPI DUP1 PUSH4 0x51DB2E76 EQ PUSH2 0xBF JUMPI DUP1 PUSH4 0x57F2F8EA EQ PUSH2 0xDB JUMPI DUP1 PUSH4 0xB1D36506 EQ PUSH2 0x10B JUMPI JUMPDEST PUSH1 0x0 DUP1 REVERT JUMPDEST PUSH2 0x76 PUSH1 0x4 DUP1 CALLDATASIZE SUB DUP2 ADD SWAP1 PUSH2 0x71 SWAP2 SWAP1 PUSH2 0x459 JUMP JUMPDEST PUSH2 0x127 JUMP JUMPDEST PUSH1 0x40 MLOAD PUSH2 0x83 SWAP2 SWAP1 PUSH2 0x4FD JUMP JUMPDEST PUSH1 0x40 MLOAD DUP1 SWAP2 SUB SWAP1 RETURN JUMPDEST PUSH2 0xA6 PUSH1 0x4 DUP1 CALLDATASIZE SUB DUP2 ADD SWAP1 PUSH2 0xA1 SWAP2 SWAP1 PUSH2 0x459 JUMP JUMPDEST PUSH2 0x162 JUMP JUMPDEST PUSH1 0x40 MLOAD PUSH2 0xB6 SWAP5 SWAP4 SWAP3 SWAP2 SWAP1 PUSH2 0x60B JUMP JUMPDEST PUSH1 0x40 MLOAD DUP1 SWAP2 SUB SWAP1 RETURN JUMPDEST PUSH2 0xD9 PUSH1 0x4 DUP1 CALLDATASIZE SUB DUP2 ADD SWAP1 PUSH2 0xD4 SWAP2 SWAP1 PUSH2 0x459 JUMP JUMPDEST PUSH2 0x251 JUMP JUMPDEST STOP JUMPDEST PUSH2 0xF5 PUSH1 0x4 DUP1 CALLDATASIZE SUB DUP2 ADD SWAP1 PUSH2 0xF0 SWAP2 SWAP1 PUSH2 0x459 JUMP JUMPDEST PUSH2 0x2C4 JUMP JUMPDEST PUSH1 0x40 MLOAD PUSH2 0x102 SWAP2 SWAP1 PUSH2 0x657 JUMP JUMPDEST PUSH1 0x40 MLOAD DUP1 SWAP2 SUB SWAP1 RETURN JUMPDEST PUSH2 0x125 PUSH1 0x4 DUP1 CALLDATASIZE SUB DUP2 ADD SWAP1 PUSH2 0x120 SWAP2 SWAP1 PUSH2 0x7F1 JUMP JUMPDEST PUSH2 0x2FF JUMP JUMPDEST STOP JUMPDEST PUSH1 0x0 DUP1 DUP3 DUP2 SLOAD DUP2 LT PUSH2 0x13C JUMPI PUSH2 0x13B PUSH2 0x860 JUMP JUMPDEST JUMPDEST SWAP1 PUSH1 0x0 MSTORE PUSH1 0x20 PUSH1 0x0 KECCAK256 SWAP1 PUSH1 0x2 MUL ADD PUSH1 0x1 ADD PUSH1 0x0 SWAP1 SLOAD SWAP1 PUSH2 0x100 EXP SWAP1 DIV PUSH1 0xFF AND SWAP1 POP SWAP2 SWAP1 POP JUMP JUMPDEST PUSH1 0x0 DUP2 DUP2 SLOAD DUP2 LT PUSH2 0x172 JUMPI PUSH1 0x0 DUP1 REVERT JUMPDEST SWAP1 PUSH1 0x0 MSTORE PUSH1 0x20 PUSH1 0x0 KECCAK256 SWAP1 PUSH1 0x2 MUL ADD PUSH1 0x0 SWAP2 POP SWAP1 POP DUP1 PUSH1 0x0 ADD DUP1 SLOAD PUSH2 0x195 SWAP1 PUSH2 0x8BE JUMP JUMPDEST DUP1 PUSH1 0x1F ADD PUSH1 0x20 DUP1 SWAP2 DIV MUL PUSH1 0x20 ADD PUSH1 0x40 MLOAD SWAP1 DUP2 ADD PUSH1 0x40 MSTORE DUP1 SWAP3 SWAP2 SWAP1 DUP2 DUP2 MSTORE PUSH1 0x20 ADD DUP3 DUP1 SLOAD PUSH2 0x1C1 SWAP1 PUSH2 0x8BE JUMP JUMPDEST DUP1 ISZERO PUSH2 0x20E JUMPI DUP1 PUSH1 0x1F LT PUSH2 0x1E3 JUMPI PUSH2 0x100 DUP1 DUP4 SLOAD DIV MUL DUP4 MSTORE SWAP2 PUSH1 0x20 ADD SWAP2 PUSH2 0x20E JUMP JUMPDEST DUP3 ADD SWAP2 SWAP1 PUSH1 0x0 MSTORE PUSH1 0x20 PUSH1 0x0 KECCAK256 SWAP1 JUMPDEST DUP2 SLOAD DUP2 MSTORE SWAP1 PUSH1 0x1 ADD SWAP1 PUSH1 0x20 ADD DUP1 DUP4 GT PUSH2 0x1F1 JUMPI DUP3 SWAP1 SUB PUSH1 0x1F AND DUP3 ADD SWAP2 JUMPDEST POP POP POP POP POP SWAP1 DUP1 PUSH1 0x1 ADD PUSH1 0x0 SWAP1 SLOAD SWAP1 PUSH2 0x100 EXP SWAP1 DIV PUSH1 0xFF AND SWAP1 DUP1 PUSH1 0x1 ADD PUSH1 0x1 SWAP1 SLOAD SWAP1 PUSH2 0x100 EXP SWAP1 DIV PUSH1 0xFF AND SWAP1 DUP1 PUSH1 0x1 ADD PUSH1 0x2 SWAP1 SLOAD SWAP1 PUSH2 0x100 EXP SWAP1 DIV PUSH1 0xFF AND SWAP1 POP DUP5 JUMP JUMPDEST PUSH1 0x0 DUP2 DUP2 SLOAD DUP2 LT PUSH2 0x265 JUMPI PUSH2 0x264 PUSH2 0x860 JUMP JUMPDEST JUMPDEST SWAP1 PUSH1 0x0 MSTORE PUSH1 0x20 PUSH1 0x0 KECCAK256 SWAP1 PUSH1 0x2 MUL ADD PUSH1 0x1 ADD PUSH1 0x2 SWAP1 SLOAD SWAP1 PUSH2 0x100 EXP SWAP1 DIV PUSH1 0xFF AND ISZERO PUSH1 0x0 DUP3 DUP2 SLOAD DUP2 LT PUSH2 0x299 JUMPI PUSH2 0x298 PUSH2 0x860 JUMP JUMPDEST JUMPDEST SWAP1 PUSH1 0x0 MSTORE PUSH1 0x20 PUSH1 0x0 KECCAK256 SWAP1 PUSH1 0x2 MUL ADD PUSH1 0x1 ADD PUSH1 0x2 PUSH2 0x100 EXP DUP2 SLOAD DUP2 PUSH1 0xFF MUL NOT AND SWAP1 DUP4 ISZERO ISZERO MUL OR SWAP1 SSTORE POP POP JUMP JUMPDEST PUSH1 0x0 DUP1 DUP3 DUP2 SLOAD DUP2 LT PUSH2 0x2D9 JUMPI PUSH2 0x2D8 PUSH2 0x860 JUMP JUMPDEST JUMPDEST SWAP1 PUSH1 0x0 MSTORE PUSH1 0x20 PUSH1 0x0 KECCAK256 SWAP1 PUSH1 0x2 MUL ADD PUSH1 0x1 ADD PUSH1 0x1 SWAP1 SLOAD SWAP1 PUSH2 0x100 EXP SWAP1 DIV PUSH1 0xFF AND SWAP1 POP SWAP2 SWAP1 POP JUMP JUMPDEST PUSH1 0x0 PUSH1 0x40 MLOAD DUP1 PUSH1 0x80 ADD PUSH1 0x40 MSTORE DUP1 DUP6 DUP2 MSTORE PUSH1 0x20 ADD DUP4 PUSH1 0x2 DUP2 GT ISZERO PUSH2 0x325 JUMPI PUSH2 0x324 PUSH2 0x486 JUMP JUMPDEST JUMPDEST DUP2 MSTORE PUSH1 0x20 ADD DUP5 PUSH1 0x6 DUP2 GT ISZERO PUSH2 0x33D JUMPI PUSH2 0x33C PUSH2 0x486 JUMP JUMPDEST JUMPDEST DUP2 MSTORE PUSH1 0x20 ADD PUSH1 0x0 ISZERO ISZERO DUP2 MSTORE POP SWAP1 DUP1 PUSH1 0x1 DUP2 SLOAD ADD DUP1 DUP3 SSTORE DUP1 SWAP2 POP POP PUSH1 0x1 SWAP1 SUB SWAP1 PUSH1 0x0 MSTORE PUSH1 0x20 PUSH1 0x0 KECCAK256 SWAP1 PUSH1 0x2 MUL ADD PUSH1 0x0 SWAP1 SWAP2 SWAP1 SWAP2 SWAP1 SWAP2 POP PUSH1 0x0 DUP3 ADD MLOAD DUP2 PUSH1 0x0 ADD SWAP1 DUP2 PUSH2 0x387 SWAP2 SWAP1 PUSH2 0xA9B JUMP JUMPDEST POP PUSH1 0x20 DUP3 ADD MLOAD DUP2 PUSH1 0x1 ADD PUSH1 0x0 PUSH2 0x100 EXP DUP2 SLOAD DUP2 PUSH1 0xFF MUL NOT AND SWAP1 DUP4 PUSH1 0x2 DUP2 GT ISZERO PUSH2 0x3B3 JUMPI PUSH2 0x3B2 PUSH2 0x486 JUMP JUMPDEST JUMPDEST MUL OR SWAP1 SSTORE POP PUSH1 0x40 DUP3 ADD MLOAD DUP2 PUSH1 0x1 ADD PUSH1 0x1 PUSH2 0x100 EXP DUP2 SLOAD DUP2 PUSH1 0xFF MUL NOT AND SWAP1 DUP4 PUSH1 0x6 DUP2 GT ISZERO PUSH2 0x3E3 JUMPI PUSH2 0x3E2 PUSH2 0x486 JUMP JUMPDEST JUMPDEST MUL OR SWAP1 SSTORE POP PUSH1 0x60 DUP3 ADD MLOAD DUP2 PUSH1 0x1 ADD PUSH1 0x2 PUSH2 0x100 EXP DUP2 SLOAD DUP2 PUSH1 0xFF MUL NOT AND SWAP1 DUP4 ISZERO ISZERO MUL OR SWAP1 SSTORE POP POP POP POP POP POP JUMP JUMPDEST PUSH1 0x0 PUSH1 0x40 MLOAD SWAP1 POP SWAP1 JUMP JUMPDEST PUSH1 0x0 DUP1 REVERT JUMPDEST PUSH1 0x0 DUP1 REVERT JUMPDEST PUSH1 0x0 DUP2 SWAP1 POP SWAP2 SWAP1 POP JUMP JUMPDEST PUSH2 0x436 DUP2 PUSH2 0x423 JUMP JUMPDEST DUP2 EQ PUSH2 0x441 JUMPI PUSH1 0x0 DUP1 REVERT JUMPDEST POP JUMP JUMPDEST PUSH1 0x0 DUP2 CALLDATALOAD SWAP1 POP PUSH2 0x453 DUP2 PUSH2 0x42D JUMP JUMPDEST SWAP3 SWAP2 POP POP JUMP JUMPDEST PUSH1 0x0 PUSH1 0x20 DUP3 DUP5 SUB SLT ISZERO PUSH2 0x46F JUMPI PUSH2 0x46E PUSH2 0x419 JUMP JUMPDEST JUMPDEST PUSH1 0x0 PUSH2 0x47D DUP5 DUP3 DUP6 ADD PUSH2 0x444 JUMP JUMPDEST SWAP2 POP POP SWAP3 SWAP2 POP POP JUMP JUMPDEST PUSH32 0x4E487B7100000000000000000000000000000000000000000000000000000000 PUSH1 0x0 MSTORE PUSH1 0x21 PUSH1 0x4 MSTORE PUSH1 0x24 PUSH1 0x0 REVERT JUMPDEST PUSH1 0x3 DUP2 LT PUSH2 0x4C6 JUMPI PUSH2 0x4C5 PUSH2 0x486 JUMP JUMPDEST JUMPDEST POP JUMP JUMPDEST PUSH1 0x0 DUP2 SWAP1 POP PUSH2 0x4D7 DUP3 PUSH2 0x4B5 JUMP JUMPDEST SWAP2 SWAP1 POP JUMP JUMPDEST PUSH1 0x0 PUSH2 0x4E7 DUP3 PUSH2 0x4C9 JUMP JUMPDEST SWAP1 POP SWAP2 SWAP1 POP JUMP JUMPDEST PUSH2 0x4F7 DUP2 PUSH2 0x4DC JUMP JUMPDEST DUP3 MSTORE POP POP JUMP JUMPDEST PUSH1 0x0 PUSH1 0x20 DUP3 ADD SWAP1 POP PUSH2 0x512 PUSH1 0x0 DUP4 ADD DUP5 PUSH2 0x4EE JUMP JUMPDEST SWAP3 SWAP2 POP POP JUMP JUMPDEST PUSH1 0x0 DUP2 MLOAD SWAP1 POP SWAP2 SWAP1 POP JUMP JUMPDEST PUSH1 0x0 DUP3 DUP3 MSTORE PUSH1 0x20 DUP3 ADD SWAP1 POP SWAP3 SWAP2 POP POP JUMP JUMPDEST PUSH1 0x0 JUMPDEST DUP4 DUP2 LT ISZERO PUSH2 0x552 JUMPI DUP1 DUP3 ADD MLOAD DUP2 DUP5 ADD MSTORE PUSH1 0x20 DUP2 ADD SWAP1 POP PUSH2 0x537 JUMP JUMPDEST PUSH1 0x0 DUP5 DUP5 ADD MSTORE POP POP POP POP JUMP JUMPDEST PUSH1 0x0 PUSH1 0x1F NOT PUSH1 0x1F DUP4 ADD AND SWAP1 POP SWAP2 SWAP1 POP JUMP JUMPDEST PUSH1 0x0 PUSH2 0x57A DUP3 PUSH2 0x518 JUMP JUMPDEST PUSH2 0x584 DUP2 DUP6 PUSH2 0x523 JUMP JUMPDEST SWAP4 POP PUSH2 0x594 DUP2 DUP6 PUSH1 0x20 DUP7 ADD PUSH2 0x534 JUMP JUMPDEST PUSH2 0x59D DUP2 PUSH2 0x55E JUMP JUMPDEST DUP5 ADD SWAP2 POP POP SWAP3 SWAP2 POP POP JUMP JUMPDEST PUSH1 0x7 DUP2 LT PUSH2 0x5B9 JUMPI PUSH2 0x5B8 PUSH2 0x486 JUMP JUMPDEST JUMPDEST POP JUMP JUMPDEST PUSH1 0x0 DUP2 SWAP1 POP PUSH2 0x5CA DUP3 PUSH2 0x5A8 JUMP JUMPDEST SWAP2 SWAP1 POP JUMP JUMPDEST PUSH1 0x0 PUSH2 0x5DA DUP3 PUSH2 0x5BC JUMP JUMPDEST SWAP1 POP SWAP2 SWAP1 POP JUMP JUMPDEST PUSH2 0x5EA DUP2 PUSH2 0x5CF JUMP JUMPDEST DUP3 MSTORE POP POP JUMP JUMPDEST PUSH1 0x0 DUP2 ISZERO ISZERO SWAP1 POP SWAP2 SWAP1 POP JUMP JUMPDEST PUSH2 0x605 DUP2 PUSH2 0x5F0 JUMP JUMPDEST DUP3 MSTORE POP POP JUMP JUMPDEST PUSH1 0x0 PUSH1 0x80 DUP3 ADD SWAP1 POP DUP2 DUP2 SUB PUSH1 0x0 DUP4 ADD MSTORE PUSH2 0x625 DUP2 DUP8 PUSH2 0x56F JUMP JUMPDEST SWAP1 POP PUSH2 0x634 PUSH1 0x20 DUP4 ADD DUP7 PUSH2 0x4EE JUMP JUMPDEST PUSH2 0x641 PUSH1 0x40 DUP4 ADD DUP6 PUSH2 0x5E1 JUMP JUMPDEST PUSH2 0x64E PUSH1 0x60 DUP4 ADD DUP5 PUSH2 0x5FC JUMP JUMPDEST SWAP6 SWAP5 POP POP POP POP POP JUMP JUMPDEST PUSH1 0x0 PUSH1 0x20 DUP3 ADD SWAP1 POP PUSH2 0x66C PUSH1 0x0 DUP4 ADD DUP5 PUSH2 0x5E1 JUMP JUMPDEST SWAP3 SWAP2 POP POP JUMP JUMPDEST PUSH1 0x0 DUP1 REVERT JUMPDEST PUSH1 0x0 DUP1 REVERT JUMPDEST PUSH32 0x4E487B7100000000000000000000000000000000000000000000000000000000 PUSH1 0x0 MSTORE PUSH1 0x41 PUSH1 0x4 MSTORE PUSH1 0x24 PUSH1 0x0 REVERT JUMPDEST PUSH2 0x6B4 DUP3 PUSH2 0x55E JUMP JUMPDEST DUP2 ADD DUP2 DUP2 LT PUSH8 0xFFFFFFFFFFFFFFFF DUP3 GT OR ISZERO PUSH2 0x6D3 JUMPI PUSH2 0x6D2 PUSH2 0x67C JUMP JUMPDEST JUMPDEST DUP1 PUSH1 0x40 MSTORE POP POP POP JUMP JUMPDEST PUSH1 0x0 PUSH2 0x6E6 PUSH2 0x40F JUMP JUMPDEST SWAP1 POP PUSH2 0x6F2 DUP3 DUP3 PUSH2 0x6AB JUMP JUMPDEST SWAP2 SWAP1 POP JUMP JUMPDEST PUSH1 0x0 PUSH8 0xFFFFFFFFFFFFFFFF DUP3 GT ISZERO PUSH2 0x712 JUMPI PUSH2 0x711 PUSH2 0x67C JUMP JUMPDEST JUMPDEST PUSH2 0x71B DUP3 PUSH2 0x55E JUMP JUMPDEST SWAP1 POP PUSH1 0x20 DUP2 ADD SWAP1 POP SWAP2 SWAP1 POP JUMP JUMPDEST DUP3 DUP2 DUP4 CALLDATACOPY PUSH1 0x0 DUP4 DUP4 ADD MSTORE POP POP POP JUMP JUMPDEST PUSH1 0x0 PUSH2 0x74A PUSH2 0x745 DUP5 PUSH2 0x6F7 JUMP JUMPDEST PUSH2 0x6DC JUMP JUMPDEST SWAP1 POP DUP3 DUP2 MSTORE PUSH1 0x20 DUP2 ADD DUP5 DUP5 DUP5 ADD GT ISZERO PUSH2 0x766 JUMPI PUSH2 0x765 PUSH2 0x677 JUMP JUMPDEST JUMPDEST PUSH2 0x771 DUP5 DUP3 DUP6 PUSH2 0x728 JUMP JUMPDEST POP SWAP4 SWAP3 POP POP POP JUMP JUMPDEST PUSH1 0x0 DUP3 PUSH1 0x1F DUP4 ADD SLT PUSH2 0x78E JUMPI PUSH2 0x78D PUSH2 0x672 JUMP JUMPDEST JUMPDEST DUP2 CALLDATALOAD PUSH2 0x79E DUP5 DUP3 PUSH1 0x20 DUP7 ADD PUSH2 0x737 JUMP JUMPDEST SWAP2 POP POP SWAP3 SWAP2 POP POP JUMP JUMPDEST PUSH1 0x7 DUP2 LT PUSH2 0x7B4 JUMPI PUSH1 0x0 DUP1 REVERT JUMPDEST POP JUMP JUMPDEST PUSH1 0x0 DUP2 CALLDATALOAD SWAP1 POP PUSH2 0x7C6 DUP2 PUSH2 0x7A7 JUMP JUMPDEST SWAP3 SWAP2 POP POP JUMP JUMPDEST PUSH1 0x3 DUP2 LT PUSH2 0x7D9 JUMPI PUSH1 0x0 DUP1 REVERT JUMPDEST POP JUMP JUMPDEST PUSH1 0x0 DUP2 CALLDATALOAD SWAP1 POP PUSH2 0x7EB DUP2 PUSH2 0x7CC JUMP JUMPDEST SWAP3 SWAP2 POP POP JUMP JUMPDEST PUSH1 0x0 DUP1 PUSH1 0x0 PUSH1 0x60 DUP5 DUP7 SUB SLT ISZERO PUSH2 0x80A JUMPI PUSH2 0x809 PUSH2 0x419 JUMP JUMPDEST JUMPDEST PUSH1 0x0 DUP5 ADD CALLDATALOAD PUSH8 0xFFFFFFFFFFFFFFFF DUP2 GT ISZERO PUSH2 0x828 JUMPI PUSH2 0x827 PUSH2 0x41E JUMP JUMPDEST JUMPDEST PUSH2 0x834 DUP7 DUP3 DUP8 ADD PUSH2 0x779 JUMP JUMPDEST SWAP4 POP POP PUSH1 0x20 PUSH2 0x845 DUP7 DUP3 DUP8 ADD PUSH2 0x7B7 JUMP JUMPDEST SWAP3 POP POP PUSH1 0x40 PUSH2 0x856 DUP7 DUP3 DUP8 ADD PUSH2 0x7DC JUMP JUMPDEST SWAP2 POP POP SWAP3 POP SWAP3 POP SWAP3 JUMP JUMPDEST PUSH32 0x4E487B7100000000000000000000000000000000000000000000000000000000 PUSH1 0x0 MSTORE PUSH1 0x32 PUSH1 0x4 MSTORE PUSH1 0x24 PUSH1 0x0 REVERT JUMPDEST PUSH32 0x4E487B7100000000000000000000000000000000000000000000000000000000 PUSH1 0x0 MSTORE PUSH1 0x22 PUSH1 0x4 MSTORE PUSH1 0x24 PUSH1 0x0 REVERT JUMPDEST PUSH1 0x0 PUSH1 0x2 DUP3 DIV SWAP1 POP PUSH1 0x1 DUP3 AND DUP1 PUSH2 0x8D6 JUMPI PUSH1 0x7F DUP3 AND SWAP2 POP JUMPDEST PUSH1 0x20 DUP3 LT DUP2 SUB PUSH2 0x8E9 JUMPI PUSH2 0x8E8 PUSH2 0x88F JUMP JUMPDEST JUMPDEST POP SWAP2 SWAP1 POP JUMP JUMPDEST PUSH1 0x0 DUP2 SWAP1 POP DUP2 PUSH1 0x0 MSTORE PUSH1 0x20 PUSH1 0x0 KECCAK256 SWAP1 POP SWAP2 SWAP1 POP JUMP JUMPDEST PUSH1 0x0 PUSH1 0x20 PUSH1 0x1F DUP4 ADD DIV SWAP1 POP SWAP2 SWAP1 POP JUMP JUMPDEST PUSH1 0x0 DUP3 DUP3 SHL SWAP1 POP SWAP3 SWAP2 POP POP JUMP JUMPDEST PUSH1 0x0 PUSH1 0x8 DUP4 MUL PUSH2 0x951 PUSH32 0xFFFFFFFFFFFFFFFFFFFFFFFFFFFFFFFFFFFFFFFFFFFFFFFFFFFFFFFFFFFFFFFF DUP3 PUSH2 0x914 JUMP JUMPDEST PUSH2 0x95B DUP7 DUP4 PUSH2 0x914 JUMP JUMPDEST SWAP6 POP DUP1 NOT DUP5 AND SWAP4 POP DUP1 DUP7 AND DUP5 OR SWAP3 POP POP POP SWAP4 SWAP3 POP POP POP JUMP JUMPDEST PUSH1 0x0 DUP2 SWAP1 POP SWAP2 SWAP1 POP JUMP JUMPDEST PUSH1 0x0 PUSH2 0x998 PUSH2 0x993 PUSH2 0x98E DUP5 PUSH2 0x423 JUMP JUMPDEST PUSH2 0x973 JUMP JUMPDEST PUSH2 0x423 JUMP JUMPDEST SWAP1 POP SWAP2 SWAP1 POP JUMP JUMPDEST PUSH1 0x0 DUP2 SWAP1 POP SWAP2 SWAP1 POP JUMP JUMPDEST PUSH2 0x9B2 DUP4 PUSH2 0x97D JUMP JUMPDEST PUSH2 0x9C6 PUSH2 0x9BE DUP3 PUSH2 0x99F JUMP JUMPDEST DUP5 DUP5 SLOAD PUSH2 0x921 JUMP JUMPDEST DUP3 SSTORE POP POP POP POP JUMP JUMPDEST PUSH1 0x0 SWAP1 JUMP JUMPDEST PUSH2 0x9DB PUSH2 0x9CE JUMP JUMPDEST PUSH2 0x9E6 DUP2 DUP5 DUP5 PUSH2 0x9A9 JUMP JUMPDEST POP POP POP JUMP JUMPDEST JUMPDEST DUP2 DUP2 LT ISZERO PUSH2 0xA0A JUMPI PUSH2 0x9FF PUSH1 0x0 DUP3 PUSH2 0x9D3 JUMP JUMPDEST PUSH1 0x1 DUP2 ADD SWAP1 POP PUSH2 0x9EC JUMP JUMPDEST POP POP JUMP JUMPDEST PUSH1 0x1F DUP3 GT ISZERO PUSH2 0xA4F JUMPI PUSH2 0xA20 DUP2 PUSH2 0x8EF JUMP JUMPDEST PUSH2 0xA29 DUP5 PUSH2 0x904 JUMP JUMPDEST DUP2 ADD PUSH1 0x20 DUP6 LT ISZERO PUSH2 0xA38 JUMPI DUP2 SWAP1 POP JUMPDEST PUSH2 0xA4C PUSH2 0xA44 DUP6 PUSH2 0x904 JUMP JUMPDEST DUP4 ADD DUP3 PUSH2 0x9EB JUMP JUMPDEST POP POP JUMPDEST POP POP POP JUMP JUMPDEST PUSH1 0x0 DUP3 DUP3 SHR SWAP1 POP SWAP3 SWAP2 POP POP JUMP JUMPDEST PUSH1 0x0 PUSH2 0xA72 PUSH1 0x0 NOT DUP5 PUSH1 0x8 MUL PUSH2 0xA54 JUMP JUMPDEST NOT DUP1 DUP4 AND SWAP2 POP POP SWAP3 SWAP2 POP POP JUMP JUMPDEST PUSH1 0x0 PUSH2 0xA8B DUP4 DUP4 PUSH2 0xA61 JUMP JUMPDEST SWAP2 POP DUP3 PUSH1 0x2 MUL DUP3 OR SWAP1 POP SWAP3 SWAP2 POP POP JUMP JUMPDEST PUSH2 0xAA4 DUP3 PUSH2 0x518 JUMP JUMPDEST PUSH8 0xFFFFFFFFFFFFFFFF DUP2 GT ISZERO PUSH2 0xABD JUMPI PUSH2 0xABC PUSH2 0x67C JUMP JUMPDEST JUMPDEST PUSH2 0xAC7 DUP3 SLOAD PUSH2 0x8BE JUMP JUMPDEST PUSH2 0xAD2 DUP3 DUP3 DUP6 PUSH2 0xA0E JUMP JUMPDEST PUSH1 0x0 PUSH1 0x20 SWAP1 POP PUSH1 0x1F DUP4 GT PUSH1 0x1 DUP2 EQ PUSH2 0xB05 JUMPI PUSH1 0x0 DUP5 ISZERO PUSH2 0xAF3 JUMPI DUP3 DUP8 ADD MLOAD SWAP1 POP JUMPDEST PUSH2 0xAFD DUP6 DUP3 PUSH2 0xA7F JUMP JUMPDEST DUP7 SSTORE POP PUSH2 0xB65 JUMP JUMPDEST PUSH1 0x1F NOT DUP5 AND PUSH2 0xB13 DUP7 PUSH2 0x8EF JUMP JUMPDEST PUSH1 0x0 JUMPDEST DUP3 DUP2 LT ISZERO PUSH2 0xB3B JUMPI DUP5 DUP10 ADD MLOAD DUP3 SSTORE PUSH1 0x1 DUP3 ADD SWAP2 POP PUSH1 0x20 DUP6 ADD SWAP5 POP PUSH1 0x20 DUP2 ADD SWAP1 POP PUSH2 0xB16 JUMP JUMPDEST DUP7 DUP4 LT ISZERO PUSH2 0xB58 JUMPI DUP5 DUP10 ADD MLOAD PUSH2 0xB54 PUSH1 0x1F DUP10 AND DUP3 PUSH2 0xA61 JUMP JUMPDEST DUP4 SSTORE POP JUMPDEST PUSH1 0x1 PUSH1 0x2 DUP9 MUL ADD DUP9 SSTORE POP POP POP JUMPDEST POP POP POP POP POP POP JUMP INVALID LOG2 PUSH5 0x6970667358 0x22 SLT KECCAK256 PUSH11 0x672288085FDD05C7263B6 SWAP11 0xE 0xAE 0xB2 LOG1 PUSH25 0x554D03D639F5BB2BC9B388CB681664736F6C63430008120033 "
				},
				"gasEstimates": {
					"creation": {
						"codeDepositCost": "595800",
						"executionCost": "632",
						"totalCost": "596432"
					},
					"external": {
						"bookTicket(string,uint8,uint8)": "infinite",
						"getTicketDay(uint256)": "5124",
						"getTicketType(uint256)": "5008",
						"tickets(uint256)": "infinite",
						"toggleStatus(uint256)": "31328"
					}
				},
				"methodIdentifiers": {
					"bookTicket(string,uint8,uint8)": "b1d36506",
					"getTicketDay(uint256)": "57f2f8ea",
					"getTicketType(uint256)": "163e0f46",
					"tickets(uint256)": "50b44712",
					"toggleStatus(uint256)": "51db2e76"
				}
			},
			"storageLayout": {
				"storage": [
					{
						"astId": 28,
						"contract": "labs/02-8-23/TicketBookingSystem.sol:TicketBookingSystem",
						"label": "tickets",
						"offset": 0,
						"slot": "0",
						"type": "t_array(t_struct(Ticket)24_storage)dyn_storage"
					}
				],
				"types": {
					"t_array(t_struct(Ticket)24_storage)dyn_storage": {
						"base": "t_struct(Ticket)24_storage",
						"encoding": "dynamic_array",
						"label": "struct TicketBookingSystem.Ticket[]",
						"numberOfBytes": "32"
					},
					"t_bool": {
						"encoding": "inplace",
						"label": "bool",
						"numberOfBytes": "1"
					},
					"t_enum(Days)13": {
						"encoding": "inplace",
						"label": "enum TicketBookingSystem.Days",
						"numberOfBytes": "1"
					},
					"t_enum(TicketType)5": {
						"encoding": "inplace",
						"label": "enum TicketBookingSystem.TicketType",
						"numberOfBytes": "1"
					},
					"t_string_storage": {
						"encoding": "bytes",
						"label": "string",
						"numberOfBytes": "32"
					},
					"t_struct(Ticket)24_storage": {
						"encoding": "inplace",
						"label": "struct TicketBookingSystem.Ticket",
						"members": [
							{
								"astId": 15,
								"contract": "labs/02-8-23/TicketBookingSystem.sol:TicketBookingSystem",
								"label": "passenger",
								"offset": 0,
								"slot": "0",
								"type": "t_string_storage"
							},
							{
								"astId": 18,
								"contract": "labs/02-8-23/TicketBookingSystem.sol:TicketBookingSystem",
								"label": "ticketType",
								"offset": 0,
								"slot": "1",
								"type": "t_enum(TicketType)5"
							},
							{
								"astId": 21,
								"contract": "labs/02-8-23/TicketBookingSystem.sol:TicketBookingSystem",
								"label": "day",
								"offset": 1,
								"slot": "1",
								"type": "t_enum(Days)13"
							},
							{
								"astId": 23,
								"contract": "labs/02-8-23/TicketBookingSystem.sol:TicketBookingSystem",
								"label": "isBooked",
								"offset": 2,
								"slot": "1",
								"type": "t_bool"
							}
						],
						"numberOfBytes": "64"
					}
				}
			},
			"userdoc": {
				"kind": "user",
				"methods": {},
				"version": 1
			}
		}
	}
}