{
	"labs/31-7-23/08 arraySomeErrors.sol": {
		"Array": {
			"abi": [
				{
					"inputs": [
						{
							"internalType": "uint256",
							"name": "",
							"type": "uint256"
						}
					],
					"name": "array",
					"outputs": [
						{
							"internalType": "int256",
							"name": "",
							"type": "int256"
						}
					],
					"stateMutability": "view",
					"type": "function"
				},
				{
					"inputs": [],
					"name": "get",
					"outputs": [
						{
							"internalType": "int256[4]",
							"name": "",
							"type": "int256[4]"
						}
					],
					"stateMutability": "view",
					"type": "function"
				},
				{
					"inputs": [],
					"name": "getlength",
					"outputs": [
						{
							"internalType": "uint256",
							"name": "",
							"type": "uint256"
						}
					],
					"stateMutability": "view",
					"type": "function"
				},
				{
					"inputs": [],
					"name": "ipush",
					"outputs": [],
					"stateMutability": "nonpayable",
					"type": "function"
				}
			],
			"devdoc": {
				"kind": "dev",
				"methods": {},
				"version": 1
			},
			"evm": {
				"assembly": "    /* \"labs/31-7-23/08 arraySomeErrors.sol\":58:551  contract Array{... */\n  mstore(0x40, 0x80)\n  callvalue\n  dup1\n  iszero\n  tag_1\n  jumpi\n  0x00\n  dup1\n  revert\ntag_1:\n  pop\n  dataSize(sub_0)\n  dup1\n  dataOffset(sub_0)\n  0x00\n  codecopy\n  0x00\n  return\nstop\n\nsub_0: assembly {\n        /* \"labs/31-7-23/08 arraySomeErrors.sol\":58:551  contract Array{... */\n      mstore(0x40, 0x80)\n      callvalue\n      dup1\n      iszero\n      tag_1\n      jumpi\n      0x00\n      dup1\n      revert\n    tag_1:\n      pop\n      jumpi(tag_2, lt(calldatasize, 0x04))\n      shr(0xe0, calldataload(0x00))\n      dup1\n      0x38d94193\n      eq\n      tag_3\n      jumpi\n      dup1\n      0x6d4ce63c\n      eq\n      tag_4\n      jumpi\n      dup1\n      0xa16d3598\n      eq\n      tag_5\n      jumpi\n      dup1\n      0xc3344af8\n      eq\n      tag_6\n      jumpi\n    tag_2:\n      0x00\n      dup1\n      revert\n        /* \"labs/31-7-23/08 arraySomeErrors.sol\":79:98  int[4] public array */\n    tag_3:\n      tag_7\n      0x04\n      dup1\n      calldatasize\n      sub\n      dup2\n      add\n      swap1\n      tag_8\n      swap2\n      swap1\n      tag_9\n      jump\t// in\n    tag_8:\n      tag_10\n      jump\t// in\n    tag_7:\n      mload(0x40)\n      tag_11\n      swap2\n      swap1\n      tag_12\n      jump\t// in\n    tag_11:\n      mload(0x40)\n      dup1\n      swap2\n      sub\n      swap1\n      return\n        /* \"labs/31-7-23/08 arraySomeErrors.sol\":341:445  function get() public view returns(int[4] memory){//int[] to int[4] memory... */\n    tag_4:\n      tag_13\n      tag_14\n      jump\t// in\n    tag_13:\n      mload(0x40)\n      tag_15\n      swap2\n      swap1\n      tag_16\n      jump\t// in\n    tag_15:\n      mload(0x40)\n      dup1\n      swap2\n      sub\n      swap1\n      return\n        /* \"labs/31-7-23/08 arraySomeErrors.sol\":451:548  function getlength() public view returns(uint){//int to uint... */\n    tag_5:\n      tag_17\n      tag_18\n      jump\t// in\n    tag_17:\n      mload(0x40)\n      tag_19\n      swap2\n      swap1\n      tag_20\n      jump\t// in\n    tag_19:\n      mload(0x40)\n      dup1\n      swap2\n      sub\n      swap1\n      return\n        /* \"labs/31-7-23/08 arraySomeErrors.sol\":105:335  function ipush() public{... */\n    tag_6:\n      tag_21\n      tag_22\n      jump\t// in\n    tag_21:\n      stop\n        /* \"labs/31-7-23/08 arraySomeErrors.sol\":79:98  int[4] public array */\n    tag_10:\n      0x00\n      dup2\n      0x04\n      dup2\n      lt\n      tag_23\n      jumpi\n      0x00\n      dup1\n      revert\n    tag_23:\n      add\n      0x00\n      swap2\n      pop\n      swap1\n      pop\n      sload\n      dup2\n      jump\t// out\n        /* \"labs/31-7-23/08 arraySomeErrors.sol\":341:445  function get() public view returns(int[4] memory){//int[] to int[4] memory... */\n    tag_14:\n        /* \"labs/31-7-23/08 arraySomeErrors.sol\":376:389  int[4] memory */\n      tag_25\n      tag_26\n      jump\t// in\n    tag_25:\n        /* \"labs/31-7-23/08 arraySomeErrors.sol\":432:437  array */\n      0x00\n        /* \"labs/31-7-23/08 arraySomeErrors.sol\":425:437  return array */\n      0x04\n      dup1\n      0x20\n      mul\n      mload(0x40)\n      swap1\n      dup2\n      add\n      0x40\n      mstore\n      dup1\n      swap3\n      swap2\n      swap1\n      dup3\n      0x04\n      dup1\n      iszero\n      tag_28\n      jumpi\n      0x20\n      mul\n      dup3\n      add\n      swap2\n    tag_29:\n      dup2\n      sload\n      dup2\n      mstore\n      0x20\n      add\n      swap1\n      0x01\n      add\n      swap1\n      dup1\n      dup4\n      gt\n      tag_29\n      jumpi\n    tag_28:\n      pop\n      pop\n      pop\n      pop\n      pop\n      swap1\n      pop\n        /* \"labs/31-7-23/08 arraySomeErrors.sol\":341:445  function get() public view returns(int[4] memory){//int[] to int[4] memory... */\n      swap1\n      jump\t// out\n        /* \"labs/31-7-23/08 arraySomeErrors.sol\":451:548  function getlength() public view returns(uint){//int to uint... */\n    tag_18:\n        /* \"labs/31-7-23/08 arraySomeErrors.sol\":492:496  uint */\n      0x00\n        /* \"labs/31-7-23/08 arraySomeErrors.sol\":528:540  array.length */\n      0x04\n        /* \"labs/31-7-23/08 arraySomeErrors.sol\":521:540  return array.length */\n      swap1\n      pop\n        /* \"labs/31-7-23/08 arraySomeErrors.sol\":451:548  function getlength() public view returns(uint){//int to uint... */\n      swap1\n      jump\t// out\n        /* \"labs/31-7-23/08 arraySomeErrors.sol\":105:335  function ipush() public{... */\n    tag_22:\n        /* \"labs/31-7-23/08 arraySomeErrors.sol\":283:284  5 */\n      0x05\n        /* \"labs/31-7-23/08 arraySomeErrors.sol\":274:279  array */\n      0x00\n        /* \"labs/31-7-23/08 arraySomeErrors.sol\":280:281  0 */\n      dup1\n        /* \"labs/31-7-23/08 arraySomeErrors.sol\":274:282  array[0] */\n      0x04\n      dup2\n      lt\n      tag_32\n      jumpi\n      tag_33\n      tag_34\n      jump\t// in\n    tag_33:\n    tag_32:\n      add\n        /* \"labs/31-7-23/08 arraySomeErrors.sol\":274:284  array[0]=5 */\n      dup2\n      swap1\n      sstore\n      pop\n        /* \"labs/31-7-23/08 arraySomeErrors.sol\":304:305  5 */\n      0x05\n        /* \"labs/31-7-23/08 arraySomeErrors.sol\":295:300  array */\n      0x00\n        /* \"labs/31-7-23/08 arraySomeErrors.sol\":301:302  2 */\n      0x02\n        /* \"labs/31-7-23/08 arraySomeErrors.sol\":295:303  array[2] */\n      0x04\n      dup2\n      lt\n      tag_36\n      jumpi\n      tag_37\n      tag_34\n      jump\t// in\n    tag_37:\n    tag_36:\n      add\n        /* \"labs/31-7-23/08 arraySomeErrors.sol\":295:305  array[2]=5 */\n      dup2\n      swap1\n      sstore\n      pop\n        /* \"labs/31-7-23/08 arraySomeErrors.sol\":325:327  10 */\n      0x0a\n        /* \"labs/31-7-23/08 arraySomeErrors.sol\":316:321  array */\n      0x00\n        /* \"labs/31-7-23/08 arraySomeErrors.sol\":322:323  3 */\n      0x03\n        /* \"labs/31-7-23/08 arraySomeErrors.sol\":316:324  array[3] */\n      0x04\n      dup2\n      lt\n      tag_39\n      jumpi\n      tag_40\n      tag_34\n      jump\t// in\n    tag_40:\n    tag_39:\n      add\n        /* \"labs/31-7-23/08 arraySomeErrors.sol\":316:327  array[3]=10 */\n      dup2\n      swap1\n      sstore\n      pop\n        /* \"labs/31-7-23/08 arraySomeErrors.sol\":105:335  function ipush() public{... */\n      jump\t// out\n    tag_26:\n      mload(0x40)\n      dup1\n      0x80\n      add\n      0x40\n      mstore\n      dup1\n      0x04\n      swap1\n      0x20\n      dup3\n      mul\n      dup1\n      calldatasize\n      dup4\n      calldatacopy\n      dup1\n      dup3\n      add\n      swap2\n      pop\n      pop\n      swap1\n      pop\n      pop\n      swap1\n      jump\t// out\n        /* \"#utility.yul\":88:205   */\n    tag_43:\n        /* \"#utility.yul\":197:198   */\n      0x00\n        /* \"#utility.yul\":194:195   */\n      dup1\n        /* \"#utility.yul\":187:199   */\n      revert\n        /* \"#utility.yul\":334:411   */\n    tag_45:\n        /* \"#utility.yul\":371:378   */\n      0x00\n        /* \"#utility.yul\":400:405   */\n      dup2\n        /* \"#utility.yul\":389:405   */\n      swap1\n      pop\n        /* \"#utility.yul\":334:411   */\n      swap2\n      swap1\n      pop\n      jump\t// out\n        /* \"#utility.yul\":417:539   */\n    tag_46:\n        /* \"#utility.yul\":490:514   */\n      tag_64\n        /* \"#utility.yul\":508:513   */\n      dup2\n        /* \"#utility.yul\":490:514   */\n      tag_45\n      jump\t// in\n    tag_64:\n        /* \"#utility.yul\":483:488   */\n      dup2\n        /* \"#utility.yul\":480:515   */\n      eq\n        /* \"#utility.yul\":470:533   */\n      tag_65\n      jumpi\n        /* \"#utility.yul\":529:530   */\n      0x00\n        /* \"#utility.yul\":526:527   */\n      dup1\n        /* \"#utility.yul\":519:531   */\n      revert\n        /* \"#utility.yul\":470:533   */\n    tag_65:\n        /* \"#utility.yul\":417:539   */\n      pop\n      jump\t// out\n        /* \"#utility.yul\":545:684   */\n    tag_47:\n        /* \"#utility.yul\":591:596   */\n      0x00\n        /* \"#utility.yul\":629:635   */\n      dup2\n        /* \"#utility.yul\":616:636   */\n      calldataload\n        /* \"#utility.yul\":607:636   */\n      swap1\n      pop\n        /* \"#utility.yul\":645:678   */\n      tag_67\n        /* \"#utility.yul\":672:677   */\n      dup2\n        /* \"#utility.yul\":645:678   */\n      tag_46\n      jump\t// in\n    tag_67:\n        /* \"#utility.yul\":545:684   */\n      swap3\n      swap2\n      pop\n      pop\n      jump\t// out\n        /* \"#utility.yul\":690:1019   */\n    tag_9:\n        /* \"#utility.yul\":749:755   */\n      0x00\n        /* \"#utility.yul\":798:800   */\n      0x20\n        /* \"#utility.yul\":786:795   */\n      dup3\n        /* \"#utility.yul\":777:784   */\n      dup5\n        /* \"#utility.yul\":773:796   */\n      sub\n        /* \"#utility.yul\":769:801   */\n      slt\n        /* \"#utility.yul\":766:885   */\n      iszero\n      tag_69\n      jumpi\n        /* \"#utility.yul\":804:883   */\n      tag_70\n      tag_43\n      jump\t// in\n    tag_70:\n        /* \"#utility.yul\":766:885   */\n    tag_69:\n        /* \"#utility.yul\":924:925   */\n      0x00\n        /* \"#utility.yul\":949:1002   */\n      tag_71\n        /* \"#utility.yul\":994:1001   */\n      dup5\n        /* \"#utility.yul\":985:991   */\n      dup3\n        /* \"#utility.yul\":974:983   */\n      dup6\n        /* \"#utility.yul\":970:992   */\n      add\n        /* \"#utility.yul\":949:1002   */\n      tag_47\n      jump\t// in\n    tag_71:\n        /* \"#utility.yul\":939:1002   */\n      swap2\n      pop\n        /* \"#utility.yul\":895:1012   */\n      pop\n        /* \"#utility.yul\":690:1019   */\n      swap3\n      swap2\n      pop\n      pop\n      jump\t// out\n        /* \"#utility.yul\":1025:1101   */\n    tag_48:\n        /* \"#utility.yul\":1061:1068   */\n      0x00\n        /* \"#utility.yul\":1090:1095   */\n      dup2\n        /* \"#utility.yul\":1079:1095   */\n      swap1\n      pop\n        /* \"#utility.yul\":1025:1101   */\n      swap2\n      swap1\n      pop\n      jump\t// out\n        /* \"#utility.yul\":1107:1222   */\n    tag_49:\n        /* \"#utility.yul\":1192:1215   */\n      tag_74\n        /* \"#utility.yul\":1209:1214   */\n      dup2\n        /* \"#utility.yul\":1192:1215   */\n      tag_48\n      jump\t// in\n    tag_74:\n        /* \"#utility.yul\":1187:1190   */\n      dup3\n        /* \"#utility.yul\":1180:1216   */\n      mstore\n        /* \"#utility.yul\":1107:1222   */\n      pop\n      pop\n      jump\t// out\n        /* \"#utility.yul\":1228:1446   */\n    tag_12:\n        /* \"#utility.yul\":1319:1323   */\n      0x00\n        /* \"#utility.yul\":1357:1359   */\n      0x20\n        /* \"#utility.yul\":1346:1355   */\n      dup3\n        /* \"#utility.yul\":1342:1360   */\n      add\n        /* \"#utility.yul\":1334:1360   */\n      swap1\n      pop\n        /* \"#utility.yul\":1370:1439   */\n      tag_76\n        /* \"#utility.yul\":1436:1437   */\n      0x00\n        /* \"#utility.yul\":1425:1434   */\n      dup4\n        /* \"#utility.yul\":1421:1438   */\n      add\n        /* \"#utility.yul\":1412:1418   */\n      dup5\n        /* \"#utility.yul\":1370:1439   */\n      tag_49\n      jump\t// in\n    tag_76:\n        /* \"#utility.yul\":1228:1446   */\n      swap3\n      swap2\n      pop\n      pop\n      jump\t// out\n        /* \"#utility.yul\":1452:1555   */\n    tag_50:\n        /* \"#utility.yul\":1516:1522   */\n      0x00\n        /* \"#utility.yul\":1544:1548   */\n      0x04\n        /* \"#utility.yul\":1534:1548   */\n      swap1\n      pop\n        /* \"#utility.yul\":1452:1555   */\n      swap2\n      swap1\n      pop\n      jump\t// out\n        /* \"#utility.yul\":1561:1703   */\n    tag_51:\n        /* \"#utility.yul\":1657:1668   */\n      0x00\n        /* \"#utility.yul\":1694:1697   */\n      dup2\n        /* \"#utility.yul\":1679:1697   */\n      swap1\n      pop\n        /* \"#utility.yul\":1561:1703   */\n      swap3\n      swap2\n      pop\n      pop\n      jump\t// out\n        /* \"#utility.yul\":1709:1806   */\n    tag_52:\n        /* \"#utility.yul\":1773:1777   */\n      0x00\n        /* \"#utility.yul\":1796:1799   */\n      dup2\n        /* \"#utility.yul\":1788:1799   */\n      swap1\n      pop\n        /* \"#utility.yul\":1709:1806   */\n      swap2\n      swap1\n      pop\n      jump\t// out\n        /* \"#utility.yul\":1812:1917   */\n    tag_53:\n        /* \"#utility.yul\":1887:1910   */\n      tag_81\n        /* \"#utility.yul\":1904:1909   */\n      dup2\n        /* \"#utility.yul\":1887:1910   */\n      tag_48\n      jump\t// in\n    tag_81:\n        /* \"#utility.yul\":1882:1885   */\n      dup3\n        /* \"#utility.yul\":1875:1911   */\n      mstore\n        /* \"#utility.yul\":1812:1917   */\n      pop\n      pop\n      jump\t// out\n        /* \"#utility.yul\":1923:2098   */\n    tag_54:\n        /* \"#utility.yul\":1990:2000   */\n      0x00\n        /* \"#utility.yul\":2011:2055   */\n      tag_83\n        /* \"#utility.yul\":2051:2054   */\n      dup4\n        /* \"#utility.yul\":2043:2049   */\n      dup4\n        /* \"#utility.yul\":2011:2055   */\n      tag_53\n      jump\t// in\n    tag_83:\n        /* \"#utility.yul\":2087:2091   */\n      0x20\n        /* \"#utility.yul\":2082:2085   */\n      dup4\n        /* \"#utility.yul\":2078:2092   */\n      add\n        /* \"#utility.yul\":2064:2092   */\n      swap1\n      pop\n        /* \"#utility.yul\":1923:2098   */\n      swap3\n      swap2\n      pop\n      pop\n      jump\t// out\n        /* \"#utility.yul\":2104:2214   */\n    tag_55:\n        /* \"#utility.yul\":2171:2175   */\n      0x00\n        /* \"#utility.yul\":2203:2207   */\n      0x20\n        /* \"#utility.yul\":2198:2201   */\n      dup3\n        /* \"#utility.yul\":2194:2208   */\n      add\n        /* \"#utility.yul\":2186:2208   */\n      swap1\n      pop\n        /* \"#utility.yul\":2104:2214   */\n      swap2\n      swap1\n      pop\n      jump\t// out\n        /* \"#utility.yul\":2250:2936   */\n    tag_56:\n        /* \"#utility.yul\":2384:2435   */\n      tag_86\n        /* \"#utility.yul\":2429:2434   */\n      dup2\n        /* \"#utility.yul\":2384:2435   */\n      tag_50\n      jump\t// in\n    tag_86:\n        /* \"#utility.yul\":2451:2534   */\n      tag_87\n        /* \"#utility.yul\":2527:2533   */\n      dup2\n        /* \"#utility.yul\":2522:2525   */\n      dup5\n        /* \"#utility.yul\":2451:2534   */\n      tag_51\n      jump\t// in\n    tag_87:\n        /* \"#utility.yul\":2444:2534   */\n      swap3\n      pop\n        /* \"#utility.yul\":2558:2611   */\n      tag_88\n        /* \"#utility.yul\":2605:2610   */\n      dup3\n        /* \"#utility.yul\":2558:2611   */\n      tag_52\n      jump\t// in\n    tag_88:\n        /* \"#utility.yul\":2634:2641   */\n      dup1\n        /* \"#utility.yul\":2665:2666   */\n      0x00\n        /* \"#utility.yul\":2650:2929   */\n    tag_89:\n        /* \"#utility.yul\":2675:2681   */\n      dup4\n        /* \"#utility.yul\":2672:2673   */\n      dup2\n        /* \"#utility.yul\":2669:2682   */\n      lt\n        /* \"#utility.yul\":2650:2929   */\n      iszero\n      tag_91\n      jumpi\n        /* \"#utility.yul\":2751:2757   */\n      dup2\n        /* \"#utility.yul\":2745:2758   */\n      mload\n        /* \"#utility.yul\":2778:2839   */\n      tag_92\n        /* \"#utility.yul\":2835:2838   */\n      dup8\n        /* \"#utility.yul\":2820:2833   */\n      dup3\n        /* \"#utility.yul\":2778:2839   */\n      tag_54\n      jump\t// in\n    tag_92:\n        /* \"#utility.yul\":2771:2839   */\n      swap7\n      pop\n        /* \"#utility.yul\":2862:2919   */\n      tag_93\n        /* \"#utility.yul\":2912:2918   */\n      dup4\n        /* \"#utility.yul\":2862:2919   */\n      tag_55\n      jump\t// in\n    tag_93:\n        /* \"#utility.yul\":2852:2919   */\n      swap3\n      pop\n        /* \"#utility.yul\":2710:2929   */\n      pop\n        /* \"#utility.yul\":2697:2698   */\n      0x01\n        /* \"#utility.yul\":2694:2695   */\n      dup2\n        /* \"#utility.yul\":2690:2699   */\n      add\n        /* \"#utility.yul\":2685:2699   */\n      swap1\n      pop\n        /* \"#utility.yul\":2650:2929   */\n      jump(tag_89)\n    tag_91:\n        /* \"#utility.yul\":2654:2668   */\n      pop\n        /* \"#utility.yul\":2360:2936   */\n      pop\n      pop\n      pop\n        /* \"#utility.yul\":2250:2936   */\n      pop\n      pop\n      jump\t// out\n        /* \"#utility.yul\":2942:3253   */\n    tag_16:\n        /* \"#utility.yul\":3079:3083   */\n      0x00\n        /* \"#utility.yul\":3117:3120   */\n      0x80\n        /* \"#utility.yul\":3106:3115   */\n      dup3\n        /* \"#utility.yul\":3102:3121   */\n      add\n        /* \"#utility.yul\":3094:3121   */\n      swap1\n      pop\n        /* \"#utility.yul\":3131:3246   */\n      tag_95\n        /* \"#utility.yul\":3243:3244   */\n      0x00\n        /* \"#utility.yul\":3232:3241   */\n      dup4\n        /* \"#utility.yul\":3228:3245   */\n      add\n        /* \"#utility.yul\":3219:3225   */\n      dup5\n        /* \"#utility.yul\":3131:3246   */\n      tag_56\n      jump\t// in\n    tag_95:\n        /* \"#utility.yul\":2942:3253   */\n      swap3\n      swap2\n      pop\n      pop\n      jump\t// out\n        /* \"#utility.yul\":3259:3377   */\n    tag_57:\n        /* \"#utility.yul\":3346:3370   */\n      tag_97\n        /* \"#utility.yul\":3364:3369   */\n      dup2\n        /* \"#utility.yul\":3346:3370   */\n      tag_45\n      jump\t// in\n    tag_97:\n        /* \"#utility.yul\":3341:3344   */\n      dup3\n        /* \"#utility.yul\":3334:3371   */\n      mstore\n        /* \"#utility.yul\":3259:3377   */\n      pop\n      pop\n      jump\t// out\n        /* \"#utility.yul\":3383:3605   */\n    tag_20:\n        /* \"#utility.yul\":3476:3480   */\n      0x00\n        /* \"#utility.yul\":3514:3516   */\n      0x20\n        /* \"#utility.yul\":3503:3512   */\n      dup3\n        /* \"#utility.yul\":3499:3517   */\n      add\n        /* \"#utility.yul\":3491:3517   */\n      swap1\n      pop\n        /* \"#utility.yul\":3527:3598   */\n      tag_99\n        /* \"#utility.yul\":3595:3596   */\n      0x00\n        /* \"#utility.yul\":3584:3593   */\n      dup4\n        /* \"#utility.yul\":3580:3597   */\n      add\n        /* \"#utility.yul\":3571:3577   */\n      dup5\n        /* \"#utility.yul\":3527:3598   */\n      tag_57\n      jump\t// in\n    tag_99:\n        /* \"#utility.yul\":3383:3605   */\n      swap3\n      swap2\n      pop\n      pop\n      jump\t// out\n        /* \"#utility.yul\":3611:3791   */\n    tag_34:\n        /* \"#utility.yul\":3659:3736   */\n      0x4e487b7100000000000000000000000000000000000000000000000000000000\n        /* \"#utility.yul\":3656:3657   */\n      0x00\n        /* \"#utility.yul\":3649:3737   */\n      mstore\n        /* \"#utility.yul\":3756:3760   */\n      0x32\n        /* \"#utility.yul\":3753:3754   */\n      0x04\n        /* \"#utility.yul\":3746:3761   */\n      mstore\n        /* \"#utility.yul\":3780:3784   */\n      0x24\n        /* \"#utility.yul\":3777:3778   */\n      0x00\n        /* \"#utility.yul\":3770:3785   */\n      revert\n\n    auxdata: 0xa264697066735822122021ec5df42962344e8ef34d19306b8ed5f50b802b94666e89c75f8e2b15a34db364736f6c63430008120033\n}\n",
				"bytecode": {
					"linkReferences": {},
					"object": "608060405234801561001057600080fd5b5061039e806100206000396000f3fe608060405234801561001057600080fd5b506004361061004c5760003560e01c806338d94193146100515780636d4ce63c14610081578063a16d35981461009f578063c3344af8146100bd575b600080fd5b61006b600480360381019061006691906101e8565b6100c7565b604051610078919061022e565b60405180910390f35b6100896100e2565b60405161009691906102f4565b60405180910390f35b6100a761012d565b6040516100b4919061031e565b60405180910390f35b6100c5610136565b005b600081600481106100d757600080fd5b016000915090505481565b6100ea61018b565b6000600480602002604051908101604052809291908260048015610123576020028201915b81548152602001906001019080831161010f575b5050505050905090565b60006004905090565b60056000806004811061014c5761014b610339565b5b01819055506005600060026004811061016857610167610339565b5b0181905550600a600060036004811061018457610183610339565b5b0181905550565b6040518060800160405280600490602082028036833780820191505090505090565b600080fd5b6000819050919050565b6101c5816101b2565b81146101d057600080fd5b50565b6000813590506101e2816101bc565b92915050565b6000602082840312156101fe576101fd6101ad565b5b600061020c848285016101d3565b91505092915050565b6000819050919050565b61022881610215565b82525050565b6000602082019050610243600083018461021f565b92915050565b600060049050919050565b600081905092915050565b6000819050919050565b61027281610215565b82525050565b60006102848383610269565b60208301905092915050565b6000602082019050919050565b6102a681610249565b6102b08184610254565b92506102bb8261025f565b8060005b838110156102ec5781516102d38782610278565b96506102de83610290565b9250506001810190506102bf565b505050505050565b6000608082019050610309600083018461029d565b92915050565b610318816101b2565b82525050565b6000602082019050610333600083018461030f565b92915050565b7f4e487b7100000000000000000000000000000000000000000000000000000000600052603260045260246000fdfea264697066735822122021ec5df42962344e8ef34d19306b8ed5f50b802b94666e89c75f8e2b15a34db364736f6c63430008120033",
					"opcodes": "PUSH1 0x80 PUSH1 0x40 MSTORE CALLVALUE DUP1 ISZERO PUSH2 0x10 JUMPI PUSH1 0x0 DUP1 REVERT JUMPDEST POP PUSH2 0x39E DUP1 PUSH2 0x20 PUSH1 0x0 CODECOPY PUSH1 0x0 RETURN INVALID PUSH1 0x80 PUSH1 0x40 MSTORE CALLVALUE DUP1 ISZERO PUSH2 0x10 JUMPI PUSH1 0x0 DUP1 REVERT JUMPDEST POP PUSH1 0x4 CALLDATASIZE LT PUSH2 0x4C JUMPI PUSH1 0x0 CALLDATALOAD PUSH1 0xE0 SHR DUP1 PUSH4 0x38D94193 EQ PUSH2 0x51 JUMPI DUP1 PUSH4 0x6D4CE63C EQ PUSH2 0x81 JUMPI DUP1 PUSH4 0xA16D3598 EQ PUSH2 0x9F JUMPI DUP1 PUSH4 0xC3344AF8 EQ PUSH2 0xBD JUMPI JUMPDEST PUSH1 0x0 DUP1 REVERT JUMPDEST PUSH2 0x6B PUSH1 0x4 DUP1 CALLDATASIZE SUB DUP2 ADD SWAP1 PUSH2 0x66 SWAP2 SWAP1 PUSH2 0x1E8 JUMP JUMPDEST PUSH2 0xC7 JUMP JUMPDEST PUSH1 0x40 MLOAD PUSH2 0x78 SWAP2 SWAP1 PUSH2 0x22E JUMP JUMPDEST PUSH1 0x40 MLOAD DUP1 SWAP2 SUB SWAP1 RETURN JUMPDEST PUSH2 0x89 PUSH2 0xE2 JUMP JUMPDEST PUSH1 0x40 MLOAD PUSH2 0x96 SWAP2 SWAP1 PUSH2 0x2F4 JUMP JUMPDEST PUSH1 0x40 MLOAD DUP1 SWAP2 SUB SWAP1 RETURN JUMPDEST PUSH2 0xA7 PUSH2 0x12D JUMP JUMPDEST PUSH1 0x40 MLOAD PUSH2 0xB4 SWAP2 SWAP1 PUSH2 0x31E JUMP JUMPDEST PUSH1 0x40 MLOAD DUP1 SWAP2 SUB SWAP1 RETURN JUMPDEST PUSH2 0xC5 PUSH2 0x136 JUMP JUMPDEST STOP JUMPDEST PUSH1 0x0 DUP2 PUSH1 0x4 DUP2 LT PUSH2 0xD7 JUMPI PUSH1 0x0 DUP1 REVERT JUMPDEST ADD PUSH1 0x0 SWAP2 POP SWAP1 POP SLOAD DUP2 JUMP JUMPDEST PUSH2 0xEA PUSH2 0x18B JUMP JUMPDEST PUSH1 0x0 PUSH1 0x4 DUP1 PUSH1 0x20 MUL PUSH1 0x40 MLOAD SWAP1 DUP2 ADD PUSH1 0x40 MSTORE DUP1 SWAP3 SWAP2 SWAP1 DUP3 PUSH1 0x4 DUP1 ISZERO PUSH2 0x123 JUMPI PUSH1 0x20 MUL DUP3 ADD SWAP2 JUMPDEST DUP2 SLOAD DUP2 MSTORE PUSH1 0x20 ADD SWAP1 PUSH1 0x1 ADD SWAP1 DUP1 DUP4 GT PUSH2 0x10F JUMPI JUMPDEST POP POP POP POP POP SWAP1 POP SWAP1 JUMP JUMPDEST PUSH1 0x0 PUSH1 0x4 SWAP1 POP SWAP1 JUMP JUMPDEST PUSH1 0x5 PUSH1 0x0 DUP1 PUSH1 0x4 DUP2 LT PUSH2 0x14C JUMPI PUSH2 0x14B PUSH2 0x339 JUMP JUMPDEST JUMPDEST ADD DUP2 SWAP1 SSTORE POP PUSH1 0x5 PUSH1 0x0 PUSH1 0x2 PUSH1 0x4 DUP2 LT PUSH2 0x168 JUMPI PUSH2 0x167 PUSH2 0x339 JUMP JUMPDEST JUMPDEST ADD DUP2 SWAP1 SSTORE POP PUSH1 0xA PUSH1 0x0 PUSH1 0x3 PUSH1 0x4 DUP2 LT PUSH2 0x184 JUMPI PUSH2 0x183 PUSH2 0x339 JUMP JUMPDEST JUMPDEST ADD DUP2 SWAP1 SSTORE POP JUMP JUMPDEST PUSH1 0x40 MLOAD DUP1 PUSH1 0x80 ADD PUSH1 0x40 MSTORE DUP1 PUSH1 0x4 SWAP1 PUSH1 0x20 DUP3 MUL DUP1 CALLDATASIZE DUP4 CALLDATACOPY DUP1 DUP3 ADD SWAP2 POP POP SWAP1 POP POP SWAP1 JUMP JUMPDEST PUSH1 0x0 DUP1 REVERT JUMPDEST PUSH1 0x0 DUP2 SWAP1 POP SWAP2 SWAP1 POP JUMP JUMPDEST PUSH2 0x1C5 DUP2 PUSH2 0x1B2 JUMP JUMPDEST DUP2 EQ PUSH2 0x1D0 JUMPI PUSH1 0x0 DUP1 REVERT JUMPDEST POP JUMP JUMPDEST PUSH1 0x0 DUP2 CALLDATALOAD SWAP1 POP PUSH2 0x1E2 DUP2 PUSH2 0x1BC JUMP JUMPDEST SWAP3 SWAP2 POP POP JUMP JUMPDEST PUSH1 0x0 PUSH1 0x20 DUP3 DUP5 SUB SLT ISZERO PUSH2 0x1FE JUMPI PUSH2 0x1FD PUSH2 0x1AD JUMP JUMPDEST JUMPDEST PUSH1 0x0 PUSH2 0x20C DUP5 DUP3 DUP6 ADD PUSH2 0x1D3 JUMP JUMPDEST SWAP2 POP POP SWAP3 SWAP2 POP POP JUMP JUMPDEST PUSH1 0x0 DUP2 SWAP1 POP SWAP2 SWAP1 POP JUMP JUMPDEST PUSH2 0x228 DUP2 PUSH2 0x215 JUMP JUMPDEST DUP3 MSTORE POP POP JUMP JUMPDEST PUSH1 0x0 PUSH1 0x20 DUP3 ADD SWAP1 POP PUSH2 0x243 PUSH1 0x0 DUP4 ADD DUP5 PUSH2 0x21F JUMP JUMPDEST SWAP3 SWAP2 POP POP JUMP JUMPDEST PUSH1 0x0 PUSH1 0x4 SWAP1 POP SWAP2 SWAP1 POP JUMP JUMPDEST PUSH1 0x0 DUP2 SWAP1 POP SWAP3 SWAP2 POP POP JUMP JUMPDEST PUSH1 0x0 DUP2 SWAP1 POP SWAP2 SWAP1 POP JUMP JUMPDEST PUSH2 0x272 DUP2 PUSH2 0x215 JUMP JUMPDEST DUP3 MSTORE POP POP JUMP JUMPDEST PUSH1 0x0 PUSH2 0x284 DUP4 DUP4 PUSH2 0x269 JUMP JUMPDEST PUSH1 0x20 DUP4 ADD SWAP1 POP SWAP3 SWAP2 POP POP JUMP JUMPDEST PUSH1 0x0 PUSH1 0x20 DUP3 ADD SWAP1 POP SWAP2 SWAP1 POP JUMP JUMPDEST PUSH2 0x2A6 DUP2 PUSH2 0x249 JUMP JUMPDEST PUSH2 0x2B0 DUP2 DUP5 PUSH2 0x254 JUMP JUMPDEST SWAP3 POP PUSH2 0x2BB DUP3 PUSH2 0x25F JUMP JUMPDEST DUP1 PUSH1 0x0 JUMPDEST DUP4 DUP2 LT ISZERO PUSH2 0x2EC JUMPI DUP2 MLOAD PUSH2 0x2D3 DUP8 DUP3 PUSH2 0x278 JUMP JUMPDEST SWAP7 POP PUSH2 0x2DE DUP4 PUSH2 0x290 JUMP JUMPDEST SWAP3 POP POP PUSH1 0x1 DUP2 ADD SWAP1 POP PUSH2 0x2BF JUMP JUMPDEST POP POP POP POP POP POP JUMP JUMPDEST PUSH1 0x0 PUSH1 0x80 DUP3 ADD SWAP1 POP PUSH2 0x309 PUSH1 0x0 DUP4 ADD DUP5 PUSH2 0x29D JUMP JUMPDEST SWAP3 SWAP2 POP POP JUMP JUMPDEST PUSH2 0x318 DUP2 PUSH2 0x1B2 JUMP JUMPDEST DUP3 MSTORE POP POP JUMP JUMPDEST PUSH1 0x0 PUSH1 0x20 DUP3 ADD SWAP1 POP PUSH2 0x333 PUSH1 0x0 DUP4 ADD DUP5 PUSH2 0x30F JUMP JUMPDEST SWAP3 SWAP2 POP POP JUMP JUMPDEST PUSH32 0x4E487B7100000000000000000000000000000000000000000000000000000000 PUSH1 0x0 MSTORE PUSH1 0x32 PUSH1 0x4 MSTORE PUSH1 0x24 PUSH1 0x0 REVERT INVALID LOG2 PUSH5 0x6970667358 0x22 SLT KECCAK256 0x21 0xEC 0x5D DELEGATECALL 0x29 PUSH3 0x344E8E RETURN 0x4D NOT ADDRESS PUSH12 0x8ED5F50B802B94666E89C75F DUP15 0x2B ISZERO LOG3 0x4D 0xB3 PUSH5 0x736F6C6343 STOP ADDMOD SLT STOP CALLER "
				},
				"gasEstimates": {
					"creation": {
						"codeDepositCost": "185200",
						"executionCost": "226",
						"totalCost": "185426"
					},
					"external": {
						"array(uint256)": "2709",
						"get()": "infinite",
						"getlength()": "359",
						"ipush()": "66617"
					}
				},
				"methodIdentifiers": {
					"array(uint256)": "38d94193",
					"get()": "6d4ce63c",
					"getlength()": "a16d3598",
					"ipush()": "c3344af8"
				}
			},
			"storageLayout": {
				"storage": [
					{
						"astId": 5,
						"contract": "labs/31-7-23/08 arraySomeErrors.sol:Array",
						"label": "array",
						"offset": 0,
						"slot": "0",
						"type": "t_array(t_int256)4_storage"
					}
				],
				"types": {
					"t_array(t_int256)4_storage": {
						"base": "t_int256",
						"encoding": "inplace",
						"label": "int256[4]",
						"numberOfBytes": "128"
					},
					"t_int256": {
						"encoding": "inplace",
						"label": "int256",
						"numberOfBytes": "32"
					}
				}
			},
			"userdoc": {
				"kind": "user",
				"methods": {},
				"version": 1
			}
		}
	}
}