{
	"labs/31-7-23/07 dynamicArray.sol": {
		"Array": {
			"abi": [
				{
					"inputs": [
						{
							"internalType": "uint256",
							"name": "",
							"type": "uint256"
						}
					],
					"name": "arr2",
					"outputs": [
						{
							"internalType": "string",
							"name": "",
							"type": "string"
						}
					],
					"stateMutability": "view",
					"type": "function"
				},
				{
					"inputs": [],
					"name": "getter",
					"outputs": [
						{
							"internalType": "string[]",
							"name": "",
							"type": "string[]"
						}
					],
					"stateMutability": "view",
					"type": "function"
				},
				{
					"inputs": [],
					"name": "length",
					"outputs": [
						{
							"internalType": "uint256",
							"name": "",
							"type": "uint256"
						}
					],
					"stateMutability": "view",
					"type": "function"
				},
				{
					"inputs": [],
					"name": "pop",
					"outputs": [
						{
							"internalType": "uint256",
							"name": "",
							"type": "uint256"
						}
					],
					"stateMutability": "nonpayable",
					"type": "function"
				},
				{
					"inputs": [
						{
							"internalType": "string",
							"name": "value",
							"type": "string"
						}
					],
					"name": "push",
					"outputs": [
						{
							"internalType": "uint256",
							"name": "",
							"type": "uint256"
						}
					],
					"stateMutability": "nonpayable",
					"type": "function"
				}
			],
			"devdoc": {
				"kind": "dev",
				"methods": {},
				"version": 1
			},
			"evm": {
				"assembly": "    /* \"labs/31-7-23/07 dynamicArray.sol\":59:505  contract Array {... */\n  mstore(0x40, 0x80)\n  callvalue\n  dup1\n  iszero\n  tag_1\n  jumpi\n  0x00\n  dup1\n  revert\ntag_1:\n  pop\n  dataSize(sub_0)\n  dup1\n  dataOffset(sub_0)\n  0x00\n  codecopy\n  0x00\n  return\nstop\n\nsub_0: assembly {\n        /* \"labs/31-7-23/07 dynamicArray.sol\":59:505  contract Array {... */\n      mstore(0x40, 0x80)\n      callvalue\n      dup1\n      iszero\n      tag_1\n      jumpi\n      0x00\n      dup1\n      revert\n    tag_1:\n      pop\n      jumpi(tag_2, lt(calldatasize, 0x04))\n      shr(0xe0, calldataload(0x00))\n      dup1\n      0x1f7b6d32\n      eq\n      tag_3\n      jumpi\n      dup1\n      0x4f3d057a\n      eq\n      tag_4\n      jumpi\n      dup1\n      0x993a04b7\n      eq\n      tag_5\n      jumpi\n      dup1\n      0xa4ece52c\n      eq\n      tag_6\n      jumpi\n      dup1\n      0xedf0099b\n      eq\n      tag_7\n      jumpi\n    tag_2:\n      0x00\n      dup1\n      revert\n        /* \"labs/31-7-23/07 dynamicArray.sol\":333:412  function length()public view returns(uint){... */\n    tag_3:\n      tag_8\n      tag_9\n      jump\t// in\n    tag_8:\n      mload(0x40)\n      tag_10\n      swap2\n      swap1\n      tag_11\n      jump\t// in\n    tag_10:\n      mload(0x40)\n      dup1\n      swap2\n      sub\n      swap1\n      return\n        /* \"labs/31-7-23/07 dynamicArray.sol\":108:228  function push(string memory value ) public returns(uint){... */\n    tag_4:\n      tag_12\n      0x04\n      dup1\n      calldatasize\n      sub\n      dup2\n      add\n      swap1\n      tag_13\n      swap2\n      swap1\n      tag_14\n      jump\t// in\n    tag_13:\n      tag_15\n      jump\t// in\n    tag_12:\n      mload(0x40)\n      tag_16\n      swap2\n      swap1\n      tag_11\n      jump\t// in\n    tag_16:\n      mload(0x40)\n      dup1\n      swap2\n      sub\n      swap1\n      return\n        /* \"labs/31-7-23/07 dynamicArray.sol\":418:502  function getter()public view returns (string[] memory){... */\n    tag_5:\n      tag_17\n      tag_18\n      jump\t// in\n    tag_17:\n      mload(0x40)\n      tag_19\n      swap2\n      swap1\n      tag_20\n      jump\t// in\n    tag_19:\n      mload(0x40)\n      dup1\n      swap2\n      sub\n      swap1\n      return\n        /* \"labs/31-7-23/07 dynamicArray.sol\":234:327  function pop() public returns(uint){... */\n    tag_6:\n      tag_21\n      tag_22\n      jump\t// in\n    tag_21:\n      mload(0x40)\n      tag_23\n      swap2\n      swap1\n      tag_11\n      jump\t// in\n    tag_23:\n      mload(0x40)\n      dup1\n      swap2\n      sub\n      swap1\n      return\n        /* \"labs/31-7-23/07 dynamicArray.sol\":81:101  string[] public arr2 */\n    tag_7:\n      tag_24\n      0x04\n      dup1\n      calldatasize\n      sub\n      dup2\n      add\n      swap1\n      tag_25\n      swap2\n      swap1\n      tag_26\n      jump\t// in\n    tag_25:\n      tag_27\n      jump\t// in\n    tag_24:\n      mload(0x40)\n      tag_28\n      swap2\n      swap1\n      tag_29\n      jump\t// in\n    tag_28:\n      mload(0x40)\n      dup1\n      swap2\n      sub\n      swap1\n      return\n        /* \"labs/31-7-23/07 dynamicArray.sol\":333:412  function length()public view returns(uint){... */\n    tag_9:\n        /* \"labs/31-7-23/07 dynamicArray.sol\":370:374  uint */\n      0x00\n        /* \"labs/31-7-23/07 dynamicArray.sol\":393:397  arr2 */\n      dup1\n        /* \"labs/31-7-23/07 dynamicArray.sol\":393:404  arr2.length */\n      dup1\n      sload\n      swap1\n      pop\n        /* \"labs/31-7-23/07 dynamicArray.sol\":386:404  return arr2.length */\n      swap1\n      pop\n        /* \"labs/31-7-23/07 dynamicArray.sol\":333:412  function length()public view returns(uint){... */\n      swap1\n      jump\t// out\n        /* \"labs/31-7-23/07 dynamicArray.sol\":108:228  function push(string memory value ) public returns(uint){... */\n    tag_15:\n        /* \"labs/31-7-23/07 dynamicArray.sol\":159:163  uint */\n      0x00\n        /* \"labs/31-7-23/07 dynamicArray.sol\":175:179  arr2 */\n      dup1\n        /* \"labs/31-7-23/07 dynamicArray.sol\":185:190  value */\n      dup3\n        /* \"labs/31-7-23/07 dynamicArray.sol\":175:191  arr2.push(value) */\n      swap1\n      dup1\n      0x01\n      dup2\n      sload\n      add\n      dup1\n      dup3\n      sstore\n      dup1\n      swap2\n      pop\n      pop\n      0x01\n      swap1\n      sub\n      swap1\n      0x00\n      mstore\n      keccak256(0x00, 0x20)\n      add\n      0x00\n      swap1\n      swap2\n      swap1\n      swap2\n      swap1\n      swap2\n      pop\n      swap1\n      dup2\n      tag_33\n      swap2\n      swap1\n      tag_34\n      jump\t// in\n    tag_33:\n      pop\n        /* \"labs/31-7-23/07 dynamicArray.sol\":209:213  arr2 */\n      0x00\n        /* \"labs/31-7-23/07 dynamicArray.sol\":209:220  arr2.length */\n      dup1\n      sload\n      swap1\n      pop\n        /* \"labs/31-7-23/07 dynamicArray.sol\":202:220  return arr2.length */\n      swap1\n      pop\n        /* \"labs/31-7-23/07 dynamicArray.sol\":108:228  function push(string memory value ) public returns(uint){... */\n      swap2\n      swap1\n      pop\n      jump\t// out\n        /* \"labs/31-7-23/07 dynamicArray.sol\":418:502  function getter()public view returns (string[] memory){... */\n    tag_18:\n        /* \"labs/31-7-23/07 dynamicArray.sol\":456:471  string[] memory */\n      0x60\n        /* \"labs/31-7-23/07 dynamicArray.sol\":490:494  arr2 */\n      0x00\n        /* \"labs/31-7-23/07 dynamicArray.sol\":483:494  return arr2 */\n      dup1\n      sload\n      dup1\n      0x20\n      mul\n      0x20\n      add\n      mload(0x40)\n      swap1\n      dup2\n      add\n      0x40\n      mstore\n      dup1\n      swap3\n      swap2\n      swap1\n      dup2\n      dup2\n      mstore\n      0x20\n      add\n      0x00\n      swap1\n    tag_36:\n      dup3\n      dup3\n      lt\n      iszero\n      tag_37\n      jumpi\n      dup4\n      dup3\n      swap1\n      0x00\n      mstore\n      keccak256(0x00, 0x20)\n      add\n      dup1\n      sload\n      tag_39\n      swap1\n      tag_40\n      jump\t// in\n    tag_39:\n      dup1\n      0x1f\n      add\n      0x20\n      dup1\n      swap2\n      div\n      mul\n      0x20\n      add\n      mload(0x40)\n      swap1\n      dup2\n      add\n      0x40\n      mstore\n      dup1\n      swap3\n      swap2\n      swap1\n      dup2\n      dup2\n      mstore\n      0x20\n      add\n      dup3\n      dup1\n      sload\n      tag_41\n      swap1\n      tag_40\n      jump\t// in\n    tag_41:\n      dup1\n      iszero\n      tag_42\n      jumpi\n      dup1\n      0x1f\n      lt\n      tag_43\n      jumpi\n      0x0100\n      dup1\n      dup4\n      sload\n      div\n      mul\n      dup4\n      mstore\n      swap2\n      0x20\n      add\n      swap2\n      jump(tag_42)\n    tag_43:\n      dup3\n      add\n      swap2\n      swap1\n      0x00\n      mstore\n      keccak256(0x00, 0x20)\n      swap1\n    tag_44:\n      dup2\n      sload\n      dup2\n      mstore\n      swap1\n      0x01\n      add\n      swap1\n      0x20\n      add\n      dup1\n      dup4\n      gt\n      tag_44\n      jumpi\n      dup3\n      swap1\n      sub\n      0x1f\n      and\n      dup3\n      add\n      swap2\n    tag_42:\n      pop\n      pop\n      pop\n      pop\n      pop\n      dup2\n      mstore\n      0x20\n      add\n      swap1\n      0x01\n      add\n      swap1\n      jump(tag_36)\n    tag_37:\n      pop\n      pop\n      pop\n      pop\n      swap1\n      pop\n        /* \"labs/31-7-23/07 dynamicArray.sol\":418:502  function getter()public view returns (string[] memory){... */\n      swap1\n      jump\t// out\n        /* \"labs/31-7-23/07 dynamicArray.sol\":234:327  function pop() public returns(uint){... */\n    tag_22:\n        /* \"labs/31-7-23/07 dynamicArray.sol\":264:268  uint */\n      0x00\n        /* \"labs/31-7-23/07 dynamicArray.sol\":280:284  arr2 */\n      dup1\n        /* \"labs/31-7-23/07 dynamicArray.sol\":280:290  arr2.pop() */\n      dup1\n      sload\n      dup1\n      tag_46\n      jumpi\n      tag_47\n      tag_48\n      jump\t// in\n    tag_47:\n    tag_46:\n      0x01\n      swap1\n      sub\n      dup2\n      dup2\n      swap1\n      0x00\n      mstore\n      keccak256(0x00, 0x20)\n      add\n      0x00\n      tag_50\n      swap2\n      swap1\n      tag_51\n      jump\t// in\n    tag_50:\n      swap1\n      sstore\n        /* \"labs/31-7-23/07 dynamicArray.sol\":308:312  arr2 */\n      0x00\n        /* \"labs/31-7-23/07 dynamicArray.sol\":308:319  arr2.length */\n      dup1\n      sload\n      swap1\n      pop\n        /* \"labs/31-7-23/07 dynamicArray.sol\":301:319  return arr2.length */\n      swap1\n      pop\n        /* \"labs/31-7-23/07 dynamicArray.sol\":234:327  function pop() public returns(uint){... */\n      swap1\n      jump\t// out\n        /* \"labs/31-7-23/07 dynamicArray.sol\":81:101  string[] public arr2 */\n    tag_27:\n      0x00\n      dup2\n      dup2\n      sload\n      dup2\n      lt\n      tag_52\n      jumpi\n      0x00\n      dup1\n      revert\n    tag_52:\n      swap1\n      0x00\n      mstore\n      keccak256(0x00, 0x20)\n      add\n      0x00\n      swap2\n      pop\n      swap1\n      pop\n      dup1\n      sload\n      tag_54\n      swap1\n      tag_40\n      jump\t// in\n    tag_54:\n      dup1\n      0x1f\n      add\n      0x20\n      dup1\n      swap2\n      div\n      mul\n      0x20\n      add\n      mload(0x40)\n      swap1\n      dup2\n      add\n      0x40\n      mstore\n      dup1\n      swap3\n      swap2\n      swap1\n      dup2\n      dup2\n      mstore\n      0x20\n      add\n      dup3\n      dup1\n      sload\n      tag_55\n      swap1\n      tag_40\n      jump\t// in\n    tag_55:\n      dup1\n      iszero\n      tag_56\n      jumpi\n      dup1\n      0x1f\n      lt\n      tag_57\n      jumpi\n      0x0100\n      dup1\n      dup4\n      sload\n      div\n      mul\n      dup4\n      mstore\n      swap2\n      0x20\n      add\n      swap2\n      jump(tag_56)\n    tag_57:\n      dup3\n      add\n      swap2\n      swap1\n      0x00\n      mstore\n      keccak256(0x00, 0x20)\n      swap1\n    tag_58:\n      dup2\n      sload\n      dup2\n      mstore\n      swap1\n      0x01\n      add\n      swap1\n      0x20\n      add\n      dup1\n      dup4\n      gt\n      tag_58\n      jumpi\n      dup3\n      swap1\n      sub\n      0x1f\n      and\n      dup3\n      add\n      swap2\n    tag_56:\n      pop\n      pop\n      pop\n      pop\n      pop\n      dup2\n      jump\t// out\n    tag_51:\n      pop\n      dup1\n      sload\n      tag_59\n      swap1\n      tag_40\n      jump\t// in\n    tag_59:\n      0x00\n      dup3\n      sstore\n      dup1\n      0x1f\n      lt\n      tag_61\n      jumpi\n      pop\n      jump(tag_60)\n    tag_61:\n      0x1f\n      add\n      0x20\n      swap1\n      div\n      swap1\n      0x00\n      mstore\n      keccak256(0x00, 0x20)\n      swap1\n      dup2\n      add\n      swap1\n      tag_62\n      swap2\n      swap1\n      tag_63\n      jump\t// in\n    tag_62:\n    tag_60:\n      pop\n      jump\t// out\n    tag_63:\n    tag_64:\n      dup1\n      dup3\n      gt\n      iszero\n      tag_65\n      jumpi\n      0x00\n      dup2\n      0x00\n      swap1\n      sstore\n      pop\n      0x01\n      add\n      jump(tag_64)\n    tag_65:\n      pop\n      swap1\n      jump\t// out\n        /* \"#utility.yul\":7:84   */\n    tag_66:\n        /* \"#utility.yul\":44:51   */\n      0x00\n        /* \"#utility.yul\":73:78   */\n      dup2\n        /* \"#utility.yul\":62:78   */\n      swap1\n      pop\n        /* \"#utility.yul\":7:84   */\n      swap2\n      swap1\n      pop\n      jump\t// out\n        /* \"#utility.yul\":90:208   */\n    tag_67:\n        /* \"#utility.yul\":177:201   */\n      tag_114\n        /* \"#utility.yul\":195:200   */\n      dup2\n        /* \"#utility.yul\":177:201   */\n      tag_66\n      jump\t// in\n    tag_114:\n        /* \"#utility.yul\":172:175   */\n      dup3\n        /* \"#utility.yul\":165:202   */\n      mstore\n        /* \"#utility.yul\":90:208   */\n      pop\n      pop\n      jump\t// out\n        /* \"#utility.yul\":214:436   */\n    tag_11:\n        /* \"#utility.yul\":307:311   */\n      0x00\n        /* \"#utility.yul\":345:347   */\n      0x20\n        /* \"#utility.yul\":334:343   */\n      dup3\n        /* \"#utility.yul\":330:348   */\n      add\n        /* \"#utility.yul\":322:348   */\n      swap1\n      pop\n        /* \"#utility.yul\":358:429   */\n      tag_116\n        /* \"#utility.yul\":426:427   */\n      0x00\n        /* \"#utility.yul\":415:424   */\n      dup4\n        /* \"#utility.yul\":411:428   */\n      add\n        /* \"#utility.yul\":402:408   */\n      dup5\n        /* \"#utility.yul\":358:429   */\n      tag_67\n      jump\t// in\n    tag_116:\n        /* \"#utility.yul\":214:436   */\n      swap3\n      swap2\n      pop\n      pop\n      jump\t// out\n        /* \"#utility.yul\":442:517   */\n    tag_68:\n        /* \"#utility.yul\":475:481   */\n      0x00\n        /* \"#utility.yul\":508:510   */\n      0x40\n        /* \"#utility.yul\":502:511   */\n      mload\n        /* \"#utility.yul\":492:511   */\n      swap1\n      pop\n        /* \"#utility.yul\":442:517   */\n      swap1\n      jump\t// out\n        /* \"#utility.yul\":523:640   */\n    tag_69:\n        /* \"#utility.yul\":632:633   */\n      0x00\n        /* \"#utility.yul\":629:630   */\n      dup1\n        /* \"#utility.yul\":622:634   */\n      revert\n        /* \"#utility.yul\":646:763   */\n    tag_70:\n        /* \"#utility.yul\":755:756   */\n      0x00\n        /* \"#utility.yul\":752:753   */\n      dup1\n        /* \"#utility.yul\":745:757   */\n      revert\n        /* \"#utility.yul\":769:886   */\n    tag_71:\n        /* \"#utility.yul\":878:879   */\n      0x00\n        /* \"#utility.yul\":875:876   */\n      dup1\n        /* \"#utility.yul\":868:880   */\n      revert\n        /* \"#utility.yul\":892:1009   */\n    tag_72:\n        /* \"#utility.yul\":1001:1002   */\n      0x00\n        /* \"#utility.yul\":998:999   */\n      dup1\n        /* \"#utility.yul\":991:1003   */\n      revert\n        /* \"#utility.yul\":1015:1117   */\n    tag_73:\n        /* \"#utility.yul\":1056:1062   */\n      0x00\n        /* \"#utility.yul\":1107:1109   */\n      0x1f\n        /* \"#utility.yul\":1103:1110   */\n      not\n        /* \"#utility.yul\":1098:1100   */\n      0x1f\n        /* \"#utility.yul\":1091:1096   */\n      dup4\n        /* \"#utility.yul\":1087:1101   */\n      add\n        /* \"#utility.yul\":1083:1111   */\n      and\n        /* \"#utility.yul\":1073:1111   */\n      swap1\n      pop\n        /* \"#utility.yul\":1015:1117   */\n      swap2\n      swap1\n      pop\n      jump\t// out\n        /* \"#utility.yul\":1123:1303   */\n    tag_74:\n        /* \"#utility.yul\":1171:1248   */\n      0x4e487b7100000000000000000000000000000000000000000000000000000000\n        /* \"#utility.yul\":1168:1169   */\n      0x00\n        /* \"#utility.yul\":1161:1249   */\n      mstore\n        /* \"#utility.yul\":1268:1272   */\n      0x41\n        /* \"#utility.yul\":1265:1266   */\n      0x04\n        /* \"#utility.yul\":1258:1273   */\n      mstore\n        /* \"#utility.yul\":1292:1296   */\n      0x24\n        /* \"#utility.yul\":1289:1290   */\n      0x00\n        /* \"#utility.yul\":1282:1297   */\n      revert\n        /* \"#utility.yul\":1309:1590   */\n    tag_75:\n        /* \"#utility.yul\":1392:1419   */\n      tag_125\n        /* \"#utility.yul\":1414:1418   */\n      dup3\n        /* \"#utility.yul\":1392:1419   */\n      tag_73\n      jump\t// in\n    tag_125:\n        /* \"#utility.yul\":1384:1390   */\n      dup2\n        /* \"#utility.yul\":1380:1420   */\n      add\n        /* \"#utility.yul\":1522:1528   */\n      dup2\n        /* \"#utility.yul\":1510:1520   */\n      dup2\n        /* \"#utility.yul\":1507:1529   */\n      lt\n        /* \"#utility.yul\":1486:1504   */\n      0xffffffffffffffff\n        /* \"#utility.yul\":1474:1484   */\n      dup3\n        /* \"#utility.yul\":1471:1505   */\n      gt\n        /* \"#utility.yul\":1468:1530   */\n      or\n        /* \"#utility.yul\":1465:1553   */\n      iszero\n      tag_126\n      jumpi\n        /* \"#utility.yul\":1533:1551   */\n      tag_127\n      tag_74\n      jump\t// in\n    tag_127:\n        /* \"#utility.yul\":1465:1553   */\n    tag_126:\n        /* \"#utility.yul\":1573:1583   */\n      dup1\n        /* \"#utility.yul\":1569:1571   */\n      0x40\n        /* \"#utility.yul\":1562:1584   */\n      mstore\n        /* \"#utility.yul\":1352:1590   */\n      pop\n        /* \"#utility.yul\":1309:1590   */\n      pop\n      pop\n      jump\t// out\n        /* \"#utility.yul\":1596:1725   */\n    tag_76:\n        /* \"#utility.yul\":1630:1636   */\n      0x00\n        /* \"#utility.yul\":1657:1677   */\n      tag_129\n      tag_68\n      jump\t// in\n    tag_129:\n        /* \"#utility.yul\":1647:1677   */\n      swap1\n      pop\n        /* \"#utility.yul\":1686:1719   */\n      tag_130\n        /* \"#utility.yul\":1714:1718   */\n      dup3\n        /* \"#utility.yul\":1706:1712   */\n      dup3\n        /* \"#utility.yul\":1686:1719   */\n      tag_75\n      jump\t// in\n    tag_130:\n        /* \"#utility.yul\":1596:1725   */\n      swap2\n      swap1\n      pop\n      jump\t// out\n        /* \"#utility.yul\":1731:2039   */\n    tag_77:\n        /* \"#utility.yul\":1793:1797   */\n      0x00\n        /* \"#utility.yul\":1883:1901   */\n      0xffffffffffffffff\n        /* \"#utility.yul\":1875:1881   */\n      dup3\n        /* \"#utility.yul\":1872:1902   */\n      gt\n        /* \"#utility.yul\":1869:1925   */\n      iszero\n      tag_132\n      jumpi\n        /* \"#utility.yul\":1905:1923   */\n      tag_133\n      tag_74\n      jump\t// in\n    tag_133:\n        /* \"#utility.yul\":1869:1925   */\n    tag_132:\n        /* \"#utility.yul\":1943:1972   */\n      tag_134\n        /* \"#utility.yul\":1965:1971   */\n      dup3\n        /* \"#utility.yul\":1943:1972   */\n      tag_73\n      jump\t// in\n    tag_134:\n        /* \"#utility.yul\":1935:1972   */\n      swap1\n      pop\n        /* \"#utility.yul\":2027:2031   */\n      0x20\n        /* \"#utility.yul\":2021:2025   */\n      dup2\n        /* \"#utility.yul\":2017:2032   */\n      add\n        /* \"#utility.yul\":2009:2032   */\n      swap1\n      pop\n        /* \"#utility.yul\":1731:2039   */\n      swap2\n      swap1\n      pop\n      jump\t// out\n        /* \"#utility.yul\":2045:2191   */\n    tag_78:\n        /* \"#utility.yul\":2142:2148   */\n      dup3\n        /* \"#utility.yul\":2137:2140   */\n      dup2\n        /* \"#utility.yul\":2132:2135   */\n      dup4\n        /* \"#utility.yul\":2119:2149   */\n      calldatacopy\n        /* \"#utility.yul\":2183:2184   */\n      0x00\n        /* \"#utility.yul\":2174:2180   */\n      dup4\n        /* \"#utility.yul\":2169:2172   */\n      dup4\n        /* \"#utility.yul\":2165:2181   */\n      add\n        /* \"#utility.yul\":2158:2185   */\n      mstore\n        /* \"#utility.yul\":2045:2191   */\n      pop\n      pop\n      pop\n      jump\t// out\n        /* \"#utility.yul\":2197:2622   */\n    tag_79:\n        /* \"#utility.yul\":2275:2280   */\n      0x00\n        /* \"#utility.yul\":2300:2366   */\n      tag_137\n        /* \"#utility.yul\":2316:2365   */\n      tag_138\n        /* \"#utility.yul\":2358:2364   */\n      dup5\n        /* \"#utility.yul\":2316:2365   */\n      tag_77\n      jump\t// in\n    tag_138:\n        /* \"#utility.yul\":2300:2366   */\n      tag_76\n      jump\t// in\n    tag_137:\n        /* \"#utility.yul\":2291:2366   */\n      swap1\n      pop\n        /* \"#utility.yul\":2389:2395   */\n      dup3\n        /* \"#utility.yul\":2382:2387   */\n      dup2\n        /* \"#utility.yul\":2375:2396   */\n      mstore\n        /* \"#utility.yul\":2427:2431   */\n      0x20\n        /* \"#utility.yul\":2420:2425   */\n      dup2\n        /* \"#utility.yul\":2416:2432   */\n      add\n        /* \"#utility.yul\":2465:2468   */\n      dup5\n        /* \"#utility.yul\":2456:2462   */\n      dup5\n        /* \"#utility.yul\":2451:2454   */\n      dup5\n        /* \"#utility.yul\":2447:2463   */\n      add\n        /* \"#utility.yul\":2444:2469   */\n      gt\n        /* \"#utility.yul\":2441:2553   */\n      iszero\n      tag_139\n      jumpi\n        /* \"#utility.yul\":2472:2551   */\n      tag_140\n      tag_72\n      jump\t// in\n    tag_140:\n        /* \"#utility.yul\":2441:2553   */\n    tag_139:\n        /* \"#utility.yul\":2562:2616   */\n      tag_141\n        /* \"#utility.yul\":2609:2615   */\n      dup5\n        /* \"#utility.yul\":2604:2607   */\n      dup3\n        /* \"#utility.yul\":2599:2602   */\n      dup6\n        /* \"#utility.yul\":2562:2616   */\n      tag_78\n      jump\t// in\n    tag_141:\n        /* \"#utility.yul\":2281:2622   */\n      pop\n        /* \"#utility.yul\":2197:2622   */\n      swap4\n      swap3\n      pop\n      pop\n      pop\n      jump\t// out\n        /* \"#utility.yul\":2642:2982   */\n    tag_80:\n        /* \"#utility.yul\":2698:2703   */\n      0x00\n        /* \"#utility.yul\":2747:2750   */\n      dup3\n        /* \"#utility.yul\":2740:2744   */\n      0x1f\n        /* \"#utility.yul\":2732:2738   */\n      dup4\n        /* \"#utility.yul\":2728:2745   */\n      add\n        /* \"#utility.yul\":2724:2751   */\n      slt\n        /* \"#utility.yul\":2714:2836   */\n      tag_143\n      jumpi\n        /* \"#utility.yul\":2755:2834   */\n      tag_144\n      tag_71\n      jump\t// in\n    tag_144:\n        /* \"#utility.yul\":2714:2836   */\n    tag_143:\n        /* \"#utility.yul\":2872:2878   */\n      dup2\n        /* \"#utility.yul\":2859:2879   */\n      calldataload\n        /* \"#utility.yul\":2897:2976   */\n      tag_145\n        /* \"#utility.yul\":2972:2975   */\n      dup5\n        /* \"#utility.yul\":2964:2970   */\n      dup3\n        /* \"#utility.yul\":2957:2961   */\n      0x20\n        /* \"#utility.yul\":2949:2955   */\n      dup7\n        /* \"#utility.yul\":2945:2962   */\n      add\n        /* \"#utility.yul\":2897:2976   */\n      tag_79\n      jump\t// in\n    tag_145:\n        /* \"#utility.yul\":2888:2976   */\n      swap2\n      pop\n        /* \"#utility.yul\":2704:2982   */\n      pop\n        /* \"#utility.yul\":2642:2982   */\n      swap3\n      swap2\n      pop\n      pop\n      jump\t// out\n        /* \"#utility.yul\":2988:3497   */\n    tag_14:\n        /* \"#utility.yul\":3057:3063   */\n      0x00\n        /* \"#utility.yul\":3106:3108   */\n      0x20\n        /* \"#utility.yul\":3094:3103   */\n      dup3\n        /* \"#utility.yul\":3085:3092   */\n      dup5\n        /* \"#utility.yul\":3081:3104   */\n      sub\n        /* \"#utility.yul\":3077:3109   */\n      slt\n        /* \"#utility.yul\":3074:3193   */\n      iszero\n      tag_147\n      jumpi\n        /* \"#utility.yul\":3112:3191   */\n      tag_148\n      tag_69\n      jump\t// in\n    tag_148:\n        /* \"#utility.yul\":3074:3193   */\n    tag_147:\n        /* \"#utility.yul\":3260:3261   */\n      0x00\n        /* \"#utility.yul\":3249:3258   */\n      dup3\n        /* \"#utility.yul\":3245:3262   */\n      add\n        /* \"#utility.yul\":3232:3263   */\n      calldataload\n        /* \"#utility.yul\":3290:3308   */\n      0xffffffffffffffff\n        /* \"#utility.yul\":3282:3288   */\n      dup2\n        /* \"#utility.yul\":3279:3309   */\n      gt\n        /* \"#utility.yul\":3276:3393   */\n      iszero\n      tag_149\n      jumpi\n        /* \"#utility.yul\":3312:3391   */\n      tag_150\n      tag_70\n      jump\t// in\n    tag_150:\n        /* \"#utility.yul\":3276:3393   */\n    tag_149:\n        /* \"#utility.yul\":3417:3480   */\n      tag_151\n        /* \"#utility.yul\":3472:3479   */\n      dup5\n        /* \"#utility.yul\":3463:3469   */\n      dup3\n        /* \"#utility.yul\":3452:3461   */\n      dup6\n        /* \"#utility.yul\":3448:3470   */\n      add\n        /* \"#utility.yul\":3417:3480   */\n      tag_80\n      jump\t// in\n    tag_151:\n        /* \"#utility.yul\":3407:3480   */\n      swap2\n      pop\n        /* \"#utility.yul\":3203:3490   */\n      pop\n        /* \"#utility.yul\":2988:3497   */\n      swap3\n      swap2\n      pop\n      pop\n      jump\t// out\n        /* \"#utility.yul\":3503:3627   */\n    tag_81:\n        /* \"#utility.yul\":3580:3586   */\n      0x00\n        /* \"#utility.yul\":3614:3619   */\n      dup2\n        /* \"#utility.yul\":3608:3620   */\n      mload\n        /* \"#utility.yul\":3598:3620   */\n      swap1\n      pop\n        /* \"#utility.yul\":3503:3627   */\n      swap2\n      swap1\n      pop\n      jump\t// out\n        /* \"#utility.yul\":3633:3827   */\n    tag_82:\n        /* \"#utility.yul\":3742:3753   */\n      0x00\n        /* \"#utility.yul\":3776:3782   */\n      dup3\n        /* \"#utility.yul\":3771:3774   */\n      dup3\n        /* \"#utility.yul\":3764:3783   */\n      mstore\n        /* \"#utility.yul\":3816:3820   */\n      0x20\n        /* \"#utility.yul\":3811:3814   */\n      dup3\n        /* \"#utility.yul\":3807:3821   */\n      add\n        /* \"#utility.yul\":3792:3821   */\n      swap1\n      pop\n        /* \"#utility.yul\":3633:3827   */\n      swap3\n      swap2\n      pop\n      pop\n      jump\t// out\n        /* \"#utility.yul\":3833:3975   */\n    tag_83:\n        /* \"#utility.yul\":3910:3914   */\n      0x00\n        /* \"#utility.yul\":3933:3936   */\n      dup2\n        /* \"#utility.yul\":3925:3936   */\n      swap1\n      pop\n        /* \"#utility.yul\":3963:3967   */\n      0x20\n        /* \"#utility.yul\":3958:3961   */\n      dup3\n        /* \"#utility.yul\":3954:3968   */\n      add\n        /* \"#utility.yul\":3946:3968   */\n      swap1\n      pop\n        /* \"#utility.yul\":3833:3975   */\n      swap2\n      swap1\n      pop\n      jump\t// out\n        /* \"#utility.yul\":3981:4080   */\n    tag_84:\n        /* \"#utility.yul\":4033:4039   */\n      0x00\n        /* \"#utility.yul\":4067:4072   */\n      dup2\n        /* \"#utility.yul\":4061:4073   */\n      mload\n        /* \"#utility.yul\":4051:4073   */\n      swap1\n      pop\n        /* \"#utility.yul\":3981:4080   */\n      swap2\n      swap1\n      pop\n      jump\t// out\n        /* \"#utility.yul\":4086:4245   */\n    tag_85:\n        /* \"#utility.yul\":4160:4171   */\n      0x00\n        /* \"#utility.yul\":4194:4200   */\n      dup3\n        /* \"#utility.yul\":4189:4192   */\n      dup3\n        /* \"#utility.yul\":4182:4201   */\n      mstore\n        /* \"#utility.yul\":4234:4238   */\n      0x20\n        /* \"#utility.yul\":4229:4232   */\n      dup3\n        /* \"#utility.yul\":4225:4239   */\n      add\n        /* \"#utility.yul\":4210:4239   */\n      swap1\n      pop\n        /* \"#utility.yul\":4086:4245   */\n      swap3\n      swap2\n      pop\n      pop\n      jump\t// out\n        /* \"#utility.yul\":4251:4497   */\n    tag_86:\n        /* \"#utility.yul\":4332:4333   */\n      0x00\n        /* \"#utility.yul\":4342:4455   */\n    tag_158:\n        /* \"#utility.yul\":4356:4362   */\n      dup4\n        /* \"#utility.yul\":4353:4354   */\n      dup2\n        /* \"#utility.yul\":4350:4363   */\n      lt\n        /* \"#utility.yul\":4342:4455   */\n      iszero\n      tag_160\n      jumpi\n        /* \"#utility.yul\":4441:4442   */\n      dup1\n        /* \"#utility.yul\":4436:4439   */\n      dup3\n        /* \"#utility.yul\":4432:4443   */\n      add\n        /* \"#utility.yul\":4426:4444   */\n      mload\n        /* \"#utility.yul\":4422:4423   */\n      dup2\n        /* \"#utility.yul\":4417:4420   */\n      dup5\n        /* \"#utility.yul\":4413:4424   */\n      add\n        /* \"#utility.yul\":4406:4445   */\n      mstore\n        /* \"#utility.yul\":4378:4380   */\n      0x20\n        /* \"#utility.yul\":4375:4376   */\n      dup2\n        /* \"#utility.yul\":4371:4381   */\n      add\n        /* \"#utility.yul\":4366:4381   */\n      swap1\n      pop\n        /* \"#utility.yul\":4342:4455   */\n      jump(tag_158)\n    tag_160:\n        /* \"#utility.yul\":4489:4490   */\n      0x00\n        /* \"#utility.yul\":4480:4486   */\n      dup5\n        /* \"#utility.yul\":4475:4478   */\n      dup5\n        /* \"#utility.yul\":4471:4487   */\n      add\n        /* \"#utility.yul\":4464:4491   */\n      mstore\n        /* \"#utility.yul\":4313:4497   */\n      pop\n        /* \"#utility.yul\":4251:4497   */\n      pop\n      pop\n      pop\n      jump\t// out\n        /* \"#utility.yul\":4503:4860   */\n    tag_87:\n        /* \"#utility.yul\":4581:4584   */\n      0x00\n        /* \"#utility.yul\":4609:4648   */\n      tag_162\n        /* \"#utility.yul\":4642:4647   */\n      dup3\n        /* \"#utility.yul\":4609:4648   */\n      tag_84\n      jump\t// in\n    tag_162:\n        /* \"#utility.yul\":4664:4725   */\n      tag_163\n        /* \"#utility.yul\":4718:4724   */\n      dup2\n        /* \"#utility.yul\":4713:4716   */\n      dup6\n        /* \"#utility.yul\":4664:4725   */\n      tag_85\n      jump\t// in\n    tag_163:\n        /* \"#utility.yul\":4657:4725   */\n      swap4\n      pop\n        /* \"#utility.yul\":4734:4799   */\n      tag_164\n        /* \"#utility.yul\":4792:4798   */\n      dup2\n        /* \"#utility.yul\":4787:4790   */\n      dup6\n        /* \"#utility.yul\":4780:4784   */\n      0x20\n        /* \"#utility.yul\":4773:4778   */\n      dup7\n        /* \"#utility.yul\":4769:4785   */\n      add\n        /* \"#utility.yul\":4734:4799   */\n      tag_86\n      jump\t// in\n    tag_164:\n        /* \"#utility.yul\":4824:4853   */\n      tag_165\n        /* \"#utility.yul\":4846:4852   */\n      dup2\n        /* \"#utility.yul\":4824:4853   */\n      tag_73\n      jump\t// in\n    tag_165:\n        /* \"#utility.yul\":4819:4822   */\n      dup5\n        /* \"#utility.yul\":4815:4854   */\n      add\n        /* \"#utility.yul\":4808:4854   */\n      swap2\n      pop\n        /* \"#utility.yul\":4585:4860   */\n      pop\n        /* \"#utility.yul\":4503:4860   */\n      swap3\n      swap2\n      pop\n      pop\n      jump\t// out\n        /* \"#utility.yul\":4866:5062   */\n    tag_88:\n        /* \"#utility.yul\":4955:4965   */\n      0x00\n        /* \"#utility.yul\":4990:5056   */\n      tag_167\n        /* \"#utility.yul\":5052:5055   */\n      dup4\n        /* \"#utility.yul\":5044:5050   */\n      dup4\n        /* \"#utility.yul\":4990:5056   */\n      tag_87\n      jump\t// in\n    tag_167:\n        /* \"#utility.yul\":4976:5056   */\n      swap1\n      pop\n        /* \"#utility.yul\":4866:5062   */\n      swap3\n      swap2\n      pop\n      pop\n      jump\t// out\n        /* \"#utility.yul\":5068:5191   */\n    tag_89:\n        /* \"#utility.yul\":5148:5152   */\n      0x00\n        /* \"#utility.yul\":5180:5184   */\n      0x20\n        /* \"#utility.yul\":5175:5178   */\n      dup3\n        /* \"#utility.yul\":5171:5185   */\n      add\n        /* \"#utility.yul\":5163:5185   */\n      swap1\n      pop\n        /* \"#utility.yul\":5068:5191   */\n      swap2\n      swap1\n      pop\n      jump\t// out\n        /* \"#utility.yul\":5225:6216   */\n    tag_90:\n        /* \"#utility.yul\":5364:5367   */\n      0x00\n        /* \"#utility.yul\":5393:5457   */\n      tag_170\n        /* \"#utility.yul\":5451:5456   */\n      dup3\n        /* \"#utility.yul\":5393:5457   */\n      tag_81\n      jump\t// in\n    tag_170:\n        /* \"#utility.yul\":5473:5569   */\n      tag_171\n        /* \"#utility.yul\":5562:5568   */\n      dup2\n        /* \"#utility.yul\":5557:5560   */\n      dup6\n        /* \"#utility.yul\":5473:5569   */\n      tag_82\n      jump\t// in\n    tag_171:\n        /* \"#utility.yul\":5466:5569   */\n      swap4\n      pop\n        /* \"#utility.yul\":5595:5598   */\n      dup4\n        /* \"#utility.yul\":5640:5644   */\n      0x20\n        /* \"#utility.yul\":5632:5638   */\n      dup3\n        /* \"#utility.yul\":5628:5645   */\n      mul\n        /* \"#utility.yul\":5623:5626   */\n      dup6\n        /* \"#utility.yul\":5619:5646   */\n      add\n        /* \"#utility.yul\":5670:5736   */\n      tag_172\n        /* \"#utility.yul\":5730:5735   */\n      dup6\n        /* \"#utility.yul\":5670:5736   */\n      tag_83\n      jump\t// in\n    tag_172:\n        /* \"#utility.yul\":5759:5766   */\n      dup1\n        /* \"#utility.yul\":5790:5791   */\n      0x00\n        /* \"#utility.yul\":5775:6171   */\n    tag_173:\n        /* \"#utility.yul\":5800:5806   */\n      dup6\n        /* \"#utility.yul\":5797:5798   */\n      dup2\n        /* \"#utility.yul\":5794:5807   */\n      lt\n        /* \"#utility.yul\":5775:6171   */\n      iszero\n      tag_175\n      jumpi\n        /* \"#utility.yul\":5871:5880   */\n      dup5\n        /* \"#utility.yul\":5865:5869   */\n      dup5\n        /* \"#utility.yul\":5861:5881   */\n      sub\n        /* \"#utility.yul\":5856:5859   */\n      dup10\n        /* \"#utility.yul\":5849:5882   */\n      mstore\n        /* \"#utility.yul\":5922:5928   */\n      dup2\n        /* \"#utility.yul\":5916:5929   */\n      mload\n        /* \"#utility.yul\":5950:6034   */\n      tag_176\n        /* \"#utility.yul\":6029:6033   */\n      dup6\n        /* \"#utility.yul\":6014:6027   */\n      dup3\n        /* \"#utility.yul\":5950:6034   */\n      tag_88\n      jump\t// in\n    tag_176:\n        /* \"#utility.yul\":5942:6034   */\n      swap5\n      pop\n        /* \"#utility.yul\":6057:6127   */\n      tag_177\n        /* \"#utility.yul\":6120:6126   */\n      dup4\n        /* \"#utility.yul\":6057:6127   */\n      tag_89\n      jump\t// in\n    tag_177:\n        /* \"#utility.yul\":6047:6127   */\n      swap3\n      pop\n        /* \"#utility.yul\":6156:6160   */\n      0x20\n        /* \"#utility.yul\":6151:6154   */\n      dup11\n        /* \"#utility.yul\":6147:6161   */\n      add\n        /* \"#utility.yul\":6140:6161   */\n      swap10\n      pop\n        /* \"#utility.yul\":5835:6171   */\n      pop\n        /* \"#utility.yul\":5822:5823   */\n      0x01\n        /* \"#utility.yul\":5819:5820   */\n      dup2\n        /* \"#utility.yul\":5815:5824   */\n      add\n        /* \"#utility.yul\":5810:5824   */\n      swap1\n      pop\n        /* \"#utility.yul\":5775:6171   */\n      jump(tag_173)\n    tag_175:\n        /* \"#utility.yul\":5779:5793   */\n      pop\n        /* \"#utility.yul\":6187:6191   */\n      dup3\n        /* \"#utility.yul\":6180:6191   */\n      swap8\n      pop\n        /* \"#utility.yul\":6207:6210   */\n      dup8\n        /* \"#utility.yul\":6200:6210   */\n      swap6\n      pop\n        /* \"#utility.yul\":5369:6216   */\n      pop\n      pop\n      pop\n      pop\n      pop\n        /* \"#utility.yul\":5225:6216   */\n      swap3\n      swap2\n      pop\n      pop\n      jump\t// out\n        /* \"#utility.yul\":6222:6635   */\n    tag_20:\n        /* \"#utility.yul\":6385:6389   */\n      0x00\n        /* \"#utility.yul\":6423:6425   */\n      0x20\n        /* \"#utility.yul\":6412:6421   */\n      dup3\n        /* \"#utility.yul\":6408:6426   */\n      add\n        /* \"#utility.yul\":6400:6426   */\n      swap1\n      pop\n        /* \"#utility.yul\":6472:6481   */\n      dup2\n        /* \"#utility.yul\":6466:6470   */\n      dup2\n        /* \"#utility.yul\":6462:6482   */\n      sub\n        /* \"#utility.yul\":6458:6459   */\n      0x00\n        /* \"#utility.yul\":6447:6456   */\n      dup4\n        /* \"#utility.yul\":6443:6460   */\n      add\n        /* \"#utility.yul\":6436:6483   */\n      mstore\n        /* \"#utility.yul\":6500:6628   */\n      tag_179\n        /* \"#utility.yul\":6623:6627   */\n      dup2\n        /* \"#utility.yul\":6614:6620   */\n      dup5\n        /* \"#utility.yul\":6500:6628   */\n      tag_90\n      jump\t// in\n    tag_179:\n        /* \"#utility.yul\":6492:6628   */\n      swap1\n      pop\n        /* \"#utility.yul\":6222:6635   */\n      swap3\n      swap2\n      pop\n      pop\n      jump\t// out\n        /* \"#utility.yul\":6641:6763   */\n    tag_91:\n        /* \"#utility.yul\":6714:6738   */\n      tag_181\n        /* \"#utility.yul\":6732:6737   */\n      dup2\n        /* \"#utility.yul\":6714:6738   */\n      tag_66\n      jump\t// in\n    tag_181:\n        /* \"#utility.yul\":6707:6712   */\n      dup2\n        /* \"#utility.yul\":6704:6739   */\n      eq\n        /* \"#utility.yul\":6694:6757   */\n      tag_182\n      jumpi\n        /* \"#utility.yul\":6753:6754   */\n      0x00\n        /* \"#utility.yul\":6750:6751   */\n      dup1\n        /* \"#utility.yul\":6743:6755   */\n      revert\n        /* \"#utility.yul\":6694:6757   */\n    tag_182:\n        /* \"#utility.yul\":6641:6763   */\n      pop\n      jump\t// out\n        /* \"#utility.yul\":6769:6908   */\n    tag_92:\n        /* \"#utility.yul\":6815:6820   */\n      0x00\n        /* \"#utility.yul\":6853:6859   */\n      dup2\n        /* \"#utility.yul\":6840:6860   */\n      calldataload\n        /* \"#utility.yul\":6831:6860   */\n      swap1\n      pop\n        /* \"#utility.yul\":6869:6902   */\n      tag_184\n        /* \"#utility.yul\":6896:6901   */\n      dup2\n        /* \"#utility.yul\":6869:6902   */\n      tag_91\n      jump\t// in\n    tag_184:\n        /* \"#utility.yul\":6769:6908   */\n      swap3\n      swap2\n      pop\n      pop\n      jump\t// out\n        /* \"#utility.yul\":6914:7243   */\n    tag_26:\n        /* \"#utility.yul\":6973:6979   */\n      0x00\n        /* \"#utility.yul\":7022:7024   */\n      0x20\n        /* \"#utility.yul\":7010:7019   */\n      dup3\n        /* \"#utility.yul\":7001:7008   */\n      dup5\n        /* \"#utility.yul\":6997:7020   */\n      sub\n        /* \"#utility.yul\":6993:7025   */\n      slt\n        /* \"#utility.yul\":6990:7109   */\n      iszero\n      tag_186\n      jumpi\n        /* \"#utility.yul\":7028:7107   */\n      tag_187\n      tag_69\n      jump\t// in\n    tag_187:\n        /* \"#utility.yul\":6990:7109   */\n    tag_186:\n        /* \"#utility.yul\":7148:7149   */\n      0x00\n        /* \"#utility.yul\":7173:7226   */\n      tag_188\n        /* \"#utility.yul\":7218:7225   */\n      dup5\n        /* \"#utility.yul\":7209:7215   */\n      dup3\n        /* \"#utility.yul\":7198:7207   */\n      dup6\n        /* \"#utility.yul\":7194:7216   */\n      add\n        /* \"#utility.yul\":7173:7226   */\n      tag_92\n      jump\t// in\n    tag_188:\n        /* \"#utility.yul\":7163:7226   */\n      swap2\n      pop\n        /* \"#utility.yul\":7119:7236   */\n      pop\n        /* \"#utility.yul\":6914:7243   */\n      swap3\n      swap2\n      pop\n      pop\n      jump\t// out\n        /* \"#utility.yul\":7249:7418   */\n    tag_93:\n        /* \"#utility.yul\":7333:7344   */\n      0x00\n        /* \"#utility.yul\":7367:7373   */\n      dup3\n        /* \"#utility.yul\":7362:7365   */\n      dup3\n        /* \"#utility.yul\":7355:7374   */\n      mstore\n        /* \"#utility.yul\":7407:7411   */\n      0x20\n        /* \"#utility.yul\":7402:7405   */\n      dup3\n        /* \"#utility.yul\":7398:7412   */\n      add\n        /* \"#utility.yul\":7383:7412   */\n      swap1\n      pop\n        /* \"#utility.yul\":7249:7418   */\n      swap3\n      swap2\n      pop\n      pop\n      jump\t// out\n        /* \"#utility.yul\":7424:7801   */\n    tag_94:\n        /* \"#utility.yul\":7512:7515   */\n      0x00\n        /* \"#utility.yul\":7540:7579   */\n      tag_191\n        /* \"#utility.yul\":7573:7578   */\n      dup3\n        /* \"#utility.yul\":7540:7579   */\n      tag_84\n      jump\t// in\n    tag_191:\n        /* \"#utility.yul\":7595:7666   */\n      tag_192\n        /* \"#utility.yul\":7659:7665   */\n      dup2\n        /* \"#utility.yul\":7654:7657   */\n      dup6\n        /* \"#utility.yul\":7595:7666   */\n      tag_93\n      jump\t// in\n    tag_192:\n        /* \"#utility.yul\":7588:7666   */\n      swap4\n      pop\n        /* \"#utility.yul\":7675:7740   */\n      tag_193\n        /* \"#utility.yul\":7733:7739   */\n      dup2\n        /* \"#utility.yul\":7728:7731   */\n      dup6\n        /* \"#utility.yul\":7721:7725   */\n      0x20\n        /* \"#utility.yul\":7714:7719   */\n      dup7\n        /* \"#utility.yul\":7710:7726   */\n      add\n        /* \"#utility.yul\":7675:7740   */\n      tag_86\n      jump\t// in\n    tag_193:\n        /* \"#utility.yul\":7765:7794   */\n      tag_194\n        /* \"#utility.yul\":7787:7793   */\n      dup2\n        /* \"#utility.yul\":7765:7794   */\n      tag_73\n      jump\t// in\n    tag_194:\n        /* \"#utility.yul\":7760:7763   */\n      dup5\n        /* \"#utility.yul\":7756:7795   */\n      add\n        /* \"#utility.yul\":7749:7795   */\n      swap2\n      pop\n        /* \"#utility.yul\":7516:7801   */\n      pop\n        /* \"#utility.yul\":7424:7801   */\n      swap3\n      swap2\n      pop\n      pop\n      jump\t// out\n        /* \"#utility.yul\":7807:8120   */\n    tag_29:\n        /* \"#utility.yul\":7920:7924   */\n      0x00\n        /* \"#utility.yul\":7958:7960   */\n      0x20\n        /* \"#utility.yul\":7947:7956   */\n      dup3\n        /* \"#utility.yul\":7943:7961   */\n      add\n        /* \"#utility.yul\":7935:7961   */\n      swap1\n      pop\n        /* \"#utility.yul\":8007:8016   */\n      dup2\n        /* \"#utility.yul\":8001:8005   */\n      dup2\n        /* \"#utility.yul\":7997:8017   */\n      sub\n        /* \"#utility.yul\":7993:7994   */\n      0x00\n        /* \"#utility.yul\":7982:7991   */\n      dup4\n        /* \"#utility.yul\":7978:7995   */\n      add\n        /* \"#utility.yul\":7971:8018   */\n      mstore\n        /* \"#utility.yul\":8035:8113   */\n      tag_196\n        /* \"#utility.yul\":8108:8112   */\n      dup2\n        /* \"#utility.yul\":8099:8105   */\n      dup5\n        /* \"#utility.yul\":8035:8113   */\n      tag_94\n      jump\t// in\n    tag_196:\n        /* \"#utility.yul\":8027:8113   */\n      swap1\n      pop\n        /* \"#utility.yul\":7807:8120   */\n      swap3\n      swap2\n      pop\n      pop\n      jump\t// out\n        /* \"#utility.yul\":8126:8306   */\n    tag_95:\n        /* \"#utility.yul\":8174:8251   */\n      0x4e487b7100000000000000000000000000000000000000000000000000000000\n        /* \"#utility.yul\":8171:8172   */\n      0x00\n        /* \"#utility.yul\":8164:8252   */\n      mstore\n        /* \"#utility.yul\":8271:8275   */\n      0x22\n        /* \"#utility.yul\":8268:8269   */\n      0x04\n        /* \"#utility.yul\":8261:8276   */\n      mstore\n        /* \"#utility.yul\":8295:8299   */\n      0x24\n        /* \"#utility.yul\":8292:8293   */\n      0x00\n        /* \"#utility.yul\":8285:8300   */\n      revert\n        /* \"#utility.yul\":8312:8632   */\n    tag_40:\n        /* \"#utility.yul\":8356:8362   */\n      0x00\n        /* \"#utility.yul\":8393:8394   */\n      0x02\n        /* \"#utility.yul\":8387:8391   */\n      dup3\n        /* \"#utility.yul\":8383:8395   */\n      div\n        /* \"#utility.yul\":8373:8395   */\n      swap1\n      pop\n        /* \"#utility.yul\":8440:8441   */\n      0x01\n        /* \"#utility.yul\":8434:8438   */\n      dup3\n        /* \"#utility.yul\":8430:8442   */\n      and\n        /* \"#utility.yul\":8461:8479   */\n      dup1\n        /* \"#utility.yul\":8451:8532   */\n      tag_199\n      jumpi\n        /* \"#utility.yul\":8517:8521   */\n      0x7f\n        /* \"#utility.yul\":8509:8515   */\n      dup3\n        /* \"#utility.yul\":8505:8522   */\n      and\n        /* \"#utility.yul\":8495:8522   */\n      swap2\n      pop\n        /* \"#utility.yul\":8451:8532   */\n    tag_199:\n        /* \"#utility.yul\":8579:8581   */\n      0x20\n        /* \"#utility.yul\":8571:8577   */\n      dup3\n        /* \"#utility.yul\":8568:8582   */\n      lt\n        /* \"#utility.yul\":8548:8566   */\n      dup2\n        /* \"#utility.yul\":8545:8583   */\n      sub\n        /* \"#utility.yul\":8542:8626   */\n      tag_200\n      jumpi\n        /* \"#utility.yul\":8598:8616   */\n      tag_201\n      tag_95\n      jump\t// in\n    tag_201:\n        /* \"#utility.yul\":8542:8626   */\n    tag_200:\n        /* \"#utility.yul\":8363:8632   */\n      pop\n        /* \"#utility.yul\":8312:8632   */\n      swap2\n      swap1\n      pop\n      jump\t// out\n        /* \"#utility.yul\":8638:8779   */\n    tag_96:\n        /* \"#utility.yul\":8687:8691   */\n      0x00\n        /* \"#utility.yul\":8710:8713   */\n      dup2\n        /* \"#utility.yul\":8702:8713   */\n      swap1\n      pop\n        /* \"#utility.yul\":8733:8736   */\n      dup2\n        /* \"#utility.yul\":8730:8731   */\n      0x00\n        /* \"#utility.yul\":8723:8737   */\n      mstore\n        /* \"#utility.yul\":8767:8771   */\n      0x20\n        /* \"#utility.yul\":8764:8765   */\n      0x00\n        /* \"#utility.yul\":8754:8772   */\n      keccak256\n        /* \"#utility.yul\":8746:8772   */\n      swap1\n      pop\n        /* \"#utility.yul\":8638:8779   */\n      swap2\n      swap1\n      pop\n      jump\t// out\n        /* \"#utility.yul\":8785:8878   */\n    tag_97:\n        /* \"#utility.yul\":8822:8828   */\n      0x00\n        /* \"#utility.yul\":8869:8871   */\n      0x20\n        /* \"#utility.yul\":8864:8866   */\n      0x1f\n        /* \"#utility.yul\":8857:8862   */\n      dup4\n        /* \"#utility.yul\":8853:8867   */\n      add\n        /* \"#utility.yul\":8849:8872   */\n      div\n        /* \"#utility.yul\":8839:8872   */\n      swap1\n      pop\n        /* \"#utility.yul\":8785:8878   */\n      swap2\n      swap1\n      pop\n      jump\t// out\n        /* \"#utility.yul\":8884:8991   */\n    tag_98:\n        /* \"#utility.yul\":8928:8936   */\n      0x00\n        /* \"#utility.yul\":8978:8983   */\n      dup3\n        /* \"#utility.yul\":8972:8976   */\n      dup3\n        /* \"#utility.yul\":8968:8984   */\n      shl\n        /* \"#utility.yul\":8947:8984   */\n      swap1\n      pop\n        /* \"#utility.yul\":8884:8991   */\n      swap3\n      swap2\n      pop\n      pop\n      jump\t// out\n        /* \"#utility.yul\":8997:9390   */\n    tag_99:\n        /* \"#utility.yul\":9066:9072   */\n      0x00\n        /* \"#utility.yul\":9116:9117   */\n      0x08\n        /* \"#utility.yul\":9104:9114   */\n      dup4\n        /* \"#utility.yul\":9100:9118   */\n      mul\n        /* \"#utility.yul\":9139:9236   */\n      tag_206\n        /* \"#utility.yul\":9169:9235   */\n      0xffffffffffffffffffffffffffffffffffffffffffffffffffffffffffffffff\n        /* \"#utility.yul\":9158:9167   */\n      dup3\n        /* \"#utility.yul\":9139:9236   */\n      tag_98\n      jump\t// in\n    tag_206:\n        /* \"#utility.yul\":9257:9296   */\n      tag_207\n        /* \"#utility.yul\":9287:9295   */\n      dup7\n        /* \"#utility.yul\":9276:9285   */\n      dup4\n        /* \"#utility.yul\":9257:9296   */\n      tag_98\n      jump\t// in\n    tag_207:\n        /* \"#utility.yul\":9245:9296   */\n      swap6\n      pop\n        /* \"#utility.yul\":9329:9333   */\n      dup1\n        /* \"#utility.yul\":9325:9334   */\n      not\n        /* \"#utility.yul\":9318:9323   */\n      dup5\n        /* \"#utility.yul\":9314:9335   */\n      and\n        /* \"#utility.yul\":9305:9335   */\n      swap4\n      pop\n        /* \"#utility.yul\":9378:9382   */\n      dup1\n        /* \"#utility.yul\":9368:9376   */\n      dup7\n        /* \"#utility.yul\":9364:9383   */\n      and\n        /* \"#utility.yul\":9357:9362   */\n      dup5\n        /* \"#utility.yul\":9354:9384   */\n      or\n        /* \"#utility.yul\":9344:9384   */\n      swap3\n      pop\n        /* \"#utility.yul\":9073:9390   */\n      pop\n      pop\n        /* \"#utility.yul\":8997:9390   */\n      swap4\n      swap3\n      pop\n      pop\n      pop\n      jump\t// out\n        /* \"#utility.yul\":9396:9456   */\n    tag_100:\n        /* \"#utility.yul\":9424:9427   */\n      0x00\n        /* \"#utility.yul\":9445:9450   */\n      dup2\n        /* \"#utility.yul\":9438:9450   */\n      swap1\n      pop\n        /* \"#utility.yul\":9396:9456   */\n      swap2\n      swap1\n      pop\n      jump\t// out\n        /* \"#utility.yul\":9462:9604   */\n    tag_101:\n        /* \"#utility.yul\":9512:9521   */\n      0x00\n        /* \"#utility.yul\":9545:9598   */\n      tag_210\n        /* \"#utility.yul\":9563:9597   */\n      tag_211\n        /* \"#utility.yul\":9572:9596   */\n      tag_212\n        /* \"#utility.yul\":9590:9595   */\n      dup5\n        /* \"#utility.yul\":9572:9596   */\n      tag_66\n      jump\t// in\n    tag_212:\n        /* \"#utility.yul\":9563:9597   */\n      tag_100\n      jump\t// in\n    tag_211:\n        /* \"#utility.yul\":9545:9598   */\n      tag_66\n      jump\t// in\n    tag_210:\n        /* \"#utility.yul\":9532:9598   */\n      swap1\n      pop\n        /* \"#utility.yul\":9462:9604   */\n      swap2\n      swap1\n      pop\n      jump\t// out\n        /* \"#utility.yul\":9610:9685   */\n    tag_102:\n        /* \"#utility.yul\":9653:9656   */\n      0x00\n        /* \"#utility.yul\":9674:9679   */\n      dup2\n        /* \"#utility.yul\":9667:9679   */\n      swap1\n      pop\n        /* \"#utility.yul\":9610:9685   */\n      swap2\n      swap1\n      pop\n      jump\t// out\n        /* \"#utility.yul\":9691:9960   */\n    tag_103:\n        /* \"#utility.yul\":9801:9840   */\n      tag_215\n        /* \"#utility.yul\":9832:9839   */\n      dup4\n        /* \"#utility.yul\":9801:9840   */\n      tag_101\n      jump\t// in\n    tag_215:\n        /* \"#utility.yul\":9862:9953   */\n      tag_216\n        /* \"#utility.yul\":9911:9952   */\n      tag_217\n        /* \"#utility.yul\":9935:9951   */\n      dup3\n        /* \"#utility.yul\":9911:9952   */\n      tag_102\n      jump\t// in\n    tag_217:\n        /* \"#utility.yul\":9903:9909   */\n      dup5\n        /* \"#utility.yul\":9896:9900   */\n      dup5\n        /* \"#utility.yul\":9890:9901   */\n      sload\n        /* \"#utility.yul\":9862:9953   */\n      tag_99\n      jump\t// in\n    tag_216:\n        /* \"#utility.yul\":9856:9860   */\n      dup3\n        /* \"#utility.yul\":9849:9954   */\n      sstore\n        /* \"#utility.yul\":9767:9960   */\n      pop\n        /* \"#utility.yul\":9691:9960   */\n      pop\n      pop\n      pop\n      jump\t// out\n        /* \"#utility.yul\":9966:10039   */\n    tag_104:\n        /* \"#utility.yul\":10011:10014   */\n      0x00\n        /* \"#utility.yul\":9966:10039   */\n      swap1\n      jump\t// out\n        /* \"#utility.yul\":10045:10234   */\n    tag_105:\n        /* \"#utility.yul\":10122:10154   */\n      tag_220\n      tag_104\n      jump\t// in\n    tag_220:\n        /* \"#utility.yul\":10163:10228   */\n      tag_221\n        /* \"#utility.yul\":10221:10227   */\n      dup2\n        /* \"#utility.yul\":10213:10219   */\n      dup5\n        /* \"#utility.yul\":10207:10211   */\n      dup5\n        /* \"#utility.yul\":10163:10228   */\n      tag_103\n      jump\t// in\n    tag_221:\n        /* \"#utility.yul\":10098:10234   */\n      pop\n        /* \"#utility.yul\":10045:10234   */\n      pop\n      pop\n      jump\t// out\n        /* \"#utility.yul\":10240:10426   */\n    tag_106:\n        /* \"#utility.yul\":10300:10420   */\n    tag_223:\n        /* \"#utility.yul\":10317:10320   */\n      dup2\n        /* \"#utility.yul\":10310:10315   */\n      dup2\n        /* \"#utility.yul\":10307:10321   */\n      lt\n        /* \"#utility.yul\":10300:10420   */\n      iszero\n      tag_225\n      jumpi\n        /* \"#utility.yul\":10371:10410   */\n      tag_226\n        /* \"#utility.yul\":10408:10409   */\n      0x00\n        /* \"#utility.yul\":10401:10406   */\n      dup3\n        /* \"#utility.yul\":10371:10410   */\n      tag_105\n      jump\t// in\n    tag_226:\n        /* \"#utility.yul\":10344:10345   */\n      0x01\n        /* \"#utility.yul\":10337:10342   */\n      dup2\n        /* \"#utility.yul\":10333:10346   */\n      add\n        /* \"#utility.yul\":10324:10346   */\n      swap1\n      pop\n        /* \"#utility.yul\":10300:10420   */\n      jump(tag_223)\n    tag_225:\n        /* \"#utility.yul\":10240:10426   */\n      pop\n      pop\n      jump\t// out\n        /* \"#utility.yul\":10432:10975   */\n    tag_107:\n        /* \"#utility.yul\":10533:10535   */\n      0x1f\n        /* \"#utility.yul\":10528:10531   */\n      dup3\n        /* \"#utility.yul\":10525:10536   */\n      gt\n        /* \"#utility.yul\":10522:10968   */\n      iszero\n      tag_228\n      jumpi\n        /* \"#utility.yul\":10567:10605   */\n      tag_229\n        /* \"#utility.yul\":10599:10604   */\n      dup2\n        /* \"#utility.yul\":10567:10605   */\n      tag_96\n      jump\t// in\n    tag_229:\n        /* \"#utility.yul\":10651:10680   */\n      tag_230\n        /* \"#utility.yul\":10669:10679   */\n      dup5\n        /* \"#utility.yul\":10651:10680   */\n      tag_97\n      jump\t// in\n    tag_230:\n        /* \"#utility.yul\":10641:10649   */\n      dup2\n        /* \"#utility.yul\":10637:10681   */\n      add\n        /* \"#utility.yul\":10834:10836   */\n      0x20\n        /* \"#utility.yul\":10822:10832   */\n      dup6\n        /* \"#utility.yul\":10819:10837   */\n      lt\n        /* \"#utility.yul\":10816:10865   */\n      iszero\n      tag_231\n      jumpi\n        /* \"#utility.yul\":10855:10863   */\n      dup2\n        /* \"#utility.yul\":10840:10863   */\n      swap1\n      pop\n        /* \"#utility.yul\":10816:10865   */\n    tag_231:\n        /* \"#utility.yul\":10878:10958   */\n      tag_232\n        /* \"#utility.yul\":10934:10956   */\n      tag_233\n        /* \"#utility.yul\":10952:10955   */\n      dup6\n        /* \"#utility.yul\":10934:10956   */\n      tag_97\n      jump\t// in\n    tag_233:\n        /* \"#utility.yul\":10924:10932   */\n      dup4\n        /* \"#utility.yul\":10920:10957   */\n      add\n        /* \"#utility.yul\":10907:10918   */\n      dup3\n        /* \"#utility.yul\":10878:10958   */\n      tag_106\n      jump\t// in\n    tag_232:\n        /* \"#utility.yul\":10537:10968   */\n      pop\n      pop\n        /* \"#utility.yul\":10522:10968   */\n    tag_228:\n        /* \"#utility.yul\":10432:10975   */\n      pop\n      pop\n      pop\n      jump\t// out\n        /* \"#utility.yul\":10981:11098   */\n    tag_108:\n        /* \"#utility.yul\":11035:11043   */\n      0x00\n        /* \"#utility.yul\":11085:11090   */\n      dup3\n        /* \"#utility.yul\":11079:11083   */\n      dup3\n        /* \"#utility.yul\":11075:11091   */\n      shr\n        /* \"#utility.yul\":11054:11091   */\n      swap1\n      pop\n        /* \"#utility.yul\":10981:11098   */\n      swap3\n      swap2\n      pop\n      pop\n      jump\t// out\n        /* \"#utility.yul\":11104:11273   */\n    tag_109:\n        /* \"#utility.yul\":11148:11154   */\n      0x00\n        /* \"#utility.yul\":11181:11232   */\n      tag_236\n        /* \"#utility.yul\":11229:11230   */\n      0x00\n        /* \"#utility.yul\":11225:11231   */\n      not\n        /* \"#utility.yul\":11217:11222   */\n      dup5\n        /* \"#utility.yul\":11214:11215   */\n      0x08\n        /* \"#utility.yul\":11210:11223   */\n      mul\n        /* \"#utility.yul\":11181:11232   */\n      tag_108\n      jump\t// in\n    tag_236:\n        /* \"#utility.yul\":11177:11233   */\n      not\n        /* \"#utility.yul\":11262:11266   */\n      dup1\n        /* \"#utility.yul\":11256:11260   */\n      dup4\n        /* \"#utility.yul\":11252:11267   */\n      and\n        /* \"#utility.yul\":11242:11267   */\n      swap2\n      pop\n        /* \"#utility.yul\":11155:11273   */\n      pop\n        /* \"#utility.yul\":11104:11273   */\n      swap3\n      swap2\n      pop\n      pop\n      jump\t// out\n        /* \"#utility.yul\":11278:11573   */\n    tag_110:\n        /* \"#utility.yul\":11354:11358   */\n      0x00\n        /* \"#utility.yul\":11500:11529   */\n      tag_238\n        /* \"#utility.yul\":11525:11528   */\n      dup4\n        /* \"#utility.yul\":11519:11523   */\n      dup4\n        /* \"#utility.yul\":11500:11529   */\n      tag_109\n      jump\t// in\n    tag_238:\n        /* \"#utility.yul\":11492:11529   */\n      swap2\n      pop\n        /* \"#utility.yul\":11562:11565   */\n      dup3\n        /* \"#utility.yul\":11559:11560   */\n      0x02\n        /* \"#utility.yul\":11555:11566   */\n      mul\n        /* \"#utility.yul\":11549:11553   */\n      dup3\n        /* \"#utility.yul\":11546:11567   */\n      or\n        /* \"#utility.yul\":11538:11567   */\n      swap1\n      pop\n        /* \"#utility.yul\":11278:11573   */\n      swap3\n      swap2\n      pop\n      pop\n      jump\t// out\n        /* \"#utility.yul\":11578:12973   */\n    tag_34:\n        /* \"#utility.yul\":11695:11732   */\n      tag_240\n        /* \"#utility.yul\":11728:11731   */\n      dup3\n        /* \"#utility.yul\":11695:11732   */\n      tag_84\n      jump\t// in\n    tag_240:\n        /* \"#utility.yul\":11797:11815   */\n      0xffffffffffffffff\n        /* \"#utility.yul\":11789:11795   */\n      dup2\n        /* \"#utility.yul\":11786:11816   */\n      gt\n        /* \"#utility.yul\":11783:11839   */\n      iszero\n      tag_241\n      jumpi\n        /* \"#utility.yul\":11819:11837   */\n      tag_242\n      tag_74\n      jump\t// in\n    tag_242:\n        /* \"#utility.yul\":11783:11839   */\n    tag_241:\n        /* \"#utility.yul\":11863:11901   */\n      tag_243\n        /* \"#utility.yul\":11895:11899   */\n      dup3\n        /* \"#utility.yul\":11889:11900   */\n      sload\n        /* \"#utility.yul\":11863:11901   */\n      tag_40\n      jump\t// in\n    tag_243:\n        /* \"#utility.yul\":11948:12015   */\n      tag_244\n        /* \"#utility.yul\":12008:12014   */\n      dup3\n        /* \"#utility.yul\":12000:12006   */\n      dup3\n        /* \"#utility.yul\":11994:11998   */\n      dup6\n        /* \"#utility.yul\":11948:12015   */\n      tag_107\n      jump\t// in\n    tag_244:\n        /* \"#utility.yul\":12042:12043   */\n      0x00\n        /* \"#utility.yul\":12066:12070   */\n      0x20\n        /* \"#utility.yul\":12053:12070   */\n      swap1\n      pop\n        /* \"#utility.yul\":12098:12100   */\n      0x1f\n        /* \"#utility.yul\":12090:12096   */\n      dup4\n        /* \"#utility.yul\":12087:12101   */\n      gt\n        /* \"#utility.yul\":12115:12116   */\n      0x01\n        /* \"#utility.yul\":12110:12728   */\n      dup2\n      eq\n      tag_246\n      jumpi\n        /* \"#utility.yul\":12772:12773   */\n      0x00\n        /* \"#utility.yul\":12789:12795   */\n      dup5\n        /* \"#utility.yul\":12786:12863   */\n      iszero\n      tag_247\n      jumpi\n        /* \"#utility.yul\":12838:12847   */\n      dup3\n        /* \"#utility.yul\":12833:12836   */\n      dup8\n        /* \"#utility.yul\":12829:12848   */\n      add\n        /* \"#utility.yul\":12823:12849   */\n      mload\n        /* \"#utility.yul\":12814:12849   */\n      swap1\n      pop\n        /* \"#utility.yul\":12786:12863   */\n    tag_247:\n        /* \"#utility.yul\":12889:12956   */\n      tag_248\n        /* \"#utility.yul\":12949:12955   */\n      dup6\n        /* \"#utility.yul\":12942:12947   */\n      dup3\n        /* \"#utility.yul\":12889:12956   */\n      tag_110\n      jump\t// in\n    tag_248:\n        /* \"#utility.yul\":12883:12887   */\n      dup7\n        /* \"#utility.yul\":12876:12957   */\n      sstore\n        /* \"#utility.yul\":12745:12967   */\n      pop\n        /* \"#utility.yul\":12080:12967   */\n      jump(tag_245)\n        /* \"#utility.yul\":12110:12728   */\n    tag_246:\n        /* \"#utility.yul\":12162:12166   */\n      0x1f\n        /* \"#utility.yul\":12158:12167   */\n      not\n        /* \"#utility.yul\":12150:12156   */\n      dup5\n        /* \"#utility.yul\":12146:12168   */\n      and\n        /* \"#utility.yul\":12196:12233   */\n      tag_249\n        /* \"#utility.yul\":12228:12232   */\n      dup7\n        /* \"#utility.yul\":12196:12233   */\n      tag_96\n      jump\t// in\n    tag_249:\n        /* \"#utility.yul\":12255:12256   */\n      0x00\n        /* \"#utility.yul\":12269:12477   */\n    tag_250:\n        /* \"#utility.yul\":12283:12290   */\n      dup3\n        /* \"#utility.yul\":12280:12281   */\n      dup2\n        /* \"#utility.yul\":12277:12291   */\n      lt\n        /* \"#utility.yul\":12269:12477   */\n      iszero\n      tag_252\n      jumpi\n        /* \"#utility.yul\":12362:12371   */\n      dup5\n        /* \"#utility.yul\":12357:12360   */\n      dup10\n        /* \"#utility.yul\":12353:12372   */\n      add\n        /* \"#utility.yul\":12347:12373   */\n      mload\n        /* \"#utility.yul\":12339:12345   */\n      dup3\n        /* \"#utility.yul\":12332:12374   */\n      sstore\n        /* \"#utility.yul\":12413:12414   */\n      0x01\n        /* \"#utility.yul\":12405:12411   */\n      dup3\n        /* \"#utility.yul\":12401:12415   */\n      add\n        /* \"#utility.yul\":12391:12415   */\n      swap2\n      pop\n        /* \"#utility.yul\":12460:12462   */\n      0x20\n        /* \"#utility.yul\":12449:12458   */\n      dup6\n        /* \"#utility.yul\":12445:12463   */\n      add\n        /* \"#utility.yul\":12432:12463   */\n      swap5\n      pop\n        /* \"#utility.yul\":12306:12310   */\n      0x20\n        /* \"#utility.yul\":12303:12304   */\n      dup2\n        /* \"#utility.yul\":12299:12311   */\n      add\n        /* \"#utility.yul\":12294:12311   */\n      swap1\n      pop\n        /* \"#utility.yul\":12269:12477   */\n      jump(tag_250)\n    tag_252:\n        /* \"#utility.yul\":12505:12511   */\n      dup7\n        /* \"#utility.yul\":12496:12503   */\n      dup4\n        /* \"#utility.yul\":12493:12512   */\n      lt\n        /* \"#utility.yul\":12490:12669   */\n      iszero\n      tag_253\n      jumpi\n        /* \"#utility.yul\":12563:12572   */\n      dup5\n        /* \"#utility.yul\":12558:12561   */\n      dup10\n        /* \"#utility.yul\":12554:12573   */\n      add\n        /* \"#utility.yul\":12548:12574   */\n      mload\n        /* \"#utility.yul\":12606:12654   */\n      tag_254\n        /* \"#utility.yul\":12648:12652   */\n      0x1f\n        /* \"#utility.yul\":12640:12646   */\n      dup10\n        /* \"#utility.yul\":12636:12653   */\n      and\n        /* \"#utility.yul\":12625:12634   */\n      dup3\n        /* \"#utility.yul\":12606:12654   */\n      tag_109\n      jump\t// in\n    tag_254:\n        /* \"#utility.yul\":12598:12604   */\n      dup4\n        /* \"#utility.yul\":12591:12655   */\n      sstore\n        /* \"#utility.yul\":12513:12669   */\n      pop\n        /* \"#utility.yul\":12490:12669   */\n    tag_253:\n        /* \"#utility.yul\":12715:12716   */\n      0x01\n        /* \"#utility.yul\":12711:12712   */\n      0x02\n        /* \"#utility.yul\":12703:12709   */\n      dup9\n        /* \"#utility.yul\":12699:12713   */\n      mul\n        /* \"#utility.yul\":12695:12717   */\n      add\n        /* \"#utility.yul\":12689:12693   */\n      dup9\n        /* \"#utility.yul\":12682:12718   */\n      sstore\n        /* \"#utility.yul\":12117:12728   */\n      pop\n      pop\n      pop\n        /* \"#utility.yul\":12080:12967   */\n    tag_245:\n      pop\n        /* \"#utility.yul\":11670:12973   */\n      pop\n      pop\n      pop\n        /* \"#utility.yul\":11578:12973   */\n      pop\n      pop\n      jump\t// out\n        /* \"#utility.yul\":12979:13159   */\n    tag_48:\n        /* \"#utility.yul\":13027:13104   */\n      0x4e487b7100000000000000000000000000000000000000000000000000000000\n        /* \"#utility.yul\":13024:13025   */\n      0x00\n        /* \"#utility.yul\":13017:13105   */\n      mstore\n        /* \"#utility.yul\":13124:13128   */\n      0x31\n        /* \"#utility.yul\":13121:13122   */\n      0x04\n        /* \"#utility.yul\":13114:13129   */\n      mstore\n        /* \"#utility.yul\":13148:13152   */\n      0x24\n        /* \"#utility.yul\":13145:13146   */\n      0x00\n        /* \"#utility.yul\":13138:13153   */\n      revert\n\n    auxdata: 0xa2646970667358221220b02a78e404f459dc31f11d87e4e48ef90613faa0e5fe68e015a85e39b9e327c164736f6c63430008120033\n}\n",
				"bytecode": {
					"linkReferences": {},
					"object": "608060405234801561001057600080fd5b50610ac5806100206000396000f3fe608060405234801561001057600080fd5b50600436106100575760003560e01c80631f7b6d321461005c5780634f3d057a1461007a578063993a04b7146100aa578063a4ece52c146100c8578063edf0099b146100e6575b600080fd5b610064610116565b604051610071919061039c565b60405180910390f35b610094600480360381019061008f9190610511565b610122565b6040516100a1919061039c565b60405180910390f35b6100b2610165565b6040516100bf919061069b565b60405180910390f35b6100d061023e565b6040516100dd919061039c565b60405180910390f35b61010060048036038101906100fb91906106e9565b61027a565b60405161010d9190610760565b60405180910390f35b60008080549050905090565b60008082908060018154018082558091505060019003906000526020600020016000909190919091509081610157919061098e565b506000805490509050919050565b60606000805480602002602001604051908101604052809291908181526020016000905b828210156102355783829060005260206000200180546101a8906107b1565b80601f01602080910402602001604051908101604052809291908181526020018280546101d4906107b1565b80156102215780601f106101f657610100808354040283529160200191610221565b820191906000526020600020905b81548152906001019060200180831161020457829003601f168201915b505050505081526020019060010190610189565b50505050905090565b60008080548061025157610250610a60565b5b60019003818190600052602060002001600061026d9190610326565b9055600080549050905090565b6000818154811061028a57600080fd5b9060005260206000200160009150905080546102a5906107b1565b80601f01602080910402602001604051908101604052809291908181526020018280546102d1906107b1565b801561031e5780601f106102f35761010080835404028352916020019161031e565b820191906000526020600020905b81548152906001019060200180831161030157829003601f168201915b505050505081565b508054610332906107b1565b6000825580601f106103445750610363565b601f0160209004906000526020600020908101906103629190610366565b5b50565b5b8082111561037f576000816000905550600101610367565b5090565b6000819050919050565b61039681610383565b82525050565b60006020820190506103b1600083018461038d565b92915050565b6000604051905090565b600080fd5b600080fd5b600080fd5b600080fd5b6000601f19601f8301169050919050565b7f4e487b7100000000000000000000000000000000000000000000000000000000600052604160045260246000fd5b61041e826103d5565b810181811067ffffffffffffffff8211171561043d5761043c6103e6565b5b80604052505050565b60006104506103b7565b905061045c8282610415565b919050565b600067ffffffffffffffff82111561047c5761047b6103e6565b5b610485826103d5565b9050602081019050919050565b82818337600083830152505050565b60006104b46104af84610461565b610446565b9050828152602081018484840111156104d0576104cf6103d0565b5b6104db848285610492565b509392505050565b600082601f8301126104f8576104f76103cb565b5b81356105088482602086016104a1565b91505092915050565b600060208284031215610527576105266103c1565b5b600082013567ffffffffffffffff811115610545576105446103c6565b5b610551848285016104e3565b91505092915050565b600081519050919050565b600082825260208201905092915050565b6000819050602082019050919050565b600081519050919050565b600082825260208201905092915050565b60005b838110156105c05780820151818401526020810190506105a5565b60008484015250505050565b60006105d782610586565b6105e18185610591565b93506105f18185602086016105a2565b6105fa816103d5565b840191505092915050565b600061061183836105cc565b905092915050565b6000602082019050919050565b60006106318261055a565b61063b8185610565565b93508360208202850161064d85610576565b8060005b85811015610689578484038952815161066a8582610605565b945061067583610619565b925060208a01995050600181019050610651565b50829750879550505050505092915050565b600060208201905081810360008301526106b58184610626565b905092915050565b6106c681610383565b81146106d157600080fd5b50565b6000813590506106e3816106bd565b92915050565b6000602082840312156106ff576106fe6103c1565b5b600061070d848285016106d4565b91505092915050565b600082825260208201905092915050565b600061073282610586565b61073c8185610716565b935061074c8185602086016105a2565b610755816103d5565b840191505092915050565b6000602082019050818103600083015261077a8184610727565b905092915050565b7f4e487b7100000000000000000000000000000000000000000000000000000000600052602260045260246000fd5b600060028204905060018216806107c957607f821691505b6020821081036107dc576107db610782565b5b50919050565b60008190508160005260206000209050919050565b60006020601f8301049050919050565b600082821b905092915050565b6000600883026108447fffffffffffffffffffffffffffffffffffffffffffffffffffffffffffffffff82610807565b61084e8683610807565b95508019841693508086168417925050509392505050565b6000819050919050565b600061088b61088661088184610383565b610866565b610383565b9050919050565b6000819050919050565b6108a583610870565b6108b96108b182610892565b848454610814565b825550505050565b600090565b6108ce6108c1565b6108d981848461089c565b505050565b5b818110156108fd576108f26000826108c6565b6001810190506108df565b5050565b601f82111561094257610913816107e2565b61091c846107f7565b8101602085101561092b578190505b61093f610937856107f7565b8301826108de565b50505b505050565b600082821c905092915050565b600061096560001984600802610947565b1980831691505092915050565b600061097e8383610954565b9150826002028217905092915050565b61099782610586565b67ffffffffffffffff8111156109b0576109af6103e6565b5b6109ba82546107b1565b6109c5828285610901565b600060209050601f8311600181146109f857600084156109e6578287015190505b6109f08582610972565b865550610a58565b601f198416610a06866107e2565b60005b82811015610a2e57848901518255600182019150602085019450602081019050610a09565b86831015610a4b5784890151610a47601f891682610954565b8355505b6001600288020188555050505b505050505050565b7f4e487b7100000000000000000000000000000000000000000000000000000000600052603160045260246000fdfea2646970667358221220b02a78e404f459dc31f11d87e4e48ef90613faa0e5fe68e015a85e39b9e327c164736f6c63430008120033",
					"opcodes": "PUSH1 0x80 PUSH1 0x40 MSTORE CALLVALUE DUP1 ISZERO PUSH2 0x10 JUMPI PUSH1 0x0 DUP1 REVERT JUMPDEST POP PUSH2 0xAC5 DUP1 PUSH2 0x20 PUSH1 0x0 CODECOPY PUSH1 0x0 RETURN INVALID PUSH1 0x80 PUSH1 0x40 MSTORE CALLVALUE DUP1 ISZERO PUSH2 0x10 JUMPI PUSH1 0x0 DUP1 REVERT JUMPDEST POP PUSH1 0x4 CALLDATASIZE LT PUSH2 0x57 JUMPI PUSH1 0x0 CALLDATALOAD PUSH1 0xE0 SHR DUP1 PUSH4 0x1F7B6D32 EQ PUSH2 0x5C JUMPI DUP1 PUSH4 0x4F3D057A EQ PUSH2 0x7A JUMPI DUP1 PUSH4 0x993A04B7 EQ PUSH2 0xAA JUMPI DUP1 PUSH4 0xA4ECE52C EQ PUSH2 0xC8 JUMPI DUP1 PUSH4 0xEDF0099B EQ PUSH2 0xE6 JUMPI JUMPDEST PUSH1 0x0 DUP1 REVERT JUMPDEST PUSH2 0x64 PUSH2 0x116 JUMP JUMPDEST PUSH1 0x40 MLOAD PUSH2 0x71 SWAP2 SWAP1 PUSH2 0x39C JUMP JUMPDEST PUSH1 0x40 MLOAD DUP1 SWAP2 SUB SWAP1 RETURN JUMPDEST PUSH2 0x94 PUSH1 0x4 DUP1 CALLDATASIZE SUB DUP2 ADD SWAP1 PUSH2 0x8F SWAP2 SWAP1 PUSH2 0x511 JUMP JUMPDEST PUSH2 0x122 JUMP JUMPDEST PUSH1 0x40 MLOAD PUSH2 0xA1 SWAP2 SWAP1 PUSH2 0x39C JUMP JUMPDEST PUSH1 0x40 MLOAD DUP1 SWAP2 SUB SWAP1 RETURN JUMPDEST PUSH2 0xB2 PUSH2 0x165 JUMP JUMPDEST PUSH1 0x40 MLOAD PUSH2 0xBF SWAP2 SWAP1 PUSH2 0x69B JUMP JUMPDEST PUSH1 0x40 MLOAD DUP1 SWAP2 SUB SWAP1 RETURN JUMPDEST PUSH2 0xD0 PUSH2 0x23E JUMP JUMPDEST PUSH1 0x40 MLOAD PUSH2 0xDD SWAP2 SWAP1 PUSH2 0x39C JUMP JUMPDEST PUSH1 0x40 MLOAD DUP1 SWAP2 SUB SWAP1 RETURN JUMPDEST PUSH2 0x100 PUSH1 0x4 DUP1 CALLDATASIZE SUB DUP2 ADD SWAP1 PUSH2 0xFB SWAP2 SWAP1 PUSH2 0x6E9 JUMP JUMPDEST PUSH2 0x27A JUMP JUMPDEST PUSH1 0x40 MLOAD PUSH2 0x10D SWAP2 SWAP1 PUSH2 0x760 JUMP JUMPDEST PUSH1 0x40 MLOAD DUP1 SWAP2 SUB SWAP1 RETURN JUMPDEST PUSH1 0x0 DUP1 DUP1 SLOAD SWAP1 POP SWAP1 POP SWAP1 JUMP JUMPDEST PUSH1 0x0 DUP1 DUP3 SWAP1 DUP1 PUSH1 0x1 DUP2 SLOAD ADD DUP1 DUP3 SSTORE DUP1 SWAP2 POP POP PUSH1 0x1 SWAP1 SUB SWAP1 PUSH1 0x0 MSTORE PUSH1 0x20 PUSH1 0x0 KECCAK256 ADD PUSH1 0x0 SWAP1 SWAP2 SWAP1 SWAP2 SWAP1 SWAP2 POP SWAP1 DUP2 PUSH2 0x157 SWAP2 SWAP1 PUSH2 0x98E JUMP JUMPDEST POP PUSH1 0x0 DUP1 SLOAD SWAP1 POP SWAP1 POP SWAP2 SWAP1 POP JUMP JUMPDEST PUSH1 0x60 PUSH1 0x0 DUP1 SLOAD DUP1 PUSH1 0x20 MUL PUSH1 0x20 ADD PUSH1 0x40 MLOAD SWAP1 DUP2 ADD PUSH1 0x40 MSTORE DUP1 SWAP3 SWAP2 SWAP1 DUP2 DUP2 MSTORE PUSH1 0x20 ADD PUSH1 0x0 SWAP1 JUMPDEST DUP3 DUP3 LT ISZERO PUSH2 0x235 JUMPI DUP4 DUP3 SWAP1 PUSH1 0x0 MSTORE PUSH1 0x20 PUSH1 0x0 KECCAK256 ADD DUP1 SLOAD PUSH2 0x1A8 SWAP1 PUSH2 0x7B1 JUMP JUMPDEST DUP1 PUSH1 0x1F ADD PUSH1 0x20 DUP1 SWAP2 DIV MUL PUSH1 0x20 ADD PUSH1 0x40 MLOAD SWAP1 DUP2 ADD PUSH1 0x40 MSTORE DUP1 SWAP3 SWAP2 SWAP1 DUP2 DUP2 MSTORE PUSH1 0x20 ADD DUP3 DUP1 SLOAD PUSH2 0x1D4 SWAP1 PUSH2 0x7B1 JUMP JUMPDEST DUP1 ISZERO PUSH2 0x221 JUMPI DUP1 PUSH1 0x1F LT PUSH2 0x1F6 JUMPI PUSH2 0x100 DUP1 DUP4 SLOAD DIV MUL DUP4 MSTORE SWAP2 PUSH1 0x20 ADD SWAP2 PUSH2 0x221 JUMP JUMPDEST DUP3 ADD SWAP2 SWAP1 PUSH1 0x0 MSTORE PUSH1 0x20 PUSH1 0x0 KECCAK256 SWAP1 JUMPDEST DUP2 SLOAD DUP2 MSTORE SWAP1 PUSH1 0x1 ADD SWAP1 PUSH1 0x20 ADD DUP1 DUP4 GT PUSH2 0x204 JUMPI DUP3 SWAP1 SUB PUSH1 0x1F AND DUP3 ADD SWAP2 JUMPDEST POP POP POP POP POP DUP2 MSTORE PUSH1 0x20 ADD SWAP1 PUSH1 0x1 ADD SWAP1 PUSH2 0x189 JUMP JUMPDEST POP POP POP POP SWAP1 POP SWAP1 JUMP JUMPDEST PUSH1 0x0 DUP1 DUP1 SLOAD DUP1 PUSH2 0x251 JUMPI PUSH2 0x250 PUSH2 0xA60 JUMP JUMPDEST JUMPDEST PUSH1 0x1 SWAP1 SUB DUP2 DUP2 SWAP1 PUSH1 0x0 MSTORE PUSH1 0x20 PUSH1 0x0 KECCAK256 ADD PUSH1 0x0 PUSH2 0x26D SWAP2 SWAP1 PUSH2 0x326 JUMP JUMPDEST SWAP1 SSTORE PUSH1 0x0 DUP1 SLOAD SWAP1 POP SWAP1 POP SWAP1 JUMP JUMPDEST PUSH1 0x0 DUP2 DUP2 SLOAD DUP2 LT PUSH2 0x28A JUMPI PUSH1 0x0 DUP1 REVERT JUMPDEST SWAP1 PUSH1 0x0 MSTORE PUSH1 0x20 PUSH1 0x0 KECCAK256 ADD PUSH1 0x0 SWAP2 POP SWAP1 POP DUP1 SLOAD PUSH2 0x2A5 SWAP1 PUSH2 0x7B1 JUMP JUMPDEST DUP1 PUSH1 0x1F ADD PUSH1 0x20 DUP1 SWAP2 DIV MUL PUSH1 0x20 ADD PUSH1 0x40 MLOAD SWAP1 DUP2 ADD PUSH1 0x40 MSTORE DUP1 SWAP3 SWAP2 SWAP1 DUP2 DUP2 MSTORE PUSH1 0x20 ADD DUP3 DUP1 SLOAD PUSH2 0x2D1 SWAP1 PUSH2 0x7B1 JUMP JUMPDEST DUP1 ISZERO PUSH2 0x31E JUMPI DUP1 PUSH1 0x1F LT PUSH2 0x2F3 JUMPI PUSH2 0x100 DUP1 DUP4 SLOAD DIV MUL DUP4 MSTORE SWAP2 PUSH1 0x20 ADD SWAP2 PUSH2 0x31E JUMP JUMPDEST DUP3 ADD SWAP2 SWAP1 PUSH1 0x0 MSTORE PUSH1 0x20 PUSH1 0x0 KECCAK256 SWAP1 JUMPDEST DUP2 SLOAD DUP2 MSTORE SWAP1 PUSH1 0x1 ADD SWAP1 PUSH1 0x20 ADD DUP1 DUP4 GT PUSH2 0x301 JUMPI DUP3 SWAP1 SUB PUSH1 0x1F AND DUP3 ADD SWAP2 JUMPDEST POP POP POP POP POP DUP2 JUMP JUMPDEST POP DUP1 SLOAD PUSH2 0x332 SWAP1 PUSH2 0x7B1 JUMP JUMPDEST PUSH1 0x0 DUP3 SSTORE DUP1 PUSH1 0x1F LT PUSH2 0x344 JUMPI POP PUSH2 0x363 JUMP JUMPDEST PUSH1 0x1F ADD PUSH1 0x20 SWAP1 DIV SWAP1 PUSH1 0x0 MSTORE PUSH1 0x20 PUSH1 0x0 KECCAK256 SWAP1 DUP2 ADD SWAP1 PUSH2 0x362 SWAP2 SWAP1 PUSH2 0x366 JUMP JUMPDEST JUMPDEST POP JUMP JUMPDEST JUMPDEST DUP1 DUP3 GT ISZERO PUSH2 0x37F JUMPI PUSH1 0x0 DUP2 PUSH1 0x0 SWAP1 SSTORE POP PUSH1 0x1 ADD PUSH2 0x367 JUMP JUMPDEST POP SWAP1 JUMP JUMPDEST PUSH1 0x0 DUP2 SWAP1 POP SWAP2 SWAP1 POP JUMP JUMPDEST PUSH2 0x396 DUP2 PUSH2 0x383 JUMP JUMPDEST DUP3 MSTORE POP POP JUMP JUMPDEST PUSH1 0x0 PUSH1 0x20 DUP3 ADD SWAP1 POP PUSH2 0x3B1 PUSH1 0x0 DUP4 ADD DUP5 PUSH2 0x38D JUMP JUMPDEST SWAP3 SWAP2 POP POP JUMP JUMPDEST PUSH1 0x0 PUSH1 0x40 MLOAD SWAP1 POP SWAP1 JUMP JUMPDEST PUSH1 0x0 DUP1 REVERT JUMPDEST PUSH1 0x0 DUP1 REVERT JUMPDEST PUSH1 0x0 DUP1 REVERT JUMPDEST PUSH1 0x0 DUP1 REVERT JUMPDEST PUSH1 0x0 PUSH1 0x1F NOT PUSH1 0x1F DUP4 ADD AND SWAP1 POP SWAP2 SWAP1 POP JUMP JUMPDEST PUSH32 0x4E487B7100000000000000000000000000000000000000000000000000000000 PUSH1 0x0 MSTORE PUSH1 0x41 PUSH1 0x4 MSTORE PUSH1 0x24 PUSH1 0x0 REVERT JUMPDEST PUSH2 0x41E DUP3 PUSH2 0x3D5 JUMP JUMPDEST DUP2 ADD DUP2 DUP2 LT PUSH8 0xFFFFFFFFFFFFFFFF DUP3 GT OR ISZERO PUSH2 0x43D JUMPI PUSH2 0x43C PUSH2 0x3E6 JUMP JUMPDEST JUMPDEST DUP1 PUSH1 0x40 MSTORE POP POP POP JUMP JUMPDEST PUSH1 0x0 PUSH2 0x450 PUSH2 0x3B7 JUMP JUMPDEST SWAP1 POP PUSH2 0x45C DUP3 DUP3 PUSH2 0x415 JUMP JUMPDEST SWAP2 SWAP1 POP JUMP JUMPDEST PUSH1 0x0 PUSH8 0xFFFFFFFFFFFFFFFF DUP3 GT ISZERO PUSH2 0x47C JUMPI PUSH2 0x47B PUSH2 0x3E6 JUMP JUMPDEST JUMPDEST PUSH2 0x485 DUP3 PUSH2 0x3D5 JUMP JUMPDEST SWAP1 POP PUSH1 0x20 DUP2 ADD SWAP1 POP SWAP2 SWAP1 POP JUMP JUMPDEST DUP3 DUP2 DUP4 CALLDATACOPY PUSH1 0x0 DUP4 DUP4 ADD MSTORE POP POP POP JUMP JUMPDEST PUSH1 0x0 PUSH2 0x4B4 PUSH2 0x4AF DUP5 PUSH2 0x461 JUMP JUMPDEST PUSH2 0x446 JUMP JUMPDEST SWAP1 POP DUP3 DUP2 MSTORE PUSH1 0x20 DUP2 ADD DUP5 DUP5 DUP5 ADD GT ISZERO PUSH2 0x4D0 JUMPI PUSH2 0x4CF PUSH2 0x3D0 JUMP JUMPDEST JUMPDEST PUSH2 0x4DB DUP5 DUP3 DUP6 PUSH2 0x492 JUMP JUMPDEST POP SWAP4 SWAP3 POP POP POP JUMP JUMPDEST PUSH1 0x0 DUP3 PUSH1 0x1F DUP4 ADD SLT PUSH2 0x4F8 JUMPI PUSH2 0x4F7 PUSH2 0x3CB JUMP JUMPDEST JUMPDEST DUP2 CALLDATALOAD PUSH2 0x508 DUP5 DUP3 PUSH1 0x20 DUP7 ADD PUSH2 0x4A1 JUMP JUMPDEST SWAP2 POP POP SWAP3 SWAP2 POP POP JUMP JUMPDEST PUSH1 0x0 PUSH1 0x20 DUP3 DUP5 SUB SLT ISZERO PUSH2 0x527 JUMPI PUSH2 0x526 PUSH2 0x3C1 JUMP JUMPDEST JUMPDEST PUSH1 0x0 DUP3 ADD CALLDATALOAD PUSH8 0xFFFFFFFFFFFFFFFF DUP2 GT ISZERO PUSH2 0x545 JUMPI PUSH2 0x544 PUSH2 0x3C6 JUMP JUMPDEST JUMPDEST PUSH2 0x551 DUP5 DUP3 DUP6 ADD PUSH2 0x4E3 JUMP JUMPDEST SWAP2 POP POP SWAP3 SWAP2 POP POP JUMP JUMPDEST PUSH1 0x0 DUP2 MLOAD SWAP1 POP SWAP2 SWAP1 POP JUMP JUMPDEST PUSH1 0x0 DUP3 DUP3 MSTORE PUSH1 0x20 DUP3 ADD SWAP1 POP SWAP3 SWAP2 POP POP JUMP JUMPDEST PUSH1 0x0 DUP2 SWAP1 POP PUSH1 0x20 DUP3 ADD SWAP1 POP SWAP2 SWAP1 POP JUMP JUMPDEST PUSH1 0x0 DUP2 MLOAD SWAP1 POP SWAP2 SWAP1 POP JUMP JUMPDEST PUSH1 0x0 DUP3 DUP3 MSTORE PUSH1 0x20 DUP3 ADD SWAP1 POP SWAP3 SWAP2 POP POP JUMP JUMPDEST PUSH1 0x0 JUMPDEST DUP4 DUP2 LT ISZERO PUSH2 0x5C0 JUMPI DUP1 DUP3 ADD MLOAD DUP2 DUP5 ADD MSTORE PUSH1 0x20 DUP2 ADD SWAP1 POP PUSH2 0x5A5 JUMP JUMPDEST PUSH1 0x0 DUP5 DUP5 ADD MSTORE POP POP POP POP JUMP JUMPDEST PUSH1 0x0 PUSH2 0x5D7 DUP3 PUSH2 0x586 JUMP JUMPDEST PUSH2 0x5E1 DUP2 DUP6 PUSH2 0x591 JUMP JUMPDEST SWAP4 POP PUSH2 0x5F1 DUP2 DUP6 PUSH1 0x20 DUP7 ADD PUSH2 0x5A2 JUMP JUMPDEST PUSH2 0x5FA DUP2 PUSH2 0x3D5 JUMP JUMPDEST DUP5 ADD SWAP2 POP POP SWAP3 SWAP2 POP POP JUMP JUMPDEST PUSH1 0x0 PUSH2 0x611 DUP4 DUP4 PUSH2 0x5CC JUMP JUMPDEST SWAP1 POP SWAP3 SWAP2 POP POP JUMP JUMPDEST PUSH1 0x0 PUSH1 0x20 DUP3 ADD SWAP1 POP SWAP2 SWAP1 POP JUMP JUMPDEST PUSH1 0x0 PUSH2 0x631 DUP3 PUSH2 0x55A JUMP JUMPDEST PUSH2 0x63B DUP2 DUP6 PUSH2 0x565 JUMP JUMPDEST SWAP4 POP DUP4 PUSH1 0x20 DUP3 MUL DUP6 ADD PUSH2 0x64D DUP6 PUSH2 0x576 JUMP JUMPDEST DUP1 PUSH1 0x0 JUMPDEST DUP6 DUP2 LT ISZERO PUSH2 0x689 JUMPI DUP5 DUP5 SUB DUP10 MSTORE DUP2 MLOAD PUSH2 0x66A DUP6 DUP3 PUSH2 0x605 JUMP JUMPDEST SWAP5 POP PUSH2 0x675 DUP4 PUSH2 0x619 JUMP JUMPDEST SWAP3 POP PUSH1 0x20 DUP11 ADD SWAP10 POP POP PUSH1 0x1 DUP2 ADD SWAP1 POP PUSH2 0x651 JUMP JUMPDEST POP DUP3 SWAP8 POP DUP8 SWAP6 POP POP POP POP POP POP SWAP3 SWAP2 POP POP JUMP JUMPDEST PUSH1 0x0 PUSH1 0x20 DUP3 ADD SWAP1 POP DUP2 DUP2 SUB PUSH1 0x0 DUP4 ADD MSTORE PUSH2 0x6B5 DUP2 DUP5 PUSH2 0x626 JUMP JUMPDEST SWAP1 POP SWAP3 SWAP2 POP POP JUMP JUMPDEST PUSH2 0x6C6 DUP2 PUSH2 0x383 JUMP JUMPDEST DUP2 EQ PUSH2 0x6D1 JUMPI PUSH1 0x0 DUP1 REVERT JUMPDEST POP JUMP JUMPDEST PUSH1 0x0 DUP2 CALLDATALOAD SWAP1 POP PUSH2 0x6E3 DUP2 PUSH2 0x6BD JUMP JUMPDEST SWAP3 SWAP2 POP POP JUMP JUMPDEST PUSH1 0x0 PUSH1 0x20 DUP3 DUP5 SUB SLT ISZERO PUSH2 0x6FF JUMPI PUSH2 0x6FE PUSH2 0x3C1 JUMP JUMPDEST JUMPDEST PUSH1 0x0 PUSH2 0x70D DUP5 DUP3 DUP6 ADD PUSH2 0x6D4 JUMP JUMPDEST SWAP2 POP POP SWAP3 SWAP2 POP POP JUMP JUMPDEST PUSH1 0x0 DUP3 DUP3 MSTORE PUSH1 0x20 DUP3 ADD SWAP1 POP SWAP3 SWAP2 POP POP JUMP JUMPDEST PUSH1 0x0 PUSH2 0x732 DUP3 PUSH2 0x586 JUMP JUMPDEST PUSH2 0x73C DUP2 DUP6 PUSH2 0x716 JUMP JUMPDEST SWAP4 POP PUSH2 0x74C DUP2 DUP6 PUSH1 0x20 DUP7 ADD PUSH2 0x5A2 JUMP JUMPDEST PUSH2 0x755 DUP2 PUSH2 0x3D5 JUMP JUMPDEST DUP5 ADD SWAP2 POP POP SWAP3 SWAP2 POP POP JUMP JUMPDEST PUSH1 0x0 PUSH1 0x20 DUP3 ADD SWAP1 POP DUP2 DUP2 SUB PUSH1 0x0 DUP4 ADD MSTORE PUSH2 0x77A DUP2 DUP5 PUSH2 0x727 JUMP JUMPDEST SWAP1 POP SWAP3 SWAP2 POP POP JUMP JUMPDEST PUSH32 0x4E487B7100000000000000000000000000000000000000000000000000000000 PUSH1 0x0 MSTORE PUSH1 0x22 PUSH1 0x4 MSTORE PUSH1 0x24 PUSH1 0x0 REVERT JUMPDEST PUSH1 0x0 PUSH1 0x2 DUP3 DIV SWAP1 POP PUSH1 0x1 DUP3 AND DUP1 PUSH2 0x7C9 JUMPI PUSH1 0x7F DUP3 AND SWAP2 POP JUMPDEST PUSH1 0x20 DUP3 LT DUP2 SUB PUSH2 0x7DC JUMPI PUSH2 0x7DB PUSH2 0x782 JUMP JUMPDEST JUMPDEST POP SWAP2 SWAP1 POP JUMP JUMPDEST PUSH1 0x0 DUP2 SWAP1 POP DUP2 PUSH1 0x0 MSTORE PUSH1 0x20 PUSH1 0x0 KECCAK256 SWAP1 POP SWAP2 SWAP1 POP JUMP JUMPDEST PUSH1 0x0 PUSH1 0x20 PUSH1 0x1F DUP4 ADD DIV SWAP1 POP SWAP2 SWAP1 POP JUMP JUMPDEST PUSH1 0x0 DUP3 DUP3 SHL SWAP1 POP SWAP3 SWAP2 POP POP JUMP JUMPDEST PUSH1 0x0 PUSH1 0x8 DUP4 MUL PUSH2 0x844 PUSH32 0xFFFFFFFFFFFFFFFFFFFFFFFFFFFFFFFFFFFFFFFFFFFFFFFFFFFFFFFFFFFFFFFF DUP3 PUSH2 0x807 JUMP JUMPDEST PUSH2 0x84E DUP7 DUP4 PUSH2 0x807 JUMP JUMPDEST SWAP6 POP DUP1 NOT DUP5 AND SWAP4 POP DUP1 DUP7 AND DUP5 OR SWAP3 POP POP POP SWAP4 SWAP3 POP POP POP JUMP JUMPDEST PUSH1 0x0 DUP2 SWAP1 POP SWAP2 SWAP1 POP JUMP JUMPDEST PUSH1 0x0 PUSH2 0x88B PUSH2 0x886 PUSH2 0x881 DUP5 PUSH2 0x383 JUMP JUMPDEST PUSH2 0x866 JUMP JUMPDEST PUSH2 0x383 JUMP JUMPDEST SWAP1 POP SWAP2 SWAP1 POP JUMP JUMPDEST PUSH1 0x0 DUP2 SWAP1 POP SWAP2 SWAP1 POP JUMP JUMPDEST PUSH2 0x8A5 DUP4 PUSH2 0x870 JUMP JUMPDEST PUSH2 0x8B9 PUSH2 0x8B1 DUP3 PUSH2 0x892 JUMP JUMPDEST DUP5 DUP5 SLOAD PUSH2 0x814 JUMP JUMPDEST DUP3 SSTORE POP POP POP POP JUMP JUMPDEST PUSH1 0x0 SWAP1 JUMP JUMPDEST PUSH2 0x8CE PUSH2 0x8C1 JUMP JUMPDEST PUSH2 0x8D9 DUP2 DUP5 DUP5 PUSH2 0x89C JUMP JUMPDEST POP POP POP JUMP JUMPDEST JUMPDEST DUP2 DUP2 LT ISZERO PUSH2 0x8FD JUMPI PUSH2 0x8F2 PUSH1 0x0 DUP3 PUSH2 0x8C6 JUMP JUMPDEST PUSH1 0x1 DUP2 ADD SWAP1 POP PUSH2 0x8DF JUMP JUMPDEST POP POP JUMP JUMPDEST PUSH1 0x1F DUP3 GT ISZERO PUSH2 0x942 JUMPI PUSH2 0x913 DUP2 PUSH2 0x7E2 JUMP JUMPDEST PUSH2 0x91C DUP5 PUSH2 0x7F7 JUMP JUMPDEST DUP2 ADD PUSH1 0x20 DUP6 LT ISZERO PUSH2 0x92B JUMPI DUP2 SWAP1 POP JUMPDEST PUSH2 0x93F PUSH2 0x937 DUP6 PUSH2 0x7F7 JUMP JUMPDEST DUP4 ADD DUP3 PUSH2 0x8DE JUMP JUMPDEST POP POP JUMPDEST POP POP POP JUMP JUMPDEST PUSH1 0x0 DUP3 DUP3 SHR SWAP1 POP SWAP3 SWAP2 POP POP JUMP JUMPDEST PUSH1 0x0 PUSH2 0x965 PUSH1 0x0 NOT DUP5 PUSH1 0x8 MUL PUSH2 0x947 JUMP JUMPDEST NOT DUP1 DUP4 AND SWAP2 POP POP SWAP3 SWAP2 POP POP JUMP JUMPDEST PUSH1 0x0 PUSH2 0x97E DUP4 DUP4 PUSH2 0x954 JUMP JUMPDEST SWAP2 POP DUP3 PUSH1 0x2 MUL DUP3 OR SWAP1 POP SWAP3 SWAP2 POP POP JUMP JUMPDEST PUSH2 0x997 DUP3 PUSH2 0x586 JUMP JUMPDEST PUSH8 0xFFFFFFFFFFFFFFFF DUP2 GT ISZERO PUSH2 0x9B0 JUMPI PUSH2 0x9AF PUSH2 0x3E6 JUMP JUMPDEST JUMPDEST PUSH2 0x9BA DUP3 SLOAD PUSH2 0x7B1 JUMP JUMPDEST PUSH2 0x9C5 DUP3 DUP3 DUP6 PUSH2 0x901 JUMP JUMPDEST PUSH1 0x0 PUSH1 0x20 SWAP1 POP PUSH1 0x1F DUP4 GT PUSH1 0x1 DUP2 EQ PUSH2 0x9F8 JUMPI PUSH1 0x0 DUP5 ISZERO PUSH2 0x9E6 JUMPI DUP3 DUP8 ADD MLOAD SWAP1 POP JUMPDEST PUSH2 0x9F0 DUP6 DUP3 PUSH2 0x972 JUMP JUMPDEST DUP7 SSTORE POP PUSH2 0xA58 JUMP JUMPDEST PUSH1 0x1F NOT DUP5 AND PUSH2 0xA06 DUP7 PUSH2 0x7E2 JUMP JUMPDEST PUSH1 0x0 JUMPDEST DUP3 DUP2 LT ISZERO PUSH2 0xA2E JUMPI DUP5 DUP10 ADD MLOAD DUP3 SSTORE PUSH1 0x1 DUP3 ADD SWAP2 POP PUSH1 0x20 DUP6 ADD SWAP5 POP PUSH1 0x20 DUP2 ADD SWAP1 POP PUSH2 0xA09 JUMP JUMPDEST DUP7 DUP4 LT ISZERO PUSH2 0xA4B JUMPI DUP5 DUP10 ADD MLOAD PUSH2 0xA47 PUSH1 0x1F DUP10 AND DUP3 PUSH2 0x954 JUMP JUMPDEST DUP4 SSTORE POP JUMPDEST PUSH1 0x1 PUSH1 0x2 DUP9 MUL ADD DUP9 SSTORE POP POP POP JUMPDEST POP POP POP POP POP POP JUMP JUMPDEST PUSH32 0x4E487B7100000000000000000000000000000000000000000000000000000000 PUSH1 0x0 MSTORE PUSH1 0x31 PUSH1 0x4 MSTORE PUSH1 0x24 PUSH1 0x0 REVERT INVALID LOG2 PUSH5 0x6970667358 0x22 SLT KECCAK256 0xB0 0x2A PUSH25 0xE404F459DC31F11D87E4E48EF90613FAA0E5FE68E015A85E39 0xB9 0xE3 0x27 0xC1 PUSH5 0x736F6C6343 STOP ADDMOD SLT STOP CALLER "
				},
				"gasEstimates": {
					"creation": {
						"codeDepositCost": "551400",
						"executionCost": "587",
						"totalCost": "551987"
					},
					"external": {
						"arr2(uint256)": "infinite",
						"getter()": "infinite",
						"length()": "2423",
						"pop()": "infinite",
						"push(string)": "infinite"
					}
				},
				"methodIdentifiers": {
					"arr2(uint256)": "edf0099b",
					"getter()": "993a04b7",
					"length()": "1f7b6d32",
					"pop()": "a4ece52c",
					"push(string)": "4f3d057a"
				}
			},
			"storageLayout": {
				"storage": [
					{
						"astId": 4,
						"contract": "labs/31-7-23/07 dynamicArray.sol:Array",
						"label": "arr2",
						"offset": 0,
						"slot": "0",
						"type": "t_array(t_string_storage)dyn_storage"
					}
				],
				"types": {
					"t_array(t_string_storage)dyn_storage": {
						"base": "t_string_storage",
						"encoding": "dynamic_array",
						"label": "string[]",
						"numberOfBytes": "32"
					},
					"t_string_storage": {
						"encoding": "bytes",
						"label": "string",
						"numberOfBytes": "32"
					}
				}
			},
			"userdoc": {
				"kind": "user",
				"methods": {},
				"version": 1
			}
		}
	}
}