{
	"data": {
		"bytecode": {
			"linkReferences": {},
			"object": "60806040527fffffffffffffffffffffffffffffffffffffffffffffffffffffffffffffffff6004557fffffffffffffffffffffffffffffffffffffffffffffffffffffffffffffff8060000b600555607f60000b6006557fffffffffffffffffffffffffffffffffffffffffffffffffffffffffffff800060010b600755617fff60010b6008557fffffffffffffffffffffffffffffffffffffffffffffffffffffffff8000000060030b600955637fffffff60030b600a557fffffffffffffffffffffffffffffffffffffffffffffffff800000000000000060070b600b55677fffffffffffffff60070b600c557fffffffffffffffffffffffffffffffff80000000000000000000000000000000600f0b600d556f7fffffffffffffffffffffffffffffff600f0b600e557f8000000000000000000000000000000000000000000000000000000000000000600f557f7fffffffffffffffffffffffffffffffffffffffffffffffffffffffffffffff601055600060ff1660115560ff8016601255600061ffff1660135561ffff8016601455600063ffffffff1660155563ffffffff8016601655600067ffffffffffffffff1660175567ffffffffffffffff801660185560006fffffffffffffffffffffffffffffffff166019556fffffffffffffffffffffffffffffffff8016601a556000601b557fffffffffffffffffffffffffffffffffffffffffffffffffffffffffffffffff601c5534801561022957600080fd5b50610ad8806102396000396000f3fe608060405234801561001057600080fd5b50600436106102275760003560e01c806393b027b411610130578063beaf6db8116100b8578063ded7bf2e1161007c578063ded7bf2e146105ec578063e267157b1461060a578063e74beb7914610628578063f260cd4c14610646578063f614eb311461066457610227565b8063beaf6db814610556578063cf8bd4ba14610574578063d451e12014610592578063dbce5e68146105b0578063ddd14c89146105ce57610227565b8063a631eb62116100ff578063a631eb62146104c0578063a7df2feb146104de578063b1ec7ca6146104fc578063b93308291461051a578063bdc18c4c1461053857610227565b806393b027b41461044857806394827955146104665780639a57463214610484578063a02d51f7146104a257610227565b80635d0fa032116101b35780637c1bd7c8116101825780637c1bd7c8146103b257806385d350f1146103d057806386e233f3146103ee5780638c5a007b1461040c578063913122461461042a57610227565b80635d0fa0321461033a5780636ebe7f5b146103585780636fa025fa14610376578063719e96131461039457610227565b80631d87d574116101fa5780631d87d574146102a457806324d02974146102c25780633550fb04146102e05780633814c856146102fe578063556774671461031c57610227565b806311f6a8071461022c57806312d693891461024a578063155f2f851461026857806316a0c5b514610286575b600080fd5b610234610682565b604051610241919061081d565b60405180910390f35b61025261069c565b60405161025f9190610851565b60405180910390f35b6102706106a2565b60405161027d9190610851565b60405180910390f35b61028e6106a8565b60405161029b9190610851565b60405180910390f35b6102ac6106ae565b6040516102b99190610885565b60405180910390f35b6102ca6106b4565b6040516102d79190610851565b60405180910390f35b6102e86106ba565b6040516102f59190610885565b60405180910390f35b6103066106c0565b6040516103139190610885565b60405180910390f35b6103246106c6565b6040516103319190610885565b60405180910390f35b6103426106cc565b60405161034f9190610885565b60405180910390f35b6103606106d2565b60405161036d9190610851565b60405180910390f35b61037e6106d8565b60405161038b91906108bc565b60405180910390f35b61039c6106eb565b6040516103a99190610851565b60405180910390f35b6103ba6106f1565b6040516103c79190610885565b60405180910390f35b6103d86106f7565b6040516103e59190610851565b60405180910390f35b6103f66106fd565b6040516104039190610851565b60405180910390f35b610414610703565b60405161042191906108f6565b60405180910390f35b610432610719565b60405161043f9190610851565b60405180910390f35b61045061071f565b60405161045d9190610885565b60405180910390f35b61046e610725565b60405161047b9190610885565b60405180910390f35b61048c61072b565b6040516104999190610885565b60405180910390f35b6104aa610731565b6040516104b7919061092d565b60405180910390f35b6104c8610744565b6040516104d59190610885565b60405180910390f35b6104e661074a565b6040516104f39190610885565b60405180910390f35b610504610750565b6040516105119190610965565b60405180910390f35b610522610764565b60405161052f9190610851565b60405180910390f35b61054061076a565b60405161054d919061099c565b60405180910390f35b61055e61077d565b60405161056b91906109d3565b60405180910390f35b61057c61078e565b6040516105899190610851565b60405180910390f35b61059a610794565b6040516105a79190610a0a565b60405180910390f35b6105b86107a7565b6040516105c59190610885565b60405180910390f35b6105d66107ad565b6040516105e39190610a41565b60405180910390f35b6105f46107c0565b6040516106019190610885565b60405180910390f35b6106126107c6565b60405161061f9190610851565b60405180910390f35b6106306107cc565b60405161063d9190610a87565b60405180910390f35b61064e6107ee565b60405161065b9190610851565b60405180910390f35b61066c6107f4565b6040516106799190610851565b60405180910390f35b600260079054906101000a900467ffffffffffffffff1681565b60165481565b60175481565b60045481565b600c5481565b60125481565b600a5481565b60065481565b600e5481565b60095481565b60185481565b600060039054906101000a900460030b81565b60145481565b600f5481565b60115481565b601b5481565b600260039054906101000a900463ffffffff1681565b60155481565b60105481565b600b5481565b60015481565b600260009054906101000a900460ff1681565b60055481565b60085481565b600260019054906101000a900461ffff1681565b601c5481565b6000600f9054906101000a9004600f0b81565b60008054906101000a900460000b81565b601a5481565b600060019054906101000a900460010b81565b60075481565b600060079054906101000a900460070b81565b600d5481565b60195481565b6002600f9054906101000a90046fffffffffffffffffffffffffffffffff1681565b60135481565b60035481565b600067ffffffffffffffff82169050919050565b610817816107fa565b82525050565b6000602082019050610832600083018461080e565b92915050565b6000819050919050565b61084b81610838565b82525050565b60006020820190506108666000830184610842565b92915050565b6000819050919050565b61087f8161086c565b82525050565b600060208201905061089a6000830184610876565b92915050565b60008160030b9050919050565b6108b6816108a0565b82525050565b60006020820190506108d160008301846108ad565b92915050565b600063ffffffff82169050919050565b6108f0816108d7565b82525050565b600060208201905061090b60008301846108e7565b92915050565b600060ff82169050919050565b61092781610911565b82525050565b6000602082019050610942600083018461091e565b92915050565b600061ffff82169050919050565b61095f81610948565b82525050565b600060208201905061097a6000830184610956565b92915050565b600081600f0b9050919050565b61099681610980565b82525050565b60006020820190506109b1600083018461098d565b92915050565b60008160000b9050919050565b6109cd816109b7565b82525050565b60006020820190506109e860008301846109c4565b92915050565b60008160010b9050919050565b610a04816109ee565b82525050565b6000602082019050610a1f60008301846109fb565b92915050565b60008160070b9050919050565b610a3b81610a25565b82525050565b6000602082019050610a566000830184610a32565b92915050565b60006fffffffffffffffffffffffffffffffff82169050919050565b610a8181610a5c565b82525050565b6000602082019050610a9c6000830184610a78565b9291505056fea26469706673582212200a22cefab3c21f9143b1690084c0a76a421324421b7d7a9d6ba95d06e5ef81ed64736f6c63430008120033",
			"opcodes": "PUSH1 0x80 PUSH1 0x40 MSTORE PUSH32 0xFFFFFFFFFFFFFFFFFFFFFFFFFFFFFFFFFFFFFFFFFFFFFFFFFFFFFFFFFFFFFFFF PUSH1 0x4 SSTORE PUSH32 0xFFFFFFFFFFFFFFFFFFFFFFFFFFFFFFFFFFFFFFFFFFFFFFFFFFFFFFFFFFFFFF80 PUSH1 0x0 SIGNEXTEND PUSH1 0x5 SSTORE PUSH1 0x7F PUSH1 0x0 SIGNEXTEND PUSH1 0x6 SSTORE PUSH32 0xFFFFFFFFFFFFFFFFFFFFFFFFFFFFFFFFFFFFFFFFFFFFFFFFFFFFFFFFFFFF8000 PUSH1 0x1 SIGNEXTEND PUSH1 0x7 SSTORE PUSH2 0x7FFF PUSH1 0x1 SIGNEXTEND PUSH1 0x8 SSTORE PUSH32 0xFFFFFFFFFFFFFFFFFFFFFFFFFFFFFFFFFFFFFFFFFFFFFFFFFFFFFFFF80000000 PUSH1 0x3 SIGNEXTEND PUSH1 0x9 SSTORE PUSH4 0x7FFFFFFF PUSH1 0x3 SIGNEXTEND PUSH1 0xA SSTORE PUSH32 0xFFFFFFFFFFFFFFFFFFFFFFFFFFFFFFFFFFFFFFFFFFFFFFFF8000000000000000 PUSH1 0x7 SIGNEXTEND PUSH1 0xB SSTORE PUSH8 0x7FFFFFFFFFFFFFFF PUSH1 0x7 SIGNEXTEND PUSH1 0xC SSTORE PUSH32 0xFFFFFFFFFFFFFFFFFFFFFFFFFFFFFFFF80000000000000000000000000000000 PUSH1 0xF SIGNEXTEND PUSH1 0xD SSTORE PUSH16 0x7FFFFFFFFFFFFFFFFFFFFFFFFFFFFFFF PUSH1 0xF SIGNEXTEND PUSH1 0xE SSTORE PUSH32 0x8000000000000000000000000000000000000000000000000000000000000000 PUSH1 0xF SSTORE PUSH32 0x7FFFFFFFFFFFFFFFFFFFFFFFFFFFFFFFFFFFFFFFFFFFFFFFFFFFFFFFFFFFFFFF PUSH1 0x10 SSTORE PUSH1 0x0 PUSH1 0xFF AND PUSH1 0x11 SSTORE PUSH1 0xFF DUP1 AND PUSH1 0x12 SSTORE PUSH1 0x0 PUSH2 0xFFFF AND PUSH1 0x13 SSTORE PUSH2 0xFFFF DUP1 AND PUSH1 0x14 SSTORE PUSH1 0x0 PUSH4 0xFFFFFFFF AND PUSH1 0x15 SSTORE PUSH4 0xFFFFFFFF DUP1 AND PUSH1 0x16 SSTORE PUSH1 0x0 PUSH8 0xFFFFFFFFFFFFFFFF AND PUSH1 0x17 SSTORE PUSH8 0xFFFFFFFFFFFFFFFF DUP1 AND PUSH1 0x18 SSTORE PUSH1 0x0 PUSH16 0xFFFFFFFFFFFFFFFFFFFFFFFFFFFFFFFF AND PUSH1 0x19 SSTORE PUSH16 0xFFFFFFFFFFFFFFFFFFFFFFFFFFFFFFFF DUP1 AND PUSH1 0x1A SSTORE PUSH1 0x0 PUSH1 0x1B SSTORE PUSH32 0xFFFFFFFFFFFFFFFFFFFFFFFFFFFFFFFFFFFFFFFFFFFFFFFFFFFFFFFFFFFFFFFF PUSH1 0x1C SSTORE CALLVALUE DUP1 ISZERO PUSH2 0x229 JUMPI PUSH1 0x0 DUP1 REVERT JUMPDEST POP PUSH2 0xAD8 DUP1 PUSH2 0x239 PUSH1 0x0 CODECOPY PUSH1 0x0 RETURN INVALID PUSH1 0x80 PUSH1 0x40 MSTORE CALLVALUE DUP1 ISZERO PUSH2 0x10 JUMPI PUSH1 0x0 DUP1 REVERT JUMPDEST POP PUSH1 0x4 CALLDATASIZE LT PUSH2 0x227 JUMPI PUSH1 0x0 CALLDATALOAD PUSH1 0xE0 SHR DUP1 PUSH4 0x93B027B4 GT PUSH2 0x130 JUMPI DUP1 PUSH4 0xBEAF6DB8 GT PUSH2 0xB8 JUMPI DUP1 PUSH4 0xDED7BF2E GT PUSH2 0x7C JUMPI DUP1 PUSH4 0xDED7BF2E EQ PUSH2 0x5EC JUMPI DUP1 PUSH4 0xE267157B EQ PUSH2 0x60A JUMPI DUP1 PUSH4 0xE74BEB79 EQ PUSH2 0x628 JUMPI DUP1 PUSH4 0xF260CD4C EQ PUSH2 0x646 JUMPI DUP1 PUSH4 0xF614EB31 EQ PUSH2 0x664 JUMPI PUSH2 0x227 JUMP JUMPDEST DUP1 PUSH4 0xBEAF6DB8 EQ PUSH2 0x556 JUMPI DUP1 PUSH4 0xCF8BD4BA EQ PUSH2 0x574 JUMPI DUP1 PUSH4 0xD451E120 EQ PUSH2 0x592 JUMPI DUP1 PUSH4 0xDBCE5E68 EQ PUSH2 0x5B0 JUMPI DUP1 PUSH4 0xDDD14C89 EQ PUSH2 0x5CE JUMPI PUSH2 0x227 JUMP JUMPDEST DUP1 PUSH4 0xA631EB62 GT PUSH2 0xFF JUMPI DUP1 PUSH4 0xA631EB62 EQ PUSH2 0x4C0 JUMPI DUP1 PUSH4 0xA7DF2FEB EQ PUSH2 0x4DE JUMPI DUP1 PUSH4 0xB1EC7CA6 EQ PUSH2 0x4FC JUMPI DUP1 PUSH4 0xB9330829 EQ PUSH2 0x51A JUMPI DUP1 PUSH4 0xBDC18C4C EQ PUSH2 0x538 JUMPI PUSH2 0x227 JUMP JUMPDEST DUP1 PUSH4 0x93B027B4 EQ PUSH2 0x448 JUMPI DUP1 PUSH4 0x94827955 EQ PUSH2 0x466 JUMPI DUP1 PUSH4 0x9A574632 EQ PUSH2 0x484 JUMPI DUP1 PUSH4 0xA02D51F7 EQ PUSH2 0x4A2 JUMPI PUSH2 0x227 JUMP JUMPDEST DUP1 PUSH4 0x5D0FA032 GT PUSH2 0x1B3 JUMPI DUP1 PUSH4 0x7C1BD7C8 GT PUSH2 0x182 JUMPI DUP1 PUSH4 0x7C1BD7C8 EQ PUSH2 0x3B2 JUMPI DUP1 PUSH4 0x85D350F1 EQ PUSH2 0x3D0 JUMPI DUP1 PUSH4 0x86E233F3 EQ PUSH2 0x3EE JUMPI DUP1 PUSH4 0x8C5A007B EQ PUSH2 0x40C JUMPI DUP1 PUSH4 0x91312246 EQ PUSH2 0x42A JUMPI PUSH2 0x227 JUMP JUMPDEST DUP1 PUSH4 0x5D0FA032 EQ PUSH2 0x33A JUMPI DUP1 PUSH4 0x6EBE7F5B EQ PUSH2 0x358 JUMPI DUP1 PUSH4 0x6FA025FA EQ PUSH2 0x376 JUMPI DUP1 PUSH4 0x719E9613 EQ PUSH2 0x394 JUMPI PUSH2 0x227 JUMP JUMPDEST DUP1 PUSH4 0x1D87D574 GT PUSH2 0x1FA JUMPI DUP1 PUSH4 0x1D87D574 EQ PUSH2 0x2A4 JUMPI DUP1 PUSH4 0x24D02974 EQ PUSH2 0x2C2 JUMPI DUP1 PUSH4 0x3550FB04 EQ PUSH2 0x2E0 JUMPI DUP1 PUSH4 0x3814C856 EQ PUSH2 0x2FE JUMPI DUP1 PUSH4 0x55677467 EQ PUSH2 0x31C JUMPI PUSH2 0x227 JUMP JUMPDEST DUP1 PUSH4 0x11F6A807 EQ PUSH2 0x22C JUMPI DUP1 PUSH4 0x12D69389 EQ PUSH2 0x24A JUMPI DUP1 PUSH4 0x155F2F85 EQ PUSH2 0x268 JUMPI DUP1 PUSH4 0x16A0C5B5 EQ PUSH2 0x286 JUMPI JUMPDEST PUSH1 0x0 DUP1 REVERT JUMPDEST PUSH2 0x234 PUSH2 0x682 JUMP JUMPDEST PUSH1 0x40 MLOAD PUSH2 0x241 SWAP2 SWAP1 PUSH2 0x81D JUMP JUMPDEST PUSH1 0x40 MLOAD DUP1 SWAP2 SUB SWAP1 RETURN JUMPDEST PUSH2 0x252 PUSH2 0x69C JUMP JUMPDEST PUSH1 0x40 MLOAD PUSH2 0x25F SWAP2 SWAP1 PUSH2 0x851 JUMP JUMPDEST PUSH1 0x40 MLOAD DUP1 SWAP2 SUB SWAP1 RETURN JUMPDEST PUSH2 0x270 PUSH2 0x6A2 JUMP JUMPDEST PUSH1 0x40 MLOAD PUSH2 0x27D SWAP2 SWAP1 PUSH2 0x851 JUMP JUMPDEST PUSH1 0x40 MLOAD DUP1 SWAP2 SUB SWAP1 RETURN JUMPDEST PUSH2 0x28E PUSH2 0x6A8 JUMP JUMPDEST PUSH1 0x40 MLOAD PUSH2 0x29B SWAP2 SWAP1 PUSH2 0x851 JUMP JUMPDEST PUSH1 0x40 MLOAD DUP1 SWAP2 SUB SWAP1 RETURN JUMPDEST PUSH2 0x2AC PUSH2 0x6AE JUMP JUMPDEST PUSH1 0x40 MLOAD PUSH2 0x2B9 SWAP2 SWAP1 PUSH2 0x885 JUMP JUMPDEST PUSH1 0x40 MLOAD DUP1 SWAP2 SUB SWAP1 RETURN JUMPDEST PUSH2 0x2CA PUSH2 0x6B4 JUMP JUMPDEST PUSH1 0x40 MLOAD PUSH2 0x2D7 SWAP2 SWAP1 PUSH2 0x851 JUMP JUMPDEST PUSH1 0x40 MLOAD DUP1 SWAP2 SUB SWAP1 RETURN JUMPDEST PUSH2 0x2E8 PUSH2 0x6BA JUMP JUMPDEST PUSH1 0x40 MLOAD PUSH2 0x2F5 SWAP2 SWAP1 PUSH2 0x885 JUMP JUMPDEST PUSH1 0x40 MLOAD DUP1 SWAP2 SUB SWAP1 RETURN JUMPDEST PUSH2 0x306 PUSH2 0x6C0 JUMP JUMPDEST PUSH1 0x40 MLOAD PUSH2 0x313 SWAP2 SWAP1 PUSH2 0x885 JUMP JUMPDEST PUSH1 0x40 MLOAD DUP1 SWAP2 SUB SWAP1 RETURN JUMPDEST PUSH2 0x324 PUSH2 0x6C6 JUMP JUMPDEST PUSH1 0x40 MLOAD PUSH2 0x331 SWAP2 SWAP1 PUSH2 0x885 JUMP JUMPDEST PUSH1 0x40 MLOAD DUP1 SWAP2 SUB SWAP1 RETURN JUMPDEST PUSH2 0x342 PUSH2 0x6CC JUMP JUMPDEST PUSH1 0x40 MLOAD PUSH2 0x34F SWAP2 SWAP1 PUSH2 0x885 JUMP JUMPDEST PUSH1 0x40 MLOAD DUP1 SWAP2 SUB SWAP1 RETURN JUMPDEST PUSH2 0x360 PUSH2 0x6D2 JUMP JUMPDEST PUSH1 0x40 MLOAD PUSH2 0x36D SWAP2 SWAP1 PUSH2 0x851 JUMP JUMPDEST PUSH1 0x40 MLOAD DUP1 SWAP2 SUB SWAP1 RETURN JUMPDEST PUSH2 0x37E PUSH2 0x6D8 JUMP JUMPDEST PUSH1 0x40 MLOAD PUSH2 0x38B SWAP2 SWAP1 PUSH2 0x8BC JUMP JUMPDEST PUSH1 0x40 MLOAD DUP1 SWAP2 SUB SWAP1 RETURN JUMPDEST PUSH2 0x39C PUSH2 0x6EB JUMP JUMPDEST PUSH1 0x40 MLOAD PUSH2 0x3A9 SWAP2 SWAP1 PUSH2 0x851 JUMP JUMPDEST PUSH1 0x40 MLOAD DUP1 SWAP2 SUB SWAP1 RETURN JUMPDEST PUSH2 0x3BA PUSH2 0x6F1 JUMP JUMPDEST PUSH1 0x40 MLOAD PUSH2 0x3C7 SWAP2 SWAP1 PUSH2 0x885 JUMP JUMPDEST PUSH1 0x40 MLOAD DUP1 SWAP2 SUB SWAP1 RETURN JUMPDEST PUSH2 0x3D8 PUSH2 0x6F7 JUMP JUMPDEST PUSH1 0x40 MLOAD PUSH2 0x3E5 SWAP2 SWAP1 PUSH2 0x851 JUMP JUMPDEST PUSH1 0x40 MLOAD DUP1 SWAP2 SUB SWAP1 RETURN JUMPDEST PUSH2 0x3F6 PUSH2 0x6FD JUMP JUMPDEST PUSH1 0x40 MLOAD PUSH2 0x403 SWAP2 SWAP1 PUSH2 0x851 JUMP JUMPDEST PUSH1 0x40 MLOAD DUP1 SWAP2 SUB SWAP1 RETURN JUMPDEST PUSH2 0x414 PUSH2 0x703 JUMP JUMPDEST PUSH1 0x40 MLOAD PUSH2 0x421 SWAP2 SWAP1 PUSH2 0x8F6 JUMP JUMPDEST PUSH1 0x40 MLOAD DUP1 SWAP2 SUB SWAP1 RETURN JUMPDEST PUSH2 0x432 PUSH2 0x719 JUMP JUMPDEST PUSH1 0x40 MLOAD PUSH2 0x43F SWAP2 SWAP1 PUSH2 0x851 JUMP JUMPDEST PUSH1 0x40 MLOAD DUP1 SWAP2 SUB SWAP1 RETURN JUMPDEST PUSH2 0x450 PUSH2 0x71F JUMP JUMPDEST PUSH1 0x40 MLOAD PUSH2 0x45D SWAP2 SWAP1 PUSH2 0x885 JUMP JUMPDEST PUSH1 0x40 MLOAD DUP1 SWAP2 SUB SWAP1 RETURN JUMPDEST PUSH2 0x46E PUSH2 0x725 JUMP JUMPDEST PUSH1 0x40 MLOAD PUSH2 0x47B SWAP2 SWAP1 PUSH2 0x885 JUMP JUMPDEST PUSH1 0x40 MLOAD DUP1 SWAP2 SUB SWAP1 RETURN JUMPDEST PUSH2 0x48C PUSH2 0x72B JUMP JUMPDEST PUSH1 0x40 MLOAD PUSH2 0x499 SWAP2 SWAP1 PUSH2 0x885 JUMP JUMPDEST PUSH1 0x40 MLOAD DUP1 SWAP2 SUB SWAP1 RETURN JUMPDEST PUSH2 0x4AA PUSH2 0x731 JUMP JUMPDEST PUSH1 0x40 MLOAD PUSH2 0x4B7 SWAP2 SWAP1 PUSH2 0x92D JUMP JUMPDEST PUSH1 0x40 MLOAD DUP1 SWAP2 SUB SWAP1 RETURN JUMPDEST PUSH2 0x4C8 PUSH2 0x744 JUMP JUMPDEST PUSH1 0x40 MLOAD PUSH2 0x4D5 SWAP2 SWAP1 PUSH2 0x885 JUMP JUMPDEST PUSH1 0x40 MLOAD DUP1 SWAP2 SUB SWAP1 RETURN JUMPDEST PUSH2 0x4E6 PUSH2 0x74A JUMP JUMPDEST PUSH1 0x40 MLOAD PUSH2 0x4F3 SWAP2 SWAP1 PUSH2 0x885 JUMP JUMPDEST PUSH1 0x40 MLOAD DUP1 SWAP2 SUB SWAP1 RETURN JUMPDEST PUSH2 0x504 PUSH2 0x750 JUMP JUMPDEST PUSH1 0x40 MLOAD PUSH2 0x511 SWAP2 SWAP1 PUSH2 0x965 JUMP JUMPDEST PUSH1 0x40 MLOAD DUP1 SWAP2 SUB SWAP1 RETURN JUMPDEST PUSH2 0x522 PUSH2 0x764 JUMP JUMPDEST PUSH1 0x40 MLOAD PUSH2 0x52F SWAP2 SWAP1 PUSH2 0x851 JUMP JUMPDEST PUSH1 0x40 MLOAD DUP1 SWAP2 SUB SWAP1 RETURN JUMPDEST PUSH2 0x540 PUSH2 0x76A JUMP JUMPDEST PUSH1 0x40 MLOAD PUSH2 0x54D SWAP2 SWAP1 PUSH2 0x99C JUMP JUMPDEST PUSH1 0x40 MLOAD DUP1 SWAP2 SUB SWAP1 RETURN JUMPDEST PUSH2 0x55E PUSH2 0x77D JUMP JUMPDEST PUSH1 0x40 MLOAD PUSH2 0x56B SWAP2 SWAP1 PUSH2 0x9D3 JUMP JUMPDEST PUSH1 0x40 MLOAD DUP1 SWAP2 SUB SWAP1 RETURN JUMPDEST PUSH2 0x57C PUSH2 0x78E JUMP JUMPDEST PUSH1 0x40 MLOAD PUSH2 0x589 SWAP2 SWAP1 PUSH2 0x851 JUMP JUMPDEST PUSH1 0x40 MLOAD DUP1 SWAP2 SUB SWAP1 RETURN JUMPDEST PUSH2 0x59A PUSH2 0x794 JUMP JUMPDEST PUSH1 0x40 MLOAD PUSH2 0x5A7 SWAP2 SWAP1 PUSH2 0xA0A JUMP JUMPDEST PUSH1 0x40 MLOAD DUP1 SWAP2 SUB SWAP1 RETURN JUMPDEST PUSH2 0x5B8 PUSH2 0x7A7 JUMP JUMPDEST PUSH1 0x40 MLOAD PUSH2 0x5C5 SWAP2 SWAP1 PUSH2 0x885 JUMP JUMPDEST PUSH1 0x40 MLOAD DUP1 SWAP2 SUB SWAP1 RETURN JUMPDEST PUSH2 0x5D6 PUSH2 0x7AD JUMP JUMPDEST PUSH1 0x40 MLOAD PUSH2 0x5E3 SWAP2 SWAP1 PUSH2 0xA41 JUMP JUMPDEST PUSH1 0x40 MLOAD DUP1 SWAP2 SUB SWAP1 RETURN JUMPDEST PUSH2 0x5F4 PUSH2 0x7C0 JUMP JUMPDEST PUSH1 0x40 MLOAD PUSH2 0x601 SWAP2 SWAP1 PUSH2 0x885 JUMP JUMPDEST PUSH1 0x40 MLOAD DUP1 SWAP2 SUB SWAP1 RETURN JUMPDEST PUSH2 0x612 PUSH2 0x7C6 JUMP JUMPDEST PUSH1 0x40 MLOAD PUSH2 0x61F SWAP2 SWAP1 PUSH2 0x851 JUMP JUMPDEST PUSH1 0x40 MLOAD DUP1 SWAP2 SUB SWAP1 RETURN JUMPDEST PUSH2 0x630 PUSH2 0x7CC JUMP JUMPDEST PUSH1 0x40 MLOAD PUSH2 0x63D SWAP2 SWAP1 PUSH2 0xA87 JUMP JUMPDEST PUSH1 0x40 MLOAD DUP1 SWAP2 SUB SWAP1 RETURN JUMPDEST PUSH2 0x64E PUSH2 0x7EE JUMP JUMPDEST PUSH1 0x40 MLOAD PUSH2 0x65B SWAP2 SWAP1 PUSH2 0x851 JUMP JUMPDEST PUSH1 0x40 MLOAD DUP1 SWAP2 SUB SWAP1 RETURN JUMPDEST PUSH2 0x66C PUSH2 0x7F4 JUMP JUMPDEST PUSH1 0x40 MLOAD PUSH2 0x679 SWAP2 SWAP1 PUSH2 0x851 JUMP JUMPDEST PUSH1 0x40 MLOAD DUP1 SWAP2 SUB SWAP1 RETURN JUMPDEST PUSH1 0x2 PUSH1 0x7 SWAP1 SLOAD SWAP1 PUSH2 0x100 EXP SWAP1 DIV PUSH8 0xFFFFFFFFFFFFFFFF AND DUP2 JUMP JUMPDEST PUSH1 0x16 SLOAD DUP2 JUMP JUMPDEST PUSH1 0x17 SLOAD DUP2 JUMP JUMPDEST PUSH1 0x4 SLOAD DUP2 JUMP JUMPDEST PUSH1 0xC SLOAD DUP2 JUMP JUMPDEST PUSH1 0x12 SLOAD DUP2 JUMP JUMPDEST PUSH1 0xA SLOAD DUP2 JUMP JUMPDEST PUSH1 0x6 SLOAD DUP2 JUMP JUMPDEST PUSH1 0xE SLOAD DUP2 JUMP JUMPDEST PUSH1 0x9 SLOAD DUP2 JUMP JUMPDEST PUSH1 0x18 SLOAD DUP2 JUMP JUMPDEST PUSH1 0x0 PUSH1 0x3 SWAP1 SLOAD SWAP1 PUSH2 0x100 EXP SWAP1 DIV PUSH1 0x3 SIGNEXTEND DUP2 JUMP JUMPDEST PUSH1 0x14 SLOAD DUP2 JUMP JUMPDEST PUSH1 0xF SLOAD DUP2 JUMP JUMPDEST PUSH1 0x11 SLOAD DUP2 JUMP JUMPDEST PUSH1 0x1B SLOAD DUP2 JUMP JUMPDEST PUSH1 0x2 PUSH1 0x3 SWAP1 SLOAD SWAP1 PUSH2 0x100 EXP SWAP1 DIV PUSH4 0xFFFFFFFF AND DUP2 JUMP JUMPDEST PUSH1 0x15 SLOAD DUP2 JUMP JUMPDEST PUSH1 0x10 SLOAD DUP2 JUMP JUMPDEST PUSH1 0xB SLOAD DUP2 JUMP JUMPDEST PUSH1 0x1 SLOAD DUP2 JUMP JUMPDEST PUSH1 0x2 PUSH1 0x0 SWAP1 SLOAD SWAP1 PUSH2 0x100 EXP SWAP1 DIV PUSH1 0xFF AND DUP2 JUMP JUMPDEST PUSH1 0x5 SLOAD DUP2 JUMP JUMPDEST PUSH1 0x8 SLOAD DUP2 JUMP JUMPDEST PUSH1 0x2 PUSH1 0x1 SWAP1 SLOAD SWAP1 PUSH2 0x100 EXP SWAP1 DIV PUSH2 0xFFFF AND DUP2 JUMP JUMPDEST PUSH1 0x1C SLOAD DUP2 JUMP JUMPDEST PUSH1 0x0 PUSH1 0xF SWAP1 SLOAD SWAP1 PUSH2 0x100 EXP SWAP1 DIV PUSH1 0xF SIGNEXTEND DUP2 JUMP JUMPDEST PUSH1 0x0 DUP1 SLOAD SWAP1 PUSH2 0x100 EXP SWAP1 DIV PUSH1 0x0 SIGNEXTEND DUP2 JUMP JUMPDEST PUSH1 0x1A SLOAD DUP2 JUMP JUMPDEST PUSH1 0x0 PUSH1 0x1 SWAP1 SLOAD SWAP1 PUSH2 0x100 EXP SWAP1 DIV PUSH1 0x1 SIGNEXTEND DUP2 JUMP JUMPDEST PUSH1 0x7 SLOAD DUP2 JUMP JUMPDEST PUSH1 0x0 PUSH1 0x7 SWAP1 SLOAD SWAP1 PUSH2 0x100 EXP SWAP1 DIV PUSH1 0x7 SIGNEXTEND DUP2 JUMP JUMPDEST PUSH1 0xD SLOAD DUP2 JUMP JUMPDEST PUSH1 0x19 SLOAD DUP2 JUMP JUMPDEST PUSH1 0x2 PUSH1 0xF SWAP1 SLOAD SWAP1 PUSH2 0x100 EXP SWAP1 DIV PUSH16 0xFFFFFFFFFFFFFFFFFFFFFFFFFFFFFFFF AND DUP2 JUMP JUMPDEST PUSH1 0x13 SLOAD DUP2 JUMP JUMPDEST PUSH1 0x3 SLOAD DUP2 JUMP JUMPDEST PUSH1 0x0 PUSH8 0xFFFFFFFFFFFFFFFF DUP3 AND SWAP1 POP SWAP2 SWAP1 POP JUMP JUMPDEST PUSH2 0x817 DUP2 PUSH2 0x7FA JUMP JUMPDEST DUP3 MSTORE POP POP JUMP JUMPDEST PUSH1 0x0 PUSH1 0x20 DUP3 ADD SWAP1 POP PUSH2 0x832 PUSH1 0x0 DUP4 ADD DUP5 PUSH2 0x80E JUMP JUMPDEST SWAP3 SWAP2 POP POP JUMP JUMPDEST PUSH1 0x0 DUP2 SWAP1 POP SWAP2 SWAP1 POP JUMP JUMPDEST PUSH2 0x84B DUP2 PUSH2 0x838 JUMP JUMPDEST DUP3 MSTORE POP POP JUMP JUMPDEST PUSH1 0x0 PUSH1 0x20 DUP3 ADD SWAP1 POP PUSH2 0x866 PUSH1 0x0 DUP4 ADD DUP5 PUSH2 0x842 JUMP JUMPDEST SWAP3 SWAP2 POP POP JUMP JUMPDEST PUSH1 0x0 DUP2 SWAP1 POP SWAP2 SWAP1 POP JUMP JUMPDEST PUSH2 0x87F DUP2 PUSH2 0x86C JUMP JUMPDEST DUP3 MSTORE POP POP JUMP JUMPDEST PUSH1 0x0 PUSH1 0x20 DUP3 ADD SWAP1 POP PUSH2 0x89A PUSH1 0x0 DUP4 ADD DUP5 PUSH2 0x876 JUMP JUMPDEST SWAP3 SWAP2 POP POP JUMP JUMPDEST PUSH1 0x0 DUP2 PUSH1 0x3 SIGNEXTEND SWAP1 POP SWAP2 SWAP1 POP JUMP JUMPDEST PUSH2 0x8B6 DUP2 PUSH2 0x8A0 JUMP JUMPDEST DUP3 MSTORE POP POP JUMP JUMPDEST PUSH1 0x0 PUSH1 0x20 DUP3 ADD SWAP1 POP PUSH2 0x8D1 PUSH1 0x0 DUP4 ADD DUP5 PUSH2 0x8AD JUMP JUMPDEST SWAP3 SWAP2 POP POP JUMP JUMPDEST PUSH1 0x0 PUSH4 0xFFFFFFFF DUP3 AND SWAP1 POP SWAP2 SWAP1 POP JUMP JUMPDEST PUSH2 0x8F0 DUP2 PUSH2 0x8D7 JUMP JUMPDEST DUP3 MSTORE POP POP JUMP JUMPDEST PUSH1 0x0 PUSH1 0x20 DUP3 ADD SWAP1 POP PUSH2 0x90B PUSH1 0x0 DUP4 ADD DUP5 PUSH2 0x8E7 JUMP JUMPDEST SWAP3 SWAP2 POP POP JUMP JUMPDEST PUSH1 0x0 PUSH1 0xFF DUP3 AND SWAP1 POP SWAP2 SWAP1 POP JUMP JUMPDEST PUSH2 0x927 DUP2 PUSH2 0x911 JUMP JUMPDEST DUP3 MSTORE POP POP JUMP JUMPDEST PUSH1 0x0 PUSH1 0x20 DUP3 ADD SWAP1 POP PUSH2 0x942 PUSH1 0x0 DUP4 ADD DUP5 PUSH2 0x91E JUMP JUMPDEST SWAP3 SWAP2 POP POP JUMP JUMPDEST PUSH1 0x0 PUSH2 0xFFFF DUP3 AND SWAP1 POP SWAP2 SWAP1 POP JUMP JUMPDEST PUSH2 0x95F DUP2 PUSH2 0x948 JUMP JUMPDEST DUP3 MSTORE POP POP JUMP JUMPDEST PUSH1 0x0 PUSH1 0x20 DUP3 ADD SWAP1 POP PUSH2 0x97A PUSH1 0x0 DUP4 ADD DUP5 PUSH2 0x956 JUMP JUMPDEST SWAP3 SWAP2 POP POP JUMP JUMPDEST PUSH1 0x0 DUP2 PUSH1 0xF SIGNEXTEND SWAP1 POP SWAP2 SWAP1 POP JUMP JUMPDEST PUSH2 0x996 DUP2 PUSH2 0x980 JUMP JUMPDEST DUP3 MSTORE POP POP JUMP JUMPDEST PUSH1 0x0 PUSH1 0x20 DUP3 ADD SWAP1 POP PUSH2 0x9B1 PUSH1 0x0 DUP4 ADD DUP5 PUSH2 0x98D JUMP JUMPDEST SWAP3 SWAP2 POP POP JUMP JUMPDEST PUSH1 0x0 DUP2 PUSH1 0x0 SIGNEXTEND SWAP1 POP SWAP2 SWAP1 POP JUMP JUMPDEST PUSH2 0x9CD DUP2 PUSH2 0x9B7 JUMP JUMPDEST DUP3 MSTORE POP POP JUMP JUMPDEST PUSH1 0x0 PUSH1 0x20 DUP3 ADD SWAP1 POP PUSH2 0x9E8 PUSH1 0x0 DUP4 ADD DUP5 PUSH2 0x9C4 JUMP JUMPDEST SWAP3 SWAP2 POP POP JUMP JUMPDEST PUSH1 0x0 DUP2 PUSH1 0x1 SIGNEXTEND SWAP1 POP SWAP2 SWAP1 POP JUMP JUMPDEST PUSH2 0xA04 DUP2 PUSH2 0x9EE JUMP JUMPDEST DUP3 MSTORE POP POP JUMP JUMPDEST PUSH1 0x0 PUSH1 0x20 DUP3 ADD SWAP1 POP PUSH2 0xA1F PUSH1 0x0 DUP4 ADD DUP5 PUSH2 0x9FB JUMP JUMPDEST SWAP3 SWAP2 POP POP JUMP JUMPDEST PUSH1 0x0 DUP2 PUSH1 0x7 SIGNEXTEND SWAP1 POP SWAP2 SWAP1 POP JUMP JUMPDEST PUSH2 0xA3B DUP2 PUSH2 0xA25 JUMP JUMPDEST DUP3 MSTORE POP POP JUMP JUMPDEST PUSH1 0x0 PUSH1 0x20 DUP3 ADD SWAP1 POP PUSH2 0xA56 PUSH1 0x0 DUP4 ADD DUP5 PUSH2 0xA32 JUMP JUMPDEST SWAP3 SWAP2 POP POP JUMP JUMPDEST PUSH1 0x0 PUSH16 0xFFFFFFFFFFFFFFFFFFFFFFFFFFFFFFFF DUP3 AND SWAP1 POP SWAP2 SWAP1 POP JUMP JUMPDEST PUSH2 0xA81 DUP2 PUSH2 0xA5C JUMP JUMPDEST DUP3 MSTORE POP POP JUMP JUMPDEST PUSH1 0x0 PUSH1 0x20 DUP3 ADD SWAP1 POP PUSH2 0xA9C PUSH1 0x0 DUP4 ADD DUP5 PUSH2 0xA78 JUMP JUMPDEST SWAP3 SWAP2 POP POP JUMP INVALID LOG2 PUSH5 0x6970667358 0x22 SLT KECCAK256 EXP 0x22 0xCE STATICCALL 0xB3 0xC2 0x1F SWAP2 NUMBER 0xB1 PUSH10 0x84C0A76A421324421B PUSH30 0x7A9D6BA95D06E5EF81ED64736F6C63430008120033000000000000000000 "
		},
		"gasEstimates": {
			"creation": {
				"codeDepositCost": "555200",
				"executionCost": "450777",
				"totalCost": "1005977"
			},
			"external": {
				"int128Var()": "2658",
				"int16Var()": "2614",
				"int256Var()": "2519",
				"int32Var()": "2615",
				"int64Var()": "2658",
				"int8Var()": "2517",
				"maxInt128()": "2563",
				"maxInt16()": "2496",
				"maxInt256()": "2475",
				"maxInt32()": "2519",
				"maxInt64()": "2475",
				"maxInt8()": "2541",
				"maxUint()": "2542",
				"maxUint128()": "2496",
				"maxUint16()": "2541",
				"maxUint256()": "2540",
				"maxUint32()": "2498",
				"maxUint64()": "2497",
				"maxUint8()": "2497",
				"minInt128()": "2473",
				"minInt16()": "2540",
				"minInt256()": "2474",
				"minInt32()": "2475",
				"minInt64()": "2497",
				"minInt8()": "2474",
				"minUint128()": "2495",
				"minUint16()": "2539",
				"minUint256()": "2518",
				"minUint32()": "2562",
				"minUint64()": "2520",
				"minUint8()": "2496",
				"uint128Var()": "2609",
				"uint16Var()": "2610",
				"uint256Var()": "2561",
				"uint32Var()": "2632",
				"uint64Var()": "2568",
				"uint8Var()": "2583"
			}
		},
		"methodIdentifiers": {
			"int128Var()": "bdc18c4c",
			"int16Var()": "d451e120",
			"int256Var()": "9a574632",
			"int32Var()": "6fa025fa",
			"int64Var()": "ddd14c89",
			"int8Var()": "beaf6db8",
			"maxInt128()": "55677467",
			"maxInt16()": "a7df2feb",
			"maxInt256()": "93b027b4",
			"maxInt32()": "3550fb04",
			"maxInt64()": "1d87d574",
			"maxInt8()": "3814c856",
			"maxUint()": "16a0c5b5",
			"maxUint128()": "cf8bd4ba",
			"maxUint16()": "719e9613",
			"maxUint256()": "b9330829",
			"maxUint32()": "12d69389",
			"maxUint64()": "6ebe7f5b",
			"maxUint8()": "24d02974",
			"minInt128()": "ded7bf2e",
			"minInt16()": "dbce5e68",
			"minInt256()": "7c1bd7c8",
			"minInt32()": "5d0fa032",
			"minInt64()": "94827955",
			"minInt8()": "a631eb62",
			"minUint128()": "e267157b",
			"minUint16()": "f260cd4c",
			"minUint256()": "86e233f3",
			"minUint32()": "91312246",
			"minUint64()": "155f2f85",
			"minUint8()": "85d350f1",
			"uint128Var()": "e74beb79",
			"uint16Var()": "b1ec7ca6",
			"uint256Var()": "f614eb31",
			"uint32Var()": "8c5a007b",
			"uint64Var()": "11f6a807",
			"uint8Var()": "a02d51f7"
		}
	},
	"abi": [
		{
			"inputs": [],
			"name": "int128Var",
			"outputs": [
				{
					"internalType": "int128",
					"name": "",
					"type": "int128"
				}
			],
			"stateMutability": "view",
			"type": "function"
		},
		{
			"inputs": [],
			"name": "int16Var",
			"outputs": [
				{
					"internalType": "int16",
					"name": "",
					"type": "int16"
				}
			],
			"stateMutability": "view",
			"type": "function"
		},
		{
			"inputs": [],
			"name": "int256Var",
			"outputs": [
				{
					"internalType": "int256",
					"name": "",
					"type": "int256"
				}
			],
			"stateMutability": "view",
			"type": "function"
		},
		{
			"inputs": [],
			"name": "int32Var",
			"outputs": [
				{
					"internalType": "int32",
					"name": "",
					"type": "int32"
				}
			],
			"stateMutability": "view",
			"type": "function"
		},
		{
			"inputs": [],
			"name": "int64Var",
			"outputs": [
				{
					"internalType": "int64",
					"name": "",
					"type": "int64"
				}
			],
			"stateMutability": "view",
			"type": "function"
		},
		{
			"inputs": [],
			"name": "int8Var",
			"outputs": [
				{
					"internalType": "int8",
					"name": "",
					"type": "int8"
				}
			],
			"stateMutability": "view",
			"type": "function"
		},
		{
			"inputs": [],
			"name": "maxInt128",
			"outputs": [
				{
					"internalType": "int256",
					"name": "",
					"type": "int256"
				}
			],
			"stateMutability": "view",
			"type": "function"
		},
		{
			"inputs": [],
			"name": "maxInt16",
			"outputs": [
				{
					"internalType": "int256",
					"name": "",
					"type": "int256"
				}
			],
			"stateMutability": "view",
			"type": "function"
		},
		{
			"inputs": [],
			"name": "maxInt256",
			"outputs": [
				{
					"internalType": "int256",
					"name": "",
					"type": "int256"
				}
			],
			"stateMutability": "view",
			"type": "function"
		},
		{
			"inputs": [],
			"name": "maxInt32",
			"outputs": [
				{
					"internalType": "int256",
					"name": "",
					"type": "int256"
				}
			],
			"stateMutability": "view",
			"type": "function"
		},
		{
			"inputs": [],
			"name": "maxInt64",
			"outputs": [
				{
					"internalType": "int256",
					"name": "",
					"type": "int256"
				}
			],
			"stateMutability": "view",
			"type": "function"
		},
		{
			"inputs": [],
			"name": "maxInt8",
			"outputs": [
				{
					"internalType": "int256",
					"name": "",
					"type": "int256"
				}
			],
			"stateMutability": "view",
			"type": "function"
		},
		{
			"inputs": [],
			"name": "maxUint",
			"outputs": [
				{
					"internalType": "uint256",
					"name": "",
					"type": "uint256"
				}
			],
			"stateMutability": "view",
			"type": "function"
		},
		{
			"inputs": [],
			"name": "maxUint128",
			"outputs": [
				{
					"internalType": "uint256",
					"name": "",
					"type": "uint256"
				}
			],
			"stateMutability": "view",
			"type": "function"
		},
		{
			"inputs": [],
			"name": "maxUint16",
			"outputs": [
				{
					"internalType": "uint256",
					"name": "",
					"type": "uint256"
				}
			],
			"stateMutability": "view",
			"type": "function"
		},
		{
			"inputs": [],
			"name": "maxUint256",
			"outputs": [
				{
					"internalType": "uint256",
					"name": "",
					"type": "uint256"
				}
			],
			"stateMutability": "view",
			"type": "function"
		},
		{
			"inputs": [],
			"name": "maxUint32",
			"outputs": [
				{
					"internalType": "uint256",
					"name": "",
					"type": "uint256"
				}
			],
			"stateMutability": "view",
			"type": "function"
		},
		{
			"inputs": [],
			"name": "maxUint64",
			"outputs": [
				{
					"internalType": "uint256",
					"name": "",
					"type": "uint256"
				}
			],
			"stateMutability": "view",
			"type": "function"
		},
		{
			"inputs": [],
			"name": "maxUint8",
			"outputs": [
				{
					"internalType": "uint256",
					"name": "",
					"type": "uint256"
				}
			],
			"stateMutability": "view",
			"type": "function"
		},
		{
			"inputs": [],
			"name": "minInt128",
			"outputs": [
				{
					"internalType": "int256",
					"name": "",
					"type": "int256"
				}
			],
			"stateMutability": "view",
			"type": "function"
		},
		{
			"inputs": [],
			"name": "minInt16",
			"outputs": [
				{
					"internalType": "int256",
					"name": "",
					"type": "int256"
				}
			],
			"stateMutability": "view",
			"type": "function"
		},
		{
			"inputs": [],
			"name": "minInt256",
			"outputs": [
				{
					"internalType": "int256",
					"name": "",
					"type": "int256"
				}
			],
			"stateMutability": "view",
			"type": "function"
		},
		{
			"inputs": [],
			"name": "minInt32",
			"outputs": [
				{
					"internalType": "int256",
					"name": "",
					"type": "int256"
				}
			],
			"stateMutability": "view",
			"type": "function"
		},
		{
			"inputs": [],
			"name": "minInt64",
			"outputs": [
				{
					"internalType": "int256",
					"name": "",
					"type": "int256"
				}
			],
			"stateMutability": "view",
			"type": "function"
		},
		{
			"inputs": [],
			"name": "minInt8",
			"outputs": [
				{
					"internalType": "int256",
					"name": "",
					"type": "int256"
				}
			],
			"stateMutability": "view",
			"type": "function"
		},
		{
			"inputs": [],
			"name": "minUint128",
			"outputs": [
				{
					"internalType": "uint256",
					"name": "",
					"type": "uint256"
				}
			],
			"stateMutability": "view",
			"type": "function"
		},
		{
			"inputs": [],
			"name": "minUint16",
			"outputs": [
				{
					"internalType": "uint256",
					"name": "",
					"type": "uint256"
				}
			],
			"stateMutability": "view",
			"type": "function"
		},
		{
			"inputs": [],
			"name": "minUint256",
			"outputs": [
				{
					"internalType": "uint256",
					"name": "",
					"type": "uint256"
				}
			],
			"stateMutability": "view",
			"type": "function"
		},
		{
			"inputs": [],
			"name": "minUint32",
			"outputs": [
				{
					"internalType": "uint256",
					"name": "",
					"type": "uint256"
				}
			],
			"stateMutability": "view",
			"type": "function"
		},
		{
			"inputs": [],
			"name": "minUint64",
			"outputs": [
				{
					"internalType": "uint256",
					"name": "",
					"type": "uint256"
				}
			],
			"stateMutability": "view",
			"type": "function"
		},
		{
			"inputs": [],
			"name": "minUint8",
			"outputs": [
				{
					"internalType": "uint256",
					"name": "",
					"type": "uint256"
				}
			],
			"stateMutability": "view",
			"type": "function"
		},
		{
			"inputs": [],
			"name": "uint128Var",
			"outputs": [
				{
					"internalType": "uint128",
					"name": "",
					"type": "uint128"
				}
			],
			"stateMutability": "view",
			"type": "function"
		},
		{
			"inputs": [],
			"name": "uint16Var",
			"outputs": [
				{
					"internalType": "uint16",
					"name": "",
					"type": "uint16"
				}
			],
			"stateMutability": "view",
			"type": "function"
		},
		{
			"inputs": [],
			"name": "uint256Var",
			"outputs": [
				{
					"internalType": "uint256",
					"name": "",
					"type": "uint256"
				}
			],
			"stateMutability": "view",
			"type": "function"
		},
		{
			"inputs": [],
			"name": "uint32Var",
			"outputs": [
				{
					"internalType": "uint32",
					"name": "",
					"type": "uint32"
				}
			],
			"stateMutability": "view",
			"type": "function"
		},
		{
			"inputs": [],
			"name": "uint64Var",
			"outputs": [
				{
					"internalType": "uint64",
					"name": "",
					"type": "uint64"
				}
			],
			"stateMutability": "view",
			"type": "function"
		},
		{
			"inputs": [],
			"name": "uint8Var",
			"outputs": [
				{
					"internalType": "uint8",
					"name": "",
					"type": "uint8"
				}
			],
			"stateMutability": "view",
			"type": "function"
		}
	]
}