{
	"data": {
		"bytecode": {
			"linkReferences": {},
			"object": "608060405234801561001057600080fd5b50610526806100206000396000f3fe608060405234801561001057600080fd5b50600436106100365760003560e01c8063656354a31461003b578063733d3fba1461006b575b600080fd5b61005560048036038101906100509190610339565b61009c565b60405161006291906103f6565b60405180910390f35b61008560048036038101906100809190610450565b61014e565b604051610093929190610490565b60405180910390f35b60606101008210156100e5576040518060400160405280600f81526020017f73746f72656420696e2075696e743800000000000000000000000000000000008152509050610149565b6201000082101561012d576040518060400160405280601081526020017f73746f72656420696e2075696e743136000000000000000000000000000000008152509050610149565b6040518060600160405280602981526020016104c86029913990505b919050565b606080600a841061024457603284116101d2576040518060400160405280600981526020017f6164756c745f66656500000000000000000000000000000000000000000000008152506040518060400160405280600681526020017f6e6f47696674000000000000000000000000000000000000000000000000000081525061023f565b6040518060400160405280600981526020017f6f6c6441676546656500000000000000000000000000000000000000000000008152506040518060400160405280600d81526020017f243530466f6f64566f63686572000000000000000000000000000000000000008152505b6102f3565b82610284576040518060400160405280600781526020017f626179626c6164000000000000000000000000000000000000000000000000008152506102bb565b6040518060400160405280600981526020017f6261726269446f6c6c00000000000000000000000000000000000000000000008152505b6040518060400160405280600981526020017f6368696c64206665650000000000000000000000000000000000000000000000815250905b915091509250929050565b600080fd5b6000819050919050565b61031681610303565b811461032157600080fd5b50565b6000813590506103338161030d565b92915050565b60006020828403121561034f5761034e6102fe565b5b600061035d84828501610324565b91505092915050565b600081519050919050565b600082825260208201905092915050565b60005b838110156103a0578082015181840152602081019050610385565b60008484015250505050565b6000601f19601f8301169050919050565b60006103c882610366565b6103d28185610371565b93506103e2818560208601610382565b6103eb816103ac565b840191505092915050565b6000602082019050818103600083015261041081846103bd565b905092915050565b60008115159050919050565b61042d81610418565b811461043857600080fd5b50565b60008135905061044a81610424565b92915050565b60008060408385031215610467576104666102fe565b5b600061047585828601610324565b92505060206104868582860161043b565b9150509250929050565b600060408201905081810360008301526104aa81856103bd565b905081810360208301526104be81846103bd565b9050939250505056fe76616c75652063616e6e6f742062652073746f72656420696e2075696e7438206f722075696e743136a2646970667358221220dcfe97e5b68dcec84c7f1c9ce0fb862b7943bfb432be387d4971cb4c54de798064736f6c63430008120033",
			"opcodes": "PUSH1 0x80 PUSH1 0x40 MSTORE CALLVALUE DUP1 ISZERO PUSH2 0x10 JUMPI PUSH1 0x0 DUP1 REVERT JUMPDEST POP PUSH2 0x526 DUP1 PUSH2 0x20 PUSH1 0x0 CODECOPY PUSH1 0x0 RETURN INVALID PUSH1 0x80 PUSH1 0x40 MSTORE CALLVALUE DUP1 ISZERO PUSH2 0x10 JUMPI PUSH1 0x0 DUP1 REVERT JUMPDEST POP PUSH1 0x4 CALLDATASIZE LT PUSH2 0x36 JUMPI PUSH1 0x0 CALLDATALOAD PUSH1 0xE0 SHR DUP1 PUSH4 0x656354A3 EQ PUSH2 0x3B JUMPI DUP1 PUSH4 0x733D3FBA EQ PUSH2 0x6B JUMPI JUMPDEST PUSH1 0x0 DUP1 REVERT JUMPDEST PUSH2 0x55 PUSH1 0x4 DUP1 CALLDATASIZE SUB DUP2 ADD SWAP1 PUSH2 0x50 SWAP2 SWAP1 PUSH2 0x339 JUMP JUMPDEST PUSH2 0x9C JUMP JUMPDEST PUSH1 0x40 MLOAD PUSH2 0x62 SWAP2 SWAP1 PUSH2 0x3F6 JUMP JUMPDEST PUSH1 0x40 MLOAD DUP1 SWAP2 SUB SWAP1 RETURN JUMPDEST PUSH2 0x85 PUSH1 0x4 DUP1 CALLDATASIZE SUB DUP2 ADD SWAP1 PUSH2 0x80 SWAP2 SWAP1 PUSH2 0x450 JUMP JUMPDEST PUSH2 0x14E JUMP JUMPDEST PUSH1 0x40 MLOAD PUSH2 0x93 SWAP3 SWAP2 SWAP1 PUSH2 0x490 JUMP JUMPDEST PUSH1 0x40 MLOAD DUP1 SWAP2 SUB SWAP1 RETURN JUMPDEST PUSH1 0x60 PUSH2 0x100 DUP3 LT ISZERO PUSH2 0xE5 JUMPI PUSH1 0x40 MLOAD DUP1 PUSH1 0x40 ADD PUSH1 0x40 MSTORE DUP1 PUSH1 0xF DUP2 MSTORE PUSH1 0x20 ADD PUSH32 0x73746F72656420696E2075696E74380000000000000000000000000000000000 DUP2 MSTORE POP SWAP1 POP PUSH2 0x149 JUMP JUMPDEST PUSH3 0x10000 DUP3 LT ISZERO PUSH2 0x12D JUMPI PUSH1 0x40 MLOAD DUP1 PUSH1 0x40 ADD PUSH1 0x40 MSTORE DUP1 PUSH1 0x10 DUP2 MSTORE PUSH1 0x20 ADD PUSH32 0x73746F72656420696E2075696E74313600000000000000000000000000000000 DUP2 MSTORE POP SWAP1 POP PUSH2 0x149 JUMP JUMPDEST PUSH1 0x40 MLOAD DUP1 PUSH1 0x60 ADD PUSH1 0x40 MSTORE DUP1 PUSH1 0x29 DUP2 MSTORE PUSH1 0x20 ADD PUSH2 0x4C8 PUSH1 0x29 SWAP2 CODECOPY SWAP1 POP JUMPDEST SWAP2 SWAP1 POP JUMP JUMPDEST PUSH1 0x60 DUP1 PUSH1 0xA DUP5 LT PUSH2 0x244 JUMPI PUSH1 0x32 DUP5 GT PUSH2 0x1D2 JUMPI PUSH1 0x40 MLOAD DUP1 PUSH1 0x40 ADD PUSH1 0x40 MSTORE DUP1 PUSH1 0x9 DUP2 MSTORE PUSH1 0x20 ADD PUSH32 0x6164756C745F6665650000000000000000000000000000000000000000000000 DUP2 MSTORE POP PUSH1 0x40 MLOAD DUP1 PUSH1 0x40 ADD PUSH1 0x40 MSTORE DUP1 PUSH1 0x6 DUP2 MSTORE PUSH1 0x20 ADD PUSH32 0x6E6F476966740000000000000000000000000000000000000000000000000000 DUP2 MSTORE POP PUSH2 0x23F JUMP JUMPDEST PUSH1 0x40 MLOAD DUP1 PUSH1 0x40 ADD PUSH1 0x40 MSTORE DUP1 PUSH1 0x9 DUP2 MSTORE PUSH1 0x20 ADD PUSH32 0x6F6C644167654665650000000000000000000000000000000000000000000000 DUP2 MSTORE POP PUSH1 0x40 MLOAD DUP1 PUSH1 0x40 ADD PUSH1 0x40 MSTORE DUP1 PUSH1 0xD DUP2 MSTORE PUSH1 0x20 ADD PUSH32 0x243530466F6F64566F6368657200000000000000000000000000000000000000 DUP2 MSTORE POP JUMPDEST PUSH2 0x2F3 JUMP JUMPDEST DUP3 PUSH2 0x284 JUMPI PUSH1 0x40 MLOAD DUP1 PUSH1 0x40 ADD PUSH1 0x40 MSTORE DUP1 PUSH1 0x7 DUP2 MSTORE PUSH1 0x20 ADD PUSH32 0x626179626C616400000000000000000000000000000000000000000000000000 DUP2 MSTORE POP PUSH2 0x2BB JUMP JUMPDEST PUSH1 0x40 MLOAD DUP1 PUSH1 0x40 ADD PUSH1 0x40 MSTORE DUP1 PUSH1 0x9 DUP2 MSTORE PUSH1 0x20 ADD PUSH32 0x6261726269446F6C6C0000000000000000000000000000000000000000000000 DUP2 MSTORE POP JUMPDEST PUSH1 0x40 MLOAD DUP1 PUSH1 0x40 ADD PUSH1 0x40 MSTORE DUP1 PUSH1 0x9 DUP2 MSTORE PUSH1 0x20 ADD PUSH32 0x6368696C64206665650000000000000000000000000000000000000000000000 DUP2 MSTORE POP SWAP1 JUMPDEST SWAP2 POP SWAP2 POP SWAP3 POP SWAP3 SWAP1 POP JUMP JUMPDEST PUSH1 0x0 DUP1 REVERT JUMPDEST PUSH1 0x0 DUP2 SWAP1 POP SWAP2 SWAP1 POP JUMP JUMPDEST PUSH2 0x316 DUP2 PUSH2 0x303 JUMP JUMPDEST DUP2 EQ PUSH2 0x321 JUMPI PUSH1 0x0 DUP1 REVERT JUMPDEST POP JUMP JUMPDEST PUSH1 0x0 DUP2 CALLDATALOAD SWAP1 POP PUSH2 0x333 DUP2 PUSH2 0x30D JUMP JUMPDEST SWAP3 SWAP2 POP POP JUMP JUMPDEST PUSH1 0x0 PUSH1 0x20 DUP3 DUP5 SUB SLT ISZERO PUSH2 0x34F JUMPI PUSH2 0x34E PUSH2 0x2FE JUMP JUMPDEST JUMPDEST PUSH1 0x0 PUSH2 0x35D DUP5 DUP3 DUP6 ADD PUSH2 0x324 JUMP JUMPDEST SWAP2 POP POP SWAP3 SWAP2 POP POP JUMP JUMPDEST PUSH1 0x0 DUP2 MLOAD SWAP1 POP SWAP2 SWAP1 POP JUMP JUMPDEST PUSH1 0x0 DUP3 DUP3 MSTORE PUSH1 0x20 DUP3 ADD SWAP1 POP SWAP3 SWAP2 POP POP JUMP JUMPDEST PUSH1 0x0 JUMPDEST DUP4 DUP2 LT ISZERO PUSH2 0x3A0 JUMPI DUP1 DUP3 ADD MLOAD DUP2 DUP5 ADD MSTORE PUSH1 0x20 DUP2 ADD SWAP1 POP PUSH2 0x385 JUMP JUMPDEST PUSH1 0x0 DUP5 DUP5 ADD MSTORE POP POP POP POP JUMP JUMPDEST PUSH1 0x0 PUSH1 0x1F NOT PUSH1 0x1F DUP4 ADD AND SWAP1 POP SWAP2 SWAP1 POP JUMP JUMPDEST PUSH1 0x0 PUSH2 0x3C8 DUP3 PUSH2 0x366 JUMP JUMPDEST PUSH2 0x3D2 DUP2 DUP6 PUSH2 0x371 JUMP JUMPDEST SWAP4 POP PUSH2 0x3E2 DUP2 DUP6 PUSH1 0x20 DUP7 ADD PUSH2 0x382 JUMP JUMPDEST PUSH2 0x3EB DUP2 PUSH2 0x3AC JUMP JUMPDEST DUP5 ADD SWAP2 POP POP SWAP3 SWAP2 POP POP JUMP JUMPDEST PUSH1 0x0 PUSH1 0x20 DUP3 ADD SWAP1 POP DUP2 DUP2 SUB PUSH1 0x0 DUP4 ADD MSTORE PUSH2 0x410 DUP2 DUP5 PUSH2 0x3BD JUMP JUMPDEST SWAP1 POP SWAP3 SWAP2 POP POP JUMP JUMPDEST PUSH1 0x0 DUP2 ISZERO ISZERO SWAP1 POP SWAP2 SWAP1 POP JUMP JUMPDEST PUSH2 0x42D DUP2 PUSH2 0x418 JUMP JUMPDEST DUP2 EQ PUSH2 0x438 JUMPI PUSH1 0x0 DUP1 REVERT JUMPDEST POP JUMP JUMPDEST PUSH1 0x0 DUP2 CALLDATALOAD SWAP1 POP PUSH2 0x44A DUP2 PUSH2 0x424 JUMP JUMPDEST SWAP3 SWAP2 POP POP JUMP JUMPDEST PUSH1 0x0 DUP1 PUSH1 0x40 DUP4 DUP6 SUB SLT ISZERO PUSH2 0x467 JUMPI PUSH2 0x466 PUSH2 0x2FE JUMP JUMPDEST JUMPDEST PUSH1 0x0 PUSH2 0x475 DUP6 DUP3 DUP7 ADD PUSH2 0x324 JUMP JUMPDEST SWAP3 POP POP PUSH1 0x20 PUSH2 0x486 DUP6 DUP3 DUP7 ADD PUSH2 0x43B JUMP JUMPDEST SWAP2 POP POP SWAP3 POP SWAP3 SWAP1 POP JUMP JUMPDEST PUSH1 0x0 PUSH1 0x40 DUP3 ADD SWAP1 POP DUP2 DUP2 SUB PUSH1 0x0 DUP4 ADD MSTORE PUSH2 0x4AA DUP2 DUP6 PUSH2 0x3BD JUMP JUMPDEST SWAP1 POP DUP2 DUP2 SUB PUSH1 0x20 DUP4 ADD MSTORE PUSH2 0x4BE DUP2 DUP5 PUSH2 0x3BD JUMP JUMPDEST SWAP1 POP SWAP4 SWAP3 POP POP POP JUMP INVALID PUSH23 0x616C75652063616E6E6F742062652073746F7265642069 PUSH15 0x2075696E7438206F722075696E7431 CALLDATASIZE LOG2 PUSH5 0x6970667358 0x22 SLT KECCAK256 0xDC INVALID SWAP8 0xE5 0xB6 DUP14 0xCE 0xC8 0x4C PUSH32 0x1C9CE0FB862B7943BFB432BE387D4971CB4C54DE798064736F6C634300081200 CALLER "
		},
		"gasEstimates": {
			"creation": {
				"codeDepositCost": "263600",
				"executionCost": "306",
				"totalCost": "263906"
			},
			"external": {
				"returnfee(uint256,bool)": "infinite",
				"returnifelse(uint256)": "infinite"
			}
		},
		"methodIdentifiers": {
			"returnfee(uint256,bool)": "733d3fba",
			"returnifelse(uint256)": "656354a3"
		}
	},
	"abi": [
		{
			"inputs": [
				{
					"internalType": "uint256",
					"name": "age",
					"type": "uint256"
				},
				{
					"internalType": "bool",
					"name": "isGirl",
					"type": "bool"
				}
			],
			"name": "returnfee",
			"outputs": [
				{
					"internalType": "string",
					"name": "",
					"type": "string"
				},
				{
					"internalType": "string",
					"name": "",
					"type": "string"
				}
			],
			"stateMutability": "pure",
			"type": "function"
		},
		{
			"inputs": [
				{
					"internalType": "uint256",
					"name": "u2",
					"type": "uint256"
				}
			],
			"name": "returnifelse",
			"outputs": [
				{
					"internalType": "string",
					"name": "",
					"type": "string"
				}
			],
			"stateMutability": "pure",
			"type": "function"
		}
	]
}